{
  "contractName": "AddressHashMap",
  "abi": [
    {
      "constant": true,
      "inputs": [],
      "name": "owner",
      "outputs": [
        {
          "name": "",
          "type": "address"
        }
      ],
      "payable": false,
      "stateMutability": "view",
      "type": "function"
    },
    {
      "constant": false,
      "inputs": [
        {
          "name": "newOwner",
          "type": "address"
        }
      ],
      "name": "transferOwnership",
      "outputs": [],
      "payable": false,
      "stateMutability": "nonpayable",
      "type": "function"
    },
    {
      "inputs": [],
      "payable": false,
      "stateMutability": "nonpayable",
      "type": "constructor"
    },
    {
      "anonymous": false,
      "inputs": [
        {
          "indexed": true,
          "name": "previousOwner",
          "type": "address"
        },
        {
          "indexed": true,
          "name": "newOwner",
          "type": "address"
        }
      ],
      "name": "OwnershipTransferred",
      "type": "event"
    },
    {
      "constant": false,
      "inputs": [
        {
          "name": "_key",
          "type": "bytes32"
        },
        {
          "name": "_value",
          "type": "address"
        }
      ],
      "name": "write",
      "outputs": [],
      "payable": false,
      "stateMutability": "nonpayable",
      "type": "function"
    },
    {
      "constant": true,
      "inputs": [
        {
          "name": "_key",
          "type": "bytes32"
        }
      ],
      "name": "read",
      "outputs": [
        {
          "name": "",
          "type": "address"
        }
      ],
      "payable": false,
      "stateMutability": "view",
      "type": "function"
    }
  ],
  "bytecode": "0x608060405234801561001057600080fd5b5060008054600160a060020a033316600160a060020a0319918216811790911617905561023a806100426000396000f3006080604052600436106100615763ffffffff7c010000000000000000000000000000000000000000000000000000000060003504166361da14398114610066578063853eadce1461009a5780638da5cb5b146100c0578063f2fde38b146100d5575b600080fd5b34801561007257600080fd5b5061007e6004356100f6565b60408051600160a060020a039092168252519081900360200190f35b3480156100a657600080fd5b506100be600435600160a060020a0360243516610111565b005b3480156100cc57600080fd5b5061007e610167565b3480156100e157600080fd5b506100be600160a060020a0360043516610176565b600090815260016020526040902054600160a060020a031690565b60005433600160a060020a0390811691161461012c57600080fd5b600091825260016020526040909120805473ffffffffffffffffffffffffffffffffffffffff1916600160a060020a03909216919091179055565b600054600160a060020a031681565b60005433600160a060020a0390811691161461019157600080fd5b600160a060020a03811615156101a657600080fd5b60008054604051600160a060020a03808516939216917f8be0079c531659141344cd1fd0a4f28419497f9722a3daafe3b4186f6b6457e091a36000805473ffffffffffffffffffffffffffffffffffffffff1916600160a060020a03929092169190911790555600a165627a7a72305820b1978f92f8830b7e17813a1a44a8dba7fab092484997583dc245d26ad9e3abdb0029",
  "source": "pragma solidity ^0.4.23;\n\n\nimport \"zeppelin-solidity/contracts/ownership/Ownable.sol\";\n\n\ncontract AddressHashMap is Ownable {\n    mapping(bytes32 => address) map;\n    constructor(){\n        owner = msg.sender;\n    }\n\n    function write(bytes32 _key, address _value) public onlyOwner {\n        map[_key] = _value;\n    }\n\n    function read(bytes32 _key) public view returns (address){\n        return map[_key];\n    }\n}\n",
  "sourcePath": "/Users/anton/go/src/github.com/sonm-io/core/blockchain/source/contracts/AddressHashMap.sol",
  "compiler": {
    "name": "solc",
    "version": "0.4.23+commit.124ca40d.Emscripten.clang"
  },
  "schemaVersion": "2.0.0",
  "updatedAt": "2018-06-20T18:02:33.245Z"
}