{
  "contractName": "Blacklist",
  "abi": [
    {
      "constant": true,
      "inputs": [],
      "name": "market",
      "outputs": [
        {
          "name": "",
          "type": "address"
        }
      ],
      "payable": false,
      "stateMutability": "view",
      "type": "function"
    },
    {
      "constant": true,
      "inputs": [],
      "name": "owner",
      "outputs": [
        {
          "name": "",
          "type": "address"
        }
      ],
      "payable": false,
      "stateMutability": "view",
      "type": "function"
    },
    {
      "constant": false,
      "inputs": [
        {
          "name": "newOwner",
          "type": "address"
        }
      ],
      "name": "transferOwnership",
      "outputs": [],
      "payable": false,
      "stateMutability": "nonpayable",
      "type": "function"
    },
    {
      "inputs": [],
      "payable": false,
      "stateMutability": "nonpayable",
      "type": "constructor"
    },
    {
      "anonymous": false,
      "inputs": [
        {
          "indexed": true,
          "name": "adder",
          "type": "address"
        },
        {
          "indexed": true,
          "name": "addee",
          "type": "address"
        }
      ],
      "name": "AddedToBlacklist",
      "type": "event"
    },
    {
      "anonymous": false,
      "inputs": [
        {
          "indexed": true,
          "name": "remover",
          "type": "address"
        },
        {
          "indexed": true,
          "name": "removee",
          "type": "address"
        }
      ],
      "name": "RemovedFromBlacklist",
      "type": "event"
    },
    {
      "anonymous": false,
      "inputs": [
        {
          "indexed": true,
          "name": "previousOwner",
          "type": "address"
        },
        {
          "indexed": true,
          "name": "newOwner",
          "type": "address"
        }
      ],
      "name": "OwnershipTransferred",
      "type": "event"
    },
    {
      "constant": true,
      "inputs": [
        {
          "name": "_who",
          "type": "address"
        },
        {
          "name": "_whom",
          "type": "address"
        }
      ],
      "name": "Check",
      "outputs": [
        {
          "name": "",
          "type": "bool"
        }
      ],
      "payable": false,
      "stateMutability": "view",
      "type": "function"
    },
    {
      "constant": false,
      "inputs": [
        {
          "name": "_who",
          "type": "address"
        },
        {
          "name": "_whom",
          "type": "address"
        }
      ],
      "name": "Add",
      "outputs": [
        {
          "name": "",
          "type": "bool"
        }
      ],
      "payable": false,
      "stateMutability": "nonpayable",
      "type": "function"
    },
    {
      "constant": false,
      "inputs": [
        {
          "name": "_whom",
          "type": "address"
        }
      ],
      "name": "Remove",
      "outputs": [
        {
          "name": "",
          "type": "bool"
        }
      ],
      "payable": false,
      "stateMutability": "nonpayable",
      "type": "function"
    },
    {
      "constant": false,
      "inputs": [
        {
          "name": "_root",
          "type": "address"
        }
      ],
      "name": "AddMaster",
      "outputs": [
        {
          "name": "",
          "type": "bool"
        }
      ],
      "payable": false,
      "stateMutability": "nonpayable",
      "type": "function"
    },
    {
      "constant": false,
      "inputs": [
        {
          "name": "_root",
          "type": "address"
        }
      ],
      "name": "RemoveMaster",
      "outputs": [
        {
          "name": "",
          "type": "bool"
        }
      ],
      "payable": false,
      "stateMutability": "nonpayable",
      "type": "function"
    },
    {
      "constant": false,
      "inputs": [
        {
          "name": "_market",
          "type": "address"
        }
      ],
      "name": "SetMarketAddress",
      "outputs": [
        {
          "name": "",
          "type": "bool"
        }
      ],
      "payable": false,
      "stateMutability": "nonpayable",
      "type": "function"
    }
  ],
  "bytecode": "0x608060405260038054600160a060020a031916905534801561002057600080fd5b5060008054600160a060020a033316600160a060020a03199182168117909116179055610576806100526000396000f3006080604052600436106100985763ffffffff7c0100000000000000000000000000000000000000000000000000000000600035041663473b736f811461009d578063584720f5146100d857806377d58a15146100f957806380f556051461011a5780638a1051f81461014b5780638da5cb5b1461016c578063968f600c14610181578063be7c7ac3146101a8578063f2fde38b146101c9575b600080fd5b3480156100a957600080fd5b506100c4600160a060020a03600435811690602435166101ec565b604080519115158252519081900360200190f35b3480156100e457600080fd5b506100c4600160a060020a03600435166102a9565b34801561010557600080fd5b506100c4600160a060020a0360043516610314565b34801561012657600080fd5b5061012f610362565b60408051600160a060020a039092168252519081900360200190f35b34801561015757600080fd5b506100c4600160a060020a0360043516610371565b34801561017857600080fd5b5061012f6103dc565b34801561018d57600080fd5b506100c4600160a060020a03600435811690602435166103eb565b3480156101b457600080fd5b506100c4600160a060020a0360043516610419565b3480156101d557600080fd5b506101ea600160a060020a03600435166104b2565b005b600354600090600160a060020a0316151561020657600080fd5b60035433600160a060020a039081169116148061023b5750600160a060020a03331660009081526002602052604090205460ff165b151561024657600080fd5b600160a060020a03808416600081815260016020818152604080842095881680855295909152808320805460ff1916909217909155517f708802ac7da0a63d9f6b2df693b53345ad263e42d74c245110e1ec1e03a1567e9190a350600192915050565b6000805433600160a060020a039081169116146102c557600080fd5b600160a060020a03821660009081526002602052604090205460ff1615156001146102ef57600080fd5b50600160a060020a03166000908152600260205260409020805460ff19169055600190565b6000805433600160a060020a0390811691161461033057600080fd5b5060038054600160a060020a03831673ffffffffffffffffffffffffffffffffffffffff199091161790556001919050565b600354600160a060020a031681565b6000805433600160a060020a0390811691161461038d57600080fd5b600160a060020a03821660009081526002602052604090205460ff16156103b357600080fd5b50600160a060020a03166000908152600260205260409020805460ff1916600190811790915590565b600054600160a060020a031681565b600160a060020a03918216600090815260016020908152604080832093909416825291909152205460ff1690565b600160a060020a033381166000908152600160208181526040808420948616845293905291812054909160ff90911615151461045457600080fd5b600160a060020a03338116600081815260016020908152604080832094871680845294909152808220805460ff19169055517f576a9aef294e1b4baf3617fde4cbc80ba5344d5eb508222f29e558981704a4579190a3506001919050565b60005433600160a060020a039081169116146104cd57600080fd5b600160a060020a03811615156104e257600080fd5b60008054604051600160a060020a03808516939216917f8be0079c531659141344cd1fd0a4f28419497f9722a3daafe3b4186f6b6457e091a36000805473ffffffffffffffffffffffffffffffffffffffff1916600160a060020a03929092169190911790555600a165627a7a72305820cb213c0a5f7641e367c5e56e0176466529e09e4ac59019fa73f2156133e3493f0029",
  "source": "pragma solidity ^0.4.23;\n\n\nimport \"zeppelin-solidity/contracts/ownership/Ownable.sol\";\n\n\ncontract Blacklist is Ownable {\n\n    modifier OnlyMarket() {\n        require(market != 0x0);\n        require(msg.sender == market || master[msg.sender]);\n        _;\n    }\n\n    event AddedToBlacklist(address indexed adder, address indexed addee);\n\n    event RemovedFromBlacklist(address indexed remover, address indexed removee);\n\n    mapping(address => mapping(address => bool)) blacklisted;\n\n    mapping(address => bool) master;\n\n    address public market = 0x0;\n\n    constructor() public {\n        owner = msg.sender;\n    }\n\n    function Check(address _who, address _whom) public view returns (bool) {\n        return blacklisted[_who][_whom];\n    }\n\n    function Add(address _who, address _whom) external OnlyMarket returns (bool) {\n        blacklisted[_who][_whom] = true;\n        emit AddedToBlacklist(_who, _whom);\n        return true;\n    }\n\n    function Remove(address _whom) public returns (bool) {\n        require(blacklisted[msg.sender][_whom] == true);\n        blacklisted[msg.sender][_whom] = false;\n        emit RemovedFromBlacklist(msg.sender, _whom);\n        return true;\n    }\n\n    function AddMaster(address _root) onlyOwner public returns (bool) {\n        require(master[_root] == false);\n        master[_root] = true;\n        return true;\n    }\n\n    function RemoveMaster(address _root) onlyOwner public returns (bool) {\n        require(master[_root] == true);\n        master[_root] = false;\n        return true;\n    }\n\n    function SetMarketAddress(address _market) onlyOwner public returns (bool) {\n        market = _market;\n        return true;\n    }\n}\n",
  "sourcePath": "/Users/anton/go/src/github.com/sonm-io/core/blockchain/source/contracts/Blacklist.sol",
  "compiler": {
    "name": "solc",
    "version": "0.4.23+commit.124ca40d.Emscripten.clang"
  },
  "schemaVersion": "2.0.0",
  "updatedAt": "2018-06-20T18:15:25.266Z"
}