{
  "contractName": "DeployList",
  "abi": [
    {
      "constant": true,
      "inputs": [],
      "name": "owner",
      "outputs": [
        {
          "name": "",
          "type": "address"
        }
      ],
      "payable": false,
      "stateMutability": "view",
      "type": "function"
    },
    {
      "constant": false,
      "inputs": [
        {
          "name": "newOwner",
          "type": "address"
        }
      ],
      "name": "transferOwnership",
      "outputs": [],
      "payable": false,
      "stateMutability": "nonpayable",
      "type": "function"
    },
    {
      "inputs": [
        {
          "name": "_deployers",
          "type": "address[]"
        }
      ],
      "payable": false,
      "stateMutability": "nonpayable",
      "type": "constructor"
    },
    {
      "anonymous": false,
      "inputs": [
        {
          "indexed": false,
          "name": "deployer",
          "type": "address"
        }
      ],
      "name": "DeployerAdded",
      "type": "event"
    },
    {
      "anonymous": false,
      "inputs": [
        {
          "indexed": false,
          "name": "deployer",
          "type": "address"
        }
      ],
      "name": "DeployerRemoved",
      "type": "event"
    },
    {
      "anonymous": false,
      "inputs": [
        {
          "indexed": true,
          "name": "previousOwner",
          "type": "address"
        },
        {
          "indexed": true,
          "name": "newOwner",
          "type": "address"
        }
      ],
      "name": "OwnershipTransferred",
      "type": "event"
    },
    {
      "constant": false,
      "inputs": [
        {
          "name": "_deployer",
          "type": "address"
        }
      ],
      "name": "addDeployer",
      "outputs": [],
      "payable": false,
      "stateMutability": "nonpayable",
      "type": "function"
    },
    {
      "constant": false,
      "inputs": [
        {
          "name": "_deployer",
          "type": "address"
        }
      ],
      "name": "removeDeployer",
      "outputs": [],
      "payable": false,
      "stateMutability": "nonpayable",
      "type": "function"
    },
    {
      "constant": true,
      "inputs": [],
      "name": "getDeployers",
      "outputs": [
        {
          "name": "",
          "type": "address[]"
        }
      ],
      "payable": false,
      "stateMutability": "view",
      "type": "function"
    }
  ],
  "bytecode": "0x608060405234801561001057600080fd5b5060405161055f38038061055f83398101604052805160008054600160a060020a033316600160a060020a0319918216811790911617905501805161005c906001906020840190610063565b50506100ef565b8280548282559060005260206000209081019282156100b8579160200282015b828111156100b85782518254600160a060020a031916600160a060020a03909116178255602090920191600190910190610083565b506100c49291506100c8565b5090565b6100ec91905b808211156100c4578054600160a060020a03191681556001016100ce565b90565b610461806100fe6000396000f30060806040526004361061006c5763ffffffff7c0100000000000000000000000000000000000000000000000000000000600035041663607c12b58114610071578063880f4039146100d65780638da5cb5b146100f9578063f2fde38b1461012a578063f315df861461014b575b600080fd5b34801561007d57600080fd5b5061008661016c565b60408051602080825283518183015283519192839290830191858101910280838360005b838110156100c25781810151838201526020016100aa565b505050509050019250505060405180910390f35b3480156100e257600080fd5b506100f7600160a060020a03600435166101ce565b005b34801561010557600080fd5b5061010e610279565b60408051600160a060020a039092168252519081900360200190f35b34801561013657600080fd5b506100f7600160a060020a0360043516610288565b34801561015757600080fd5b506100f7600160a060020a0360043516610320565b606060018054806020026020016040519081016040528092919081815260200182805480156101c457602002820191906000526020600020905b8154600160a060020a031681526001909101906020018083116101a6575b5050505050905090565b60005433600160a060020a039081169116146101e957600080fd5b6001805480820182556000919091527fb10e2d527612073b26eecdfd717e6a320cf44b4afac2b0732d9fcbe2b7fa0cf6018054600160a060020a03831673ffffffffffffffffffffffffffffffffffffffff19909116811790915560408051918252517f861a21548a3ee34d896ccac3668a9d65030aaf2cb7367a2ed13608014016a0329181900360200190a150565b600054600160a060020a031681565b60005433600160a060020a039081169116146102a357600080fd5b600160a060020a03811615156102b857600080fd5b60008054604051600160a060020a03808516939216917f8be0079c531659141344cd1fd0a4f28419497f9722a3daafe3b4186f6b6457e091a36000805473ffffffffffffffffffffffffffffffffffffffff1916600160a060020a0392909216919091179055565b6000805433600160a060020a0390811691161461033c57600080fd5b5060005b600154600019018110156103f55781600160a060020a031660018281548110151561036757fe5b600091825260209091200154600160a060020a031614156103ed5760018054600019810190811061039457fe5b60009182526020909120015460018054600160a060020a0390921691839081106103ba57fe5b9060005260206000200160006101000a815481600160a060020a030219169083600160a060020a031602179055506103f5565b600101610340565b60408051600160a060020a038416815290517ffdb22628e87f888d060acc53d048a6a8400a5024f81f9dcb0606e723f238864a9181900360200190a150505600a165627a7a72305820602fa785cde20b0ab3c2096018667b72c0a854c319579f0b1cb6c0b0bd5c5ed70029",
  "source": "pragma solidity ^0.4.23;\n\n\nimport \"zeppelin-solidity/contracts/ownership/Ownable.sol\";\n\n\ncontract DeployList is Ownable {\n    address[] deployers;\n\n    event DeployerAdded(address deployer);\n\n    event DeployerRemoved(address deployer);\n\n    constructor(address[] _deployers){\n        owner = msg.sender;\n        deployers = _deployers;\n    }\n\n    function addDeployer(address _deployer) public onlyOwner {\n        deployers.push(_deployer);\n        emit DeployerAdded(_deployer);\n    }\n\n    function removeDeployer(address _deployer) public onlyOwner {\n        for (uint i = 0; i < deployers.length - 1; i++)\n            if (deployers[i] == _deployer) {\n                deployers[i] = deployers[deployers.length - 1];\n                break;\n            }\n        emit DeployerRemoved(_deployer);\n    }\n\n    function getDeployers() public view returns (address[]){\n        return deployers;\n    }\n}\n",
  "sourcePath": "/Users/anton/go/src/github.com/sonm-io/core/blockchain/source/contracts/DeployList.sol",
  "compiler": {
    "name": "solc",
    "version": "0.4.23+commit.124ca40d.Emscripten.clang"
  },
  "schemaVersion": "2.0.0",
  "updatedAt": "2018-06-20T18:02:33.252Z"
}