{
  "contractName": "Market",
  "abi": [
    {
      "constant": true,
      "inputs": [
        {
          "name": "",
          "type": "uint256"
        }
      ],
      "name": "deals",
      "outputs": [
        {
          "name": "supplierID",
          "type": "address"
        },
        {
          "name": "consumerID",
          "type": "address"
        },
        {
          "name": "masterID",
          "type": "address"
        },
        {
          "name": "askID",
          "type": "uint256"
        },
        {
          "name": "bidID",
          "type": "uint256"
        },
        {
          "name": "duration",
          "type": "uint256"
        },
        {
          "name": "price",
          "type": "uint256"
        },
        {
          "name": "startTime",
          "type": "uint256"
        },
        {
          "name": "endTime",
          "type": "uint256"
        },
        {
          "name": "status",
          "type": "uint8"
        },
        {
          "name": "blockedBalance",
          "type": "uint256"
        },
        {
          "name": "totalPayout",
          "type": "uint256"
        },
        {
          "name": "lastBillTS",
          "type": "uint256"
        }
      ],
      "payable": false,
      "stateMutability": "view",
      "type": "function"
    },
    {
      "constant": false,
      "inputs": [],
      "name": "unpause",
      "outputs": [],
      "payable": false,
      "stateMutability": "nonpayable",
      "type": "function"
    },
    {
      "constant": true,
      "inputs": [],
      "name": "paused",
      "outputs": [
        {
          "name": "",
          "type": "bool"
        }
      ],
      "payable": false,
      "stateMutability": "view",
      "type": "function"
    },
    {
      "constant": false,
      "inputs": [],
      "name": "pause",
      "outputs": [],
      "payable": false,
      "stateMutability": "nonpayable",
      "type": "function"
    },
    {
      "constant": true,
      "inputs": [],
      "name": "owner",
      "outputs": [
        {
          "name": "",
          "type": "address"
        }
      ],
      "payable": false,
      "stateMutability": "view",
      "type": "function"
    },
    {
      "constant": true,
      "inputs": [
        {
          "name": "",
          "type": "uint256"
        }
      ],
      "name": "orders",
      "outputs": [
        {
          "name": "orderType",
          "type": "uint8"
        },
        {
          "name": "orderStatus",
          "type": "uint8"
        },
        {
          "name": "author",
          "type": "address"
        },
        {
          "name": "counterparty",
          "type": "address"
        },
        {
          "name": "duration",
          "type": "uint256"
        },
        {
          "name": "price",
          "type": "uint256"
        },
        {
          "name": "identityLevel",
          "type": "uint8"
        },
        {
          "name": "blacklist",
          "type": "address"
        },
        {
          "name": "tag",
          "type": "bytes32"
        },
        {
          "name": "frozenSum",
          "type": "uint256"
        },
        {
          "name": "dealID",
          "type": "uint256"
        }
      ],
      "payable": false,
      "stateMutability": "view",
      "type": "function"
    },
    {
      "constant": false,
      "inputs": [
        {
          "name": "newOwner",
          "type": "address"
        }
      ],
      "name": "transferOwnership",
      "outputs": [],
      "payable": false,
      "stateMutability": "nonpayable",
      "type": "function"
    },
    {
      "inputs": [
        {
          "name": "_token",
          "type": "address"
        },
        {
          "name": "_blacklist",
          "type": "address"
        },
        {
          "name": "_oracle",
          "type": "address"
        },
        {
          "name": "_profileRegistry",
          "type": "address"
        },
        {
          "name": "_benchmarksQuantity",
          "type": "uint256"
        },
        {
          "name": "_netflagsQuantity",
          "type": "uint256"
        }
      ],
      "payable": false,
      "stateMutability": "nonpayable",
      "type": "constructor"
    },
    {
      "anonymous": false,
      "inputs": [
        {
          "indexed": true,
          "name": "orderID",
          "type": "uint256"
        }
      ],
      "name": "OrderPlaced",
      "type": "event"
    },
    {
      "anonymous": false,
      "inputs": [
        {
          "indexed": true,
          "name": "orderID",
          "type": "uint256"
        }
      ],
      "name": "OrderUpdated",
      "type": "event"
    },
    {
      "anonymous": false,
      "inputs": [
        {
          "indexed": true,
          "name": "dealID",
          "type": "uint256"
        }
      ],
      "name": "DealOpened",
      "type": "event"
    },
    {
      "anonymous": false,
      "inputs": [
        {
          "indexed": true,
          "name": "dealID",
          "type": "uint256"
        }
      ],
      "name": "DealUpdated",
      "type": "event"
    },
    {
      "anonymous": false,
      "inputs": [
        {
          "indexed": true,
          "name": "dealID",
          "type": "uint256"
        },
        {
          "indexed": true,
          "name": "paidAmount",
          "type": "uint256"
        }
      ],
      "name": "Billed",
      "type": "event"
    },
    {
      "anonymous": false,
      "inputs": [
        {
          "indexed": true,
          "name": "changeRequestID",
          "type": "uint256"
        }
      ],
      "name": "DealChangeRequestSet",
      "type": "event"
    },
    {
      "anonymous": false,
      "inputs": [
        {
          "indexed": true,
          "name": "changeRequestID",
          "type": "uint256"
        }
      ],
      "name": "DealChangeRequestUpdated",
      "type": "event"
    },
    {
      "anonymous": false,
      "inputs": [
        {
          "indexed": true,
          "name": "worker",
          "type": "address"
        },
        {
          "indexed": true,
          "name": "master",
          "type": "address"
        }
      ],
      "name": "WorkerAnnounced",
      "type": "event"
    },
    {
      "anonymous": false,
      "inputs": [
        {
          "indexed": true,
          "name": "worker",
          "type": "address"
        },
        {
          "indexed": true,
          "name": "master",
          "type": "address"
        }
      ],
      "name": "WorkerConfirmed",
      "type": "event"
    },
    {
      "anonymous": false,
      "inputs": [
        {
          "indexed": true,
          "name": "worker",
          "type": "address"
        },
        {
          "indexed": true,
          "name": "master",
          "type": "address"
        }
      ],
      "name": "WorkerRemoved",
      "type": "event"
    },
    {
      "anonymous": false,
      "inputs": [
        {
          "indexed": true,
          "name": "newNum",
          "type": "uint256"
        }
      ],
      "name": "NumBenchmarksUpdated",
      "type": "event"
    },
    {
      "anonymous": false,
      "inputs": [
        {
          "indexed": true,
          "name": "newNum",
          "type": "uint256"
        }
      ],
      "name": "NumNetflagsUpdated",
      "type": "event"
    },
    {
      "anonymous": false,
      "inputs": [],
      "name": "Pause",
      "type": "event"
    },
    {
      "anonymous": false,
      "inputs": [],
      "name": "Unpause",
      "type": "event"
    },
    {
      "anonymous": false,
      "inputs": [
        {
          "indexed": true,
          "name": "previousOwner",
          "type": "address"
        },
        {
          "indexed": true,
          "name": "newOwner",
          "type": "address"
        }
      ],
      "name": "OwnershipTransferred",
      "type": "event"
    },
    {
      "constant": false,
      "inputs": [
        {
          "name": "_orderType",
          "type": "uint8"
        },
        {
          "name": "_id_counterparty",
          "type": "address"
        },
        {
          "name": "_duration",
          "type": "uint256"
        },
        {
          "name": "_price",
          "type": "uint256"
        },
        {
          "name": "_netflags",
          "type": "bool[]"
        },
        {
          "name": "_identityLevel",
          "type": "uint8"
        },
        {
          "name": "_blacklist",
          "type": "address"
        },
        {
          "name": "_tag",
          "type": "bytes32"
        },
        {
          "name": "_benchmarks",
          "type": "uint64[]"
        }
      ],
      "name": "PlaceOrder",
      "outputs": [
        {
          "name": "",
          "type": "uint256"
        }
      ],
      "payable": false,
      "stateMutability": "nonpayable",
      "type": "function"
    },
    {
      "constant": false,
      "inputs": [
        {
          "name": "orderID",
          "type": "uint256"
        }
      ],
      "name": "CancelOrder",
      "outputs": [
        {
          "name": "",
          "type": "bool"
        }
      ],
      "payable": false,
      "stateMutability": "nonpayable",
      "type": "function"
    },
    {
      "constant": false,
      "inputs": [
        {
          "name": "askID",
          "type": "uint256"
        },
        {
          "name": "buyoutDuration",
          "type": "uint256"
        }
      ],
      "name": "QuickBuy",
      "outputs": [],
      "payable": false,
      "stateMutability": "nonpayable",
      "type": "function"
    },
    {
      "constant": false,
      "inputs": [
        {
          "name": "_askID",
          "type": "uint256"
        },
        {
          "name": "_bidID",
          "type": "uint256"
        }
      ],
      "name": "OpenDeal",
      "outputs": [],
      "payable": false,
      "stateMutability": "nonpayable",
      "type": "function"
    },
    {
      "constant": false,
      "inputs": [
        {
          "name": "dealID",
          "type": "uint256"
        },
        {
          "name": "blacklisted",
          "type": "uint8"
        }
      ],
      "name": "CloseDeal",
      "outputs": [
        {
          "name": "",
          "type": "bool"
        }
      ],
      "payable": false,
      "stateMutability": "nonpayable",
      "type": "function"
    },
    {
      "constant": false,
      "inputs": [
        {
          "name": "dealID",
          "type": "uint256"
        }
      ],
      "name": "Bill",
      "outputs": [
        {
          "name": "",
          "type": "bool"
        }
      ],
      "payable": false,
      "stateMutability": "nonpayable",
      "type": "function"
    },
    {
      "constant": false,
      "inputs": [
        {
          "name": "dealID",
          "type": "uint256"
        },
        {
          "name": "newPrice",
          "type": "uint256"
        },
        {
          "name": "newDuration",
          "type": "uint256"
        }
      ],
      "name": "CreateChangeRequest",
      "outputs": [
        {
          "name": "changeRequestID",
          "type": "uint256"
        }
      ],
      "payable": false,
      "stateMutability": "nonpayable",
      "type": "function"
    },
    {
      "constant": false,
      "inputs": [
        {
          "name": "changeRequestID",
          "type": "uint256"
        }
      ],
      "name": "CancelChangeRequest",
      "outputs": [
        {
          "name": "",
          "type": "bool"
        }
      ],
      "payable": false,
      "stateMutability": "nonpayable",
      "type": "function"
    },
    {
      "constant": false,
      "inputs": [
        {
          "name": "_master",
          "type": "address"
        }
      ],
      "name": "RegisterWorker",
      "outputs": [
        {
          "name": "",
          "type": "bool"
        }
      ],
      "payable": false,
      "stateMutability": "nonpayable",
      "type": "function"
    },
    {
      "constant": false,
      "inputs": [
        {
          "name": "_worker",
          "type": "address"
        }
      ],
      "name": "ConfirmWorker",
      "outputs": [
        {
          "name": "",
          "type": "bool"
        }
      ],
      "payable": false,
      "stateMutability": "nonpayable",
      "type": "function"
    },
    {
      "constant": false,
      "inputs": [
        {
          "name": "_worker",
          "type": "address"
        },
        {
          "name": "_master",
          "type": "address"
        }
      ],
      "name": "RemoveWorker",
      "outputs": [
        {
          "name": "",
          "type": "bool"
        }
      ],
      "payable": false,
      "stateMutability": "nonpayable",
      "type": "function"
    },
    {
      "constant": true,
      "inputs": [
        {
          "name": "orderID",
          "type": "uint256"
        }
      ],
      "name": "GetOrderInfo",
      "outputs": [
        {
          "name": "orderType",
          "type": "uint8"
        },
        {
          "name": "author",
          "type": "address"
        },
        {
          "name": "counterparty",
          "type": "address"
        },
        {
          "name": "duration",
          "type": "uint256"
        },
        {
          "name": "price",
          "type": "uint256"
        },
        {
          "name": "netflags",
          "type": "bool[]"
        },
        {
          "name": "identityLevel",
          "type": "uint8"
        },
        {
          "name": "blacklist",
          "type": "address"
        },
        {
          "name": "tag",
          "type": "bytes32"
        },
        {
          "name": "benchmarks",
          "type": "uint64[]"
        },
        {
          "name": "frozenSum",
          "type": "uint256"
        }
      ],
      "payable": false,
      "stateMutability": "view",
      "type": "function"
    },
    {
      "constant": true,
      "inputs": [
        {
          "name": "orderID",
          "type": "uint256"
        }
      ],
      "name": "GetOrderParams",
      "outputs": [
        {
          "name": "orderStatus",
          "type": "uint8"
        },
        {
          "name": "dealID",
          "type": "uint256"
        }
      ],
      "payable": false,
      "stateMutability": "view",
      "type": "function"
    },
    {
      "constant": true,
      "inputs": [
        {
          "name": "dealID",
          "type": "uint256"
        }
      ],
      "name": "GetDealInfo",
      "outputs": [
        {
          "name": "benchmarks",
          "type": "uint64[]"
        },
        {
          "name": "supplierID",
          "type": "address"
        },
        {
          "name": "consumerID",
          "type": "address"
        },
        {
          "name": "masterID",
          "type": "address"
        },
        {
          "name": "askID",
          "type": "uint256"
        },
        {
          "name": "bidID",
          "type": "uint256"
        },
        {
          "name": "startTime",
          "type": "uint256"
        }
      ],
      "payable": false,
      "stateMutability": "view",
      "type": "function"
    },
    {
      "constant": true,
      "inputs": [
        {
          "name": "dealID",
          "type": "uint256"
        }
      ],
      "name": "GetDealParams",
      "outputs": [
        {
          "name": "duration",
          "type": "uint256"
        },
        {
          "name": "price",
          "type": "uint256"
        },
        {
          "name": "endTime",
          "type": "uint256"
        },
        {
          "name": "status",
          "type": "uint8"
        },
        {
          "name": "blockedBalance",
          "type": "uint256"
        },
        {
          "name": "totalPayout",
          "type": "uint256"
        },
        {
          "name": "lastBillTS",
          "type": "uint256"
        }
      ],
      "payable": false,
      "stateMutability": "view",
      "type": "function"
    },
    {
      "constant": true,
      "inputs": [
        {
          "name": "_worker",
          "type": "address"
        }
      ],
      "name": "GetMaster",
      "outputs": [
        {
          "name": "master",
          "type": "address"
        }
      ],
      "payable": false,
      "stateMutability": "view",
      "type": "function"
    },
    {
      "constant": true,
      "inputs": [
        {
          "name": "changeRequestID",
          "type": "uint256"
        }
      ],
      "name": "GetChangeRequestInfo",
      "outputs": [
        {
          "name": "dealID",
          "type": "uint256"
        },
        {
          "name": "requestType",
          "type": "uint8"
        },
        {
          "name": "price",
          "type": "uint256"
        },
        {
          "name": "duration",
          "type": "uint256"
        },
        {
          "name": "status",
          "type": "uint8"
        }
      ],
      "payable": false,
      "stateMutability": "view",
      "type": "function"
    },
    {
      "constant": true,
      "inputs": [],
      "name": "GetDealsAmount",
      "outputs": [
        {
          "name": "",
          "type": "uint256"
        }
      ],
      "payable": false,
      "stateMutability": "view",
      "type": "function"
    },
    {
      "constant": true,
      "inputs": [],
      "name": "GetOrdersAmount",
      "outputs": [
        {
          "name": "",
          "type": "uint256"
        }
      ],
      "payable": false,
      "stateMutability": "view",
      "type": "function"
    },
    {
      "constant": true,
      "inputs": [],
      "name": "GetChangeRequestsAmount",
      "outputs": [
        {
          "name": "",
          "type": "uint256"
        }
      ],
      "payable": false,
      "stateMutability": "view",
      "type": "function"
    },
    {
      "constant": true,
      "inputs": [],
      "name": "GetBenchmarksQuantity",
      "outputs": [
        {
          "name": "",
          "type": "uint256"
        }
      ],
      "payable": false,
      "stateMutability": "view",
      "type": "function"
    },
    {
      "constant": true,
      "inputs": [],
      "name": "GetNetflagsQuantity",
      "outputs": [
        {
          "name": "",
          "type": "uint256"
        }
      ],
      "payable": false,
      "stateMutability": "view",
      "type": "function"
    },
    {
      "constant": false,
      "inputs": [
        {
          "name": "_newPR",
          "type": "address"
        }
      ],
      "name": "SetProfileRegistryAddress",
      "outputs": [
        {
          "name": "",
          "type": "bool"
        }
      ],
      "payable": false,
      "stateMutability": "nonpayable",
      "type": "function"
    },
    {
      "constant": false,
      "inputs": [
        {
          "name": "_newBL",
          "type": "address"
        }
      ],
      "name": "SetBlacklistAddress",
      "outputs": [
        {
          "name": "",
          "type": "bool"
        }
      ],
      "payable": false,
      "stateMutability": "nonpayable",
      "type": "function"
    },
    {
      "constant": false,
      "inputs": [
        {
          "name": "_newOracle",
          "type": "address"
        }
      ],
      "name": "SetOracleAddress",
      "outputs": [
        {
          "name": "",
          "type": "bool"
        }
      ],
      "payable": false,
      "stateMutability": "nonpayable",
      "type": "function"
    },
    {
      "constant": false,
      "inputs": [
        {
          "name": "_newQuantity",
          "type": "uint256"
        }
      ],
      "name": "SetBenchmarksQuantity",
      "outputs": [
        {
          "name": "",
          "type": "bool"
        }
      ],
      "payable": false,
      "stateMutability": "nonpayable",
      "type": "function"
    },
    {
      "constant": false,
      "inputs": [
        {
          "name": "_newQuantity",
          "type": "uint256"
        }
      ],
      "name": "SetNetflagsQuantity",
      "outputs": [
        {
          "name": "",
          "type": "bool"
        }
      ],
      "payable": false,
      "stateMutability": "nonpayable",
      "type": "function"
    }
  ],
  "bytecode": "0x60806040526000805460a060020a60ff02191681556005819055600681905560075534801561002d57600080fd5b5060405160c08061529e83398101604090815281516020830151918301516060840151608085015160a09095015160008054600160a060020a03338116600160a060020a0319928316179092556001805496831696821696909617909555600280549682169686169690961790955560038054938616938516939093179092556004805494909116939092169290921790556008919091556009556151c7806100d76000396000f3006080604052600436106101925763ffffffff60e060020a60003504166303988f8481146101975780630adef86c1461025d5780631a3d5f8214610292578063289e77b3146102b3578063348843cf146102f05780633a907227146103175780633c1cbb341461035a5780633f4ba83a146103785780634fabdd4b1461038f5780635ad5f6ae146103f55780635c975abb146104c1578063616451c5146104d657806363fb29291461053c5780638456cb59146105515780638bce1fdf146105665780638da5cb5b1461058157806391e75fc014610596578063935c9ad2146105ae5780639a1ea609146105c6578063a70a7af0146105de578063a85c38ef146105ff578063b1defc89146106b3578063b4bf396e146106ce578063c86c16f2146106e3578063d0cca922146106fb578063d362343214610719578063d85e677614610740578063de4e86c514610761578063e217866c14610776578063e45ea8d31461089d578063e67d7dd8146108b2578063ef78b8d31461097b578063f1bf6fd514610993578063f2fde38b146109b4575b600080fd5b3480156101a357600080fd5b506101af6004356109d5565b604051808e600160a060020a0316600160a060020a031681526020018d600160a060020a0316600160a060020a031681526020018c600160a060020a0316600160a060020a031681526020018b81526020018a815260200189815260200188815260200187815260200186815260200185600281111561022b57fe5b60ff1681526020018481526020018381526020018281526020019d505050505050505050505050505060405180910390f35b34801561026957600080fd5b5061027e600160a060020a0360043516610a53565b604080519115158252519081900360200190f35b34801561029e57600080fd5b5061027e600160a060020a0360043516610b08565b3480156102bf57600080fd5b506102d4600160a060020a0360043516610be5565b60408051600160a060020a039092168252519081900360200190f35b3480156102fc57600080fd5b50610305610c53565b60408051918252519081900360200190f35b34801561032357600080fd5b5061032f600435610c5a565b6040518083600281111561033f57fe5b60ff1681526020018281526020019250505060405180910390f35b34801561036657600080fd5b50610305600435602435604435610e85565b34801561038457600080fd5b5061038d61161d565b005b34801561039b57600080fd5b506103a7600435611697565b604051808881526020018781526020018681526020018560028111156103c957fe5b60ff16815260200184815260200183815260200182815260200197505050505050505060405180910390f35b34801561040157600080fd5b5061040d6004356116db565b604051808060200188600160a060020a0316600160a060020a0316815260200187600160a060020a0316600160a060020a0316815260200186600160a060020a0316600160a060020a03168152602001858152602001848152602001838152602001828103825289818151815260200191508051906020019060200280838360005b838110156104a757818101518382015260200161048f565b505050509050019850505050505050505060405180910390f35b3480156104cd57600080fd5b5061027e6117ca565b3480156104e257600080fd5b506104ee6004356117da565b6040518086815260200185600281111561050457fe5b60ff16815260200184815260200183815260200182600481111561052457fe5b60ff1681526020019550505050505060405180910390f35b34801561054857600080fd5b50610305611811565b34801561055d57600080fd5b5061038d611817565b34801561057257600080fd5b5061038d600435602435611896565b34801561058d57600080fd5b506102d4611df5565b3480156105a257600080fd5b5061027e600435611e04565b3480156105ba57600080fd5b5061027e600435611e62565b3480156105d257600080fd5b5061027e600435611fb7565b3480156105ea57600080fd5b5061027e600160a060020a036004351661223e565b34801561060b57600080fd5b5061061760043561232d565b604051808c600281111561062757fe5b60ff1681526020018b600281111561063b57fe5b60ff168152600160a060020a03808c1660208301528a166040820152606081018990526080810188905260a00186600481111561067457fe5b60ff168152600160a060020a0390951660208601525060408085019390935260608401919091526080830152519081900360a001975095505050505050f35b3480156106bf57600080fd5b5061038d600435602435612396565b3480156106da57600080fd5b50610305613340565b3480156106ef57600080fd5b5061027e600435613346565b34801561070757600080fd5b5061027e60043560ff6024351661335b565b34801561072557600080fd5b5061027e600160a060020a036004358116906024351661348f565b34801561074c57600080fd5b5061027e600160a060020a0360043516613561565b34801561076d57600080fd5b506103056135a2565b34801561078257600080fd5b5061078e6004356135a8565b604051808c600281111561079e57fe5b60ff168152600160a060020a03808d1660208301528b166040820152606081018a90526080810189905260a081019060c0018760048111156107dc57fe5b60ff168152600160a060020a038716602080830191909152604082018790526080820185905260a0848303810184528a51908301528951606083019260c001918b8101910280838360005b8381101561083f578181015183820152602001610827565b50505050905001838103825285818151815260200191508051906020019060200280838360005b8381101561087e578181015183820152602001610866565b505050509050019d505050505050505050505050505060405180910390f35b3480156108a957600080fd5b50610305613835565b3480156108be57600080fd5b50604080516020600460843581810135838102808601850190965280855261030595833560ff169560248035600160a060020a03169660443596606435963696919560a4959490910192829190850190849080828437505060408051602060608901358a01803582810280850184018652818552999c8b3560ff169c848d0135600160a060020a03169c968701359b919a5098506080909501965092945081019282918501908490808284375094975061383b9650505050505050565b34801561098757600080fd5b5061027e600435613c32565b34801561099f57600080fd5b5061027e600160a060020a0360043516613c90565b3480156109c057600080fd5b5061038d600160a060020a0360043516613cd1565b600b602081905260009182526040909120600181015460028201546003830154600484015460058501546006860154600787015460088801546009890154600a8a01549a8a0154600c8b0154600d909b0154600160a060020a039a8b169c998b169b9a9098169996989597949693959294919360ff9093169290918d565b6000805433600160a060020a03908116911614610a6f57600080fd5b81600160a060020a031663eb91d37e6040518163ffffffff1660e060020a028152600401602060405180830381600087803b158015610aad57600080fd5b505af1158015610ac1573d6000803e3d6000fd5b505050506040513d6020811015610ad757600080fd5b50511515610ae457600080fd5b5060038054600160a060020a031916600160a060020a03831617905560015b919050565b6000805460a060020a900460ff1615610b2057600080fd5b600160a060020a0333811660009081526011602090815260408083209386168352929052205460ff161515600114610b5757600080fd5b600160a060020a038281166000818152600f602090815260408083208054600160a060020a03191633909616958617905584835260108252808320805460ff19908116600117909155601183528184208585529092528083208054909216909155517f4940ef08d5aed63b7d3d3db293d69d6ed1d624995b90e9e944839c8ea0ae450d9190a3506001919050565b600160a060020a038082166000908152600f60205260408120549091161580610c285750600160a060020a038083166000818152600f6020526040902054909116145b15610c34575080610b03565b50600160a060020a039081166000908152600f60205260409020541690565b6008545b90565b600080610c65614eb0565b6000848152600a60205260409081902081516101a081019092528054829060ff166002811115610c9157fe5b6002811115610c9c57fe5b81528154602090910190610100900460ff166002811115610cb957fe5b6002811115610cc457fe5b81528154600160a060020a036201000090910481166020808401919091526001840154909116604080840191909152600284015460608401526003840154608084015260048401805482518185028101850190935280835260a0909401939192909190830182828015610d7657602002820191906000526020600020906000905b825461010083900a900460ff161515815260206001928301818104948501949093039092029101808411610d455790505b5050509183525050600582015460209091019060ff166004811115610d9757fe5b6004811115610da257fe5b815260058201546101009004600160a060020a031660208083019190915260068301546040808401919091526007840180548251818502810185019093528083526060909401939192909190830182828015610e5157602002820191906000526020600020906000905b82829054906101000a900467ffffffffffffffff1667ffffffffffffffff1681526020019060080190602082600701049283019260010382029150808411610e0c5790505b5050505050815260200160088201548152602001600982015481525050905080602001518161018001519250925050915091565b600080610e90614f1a565b6000868152600b602052604090206002015433600160a060020a0390811691161480610ed957506000868152600b602052604090206003015433600160a060020a039081169116145b80610f0157506000868152600b602052604090206001015433600160a060020a039081169116145b1515610f0c57600080fd5b60016000878152600b60205260409020600a015460ff166002811115610f2e57fe5b14610f3857600080fd5b610f4186613d5c565b15610f51578315610f5157600080fd5b600754610f6590600163ffffffff613d7216565b6007556000868152600b602052604090206002015433600160a060020a0390811691161415610f975760019150610f9c565b600291505b60a060405190810160405280878152602001836002811115610fba57fe5b81526020810187905260408101869052606001600190526007546000908152600d60209081526040909120825181559082015160018083018054909160ff199091169083600281111561100957fe5b0217905550604082015181600201556060820151816003015560808201518160040160006101000a81548160ff0219169083600481111561104657fe5b0217905550506007546040519091507f7ff56b2eb3ce318aad93d0ba39a3e4a406992a136f9554f17f6bcc43509275d190600090a2600182600281111561108957fe5b141561136b576000868152600e602052604090206001015460405160008051602061517c83398151915290600090a26000868152600e60209081526040808320600180820180548652600d8552838620600401805460ff191660029081179091556007549091559154855293829020825160a08101909352805483529384015491939284019160ff169081111561111c57fe5b600281111561112757fe5b8152600282015460208201526003820154604082015260048083015460609092019160ff169081111561115657fe5b600481111561116157fe5b9052506000878152600b60205260409020600601549091508414801561119757506000868152600b602052604090206007015485115b15611208576007546000908152600d602052604090206004908101805460ff191690911790556111c686613346565b506000868152600b60209081526040808320600701889055600e90915281206001015560075460405160008051602061517c83398151915290600090a261130a565b60018160800151600481111561121a57fe5b14801561122b575083816060015110155b801561123b575084816040015111155b15611300576007546000908152600d602081815260408084206004908101805460ff1990811683179091558b8652600e808552838720805488529585528387208301805490921690921790558a855290915290549051909160008051602061517c83398151915291a26000868152600e60205260408120818155600101556112c286613346565b506040808201516000888152600b6020528281206007808201939093556006018790559054915160008051602061517c8339815191529190a261130a565b6007549250611614565b6000868152600e6020818152604080842060010180548552600d8352818520600401805460ff191660021790558a85529290915290549051909160008051602061517c83398151915291a26007546000878152600e60205260409020600101555b600282600281111561137957fe5b14156115d4576000868152600e60205260408120015460405160008051602061517c83398151915290600090a26000868152600e6020908152604080832080548452600d8352818420600401805460ff191660029081179091556007548255600191820154855293829020825160a0810190935280548352908101549193909284019160ff169081111561140957fe5b600281111561141457fe5b8152600282015460208201526003820154604082015260048083015460609092019160ff169081111561144357fe5b600481111561144e57fe5b9052506000878152600b60205260409020600601549091508414801561148457506000868152600b602052604090206007015485105b156114f4576007546000908152600d602052604090206004908101805460ff191690911790556114b386613346565b506000868152600b60209081526040808320600701889055600e909152812081015560075460405160008051602061517c83398151915290600090a26115d4565b60018160800151600481111561150657fe5b148015611517575083816060015111155b8015611527575084816040015110155b15611300576007546000908152600d602052604090206004908101805460ff191660018302179055506000868152600e602052604090206001015460405160008051602061517c83398151915290600090a26000868152600e602052604081208181556001015561159786613346565b506000868152600b602052604080822060078082018990556060850151600690920191909155549051909160008051602061517c83398151915291a25b6000868152600b6020526040902060068101546008909101546115fc9163ffffffff613d7216565b6000878152600b602052604090206009015560075492505b50509392505050565b60005433600160a060020a0390811691161461163857600080fd5b60005460a060020a900460ff16151561165057600080fd5b6000805474ff0000000000000000000000000000000000000000191681556040517f7805862f689e2f13df9f062ff482ad3ad112aca9e0847911ed832e158c525b339190a1565b6000908152600b60208190526040909120600681015460078201546009830154600a84015494840154600c850154600d9095015493969295919460ff909216939092565b6000818152600b6020908152604080832060018101546002820154600383015460048401546005850154600886015486548851818b0281018b0190995280895260609a998a998a998a998a998a999298600160a060020a0392831698918316979390921695919490939189918301828280156117aa57602002820191906000526020600020906000905b82829054906101000a900467ffffffffffffffff1667ffffffffffffffff16815260200190600801906020826007010492830192600103820291508084116117655790505b505050505096509650965096509650965096509650919395979092949650565b60005460a060020a900460ff1681565b6000908152600d602052604090208054600182015460028301546003840154600490940154929460ff928316949193919290911690565b60055490565b60005433600160a060020a0390811691161461183257600080fd5b60005460a060020a900460ff161561184957600080fd5b6000805474ff0000000000000000000000000000000000000000191660a060020a1781556040517f6985a02210a168e66602d3235cb6db0e70f92b3ba4d376a33c0f3d9434bff6259190a1565b61189e614eb0565b60005460a060020a900460ff16156118b557600080fd5b6000838152600a60205260409081902081516101a081019092528054829060ff1660028111156118e157fe5b60028111156118ec57fe5b81528154602090910190610100900460ff16600281111561190957fe5b600281111561191457fe5b81528154600160a060020a036201000090910481166020808401919091526001840154909116604080840191909152600284015460608401526003840154608084015260048401805482518185028101850190935280835260a09094019391929091908301828280156119c657602002820191906000526020600020906000905b825461010083900a900460ff1615158152602060019283018181049485019490930390920291018084116119955790505b5050509183525050600582015460209091019060ff1660048111156119e757fe5b60048111156119f257fe5b815260058201546101009004600160a060020a031660208083019190915260068301546040808401919091526007840180548251818502810185019093528083526060909401939192909190830182828015611aa157602002820191906000526020600020906000905b82829054906101000a900467ffffffffffffffff1667ffffffffffffffff1681526020019060080190602082600701049283019260010382029150808411611a5c5790505b5050509183525050600882015460208201526009909101546040909101529050600281516002811115611ad057fe5b14611ada57600080fd5b600281602001516002811115611aec57fe5b14611af657600080fd5b6080810151821115611b0757600080fd5b8060e001516004811115611b1757fe5b60048054604080517f23eee3e6000000000000000000000000000000000000000000000000000000008152600160a060020a0333811694820194909452905192909116916323eee3e6916024808201926020929091908290030181600087803b158015611b8357600080fd5b505af1158015611b97573d6000803e3d6000fd5b505050506040513d6020811015611bad57600080fd5b50516004811115611bba57fe5b1015611bc557600080fd5b6002546040820151600160a060020a039091169063968f600c903390611bea90610be5565b6040518363ffffffff1660e060020a0281526004018083600160a060020a0316600160a060020a0316815260200182600160a060020a0316600160a060020a0316815260200192505050602060405180830381600087803b158015611c4e57600080fd5b505af1158015611c62573d6000803e3d6000fd5b505050506040513d6020811015611c7857600080fd5b5051158015611d0d5750600254604080830151815160e260020a6325a3d803028152600160a060020a0391821660048201523382166024820152915192169163968f600c916044808201926020929091908290030181600087803b158015611cdf57600080fd5b505af1158015611cf3573d6000803e3d6000fd5b505050506040513d6020811015611d0957600080fd5b5051155b1515611d1857600080fd5b6002546101008201516040805160e260020a6325a3d803028152600160a060020a03928316600482015233831660248201529051919092169163968f600c9160448083019260209291908290030181600087803b158015611d7857600080fd5b505af1158015611d8c573d6000803e3d6000fd5b505050506040513d6020811015611da257600080fd5b505115611dae57600080fd5b611dde6001611dc08360400151610be5565b848460a001518560c00151600160008060010289610140015161383b565b50611df083611deb611811565b612396565b505050565b600054600160a060020a031681565b6000805433600160a060020a03908116911614611e2057600080fd5b6009548211611e2e57600080fd5b60405182907f1bd10793763c43c1a677f0975376032cebc657fd07cfd7c58ded8e8cce79f1c490600090a250600955600190565b600554600090821115611e7457600080fd5b60026000838152600a6020526040902054610100900460ff166002811115611e9857fe5b14611ea257600080fd5b6000828152600a602052604090205433600160a060020a03908116620100009092041614611ecf57600080fd5b6001546000838152600a6020908152604080832060080154815160e060020a63a9059cbb028152600160a060020a0333811660048301526024820192909252915194169363a9059cbb93604480840194938390030190829087803b158015611f3657600080fd5b505af1158015611f4a573d6000803e3d6000fd5b505050506040513d6020811015611f6057600080fd5b50511515611f6d57600080fd5b6000828152600a6020526040808220805461ff0019166101001790555183917fb8b459bc0688c37baf5f735d17f1711684bc14ab7db116f88bc18bf409b9309a91a2506001919050565b6000611fc1614f1a565b6000838152600d6020908152604091829020825160a08101909352805483526001810154909183019060ff166002811115611ff857fe5b600281111561200357fe5b8152600282015460208201526003820154604082015260048083015460609092019160ff169081111561203257fe5b600481111561203d57fe5b90525080516000908152600b602052604090206001015490915033600160a060020a0390811691161480612090575080516000908152600b602052604090206003015433600160a060020a039081169116145b806120ba575080516000908152600b602052604090206002015433600160a060020a039081169116145b15156120c557600080fd5b6004816080015160048111156120d757fe5b14156120e257600080fd5b6002816020015160028111156120f457fe5b14156121895780516000908152600b602052604090206002015433600160a060020a0390811691161415612143576000838152600d60205260409020600401805460ff19166003179055612160565b6000838152600d60205260409020600401805460ff191660021790555b80516000908152600e602052604080822082905551849160008051602061517c83398151915291a25b60018160200151600281111561219b57fe5b14156122355780516000908152600b602052604090206002015433600160a060020a03908116911614156121ea576000838152600d60205260409020600401805460ff19166002179055612207565b6000838152600d60205260409020600401805460ff191660031790555b80516000908152600e6020526040812060010155604051839060008051602061517c83398151915290600090a25b50600192915050565b6000805460a060020a900460ff161561225657600080fd5b33600160a060020a031661226933610be5565b600160a060020a03161461227c57600080fd5b600160a060020a03331660009081526010602052604090205460ff16156122a257600080fd5b81600160a060020a03166122b583610be5565b600160a060020a0316146122c857600080fd5b600160a060020a0380831660008181526011602090815260408083203390951680845294909152808220805460ff19166001179055519192917fe398d33bf7e881cdfc9f34c743822904d4e45a0be0db740dd88cb132e4ce2ed99190a3506001919050565b600a602052600090815260409020805460018201546002830154600384015460058501546006860154600887015460099097015460ff80881698610100808a04831699600160a060020a036201000090910481169981169897969384169591909304909216928b565b61239e614eb0565b6123a6614eb0565b60008054819081908190819060a060020a900460ff16156123c657600080fd5b6000898152600a60205260409081902081516101a081019092528054829060ff1660028111156123f257fe5b60028111156123fd57fe5b81528154602090910190610100900460ff16600281111561241a57fe5b600281111561242557fe5b81528154600160a060020a036201000090910481166020808401919091526001840154909116604080840191909152600284015460608401526003840154608084015260048401805482518185028101850190935280835260a09094019391929091908301828280156124d757602002820191906000526020600020906000905b825461010083900a900460ff1615158152602060019283018181049485019490930390920291018084116124a65790505b5050509183525050600582015460209091019060ff1660048111156124f857fe5b600481111561250357fe5b815260058201546101009004600160a060020a0316602080830191909152600683015460408084019190915260078401805482518185028101850190935280835260609094019391929091908301828280156125b257602002820191906000526020600020906000905b82829054906101000a900467ffffffffffffffff1667ffffffffffffffff168152602001906008019060208260070104928301926001038202915080841161256d5790505b5050509183525050600882015460208083019190915260099092015460409182015260008b8152600a9092529081902081516101a0810190925280549299509091829060ff16600281111561260357fe5b600281111561260e57fe5b81528154602090910190610100900460ff16600281111561262b57fe5b600281111561263657fe5b81528154600160a060020a036201000090910481166020808401919091526001840154909116604080840191909152600284015460608401526003840154608084015260048401805482518185028101850190935280835260a09094019391929091908301828280156126e857602002820191906000526020600020906000905b825461010083900a900460ff1615158152602060019283018181049485019490930390920291018084116126b75790505b5050509183525050600582015460209091019060ff16600481111561270957fe5b600481111561271457fe5b815260058201546101009004600160a060020a0316602080830191909152600683015460408084019190915260078401805482518185028101850190935280835260609094019391929091908301828280156127c357602002820191906000526020600020906000905b82829054906101000a900467ffffffffffffffff1667ffffffffffffffff168152602001906008019060208260070104928301926001038202915080841161277e5790505b50505091835250506008820154602082015260099091015460409091015295506002876020015160028111156127f557fe5b148015612811575060028660200151600281111561280f57fe5b145b151561281c57600080fd5b6060870151600160a060020a03161580612857575061283e8660400151610be5565b600160a060020a03168760600151600160a060020a0316145b801561289957506060860151600160a060020a0316158061289957506128808760400151610be5565b600160a060020a03168660600151600160a060020a0316145b15156128a457600080fd5b6002875160028111156128b357fe5b146128bd57600080fd5b6001865160028111156128cc57fe5b146128d657600080fd5b6002546101008701516040890151600160a060020a039092169163968f600c919061290090610be5565b6040518363ffffffff1660e060020a0281526004018083600160a060020a0316600160a060020a0316815260200182600160a060020a0316600160a060020a0316815260200192505050602060405180830381600087803b15801561296457600080fd5b505af1158015612978573d6000803e3d6000fd5b505050506040513d602081101561298e57600080fd5b5051158015612a2a57506002546101008701516040808a0151815160e260020a6325a3d803028152600160a060020a03938416600482015290831660248201529051919092169163968f600c9160448083019260209291908290030181600087803b1580156129fc57600080fd5b505af1158015612a10573d6000803e3d6000fd5b505050506040513d6020811015612a2657600080fd5b5051155b8015612aec575060025460408088015190890151600160a060020a039092169163968f600c9190612a5a90610be5565b6040518363ffffffff1660e060020a0281526004018083600160a060020a0316600160a060020a0316815260200182600160a060020a0316600160a060020a0316815260200192505050602060405180830381600087803b158015612abe57600080fd5b505af1158015612ad2573d6000803e3d6000fd5b505050506040513d6020811015612ae857600080fd5b5051155b8015612b82575060025460408088015189820151825160e260020a6325a3d803028152600160a060020a0392831660048201529082166024820152915192169163968f600c916044808201926020929091908290030181600087803b158015612b5457600080fd5b505af1158015612b68573d6000803e3d6000fd5b505050506040513d6020811015612b7e57600080fd5b5051155b8015612c1b5750600254610100880151604080890151815160e260020a6325a3d803028152600160a060020a03938416600482015290831660248201529051919092169163968f600c9160448083019260209291908290030181600087803b158015612bed57600080fd5b505af1158015612c01573d6000803e3d6000fd5b505050506040513d6020811015612c1757600080fd5b5051155b8015612cc357506002546040880151600160a060020a039091169063968f600c90612c4590610be5565b6040808a0151815160e060020a63ffffffff8616028152600160a060020a039384166004820152921660248301525160448083019260209291908290030181600087803b158015612c9557600080fd5b505af1158015612ca9573d6000803e3d6000fd5b505050506040513d6020811015612cbf57600080fd5b5051155b8015612d59575060025460408089015188820151825160e260020a6325a3d803028152600160a060020a0392831660048201529082166024820152915192169163968f600c916044808201926020929091908290030181600087803b158015612d2b57600080fd5b505af1158015612d3f573d6000803e3d6000fd5b505050506040513d6020811015612d5557600080fd5b5051155b1515612d6457600080fd5b60a080870151908801511115612d7957600080fd5b608080870151908801511015612d8e57600080fd5b8660e001516004811115612d9e57fe5b600480546040808a015181517f23eee3e6000000000000000000000000000000000000000000000000000000008152600160a060020a039182169481019490945290519116916323eee3e69160248083019260209291908290030181600087803b158015612e0b57600080fd5b505af1158015612e1f573d6000803e3d6000fd5b505050506040513d6020811015612e3557600080fd5b50516004811115612e4257fe5b1015612e4d57600080fd5b8560e001516004811115612e5d57fe5b600480546040808b015181517f23eee3e6000000000000000000000000000000000000000000000000000000008152600160a060020a039182169481019490945290519116916323eee3e69160248083019260209291908290030181600087803b158015612eca57600080fd5b505af1158015612ede573d6000803e3d6000fd5b505050506040513d6020811015612ef457600080fd5b50516004811115612f0157fe5b1015612f0c57600080fd5b6009548760c00151511015612f2e57612f288760c00151613d7f565b60c08801525b6009548660c00151511015612f5057612f4a8760c00151613d7f565b60c08701525b600094505b8660c0015151851015612fb65760c0860151805186908110612f7357fe5b906020019060200201511580612fa0575060c0870151805186908110612f9557fe5b906020019060200201515b1515612fab57600080fd5b600190940193612f55565b600854876101400151511015612fdb57612fd4876101400151613e09565b6101408801525b60085486610140015151101561300057612ff9866101400151613e09565b6101408701525b600094505b866101400151518510156130765761014086015180518690811061302557fe5b9060200190602002015167ffffffffffffffff168761014001518681518110151561304c57fe5b6020908102909101015167ffffffffffffffff16101561306b57600080fd5b600190940193613005565b60065461308a90600163ffffffff613d7216565b600655604087015161309b90610be5565b60008a8152600a6020526040808220805461010061ff0019918216811783558d855283852080549092161781556006546009928301819055910155519195508a917fb8b459bc0688c37baf5f735d17f1711684bc14ab7db116f88bc18bf409b9309a9190a260405188907fb8b459bc0688c37baf5f735d17f1711684bc14ab7db116f88bc18bf409b9309a90600090a26080870151429350600092501561315557608086015161315290849063ffffffff613d7216565b91505b85610160015190506101c06040519081016040528088610140015181526020018860400151600160a060020a031681526020018760400151600160a060020a0316815260200185600160a060020a031681526020018a8152602001898152602001876080015181526020018860a001518152602001848152602001838152602001600160028111156131e357fe5b81526020018281526020016000815260200142815250600b60006006548152602001908152602001600020600082015181600001908051906020019061322a929190614f46565b50602082015160018281018054600160a060020a0319908116600160a060020a0394851617909155604085015160028086018054841692861692909217909155606086015160038601805490931694169390931790556080840151600484015560a0840151600584015560c0840151600684015560e0840151600784015561010084015160088401556101208401516009840155610140840151600a840180549193909260ff19909216919084908111156132e157fe5b0217905550610160820151600b820155610180820151600c8201556101a090910151600d909101556006546040517fb9ffc65567b7238dd641372277b8c93ed03df73945932dd84fd3cbb33f3eddbf90600090a2505050505050505050565b60075490565b600061335182613e91565b5061223582614590565b600060016000848152600b60205260409020600a015460ff16600281111561337f57fe5b1461338957600080fd5b6000838152600b602052604090206001015433600160a060020a03908116911614806133d257506000838152600b602052604090206002015433600160a060020a039081169116145b806133fa57506000838152600b602052604090206003015433600160a060020a039081169116145b151561340557600080fd5b6000838152600b60205260409020600681015460089091015461342d9163ffffffff613d7216565b421161345d576000838152600b602052604090206002015433600160a060020a0390811691161461345d57600080fd5b61346783836149d4565b61347083613e91565b5061347a83614bad565b61348383614cd1565b50600190505b92915050565b6000805460a060020a900460ff16156134a757600080fd5b81600160a060020a03166134ba84610be5565b600160a060020a03161480156134fc575082600160a060020a031633600160a060020a031614806134fc575081600160a060020a031633600160a060020a0316145b151561350757600080fd5b600160a060020a038084166000818152600f60205260408082208054600160a060020a031916905551928516927f7822736ed69a5fe0ad6dc2c6669e8053495d711118e5435b047f9b83deda4c379190a350600192915050565b6000805433600160a060020a0390811691161461357d57600080fd5b5060028054600160a060020a038316600160a060020a03199091161790556001919050565b60095490565b600080600080600060606000806000606060006135c3614eb0565b60008d8152600a60205260409081902081516101a081019092528054829060ff1660028111156135ef57fe5b60028111156135fa57fe5b81528154602090910190610100900460ff16600281111561361757fe5b600281111561362257fe5b81528154600160a060020a036201000090910481166020808401919091526001840154909116604080840191909152600284015460608401526003840154608084015260048401805482518185028101850190935280835260a09094019391929091908301828280156136d457602002820191906000526020600020906000905b825461010083900a900460ff1615158152602060019283018181049485019490930390920291018084116136a35790505b5050509183525050600582015460209091019060ff1660048111156136f557fe5b600481111561370057fe5b815260058201546101009004600160a060020a0316602080830191909152600683015460408084019190915260078401805482518185028101850190935280835260609094019391929091908301828280156137af57602002820191906000526020600020906000905b82829054906101000a900467ffffffffffffffff1667ffffffffffffffff168152602001906008019060208260070104928301926001038202915080841161376a5790505b5050505050815260200160088201548152602001600982015481525050905080600001518160400151826060015183608001518460a001518560c001518660e001518761010001518861012001518961014001518a61016001518595508191509b509b509b509b509b509b509b509b509b509b509b505091939597999b90929496989a50565b60065490565b6000805481908190819060a060020a900460ff161561385957600080fd5b600188600481111561386757fe5b101561387257600080fd5b6009548951111561388257600080fd5b6008548551111561389257600080fd5b600092505b84518310156138e05767800000000000000085848151811015156138b757fe5b6020908102909101015167ffffffffffffffff16106138d557600080fd5b600190920191613897565b6000915060018d60028111156138f257fe5b14156139e5578a15156139125761390b8a610e10614d9c565b9150613937565b620151808b10156139275761390b8a8c614d9c565b6139348a62015180614d9c565b91505b600154604080517f23b872dd000000000000000000000000000000000000000000000000000000008152600160a060020a033381166004830152308116602483015260448201869052915191909216916323b872dd9160648083019260209291908290030181600087803b1580156139ae57600080fd5b505af11580156139c2573d6000803e3d6000fd5b505050506040513d60208110156139d857600080fd5b505115156139e557600080fd5b6005546139f990600163ffffffff613d7216565b6005819055604080516101a08101909152909150808e6002811115613a1a57fe5b81526020016002815260200133600160a060020a031681526020018d600160a060020a031681526020018c81526020018b81526020018a8152602001896004811115613a6257fe5b8152600160a060020a03891660208083019190915260408083018a90526060830189905260808301869052600060a0909301839052848352600a909152902081518154829060ff19166001836002811115613ab957fe5b021790555060208201518154829061ff001916610100836002811115613adb57fe5b02179055506040820151815475ffffffffffffffffffffffffffffffffffffffff0000191662010000600160a060020a03928316021782556060830151600183018054600160a060020a031916919092161790556080820151600282015560a0820151600382015560c08201518051613b5e916004840191602090910190615001565b5060e082015160058201805460ff19166001836004811115613b7c57fe5b02179055506101008281015160058301805474ffffffffffffffffffffffffffffffffffffffff001916600160a060020a0390921690920217905561012082015160068201556101408201518051613bde916007840191602090910190614f46565b5061016082015160088201556101809091015160099091015560405181907fffa896d8919f0556f53ace1395617969a3b53ab5271a085e28ac0c4a3724e63d90600090a29c9b505050505050505050505050565b6000805433600160a060020a03908116911614613c4e57600080fd5b6008548211613c5c57600080fd5b60405182907f1acf16d0a0451282e1d2cac3f5473ca7c931bcda610ff6e061041af50e2abc1390600090a250600855600190565b6000805433600160a060020a03908116911614613cac57600080fd5b5060048054600160a060020a038316600160a060020a03199091161790556001919050565b60005433600160a060020a03908116911614613cec57600080fd5b600160a060020a0381161515613d0157600080fd5b60008054604051600160a060020a03808516939216917f8be0079c531659141344cd1fd0a4f28419497f9722a3daafe3b4186f6b6457e091a360008054600160a060020a031916600160a060020a0392909216919091179055565b6000908152600b60205260409020600601541590565b8181018281101561348957fe5b6060806000600954604051908082528060200260200182016040528015613db0578160200160208202803883390190505b509150600090505b8351811015613dfe578381815181101515613dcf57fe5b906020019060200201518282815181101515613de757fe5b911515602092830290910190910152600101613db8565b8192505b5050919050565b6060806000600854604051908082528060200260200182016040528015613e3a578160200160208202803883390190505b509150600090505b8351811015613dfe578381815181101515613e5957fe5b906020019060200201518282815181101515613e7157fe5b67ffffffffffffffff909216602092830290910190910152600101613e42565b6000613e9b6150a2565b600060016000858152600b60205260409020600a015460ff166002811115613ebf57fe5b14613ec957600080fd5b6000848152600b602052604090206001015433600160a060020a0390811691161480613f1257506000848152600b602052604090206002015433600160a060020a039081169116145b80613f3a57506000848152600b602052604090206003015433600160a060020a039081169116145b1515613f4557600080fd5b6000848152600b6020908152604091829020825181546101e0938102820184019094526101c081018481529093919284928491840182828015613fdb57602002820191906000526020600020906000905b82829054906101000a900467ffffffffffffffff1667ffffffffffffffff1681526020019060080190602082600701049283019260010382029150808411613f965790505b50505091835250506001820154600160a060020a039081166020830152600280840154821660408401526003840154909116606083015260048301546080830152600583015460a0830152600683015460c0830152600783015460e083015260088301546101008301526009830154610120830152600a8301546101409092019160ff169081111561406957fe5b600281111561407457fe5b8152602001600b8201548152602001600c8201548152602001600d8201548152505091506140a184613d5c565b1580156140b85750816101200151826101a0015110155b156140c65760019250613e02565b6140cf84613d5c565b1580156140e0575081610120015142115b80156140f55750816101200151826101a00151105b1561412b576141248260e0015161411f846101a00151856101200151614e6090919063ffffffff16565b614d9c565b905061414e565b61414b8260e0015161411f846101a0015142614e6090919063ffffffff16565b90505b8161016001518111156144575761016082015161417290829063ffffffff614e6016565b60015460408085015181517f70a08231000000000000000000000000000000000000000000000000000000008152600160a060020a03918216600482015291519216916370a08231916024808201926020929091908290030181600087803b1580156141dd57600080fd5b505af11580156141f1573d6000803e3d6000fd5b505050506040513d602081101561420757600080fd5b50511061431f576001546040830151610160840151600160a060020a03909216916323b872dd9190309061424290869063ffffffff614e6016565b6040805160e060020a63ffffffff8716028152600160a060020a0394851660048201529290931660248301526044820152905160648083019260209291908290030181600087803b15801561429657600080fd5b505af11580156142aa573d6000803e3d6000fd5b505050506040513d60208110156142c057600080fd5b505115156142cd57600080fd5b6143076142e883610160015183614e6090919063ffffffff16565b6000868152600b6020819052604090912001549063ffffffff613d7216565b6000858152600b602081905260409091200155614457565b6000848152600b60208190526040808320909101549051909186917f51f87cd83a2ce6c4ff7957861f7aba400dc3857d2325e0c94cc69f468874515c9190a361436784614bad565b60015460608301516101608401516040805160e060020a63a9059cbb028152600160a060020a039384166004820152602481019290925251919092169163a9059cbb9160448083019260209291908290030181600087803b1580156143cb57600080fd5b505af11580156143df573d6000803e3d6000fd5b505050506040513d60208110156143f557600080fd5b5051151561440257600080fd5b6000848152600b6020526040902042600d820155610160830151600c909101546144319163ffffffff613d7216565b6000858152600b602081905260408220600c810193909355919091015560019250613e02565b60015460608301516040805160e060020a63a9059cbb028152600160a060020a039283166004820152602481018590529051919092169163a9059cbb9160448083019260209291908290030181600087803b1580156144b557600080fd5b505af11580156144c9573d6000803e3d6000fd5b505050506040513d60208110156144df57600080fd5b505115156144ec57600080fd5b6000848152600b60208190526040909120015461450f908263ffffffff614e6016565b6000858152600b6020819052604090912090810191909155600c015461453b908263ffffffff613d7216565b6000858152600b6020526040808220600c81019390935542600d909301929092559051829186917f51f87cd83a2ce6c4ff7957861f7aba400dc3857d2325e0c94cc69f468874515c9190a35060019392505050565b60008061459b6150a2565b6000848152600b60209081526040808320815181546101e0948102820185019093526101c0810183815290939192849284919084018282801561463157602002820191906000526020600020906000905b82829054906101000a900467ffffffffffffffff1667ffffffffffffffff16815260200190600801906020826007010492830192600103820291508084116145ec5790505b50505091835250506001820154600160a060020a039081166020830152600280840154821660408401526003840154909116606083015260048301546080830152600583015460a0830152600683015460c0830152600783015460e083015260088301546101008301526009830154610120830152600a8301546101409092019160ff16908111156146bf57fe5b60028111156146ca57fe5b8152602001600b8201548152602001600c8201548152602001600d8201548152505091506146f785613d5c565b15614728576002826101400151600281111561470f57fe5b141561471e57600193506149cc565b610e109250614783565b81610120015142111561473e57600193506149cc565b6101208201516201518090614759904263ffffffff614e6016565b101561477c57610120820151614775904263ffffffff614e6016565b9250614783565b6201518092505b6000858152600b60208190526040909120015460e08301516147a59085614d9c565b11156149c7576147df600b6000878152602001908152602001600020600b01546147d38460e0015186614d9c565b9063ffffffff614e6016565b60015460408085015181517f70a08231000000000000000000000000000000000000000000000000000000008152600160a060020a039182166004820152915193945084939216916370a08231916024808201926020929091908290030181600087803b15801561484f57600080fd5b505af1158015614863573d6000803e3d6000fd5b505050506040513d602081101561487957600080fd5b50511061496c5760015460408084015181517f23b872dd000000000000000000000000000000000000000000000000000000008152600160a060020a03918216600482015230821660248201526044810185905291519216916323b872dd916064808201926020929091908290030181600087803b1580156148fa57600080fd5b505af115801561490e573d6000803e3d6000fd5b505050506040513d602081101561492457600080fd5b5051151561493157600080fd5b6000858152600b602081905260409091200154614954908263ffffffff613d7216565b6000868152600b6020819052604090912001556149c7565b6000858152600b60208190526040808320909101549051909187917f51f87cd83a2ce6c4ff7957861f7aba400dc3857d2325e0c94cc69f468874515c9190a36149b485614bad565b6149bd85614cd1565b50600193506149cc565b600193505b505050919050565b6000828152600b602052604090206002015433600160a060020a0390811691161480614a0b57506000816002811115614a0957fe5b145b1515614a1657600080fd5b6001816002811115614a2457fe5b1415614ae257600280546000848152600b602090815260408083209485015460019095015481517f473b736f000000000000000000000000000000000000000000000000000000008152600160a060020a03968716600482015290861660248201529051949093169363473b736f93604480820194918390030190829087803b158015614ab057600080fd5b505af1158015614ac4573d6000803e3d6000fd5b505050506040513d6020811015614ada57600080fd5b50614ba99050565b6002816002811115614af057fe5b1415614ba957600280546000848152600b602090815260408083209485015460039095015481517f473b736f000000000000000000000000000000000000000000000000000000008152600160a060020a03968716600482015290861660248201529051949093169363473b736f93604480820194918390030190829087803b158015614b7c57600080fd5b505af1158015614b90573d6000803e3d6000fd5b505050506040513d6020811015614ba657600080fd5b50505b5050565b60026000828152600b60205260409020600a015460ff166002811115614bcf57fe5b1415614bda57614cce565b60016000828152600b60205260409020600a015460ff166002811115614bfc57fe5b14614c0657600080fd5b6000818152600b602052604090206002015433600160a060020a0390811691161480614c4f57506000818152600b602052604090206001015433600160a060020a039081169116145b80614c7757506000818152600b602052604090206003015433600160a060020a039081169116145b1515614c8257600080fd5b6000818152600b6020526040808220600a8101805460ff19166002179055426009909101555182917f0b27183934cfdbeb1fbbe288c2e163ed7aa8f458a954054970f78446bccb36e091a25b50565b6000818152600b602081905260408220015415614d94576001546000838152600b602081815260408084206002810154930154815160e060020a63a9059cbb028152600160a060020a03948516600482015260248101919091529051929094169363a9059cbb93604480830194928390030190829087803b158015614d5557600080fd5b505af1158015614d69573d6000803e3d6000fd5b505050506040513d6020811015614d7f57600080fd5b50506000828152600b60208190526040822001555b506001919050565b600080600360009054906101000a9004600160a060020a0316600160a060020a031663eb91d37e6040518163ffffffff1660e060020a028152600401602060405180830381600087803b158015614df257600080fd5b505af1158015614e06573d6000803e3d6000fd5b505050506040513d6020811015614e1c57600080fd5b50519050614e58670de0b6b3a7640000614e4c85614e40858963ffffffff614e7216565b9063ffffffff614e7216565b9063ffffffff614e9b16565b949350505050565b600082821115614e6c57fe5b50900390565b6000821515614e8357506000613489565b50818102818382811515614e9357fe5b041461348957fe5b60008183811515614ea857fe5b049392505050565b604080516101a081019091528060008152602001600081526000602082018190526040820181905260608083018290526080830182905260a083015260c0909101908152600060208201819052604082018190526060808301526080820181905260a09091015290565b6040805160a0810182526000808252602082018190529181018290526060810182905290608082015290565b82805482825590600052602060002090600301600490048101928215614ff15791602002820160005b83821115614fbb57835183826101000a81548167ffffffffffffffff021916908367ffffffffffffffff1602179055509260200192600801602081600701049283019260010302614f6f565b8015614fef5782816101000a81549067ffffffffffffffff0219169055600801602081600701049283019260010302614fbb565b505b50614ffd929150615138565b5090565b82805482825590600052602060002090601f016020900481019282156150965791602002820160005b8382111561506757835183826101000a81548160ff021916908315150217905550926020019260010160208160000104928301926001030261502a565b80156150945782816101000a81549060ff0219169055600101602081600001049283019260010302615067565b505b50614ffd92915061515d565b6101c060405190810160405280606081526020016000600160a060020a031681526020016000600160a060020a031681526020016000600160a060020a031681526020016000815260200160008152602001600081526020016000815260200160008152602001600081526020016000600281111561511d57fe5b81526020016000815260200160008152602001600081525090565b610c5791905b80821115614ffd57805467ffffffffffffffff1916815560010161513e565b610c5791905b80821115614ffd57805460ff1916815560010161516356004b92d35447745e95b7344414a41ae94984787d0ebcd2c12021169197bb59af39a165627a7a7230582044f7669ef9563435ddbb15cd0156ed79796f8353e6899c32db0740879bea8e0b0029",
  "source": "pragma solidity ^0.4.23;\n\n\nimport \"zeppelin-solidity/contracts/ownership/Ownable.sol\";\nimport \"zeppelin-solidity/contracts/lifecycle/Pausable.sol\";\nimport \"./SNM.sol\";\nimport \"./Blacklist.sol\";\nimport \"./OracleUSD.sol\";\nimport \"./ProfileRegistry.sol\";\n\n\ncontract Market is Ownable, Pausable {\n\n    using SafeMath for uint256;\n\n    // DECLARATIONS\n\n    enum DealStatus{\n        STATUS_UNKNOWN,\n        STATUS_ACCEPTED,\n        STATUS_CLOSED\n    }\n\n    enum OrderType {\n        ORDER_UNKNOWN,\n        ORDER_BID,\n        ORDER_ASK\n    }\n\n    enum OrderStatus {\n        UNKNOWN,\n        ORDER_INACTIVE,\n        ORDER_ACTIVE\n    }\n\n    enum RequestStatus {\n        REQUEST_UNKNOWN,\n        REQUEST_CREATED,\n        REQUEST_CANCELED,\n        REQUEST_REJECTED,\n        REQUEST_ACCEPTED\n    }\n\n    enum BlacklistPerson {\n        BLACKLIST_NOBODY,\n        BLACKLIST_WORKER,\n        BLACKLIST_MASTER\n    }\n\n    struct Deal {\n        uint64[] benchmarks;\n        address supplierID;\n        address consumerID;\n        address masterID;\n        uint askID;\n        uint bidID;\n        uint duration;\n        uint price; //usd * 10^-18\n        uint startTime;\n        uint endTime;\n        DealStatus status;\n        uint blockedBalance;\n        uint totalPayout;\n        uint lastBillTS;\n    }\n\n    struct Order {\n        OrderType orderType;\n        OrderStatus orderStatus;\n        address author;\n        address counterparty;\n        uint duration;\n        uint256 price;\n        bool[] netflags;\n        ProfileRegistry.IdentityLevel identityLevel;\n        address blacklist;\n        bytes32 tag;\n        uint64[] benchmarks;\n        uint frozenSum;\n        uint dealID;\n    }\n\n    struct ChangeRequest {\n        uint dealID;\n        OrderType requestType;\n        uint price;\n        uint duration;\n        RequestStatus status;\n    }\n\n    // EVENTS\n\n    event OrderPlaced(uint indexed orderID);\n    event OrderUpdated(uint indexed orderID);\n\n    event DealOpened(uint indexed dealID);\n    event DealUpdated(uint indexed dealID);\n\n    event Billed(uint indexed dealID, uint indexed paidAmount);\n\n    event DealChangeRequestSet(uint indexed changeRequestID);\n    event DealChangeRequestUpdated(uint indexed changeRequestID);\n\n    event WorkerAnnounced(address indexed worker, address indexed master);\n    event WorkerConfirmed(address indexed worker, address indexed master);\n    event WorkerRemoved(address indexed worker, address indexed master);\n\n    event NumBenchmarksUpdated(uint indexed newNum);\n    event NumNetflagsUpdated(uint indexed newNum);\n\n    // VARS\n\n    uint constant MAX_BENCHMARKS_VALUE = 2 ** 63;\n\n    SNM token;\n\n    Blacklist bl;\n\n    OracleUSD oracle;\n\n    ProfileRegistry pr;\n\n    uint ordersAmount = 0;\n\n    uint dealAmount = 0;\n\n    uint requestsAmount = 0;\n\n    // current length of benchmarks\n    uint benchmarksQuantity;\n\n    // current length of netflags\n    uint netflagsQuantity;\n\n    mapping(uint => Order) public orders;\n\n    mapping(uint => Deal) public deals;\n\n    mapping(address => uint[]) dealsID;\n\n    mapping(uint => ChangeRequest) requests;\n\n    mapping(uint => uint[2]) actualRequests;\n\n    mapping(address => address) masterOf;\n\n    mapping(address => bool) isMaster;\n\n    mapping(address => mapping(address => bool)) masterRequest;\n\n    // INIT\n\n    constructor(address _token, address _blacklist, address _oracle, address _profileRegistry, uint _benchmarksQuantity, uint _netflagsQuantity) public {\n        token = SNM(_token);\n        bl = Blacklist(_blacklist);\n        oracle = OracleUSD(_oracle);\n        pr = ProfileRegistry(_profileRegistry);\n        benchmarksQuantity = _benchmarksQuantity;\n        netflagsQuantity = _netflagsQuantity;\n    }\n\n    // EXTERNAL\n\n    // Order functions\n\n    function PlaceOrder(\n        OrderType _orderType,\n        address _id_counterparty,\n        uint _duration,\n        uint _price,\n        bool[] _netflags,\n        ProfileRegistry.IdentityLevel _identityLevel,\n        address _blacklist,\n        bytes32 _tag,\n        uint64[] _benchmarks\n    ) whenNotPaused public returns (uint){\n\n        require(_identityLevel >= ProfileRegistry.IdentityLevel.ANONYMOUS);\n        require(_netflags.length <= netflagsQuantity);\n        require(_benchmarks.length <= benchmarksQuantity);\n\n        for (uint i = 0; i < _benchmarks.length; i++) {\n            require(_benchmarks[i] < MAX_BENCHMARKS_VALUE);\n        }\n\n        uint lockedSum = 0;\n\n        if (_orderType == OrderType.ORDER_BID) {\n            if (_duration == 0) {\n                lockedSum = CalculatePayment(_price, 1 hours);\n            } else if (_duration < 1 days) {\n                lockedSum = CalculatePayment(_price, _duration);\n            } else {\n                lockedSum = CalculatePayment(_price, 1 days);\n            }\n            // this line contains err.\n            require(token.transferFrom(msg.sender, this, lockedSum));\n        }\n\n        ordersAmount = ordersAmount.add(1);\n        uint256 orderId = ordersAmount;\n\n        orders[orderId] = Order(\n            _orderType,\n            OrderStatus.ORDER_ACTIVE,\n            msg.sender,\n            _id_counterparty,\n            _duration,\n            _price,\n            _netflags,\n            _identityLevel,\n            _blacklist,\n            _tag,\n            _benchmarks,\n            lockedSum,\n            0\n        );\n\n        emit OrderPlaced(orderId);\n        return orderId;\n    }\n\n    function CancelOrder(uint orderID) public returns (bool){\n        require(orderID <= ordersAmount);\n        require(orders[orderID].orderStatus == OrderStatus.ORDER_ACTIVE);\n        require(orders[orderID].author == msg.sender);\n\n        require(token.transfer(msg.sender, orders[orderID].frozenSum));\n        orders[orderID].orderStatus = OrderStatus.ORDER_INACTIVE;\n\n        emit OrderUpdated(orderID);\n        return true;\n    }\n\n    function QuickBuy(uint askID, uint buyoutDuration) public whenNotPaused {\n        Order memory ask = orders[askID];\n        require(ask.orderType == OrderType.ORDER_ASK);\n        require(ask.orderStatus == OrderStatus.ORDER_ACTIVE);\n\n        require(ask.duration >= buyoutDuration);\n        require(pr.GetProfileLevel(msg.sender) >= ask.identityLevel);\n        require(bl.Check(msg.sender, GetMaster(ask.author)) == false && bl.Check(ask.author, msg.sender) == false);\n        require(bl.Check(ask.blacklist, msg.sender) == false);\n\n        PlaceOrder(\n            OrderType.ORDER_BID,\n            GetMaster(ask.author),\n            buyoutDuration,\n            ask.price,\n            ask.netflags,\n            ProfileRegistry.IdentityLevel.ANONYMOUS,\n            address(0),\n            bytes32(0),\n            ask.benchmarks);\n\n        OpenDeal(askID, GetOrdersAmount());\n    }\n\n    // Deal functions\n\n    function OpenDeal(uint _askID, uint _bidID) whenNotPaused public {\n        Order memory ask = orders[_askID];\n        Order memory bid = orders[_bidID];\n\n        require(ask.orderStatus == OrderStatus.ORDER_ACTIVE && bid.orderStatus == OrderStatus.ORDER_ACTIVE);\n        require((ask.counterparty == 0x0 || ask.counterparty == GetMaster(bid.author)) && (bid.counterparty == 0x0 || bid.counterparty == GetMaster(ask.author)));\n        require(ask.orderType == OrderType.ORDER_ASK);\n        require(bid.orderType == OrderType.ORDER_BID);\n        require(\n            bl.Check(bid.blacklist, GetMaster(ask.author)) == false\n            && bl.Check(bid.blacklist, ask.author) == false\n            && bl.Check(bid.author, GetMaster(ask.author)) == false\n            && bl.Check(bid.author, ask.author) == false\n            && bl.Check(ask.blacklist, bid.author) == false\n            && bl.Check(GetMaster(ask.author), bid.author) == false\n            && bl.Check(ask.author, bid.author) == false);\n        require(ask.price <= bid.price);\n        require(ask.duration >= bid.duration);\n        // profile level check\n        require(pr.GetProfileLevel(bid.author) >= ask.identityLevel);\n        require(pr.GetProfileLevel(ask.author) >= bid.identityLevel);\n\n        if (ask.netflags.length < netflagsQuantity) {\n            ask.netflags = ResizeNetflags(ask.netflags);\n        }\n\n        if (bid.netflags.length < netflagsQuantity) {\n            bid.netflags = ResizeNetflags(ask.netflags);\n        }\n\n        for (uint i = 0; i < ask.netflags.length; i++) {\n            // implementation: when bid contains requirement, ask necessary needs to have this\n            // if ask have this one - pass\n            require(!bid.netflags[i] || ask.netflags[i]);\n        }\n\n        if (ask.benchmarks.length < benchmarksQuantity) {\n            ask.benchmarks = ResizeBenchmarks(ask.benchmarks);\n        }\n\n        if (bid.benchmarks.length < benchmarksQuantity) {\n            bid.benchmarks = ResizeBenchmarks(bid.benchmarks);\n        }\n\n        for (i = 0; i < ask.benchmarks.length; i++) {\n            require(ask.benchmarks[i] >= bid.benchmarks[i]);\n        }\n\n        dealAmount = dealAmount.add(1);\n        address master = GetMaster(ask.author);\n        orders[_askID].orderStatus = OrderStatus.ORDER_INACTIVE;\n        orders[_bidID].orderStatus = OrderStatus.ORDER_INACTIVE;\n        orders[_askID].dealID = dealAmount;\n        orders[_bidID].dealID = dealAmount;\n\n        emit OrderUpdated(_askID);\n        emit OrderUpdated(_bidID);\n\n        uint startTime = block.timestamp;\n        uint endTime = 0;\n        // `0` - for spot deal\n\n        // if deal is normal\n        if (ask.duration != 0) {\n            endTime = startTime.add(bid.duration);\n        }\n        uint blockedBalance = bid.frozenSum;\n        deals[dealAmount] = Deal(ask.benchmarks, ask.author, bid.author, master, _askID, _bidID, bid.duration, ask.price, startTime, endTime, DealStatus.STATUS_ACCEPTED, blockedBalance, 0, block.timestamp);\n        emit DealOpened(dealAmount);\n    }\n\n    function CloseDeal(uint dealID, BlacklistPerson blacklisted) public returns (bool){\n        require((deals[dealID].status == DealStatus.STATUS_ACCEPTED));\n        require(msg.sender == deals[dealID].supplierID || msg.sender == deals[dealID].consumerID || msg.sender == deals[dealID].masterID);\n\n        if (block.timestamp <= deals[dealID].startTime.add(deals[dealID].duration)) {\n            // after endTime\n            require(deals[dealID].consumerID == msg.sender);\n        }\n        AddToBlacklist(dealID, blacklisted);\n        InternalBill(dealID);\n        InternalCloseDeal(dealID);\n        RefundRemainingFunds(dealID);\n        return true;\n    }\n\n    function Bill(uint dealID) public returns (bool){\n        InternalBill(dealID);\n        ReserveNextPeriodFunds(dealID);\n        return true;\n    }\n\n    function CreateChangeRequest(uint dealID, uint newPrice, uint newDuration) public returns (uint changeRequestID) {\n        require(msg.sender == deals[dealID].consumerID || msg.sender == deals[dealID].masterID || msg.sender == deals[dealID].supplierID);\n        require(deals[dealID].status == DealStatus.STATUS_ACCEPTED);\n\n        if (IsSpot(dealID)) {\n            require(newDuration == 0);\n        }\n\n        requestsAmount = requestsAmount.add(1);\n\n        OrderType requestType;\n\n        if (msg.sender == deals[dealID].consumerID) {\n            requestType = OrderType.ORDER_BID;\n        } else {\n            requestType = OrderType.ORDER_ASK;\n        }\n\n        requests[requestsAmount] = ChangeRequest(dealID, requestType, newPrice, newDuration, RequestStatus.REQUEST_CREATED);\n        emit DealChangeRequestSet(requestsAmount);\n\n        if (requestType == OrderType.ORDER_BID) {\n            emit DealChangeRequestUpdated(actualRequests[dealID][1]);\n            requests[actualRequests[dealID][1]].status = RequestStatus.REQUEST_CANCELED;\n            actualRequests[dealID][1] = requestsAmount;\n            ChangeRequest memory matchingRequest = requests[actualRequests[dealID][0]];\n\n            if (newDuration == deals[dealID].duration && newPrice > deals[dealID].price) {\n                requests[requestsAmount].status = RequestStatus.REQUEST_ACCEPTED;\n                Bill(dealID);\n                deals[dealID].price = newPrice;\n                actualRequests[dealID][1] = 0;\n                emit DealChangeRequestUpdated(requestsAmount);\n            } else if (matchingRequest.status == RequestStatus.REQUEST_CREATED && matchingRequest.duration >= newDuration && matchingRequest.price <= newPrice) {\n                requests[requestsAmount].status = RequestStatus.REQUEST_ACCEPTED;\n                requests[actualRequests[dealID][0]].status = RequestStatus.REQUEST_ACCEPTED;\n                emit DealChangeRequestUpdated(actualRequests[dealID][0]);\n                actualRequests[dealID][0] = 0;\n                actualRequests[dealID][1] = 0;\n                Bill(dealID);\n                deals[dealID].price = matchingRequest.price;\n                deals[dealID].duration = newDuration;\n                emit DealChangeRequestUpdated(requestsAmount);\n            } else {\n                return requestsAmount;\n            }\n\n            requests[actualRequests[dealID][1]].status = RequestStatus.REQUEST_CANCELED;\n            emit DealChangeRequestUpdated(actualRequests[dealID][1]);\n            actualRequests[dealID][1] = requestsAmount;\n        }\n\n        if (requestType == OrderType.ORDER_ASK) {\n            emit DealChangeRequestUpdated(actualRequests[dealID][0]);\n            requests[actualRequests[dealID][0]].status = RequestStatus.REQUEST_CANCELED;\n            actualRequests[dealID][0] = requestsAmount;\n            matchingRequest = requests[actualRequests[dealID][1]];\n\n            if (newDuration == deals[dealID].duration && newPrice < deals[dealID].price) {\n                requests[requestsAmount].status = RequestStatus.REQUEST_ACCEPTED;\n                Bill(dealID);\n                deals[dealID].price = newPrice;\n                actualRequests[dealID][0] = 0;\n                emit DealChangeRequestUpdated(requestsAmount);\n            } else if (matchingRequest.status == RequestStatus.REQUEST_CREATED && matchingRequest.duration <= newDuration && matchingRequest.price >= newPrice) {\n                requests[requestsAmount].status = RequestStatus.REQUEST_ACCEPTED;\n                emit DealChangeRequestUpdated(actualRequests[dealID][1]);\n                actualRequests[dealID][0] = 0;\n                actualRequests[dealID][1] = 0;\n                Bill(dealID);\n                deals[dealID].price = newPrice;\n                deals[dealID].duration = matchingRequest.duration;\n                emit DealChangeRequestUpdated(requestsAmount);\n            } else {\n                return requestsAmount;\n            }\n        }\n\n        deals[dealID].endTime = deals[dealID].startTime.add(deals[dealID].duration);\n        return requestsAmount;\n    }\n\n    function CancelChangeRequest(uint changeRequestID) public returns (bool) {\n        ChangeRequest memory request = requests[changeRequestID];\n        require(msg.sender == deals[request.dealID].supplierID || msg.sender == deals[request.dealID].masterID || msg.sender == deals[request.dealID].consumerID);\n        require(request.status != RequestStatus.REQUEST_ACCEPTED);\n\n        if (request.requestType == OrderType.ORDER_ASK) {\n            if (msg.sender == deals[request.dealID].consumerID) {\n                requests[changeRequestID].status = RequestStatus.REQUEST_REJECTED;\n            } else {\n                requests[changeRequestID].status = RequestStatus.REQUEST_CANCELED;\n            }\n            actualRequests[request.dealID][0] = 0;\n            emit DealChangeRequestUpdated(changeRequestID);\n        }\n\n        if (request.requestType == OrderType.ORDER_BID) {\n            if (msg.sender == deals[request.dealID].consumerID) {\n                requests[changeRequestID].status = RequestStatus.REQUEST_CANCELED;\n            } else {\n                requests[changeRequestID].status = RequestStatus.REQUEST_REJECTED;\n            }\n            actualRequests[request.dealID][1] = 0;\n            emit DealChangeRequestUpdated(changeRequestID);\n        }\n        return true;\n    }\n\n    // Master-worker functions\n\n    function RegisterWorker(address _master) public whenNotPaused returns (bool) {\n        require(GetMaster(msg.sender) == msg.sender);\n        require(isMaster[msg.sender] == false);\n        require(GetMaster(_master) == _master);\n        masterRequest[_master][msg.sender] = true;\n        emit WorkerAnnounced(msg.sender, _master);\n        return true;\n    }\n\n    function ConfirmWorker(address _worker) public whenNotPaused returns (bool) {\n        require(masterRequest[msg.sender][_worker] == true);\n        masterOf[_worker] = msg.sender;\n        isMaster[msg.sender] = true;\n        delete masterRequest[msg.sender][_worker];\n        emit WorkerConfirmed(_worker, msg.sender);\n        return true;\n    }\n\n    function RemoveWorker(address _worker, address _master) public whenNotPaused returns (bool) {\n        require(GetMaster(_worker) == _master && (msg.sender == _worker || msg.sender == _master));\n        delete masterOf[_worker];\n        emit WorkerRemoved(_worker, _master);\n        return true;\n    }\n\n    // GETTERS\n\n    function GetOrderInfo(uint orderID) view public\n    returns (\n        OrderType orderType,\n        address author,\n        address counterparty,\n        uint duration,\n        uint price,\n        bool[] netflags,\n        ProfileRegistry.IdentityLevel identityLevel,\n        address blacklist,\n        bytes32 tag,\n        uint64[] benchmarks,\n        uint frozenSum\n    ){\n        Order memory order = orders[orderID];\n        return (\n        order.orderType,\n        order.author,\n        order.counterparty,\n        order.duration,\n        order.price,\n        order.netflags,\n        order.identityLevel,\n        order.blacklist,\n        order.tag,\n        order.benchmarks,\n        order.frozenSum\n        );\n    }\n\n\n    function GetOrderParams(uint orderID) view public\n    returns (\n        OrderStatus orderStatus,\n        uint dealID\n    ){\n        Order memory order = orders[orderID];\n        return (\n        order.orderStatus,\n        order.dealID\n        );\n    }\n\n    function GetDealInfo(uint dealID) view public\n    returns (\n        uint64[] benchmarks,\n        address supplierID,\n        address consumerID,\n        address masterID,\n        uint askID,\n        uint bidID,\n        uint startTime\n    ){\n        return (\n        deals[dealID].benchmarks,\n        deals[dealID].supplierID,\n        deals[dealID].consumerID,\n        deals[dealID].masterID,\n        deals[dealID].askID,\n        deals[dealID].bidID,\n        deals[dealID].startTime\n\n        );\n    }\n\n    function GetDealParams(uint dealID) view public\n    returns (\n        uint duration,\n        uint price,\n        uint endTime,\n        DealStatus status,\n        uint blockedBalance,\n        uint totalPayout,\n        uint lastBillTS\n    ){\n        return (\n        deals[dealID].duration,\n        deals[dealID].price,\n        deals[dealID].endTime,\n        deals[dealID].status,\n        deals[dealID].blockedBalance,\n        deals[dealID].totalPayout,\n        deals[dealID].lastBillTS\n        );\n    }\n\n    function GetMaster(address _worker) view public returns (address master) {\n        if (masterOf[_worker] == 0x0 || masterOf[_worker] == _worker) {\n            master = _worker;\n        } else {\n            master = masterOf[_worker];\n        }\n    }\n\n    function GetChangeRequestInfo(uint changeRequestID) view public\n    returns (\n        uint dealID,\n        OrderType requestType,\n        uint price,\n        uint duration,\n        RequestStatus status\n    ){\n        return (\n        requests[changeRequestID].dealID,\n        requests[changeRequestID].requestType,\n        requests[changeRequestID].price,\n        requests[changeRequestID].duration,\n        requests[changeRequestID].status\n        );\n    }\n\n    function GetDealsAmount() public view returns (uint){\n        return dealAmount;\n    }\n\n    function GetOrdersAmount() public view returns (uint){\n        return ordersAmount;\n    }\n\n    function GetChangeRequestsAmount() public view returns (uint){\n        return requestsAmount;\n    }\n\n    function GetBenchmarksQuantity() public view returns (uint) {\n        return benchmarksQuantity;\n    }\n\n    function GetNetflagsQuantity() public view returns (uint) {\n        return netflagsQuantity;\n    }\n\n\n    // INTERNAL\n\n    function InternalBill(uint dealID) internal returns (bool){\n        require(deals[dealID].status == DealStatus.STATUS_ACCEPTED);\n        require(msg.sender == deals[dealID].supplierID || msg.sender == deals[dealID].consumerID || msg.sender == deals[dealID].masterID);\n        Deal memory deal = deals[dealID];\n\n        uint paidAmount;\n\n        if (!IsSpot(dealID) && deal.lastBillTS >= deal.endTime) {\n            // means we already billed deal after endTime\n            return true;\n        } else if (!IsSpot(dealID) && block.timestamp > deal.endTime && deal.lastBillTS < deal.endTime) {\n            paidAmount = CalculatePayment(deal.price, deal.endTime.sub(deal.lastBillTS));\n        } else {\n            paidAmount = CalculatePayment(deal.price, block.timestamp.sub(deal.lastBillTS));\n        }\n\n        if (paidAmount > deal.blockedBalance) {\n            if (token.balanceOf(deal.consumerID) >= paidAmount.sub(deal.blockedBalance)) {\n                require(token.transferFrom(deal.consumerID, this, paidAmount.sub(deal.blockedBalance)));\n                deals[dealID].blockedBalance = deals[dealID].blockedBalance.add(paidAmount.sub(deal.blockedBalance));\n            } else {\n                emit Billed(dealID, deals[dealID].blockedBalance);\n                InternalCloseDeal(dealID);\n                require(token.transfer(deal.masterID, deal.blockedBalance));\n                deals[dealID].lastBillTS = block.timestamp;\n                deals[dealID].totalPayout = deals[dealID].totalPayout.add(deal.blockedBalance);\n                deals[dealID].blockedBalance = 0;\n                return true;\n            }\n        }\n        require(token.transfer(deal.masterID, paidAmount));\n        deals[dealID].blockedBalance = deals[dealID].blockedBalance.sub(paidAmount);\n        deals[dealID].totalPayout = deals[dealID].totalPayout.add(paidAmount);\n        deals[dealID].lastBillTS = block.timestamp;\n        emit Billed(dealID, paidAmount);\n        return true;\n    }\n\n    function ReserveNextPeriodFunds(uint dealID) internal returns (bool) {\n        uint nextPeriod;\n        Deal memory deal = deals[dealID];\n\n        if (IsSpot(dealID)) {\n            if (deal.status == DealStatus.STATUS_CLOSED) {\n                return true;\n            }\n            nextPeriod = 1 hours;\n        } else {\n            if (block.timestamp > deal.endTime) {\n                // we don't reserve funds for next period\n                return true;\n            }\n            if (deal.endTime.sub(block.timestamp) < 1 days) {\n                nextPeriod = deal.endTime.sub(block.timestamp);\n            } else {\n                nextPeriod = 1 days;\n            }\n        }\n\n        if (CalculatePayment(deal.price, nextPeriod) > deals[dealID].blockedBalance) {\n            uint nextPeriodSum = CalculatePayment(deal.price, nextPeriod).sub(deals[dealID].blockedBalance);\n\n            if (token.balanceOf(deal.consumerID) >= nextPeriodSum) {\n                require(token.transferFrom(deal.consumerID, this, nextPeriodSum));\n                deals[dealID].blockedBalance = deals[dealID].blockedBalance.add(nextPeriodSum);\n            } else {\n                emit Billed(dealID, deals[dealID].blockedBalance);\n                InternalCloseDeal(dealID);\n                RefundRemainingFunds(dealID);\n                return true;\n            }\n        }\n        return true;\n    }\n\n    function RefundRemainingFunds(uint dealID) internal returns (bool){\n        if (deals[dealID].blockedBalance != 0) {\n            token.transfer(deals[dealID].consumerID, deals[dealID].blockedBalance);\n            deals[dealID].blockedBalance = 0;\n        }\n        return true;\n    }\n\n    function IsSpot(uint dealID) internal view returns (bool){\n        return deals[dealID].duration == 0;\n    }\n\n    function CalculatePayment(uint _price, uint _period) internal view returns (uint) {\n        uint rate = oracle.getCurrentPrice();\n        return rate.mul(_price).mul(_period).div(1e18);\n    }\n\n    function AddToBlacklist(uint dealID, BlacklistPerson role) internal {\n        // only consumer can blacklist\n        require(msg.sender == deals[dealID].consumerID || role == BlacklistPerson.BLACKLIST_NOBODY);\n        if (role == BlacklistPerson.BLACKLIST_WORKER) {\n            bl.Add(deals[dealID].consumerID, deals[dealID].supplierID);\n        } else if (role == BlacklistPerson.BLACKLIST_MASTER) {\n            bl.Add(deals[dealID].consumerID, deals[dealID].masterID);\n        }\n    }\n\n    function InternalCloseDeal(uint dealID) internal {\n        if (deals[dealID].status == DealStatus.STATUS_CLOSED) {\n            return;\n        }\n        require((deals[dealID].status == DealStatus.STATUS_ACCEPTED));\n        require(msg.sender == deals[dealID].consumerID || msg.sender == deals[dealID].supplierID || msg.sender == deals[dealID].masterID);\n        deals[dealID].status = DealStatus.STATUS_CLOSED;\n        deals[dealID].endTime = block.timestamp;\n        emit DealUpdated(dealID);\n    }\n\n    function ResizeBenchmarks(uint64[] _benchmarks) internal view returns (uint64[]) {\n        uint64[] memory benchmarks = new uint64[](benchmarksQuantity);\n        for (uint i = 0; i < _benchmarks.length; i++) {\n            benchmarks[i] = _benchmarks[i];\n        }\n        return benchmarks;\n    }\n\n    function ResizeNetflags(bool[] _netflags) internal view returns (bool[]) {\n        bool[] memory netflags = new bool[](netflagsQuantity);\n        for (uint i = 0; i < _netflags.length; i++) {\n            netflags[i] = _netflags[i];\n        }\n        return netflags;\n    }\n\n    // SETTERS\n\n    function SetProfileRegistryAddress(address _newPR) onlyOwner public returns (bool) {\n        pr = ProfileRegistry(_newPR);\n        return true;\n    }\n\n    function SetBlacklistAddress(address _newBL) onlyOwner public returns (bool) {\n        bl = Blacklist(_newBL);\n        return true;\n    }\n\n    function SetOracleAddress(address _newOracle) onlyOwner public returns (bool) {\n        require(OracleUSD(_newOracle).getCurrentPrice() != 0);\n        oracle = OracleUSD(_newOracle);\n        return true;\n    }\n\n    function SetBenchmarksQuantity(uint _newQuantity) onlyOwner public returns (bool) {\n        require(_newQuantity > benchmarksQuantity);\n        emit NumBenchmarksUpdated(_newQuantity);\n        benchmarksQuantity = _newQuantity;\n        return true;\n    }\n\n    function SetNetflagsQuantity(uint _newQuantity) onlyOwner public returns (bool) {\n        require(_newQuantity > netflagsQuantity);\n        emit NumNetflagsUpdated(_newQuantity);\n        netflagsQuantity = _newQuantity;\n        return true;\n    }\n}\n",
  "sourcePath": "/Users/anton/go/src/github.com/sonm-io/core/blockchain/source/contracts/Market.sol",
  "compiler": {
    "name": "solc",
    "version": "0.4.23+commit.124ca40d.Emscripten.clang"
  },
  "schemaVersion": "2.0.0",
  "updatedAt": "2018-06-20T18:15:25.285Z"
}