{
  "contractName": "OracleUSD",
  "abi": [
    {
      "constant": true,
      "inputs": [],
      "name": "owner",
      "outputs": [
        {
          "name": "",
          "type": "address"
        }
      ],
      "payable": false,
      "stateMutability": "view",
      "type": "function"
    },
    {
      "constant": false,
      "inputs": [
        {
          "name": "newOwner",
          "type": "address"
        }
      ],
      "name": "transferOwnership",
      "outputs": [],
      "payable": false,
      "stateMutability": "nonpayable",
      "type": "function"
    },
    {
      "inputs": [],
      "payable": false,
      "stateMutability": "nonpayable",
      "type": "constructor"
    },
    {
      "anonymous": false,
      "inputs": [
        {
          "indexed": false,
          "name": "price",
          "type": "uint256"
        }
      ],
      "name": "PriceChanged",
      "type": "event"
    },
    {
      "anonymous": false,
      "inputs": [
        {
          "indexed": true,
          "name": "previousOwner",
          "type": "address"
        },
        {
          "indexed": true,
          "name": "newOwner",
          "type": "address"
        }
      ],
      "name": "OwnershipTransferred",
      "type": "event"
    },
    {
      "constant": false,
      "inputs": [
        {
          "name": "_price",
          "type": "uint256"
        }
      ],
      "name": "setCurrentPrice",
      "outputs": [],
      "payable": false,
      "stateMutability": "nonpayable",
      "type": "function"
    },
    {
      "constant": true,
      "inputs": [],
      "name": "getCurrentPrice",
      "outputs": [
        {
          "name": "",
          "type": "uint256"
        }
      ],
      "payable": false,
      "stateMutability": "view",
      "type": "function"
    }
  ],
  "bytecode": "0x60806040526001805534801561001457600080fd5b5060008054600160a060020a03199081163390811790911617905561022d8061003e6000396000f3006080604052600436106100615763ffffffff7c010000000000000000000000000000000000000000000000000000000060003504166318b2007181146100665780638da5cb5b14610080578063eb91d37e146100b1578063f2fde38b146100d8575b600080fd5b34801561007257600080fd5b5061007e6004356100f9565b005b34801561008c57600080fd5b50610095610158565b60408051600160a060020a039092168252519081900360200190f35b3480156100bd57600080fd5b506100c6610167565b60408051918252519081900360200190f35b3480156100e457600080fd5b5061007e600160a060020a036004351661016d565b600054600160a060020a0316331461011057600080fd5b6000811161011d57600080fd5b60018190556040805182815290517fa6dc15bdb68da224c66db4b3838d9a2b205138e8cff6774e57d0af91e196d6229181900360200190a150565b600054600160a060020a031681565b60015490565b600054600160a060020a0316331461018457600080fd5b600160a060020a038116151561019957600080fd5b60008054604051600160a060020a03808516939216917f8be0079c531659141344cd1fd0a4f28419497f9722a3daafe3b4186f6b6457e091a36000805473ffffffffffffffffffffffffffffffffffffffff1916600160a060020a03929092169190911790555600a165627a7a7230582037d10c1862b75a28dc5d7f2cc1e9dbaa5f510af5c652a5e2a563878873b592640029",
  "source": "pragma solidity ^0.4.23;\n\n\nimport \"zeppelin-solidity/contracts/ownership/Ownable.sol\";\n\n\ncontract OracleUSD is Ownable {\n\n    uint currentPrice = 1;\n\n    event PriceChanged(uint price);\n\n    constructor() public{\n        owner = msg.sender;\n    }\n\n    function setCurrentPrice(uint _price) public onlyOwner{\n        require(_price > 0);\n        currentPrice = _price;\n        emit PriceChanged(_price);\n    }\n\n    function getCurrentPrice() view public returns (uint){\n        return currentPrice;\n    }\n}\n",
  "sourcePath": "/Users/anton/go/src/github.com/sonm-io/core/blockchain/source/contracts/OracleUSD.sol",
  "compiler": {
    "name": "solc",
    "version": "0.4.24+commit.e67f0147.Emscripten.clang"
  },
  "schemaVersion": "2.0.0",
  "updatedAt": "2018-05-28T17:11:20.385Z"
}