{
  "contractName": "OracleUSD",
  "abi": [
    {
      "constant": true,
      "inputs": [],
      "name": "owner",
      "outputs": [
        {
          "name": "",
          "type": "address"
        }
      ],
      "payable": false,
      "stateMutability": "view",
      "type": "function"
    },
    {
      "constant": false,
      "inputs": [
        {
          "name": "newOwner",
          "type": "address"
        }
      ],
      "name": "transferOwnership",
      "outputs": [],
      "payable": false,
      "stateMutability": "nonpayable",
      "type": "function"
    },
    {
      "inputs": [],
      "payable": false,
      "stateMutability": "nonpayable",
      "type": "constructor"
    },
    {
      "anonymous": false,
      "inputs": [
        {
          "indexed": false,
          "name": "price",
          "type": "uint256"
        }
      ],
      "name": "PriceChanged",
      "type": "event"
    },
    {
      "anonymous": false,
      "inputs": [
        {
          "indexed": true,
          "name": "previousOwner",
          "type": "address"
        },
        {
          "indexed": true,
          "name": "newOwner",
          "type": "address"
        }
      ],
      "name": "OwnershipTransferred",
      "type": "event"
    },
    {
      "constant": false,
      "inputs": [
        {
          "name": "_price",
          "type": "uint256"
        }
      ],
      "name": "setCurrentPrice",
      "outputs": [],
      "payable": false,
      "stateMutability": "nonpayable",
      "type": "function"
    },
    {
      "constant": true,
      "inputs": [],
      "name": "getCurrentPrice",
      "outputs": [
        {
          "name": "",
          "type": "uint256"
        }
      ],
      "payable": false,
      "stateMutability": "view",
      "type": "function"
    }
  ],
  "bytecode": "0x60806040526001805534801561001457600080fd5b5060008054600160a060020a033316600160a060020a03199182168117909116179055610235806100466000396000f3006080604052600436106100615763ffffffff7c010000000000000000000000000000000000000000000000000000000060003504166318b2007181146100665780638da5cb5b14610080578063eb91d37e146100b1578063f2fde38b146100d8575b600080fd5b34801561007257600080fd5b5061007e6004356100f9565b005b34801561008c57600080fd5b5061009561015c565b60408051600160a060020a039092168252519081900360200190f35b3480156100bd57600080fd5b506100c661016b565b60408051918252519081900360200190f35b3480156100e457600080fd5b5061007e600160a060020a0360043516610171565b60005433600160a060020a0390811691161461011457600080fd5b6000811161012157600080fd5b60018190556040805182815290517fa6dc15bdb68da224c66db4b3838d9a2b205138e8cff6774e57d0af91e196d6229181900360200190a150565b600054600160a060020a031681565b60015490565b60005433600160a060020a0390811691161461018c57600080fd5b600160a060020a03811615156101a157600080fd5b60008054604051600160a060020a03808516939216917f8be0079c531659141344cd1fd0a4f28419497f9722a3daafe3b4186f6b6457e091a36000805473ffffffffffffffffffffffffffffffffffffffff1916600160a060020a03929092169190911790555600a165627a7a7230582085a17c1951aba16d247e15fb03c1c33153611adb2e629594952a37a66792211f0029",
  "source": "pragma solidity ^0.4.23;\n\n\nimport \"zeppelin-solidity/contracts/ownership/Ownable.sol\";\n\n\ncontract OracleUSD is Ownable {\n\n    uint currentPrice = 1;\n\n    event PriceChanged(uint price);\n\n    constructor() public{\n        owner = msg.sender;\n    }\n\n    function setCurrentPrice(uint _price) public onlyOwner{\n        require(_price > 0);\n        currentPrice = _price;\n        emit PriceChanged(_price);\n    }\n\n    function getCurrentPrice() view public returns (uint){\n        return currentPrice;\n    }\n}\n",
  "sourcePath": "/Users/anton/go/src/github.com/sonm-io/core/blockchain/source/contracts/OracleUSD.sol",
  "compiler": {
    "name": "solc",
    "version": "0.4.23+commit.124ca40d.Emscripten.clang"
  },
  "schemaVersion": "2.0.0",
  "updatedAt": "2018-06-20T18:15:24.906Z"
}