{
  "contractName": "ProfileRegistry",
  "abi": [
    {
      "constant": false,
      "inputs": [],
      "name": "unpause",
      "outputs": [],
      "payable": false,
      "stateMutability": "nonpayable",
      "type": "function"
    },
    {
      "constant": true,
      "inputs": [],
      "name": "paused",
      "outputs": [
        {
          "name": "",
          "type": "bool"
        }
      ],
      "payable": false,
      "stateMutability": "view",
      "type": "function"
    },
    {
      "constant": true,
      "inputs": [
        {
          "name": "",
          "type": "uint256"
        }
      ],
      "name": "certificates",
      "outputs": [
        {
          "name": "from",
          "type": "address"
        },
        {
          "name": "to",
          "type": "address"
        },
        {
          "name": "attributeType",
          "type": "uint256"
        },
        {
          "name": "value",
          "type": "bytes"
        }
      ],
      "payable": false,
      "stateMutability": "view",
      "type": "function"
    },
    {
      "constant": false,
      "inputs": [],
      "name": "pause",
      "outputs": [],
      "payable": false,
      "stateMutability": "nonpayable",
      "type": "function"
    },
    {
      "constant": true,
      "inputs": [],
      "name": "owner",
      "outputs": [
        {
          "name": "",
          "type": "address"
        }
      ],
      "payable": false,
      "stateMutability": "view",
      "type": "function"
    },
    {
      "constant": false,
      "inputs": [
        {
          "name": "newOwner",
          "type": "address"
        }
      ],
      "name": "transferOwnership",
      "outputs": [],
      "payable": false,
      "stateMutability": "nonpayable",
      "type": "function"
    },
    {
      "constant": true,
      "inputs": [
        {
          "name": "",
          "type": "address"
        }
      ],
      "name": "validators",
      "outputs": [
        {
          "name": "",
          "type": "int8"
        }
      ],
      "payable": false,
      "stateMutability": "view",
      "type": "function"
    },
    {
      "inputs": [],
      "payable": false,
      "stateMutability": "nonpayable",
      "type": "constructor"
    },
    {
      "anonymous": false,
      "inputs": [
        {
          "indexed": true,
          "name": "validator",
          "type": "address"
        }
      ],
      "name": "ValidatorCreated",
      "type": "event"
    },
    {
      "anonymous": false,
      "inputs": [
        {
          "indexed": true,
          "name": "validator",
          "type": "address"
        }
      ],
      "name": "ValidatorDeleted",
      "type": "event"
    },
    {
      "anonymous": false,
      "inputs": [
        {
          "indexed": true,
          "name": "id",
          "type": "uint256"
        }
      ],
      "name": "CertificateCreated",
      "type": "event"
    },
    {
      "anonymous": false,
      "inputs": [
        {
          "indexed": true,
          "name": "id",
          "type": "uint256"
        }
      ],
      "name": "CertificateUpdated",
      "type": "event"
    },
    {
      "anonymous": false,
      "inputs": [],
      "name": "Pause",
      "type": "event"
    },
    {
      "anonymous": false,
      "inputs": [],
      "name": "Unpause",
      "type": "event"
    },
    {
      "anonymous": false,
      "inputs": [
        {
          "indexed": true,
          "name": "previousOwner",
          "type": "address"
        },
        {
          "indexed": true,
          "name": "newOwner",
          "type": "address"
        }
      ],
      "name": "OwnershipTransferred",
      "type": "event"
    },
    {
      "constant": false,
      "inputs": [
        {
          "name": "_validator",
          "type": "address"
        },
        {
          "name": "_level",
          "type": "int8"
        }
      ],
      "name": "AddValidator",
      "outputs": [
        {
          "name": "",
          "type": "address"
        }
      ],
      "payable": false,
      "stateMutability": "nonpayable",
      "type": "function"
    },
    {
      "constant": false,
      "inputs": [
        {
          "name": "_validator",
          "type": "address"
        }
      ],
      "name": "RemoveValidator",
      "outputs": [
        {
          "name": "",
          "type": "address"
        }
      ],
      "payable": false,
      "stateMutability": "nonpayable",
      "type": "function"
    },
    {
      "constant": true,
      "inputs": [
        {
          "name": "_validator",
          "type": "address"
        }
      ],
      "name": "GetValidatorLevel",
      "outputs": [
        {
          "name": "",
          "type": "int8"
        }
      ],
      "payable": false,
      "stateMutability": "view",
      "type": "function"
    },
    {
      "constant": false,
      "inputs": [
        {
          "name": "_owner",
          "type": "address"
        },
        {
          "name": "_type",
          "type": "uint256"
        },
        {
          "name": "_value",
          "type": "bytes"
        }
      ],
      "name": "CreateCertificate",
      "outputs": [],
      "payable": false,
      "stateMutability": "nonpayable",
      "type": "function"
    },
    {
      "constant": false,
      "inputs": [
        {
          "name": "_id",
          "type": "uint256"
        }
      ],
      "name": "RemoveCertificate",
      "outputs": [],
      "payable": false,
      "stateMutability": "nonpayable",
      "type": "function"
    },
    {
      "constant": true,
      "inputs": [
        {
          "name": "_id",
          "type": "uint256"
        }
      ],
      "name": "GetCertificate",
      "outputs": [
        {
          "name": "",
          "type": "address"
        },
        {
          "name": "",
          "type": "address"
        },
        {
          "name": "",
          "type": "uint256"
        },
        {
          "name": "",
          "type": "bytes"
        }
      ],
      "payable": false,
      "stateMutability": "view",
      "type": "function"
    },
    {
      "constant": true,
      "inputs": [
        {
          "name": "_owner",
          "type": "address"
        },
        {
          "name": "_type",
          "type": "uint256"
        }
      ],
      "name": "GetAttributeValue",
      "outputs": [
        {
          "name": "",
          "type": "bytes"
        }
      ],
      "payable": false,
      "stateMutability": "view",
      "type": "function"
    },
    {
      "constant": true,
      "inputs": [
        {
          "name": "_owner",
          "type": "address"
        },
        {
          "name": "_type",
          "type": "uint256"
        }
      ],
      "name": "GetAttributeCount",
      "outputs": [
        {
          "name": "",
          "type": "uint256"
        }
      ],
      "payable": false,
      "stateMutability": "view",
      "type": "function"
    },
    {
      "constant": true,
      "inputs": [
        {
          "name": "_owner",
          "type": "address"
        }
      ],
      "name": "GetProfileLevel",
      "outputs": [
        {
          "name": "",
          "type": "uint8"
        }
      ],
      "payable": false,
      "stateMutability": "view",
      "type": "function"
    },
    {
      "constant": false,
      "inputs": [
        {
          "name": "_validator",
          "type": "address"
        }
      ],
      "name": "AddSonmValidator",
      "outputs": [
        {
          "name": "",
          "type": "bool"
        }
      ],
      "payable": false,
      "stateMutability": "nonpayable",
      "type": "function"
    },
    {
      "constant": false,
      "inputs": [
        {
          "name": "_validator",
          "type": "address"
        }
      ],
      "name": "RemoveSonmValidator",
      "outputs": [
        {
          "name": "",
          "type": "bool"
        }
      ],
      "payable": false,
      "stateMutability": "nonpayable",
      "type": "function"
    }
  ],
  "bytecode": "0x60806040526000805460a060020a60ff021916815560015534801561002357600080fd5b5060008054600160a060020a033316600160a060020a03199182168117909116811782558152600260205260409020805460ff191660ff1790556112a68061006c6000396000f3006080604052600436106100f95763ffffffff7c0100000000000000000000000000000000000000000000000000000000600035041662707c7581146100fe57806274fc39146101335780630553701a146101cc5780631af60f72146101ed57806323eee3e61461022a5780632eb4b2a51461026f5780633e34e129146102895780633f4ba83a146103525780635c975abb146103675780636209a6331461037c578063663b3e22146103b25780638456cb59146103ca5780638997d27a146103df5780638da5cb5b1461041957806393d767421461042e578063e7bcef4414610497578063f2fde38b146104be578063fa52c7d8146104df575b600080fd5b34801561010a57600080fd5b5061011f600160a060020a0360043516610500565b604080519115158252519081900360200190f35b34801561013f57600080fd5b50610157600160a060020a0360043516602435610548565b6040805160208082528351818301528351919283929083019185019080838360005b83811015610191578181015183820152602001610179565b50505050905090810190601f1680156101be5780820380516001836020036101000a031916815260200191505b509250505060405180910390f35b3480156101d857600080fd5b5061011f600160a060020a03600435166105fc565b3480156101f957600080fd5b5061020e600160a060020a0360043516610658565b60408051600160a060020a039092168252519081900360200190f35b34801561023657600080fd5b5061024b600160a060020a03600435166106ee565b6040518082600481111561025b57fe5b60ff16815260200191505060405180910390f35b34801561027b57600080fd5b5061028760043561074e565b005b34801561029557600080fd5b506102a1600435610a3c565b6040518085600160a060020a0316600160a060020a0316815260200184600160a060020a0316600160a060020a0316815260200183815260200180602001828103825283818151815260200191508051906020019080838360005b838110156103145781810151838201526020016102fc565b50505050905090810190601f1680156103415780820380516001836020036101000a031916815260200191505b509550505050505060405180910390f35b34801561035e57600080fd5b50610287610b0e565b34801561037357600080fd5b5061011f610b88565b34801561038857600080fd5b506103a0600160a060020a0360043516602435610b98565b60408051918252519081900360200190f35b3480156103be57600080fd5b506102a1600435610bc0565b3480156103d657600080fd5b50610287610c7f565b3480156103eb57600080fd5b50610400600160a060020a0360043516610cfe565b60408051600092830b90920b8252519081900360200190f35b34801561042557600080fd5b5061020e610d1b565b34801561043a57600080fd5b50604080516020600460443581810135601f8101849004840285018401909552848452610287948235600160a060020a0316946024803595369594606494920191908190840183828082843750949750610d2a9650505050505050565b3480156104a357600080fd5b5061020e600160a060020a036004351660243560000b611060565b3480156104ca57600080fd5b50610287600160a060020a036004351661110d565b3480156104eb57600080fd5b50610400600160a060020a03600435166111a5565b6000805433600160a060020a0390811691161461051c57600080fd5b50600160a060020a0381166000908152600260205260409020805460ff191660ff17905560015b919050565b600160a060020a038216600090815260046020908152604080832084845282529182902080548351601f60026000196101006001861615020190931692909204918201849004840281018401909452808452606093928301828280156105ef5780601f106105c4576101008083540402835291602001916105ef565b820191906000526020600020905b8154815290600101906020018083116105d257829003601f168201915b5050505050905092915050565b6000805433600160a060020a0390811691161461061857600080fd5b61062182610cfe565b60000b60001914151561063357600080fd5b50600160a060020a03166000908152600260205260409020805460ff19169055600190565b600061066333610cfe565b60000b60001914151561067557600080fd5b60005460a060020a900460ff161561068c57600080fd5b600061069783610cfe565b60000b136106a457600080fd5b600160a060020a038216600081815260026020526040808220805460ff19169055517fa7a579573d398d7b67cd7450121bb250bbd060b29eabafdebc3ce0918658635c9190a25090565b6000806106fd83610579610548565b51111561070c57506004610543565b600061071a83610515610548565b51111561072957506003610543565b6000610737836104b1610548565b51111561074657506002610543565b506001610543565b6107566111b9565b60005460a060020a900460ff161561076d57600080fd5b60008281526003602081815260409283902083516080810185528154600160a060020a0390811682526001808401549091168285015260028084015483880152948301805487516101009382161593909302600019011695909504601f8101859004850282018501909652858152909491936060860193919290918301828280156108395780601f1061080e57610100808354040283529160200191610839565b820191906000526020600020905b81548152906001019060200180831161081c57829003601f168201915b505050505081525050905033600160a060020a03168160200151600160a060020a0316148061087d575033600160a060020a03168160000151600160a060020a0316145b80610894575061088c33610cfe565b60000b600019145b151561089f57600080fd5b604051606082015180517fc5d2460186f7233c927e7db2dcc703c0e500b653ca82273b7bfad8045d85a4709290819060208401908083835b602083106108f65780518252601f1990920191602091820191016108d7565b6001836020036101000a0380198251168184511680821785525050505050509050019150506040518091039020600019161415151561093457600080fd5b60208082018051600160a060020a03908116600090815260058085526040808320818801805185529087528184205486518616855283885282852082518652885282852060001990910190559451909316825284528181209251815291909252205415156109dd57604080516020818101808452600080845285830151600160a060020a031681526004835284812086860151825290925292902090516109db92906111df565b505b6040805160208181018084526000808452868152600392839052939093209151610a0c939290910191906111df565b5060405182907f9a100d2018161ede6ca34c8007992b09bbffc636a636014a922e4c875041262890600090a25050565b6000818152600360208181526040808420805460018083015460028085015494909701805486516101009482161594909402600019011697909704601f810187900487028301870190955284825287968796606096600160a060020a039586169695909316949391928391830182828015610af85780601f10610acd57610100808354040283529160200191610af8565b820191906000526020600020905b815481529060010190602001808311610adb57829003601f168201915b5050505050905093509350935093509193509193565b60005433600160a060020a03908116911614610b2957600080fd5b60005460a060020a900460ff161515610b4157600080fd5b6000805474ff0000000000000000000000000000000000000000191681556040517f7805862f689e2f13df9f062ff482ad3ad112aca9e0847911ed832e158c525b339190a1565b60005460a060020a900460ff1681565b600160a060020a03919091166000908152600560209081526040808320938352929052205490565b6003602081815260009283526040928390208054600180830154600280850154968501805489516101009582161595909502600019011691909104601f8101879004870284018701909852878352600160a060020a039384169793909116959491929091830182828015610c755780601f10610c4a57610100808354040283529160200191610c75565b820191906000526020600020905b815481529060010190602001808311610c5857829003601f168201915b5050505050905084565b60005433600160a060020a03908116911614610c9a57600080fd5b60005460a060020a900460ff1615610cb157600080fd5b6000805474ff0000000000000000000000000000000000000000191660a060020a1781556040517f6985a02210a168e66602d3235cb6db0e70f92b3ba4d376a33c0f3d9434bff6259190a1565b600160a060020a0316600090815260026020526040812054900b90565b600054600160a060020a031681565b60008054819060a060020a900460ff1615610d4457600080fd5b61044c8410610d7857600a60648504069150610d5f33610cfe565b60000b8260000b13151515610d7357600080fd5b610d98565b33600160a060020a031685600160a060020a0316141515610d9857600080fd5b60405183517fc5d2460186f7233c927e7db2dcc703c0e500b653ca82273b7bfad8045d85a470918591819060208401908083835b60208310610deb5780518252601f199092019160209182019101610dcc565b6001836020036101000a03801982511681845116808217855250505050505090500191505060405180910390206000191614151515610e2957600080fd5b5060026103e884041480610f6f57600160a060020a03851660009081526005602090815260408083208784529091529020541515610e9857600160a060020a038516600090815260046020908152604080832087845282529091208451610e92928601906111df565b50610f6f565b826040518082805190602001908083835b60208310610ec85780518252601f199092019160209182019101610ea9565b6001836020036101000a038019825116818451168082178552505050505050905001915050604051809103902060001916610f038686610548565b6040518082805190602001908083835b60208310610f325780518252601f199092019160209182019101610f13565b6001836020036101000a038019825116818451168082178552505050505050905001915050604051809103902060001916141515610f6f57600080fd5b600160a060020a03808616600081815260056020908152604080832089845282528083208054600190810190915580548101808255825160808101845233881681528085019687528084018c8152606082018c815292875260038087529490962081518154908a1673ffffffffffffffffffffffffffffffffffffffff199182161782559751938101805494909916939097169290921790965592516002850155935180519294611028939085019291909101906111df565b50506001546040519091507fb9bb1df26fde5c1295a7ccd167330e5d6cb9df14fe4c3884669a64433cc9e76090600090a25050505050565b600061106b33610cfe565b60000b60001914151561107d57600080fd5b60005460a060020a900460ff161561109457600080fd5b600082810b136110a357600080fd5b6110ac83610cfe565b60000b156110b957600080fd5b600160a060020a038316600081815260026020526040808220805460ff191660ff87850b16179055517f02db26aafd16e8ecd93c4fa202917d50b1693f30b1594e57f7a432ede944eefc9190a25090919050565b60005433600160a060020a0390811691161461112857600080fd5b600160a060020a038116151561113d57600080fd5b60008054604051600160a060020a03808516939216917f8be0079c531659141344cd1fd0a4f28419497f9722a3daafe3b4186f6b6457e091a36000805473ffffffffffffffffffffffffffffffffffffffff1916600160a060020a0392909216919091179055565b600260205260009081526040812054900b81565b604080516080810182526000808252602082018190529181019190915260608082015290565b828054600181600116156101000203166002900490600052602060002090601f016020900481019282601f1061122057805160ff191683800117855561124d565b8280016001018555821561124d579182015b8281111561124d578251825591602001919060010190611232565b5061125992915061125d565b5090565b61127791905b808211156112595760008155600101611263565b905600a165627a7a7230582058fea0aa8789348917b82671c1117510312e07edaa868a15ec8b7bbe7b4d3ced0029",
  "source": "pragma solidity ^0.4.23;\n\n\nimport \"zeppelin-solidity/contracts/ownership/Ownable.sol\";\nimport \"zeppelin-solidity/contracts/lifecycle/Pausable.sol\";\n\n\ncontract ProfileRegistry is Ownable, Pausable {\n\n    modifier onlySonm(){\n        require(GetValidatorLevel(msg.sender) == - 1);\n        _;\n    }\n\n    enum IdentityLevel {\n        UNKNOWN,\n        ANONYMOUS,\n        REGISTERED,\n        IDENTIFIED,\n        PROFESSIONAL\n    }\n\n    struct Certificate {\n        address from;\n\n        address to;\n\n        uint attributeType;\n\n        bytes value;\n    }\n\n    event ValidatorCreated(address indexed validator);\n\n    event ValidatorDeleted(address indexed validator);\n\n    event CertificateCreated(uint indexed id);\n\n    event CertificateUpdated(uint indexed id);\n\n    uint256 certificatesCount = 0;\n\n    mapping(address => int8) public validators;\n\n    mapping(uint256 => Certificate) public certificates;\n\n    mapping(address => mapping(uint256 => bytes)) certificateValue;\n\n    mapping(address => mapping(uint256 => uint)) certificateCount;\n\n    constructor() public {\n        owner = msg.sender;\n        validators[msg.sender] = - 1;\n    }\n\n    function AddValidator(address _validator, int8 _level) onlySonm whenNotPaused public returns (address){\n        require(_level > 0);\n        require(GetValidatorLevel(_validator) == 0);\n        validators[_validator] = _level;\n        emit ValidatorCreated(_validator);\n        return _validator;\n    }\n\n    function RemoveValidator(address _validator) onlySonm whenNotPaused public returns (address){\n        require(GetValidatorLevel(_validator) > 0);\n        validators[_validator] = 0;\n        emit ValidatorDeleted(_validator);\n        return _validator;\n    }\n\n    function GetValidatorLevel(address _validator) view public returns (int8){\n        return validators[_validator];\n    }\n\n    function CreateCertificate(address _owner, uint256 _type, bytes _value) whenNotPaused public {\n        //Check validator level\n        if (_type >= 1100) {\n            int8 attributeLevel = int8(_type / 100 % 10);\n            require(attributeLevel <= GetValidatorLevel(msg.sender));\n        } else {\n            require(_owner == msg.sender);\n        }\n\n        // Check empty value\n        require(keccak256(_value) != keccak256(\"\"));\n\n        bool isMultiple = _type / 1000 == 2;\n        if (!isMultiple) {\n            if (certificateCount[_owner][_type] == 0) {\n                certificateValue[_owner][_type] = _value;\n            } else {\n                require(keccak256(GetAttributeValue(_owner, _type)) == keccak256(_value));\n            }\n        }\n\n        certificateCount[_owner][_type] = certificateCount[_owner][_type] + 1;\n\n        certificatesCount = certificatesCount + 1;\n        certificates[certificatesCount] = Certificate(msg.sender, _owner, _type, _value);\n\n        emit CertificateCreated(certificatesCount);\n    }\n\n    function RemoveCertificate(uint256 _id) whenNotPaused public {\n        Certificate memory crt = certificates[_id];\n\n        require(crt.to == msg.sender || crt.from == msg.sender || GetValidatorLevel(msg.sender) == -1);\n        require(keccak256(crt.value) != keccak256(\"\"));\n\n        certificateCount[crt.to][crt.attributeType] = certificateCount[crt.to][crt.attributeType] - 1;\n        if (certificateCount[crt.to][crt.attributeType] == 0) {\n            certificateValue[crt.to][crt.attributeType] = \"\";\n        }\n        certificates[_id].value = \"\";\n        emit CertificateUpdated(_id);\n    }\n\n    function GetCertificate(uint256 _id) view public returns (address, address, uint256, bytes){\n        return (certificates[_id].from, certificates[_id].to, certificates[_id].attributeType, certificates[_id].value);\n    }\n\n    function GetAttributeValue(address _owner, uint256 _type) view public returns (bytes){\n        return certificateValue[_owner][_type];\n    }\n\n    function GetAttributeCount(address _owner, uint256 _type) view public returns (uint256){\n        return certificateCount[_owner][_type];\n    }\n\n    function GetProfileLevel(address _owner) view public returns (IdentityLevel){\n        if (GetAttributeValue(_owner, 1401).length > 0) {\n            return IdentityLevel.PROFESSIONAL;\n        } else if (GetAttributeValue(_owner, 1301).length > 0) {\n            return IdentityLevel.IDENTIFIED;\n        } else if (GetAttributeValue(_owner, 1201).length > 0) {\n            return IdentityLevel.REGISTERED;\n        } else {\n            return IdentityLevel.ANONYMOUS;\n        }\n    }\n\n    function AddSonmValidator(address _validator) onlyOwner public returns (bool) {\n        validators[_validator] = -1;\n        return true;\n    }\n\n    function RemoveSonmValidator(address _validator) onlyOwner public returns (bool) {\n        require(GetValidatorLevel(_validator) == -1);\n        validators[_validator] = 0;\n        return true;\n    }\n}\n",
  "sourcePath": "/Users/anton/go/src/github.com/sonm-io/core/blockchain/source/contracts/ProfileRegistry.sol",
  "compiler": {
    "name": "solc",
    "version": "0.4.23+commit.124ca40d.Emscripten.clang"
  },
  "schemaVersion": "2.0.0",
  "updatedAt": "2018-06-20T18:15:24.914Z"
}