{
  "contractName": "SimpleGatekeeper",
  "abi": [
    {
      "constant": true,
      "inputs": [],
      "name": "owner",
      "outputs": [
        {
          "name": "",
          "type": "address"
        }
      ],
      "payable": false,
      "stateMutability": "view",
      "type": "function"
    },
    {
      "constant": true,
      "inputs": [
        {
          "name": "",
          "type": "bytes32"
        }
      ],
      "name": "paid",
      "outputs": [
        {
          "name": "",
          "type": "bool"
        }
      ],
      "payable": false,
      "stateMutability": "view",
      "type": "function"
    },
    {
      "constant": true,
      "inputs": [],
      "name": "transactionAmount",
      "outputs": [
        {
          "name": "",
          "type": "uint256"
        }
      ],
      "payable": false,
      "stateMutability": "view",
      "type": "function"
    },
    {
      "constant": false,
      "inputs": [
        {
          "name": "newOwner",
          "type": "address"
        }
      ],
      "name": "transferOwnership",
      "outputs": [],
      "payable": false,
      "stateMutability": "nonpayable",
      "type": "function"
    },
    {
      "inputs": [
        {
          "name": "_token",
          "type": "address"
        }
      ],
      "payable": false,
      "stateMutability": "nonpayable",
      "type": "constructor"
    },
    {
      "anonymous": false,
      "inputs": [
        {
          "indexed": true,
          "name": "from",
          "type": "address"
        },
        {
          "indexed": true,
          "name": "txNumber",
          "type": "uint256"
        },
        {
          "indexed": true,
          "name": "value",
          "type": "uint256"
        }
      ],
      "name": "PayInTx",
      "type": "event"
    },
    {
      "anonymous": false,
      "inputs": [
        {
          "indexed": true,
          "name": "from",
          "type": "address"
        },
        {
          "indexed": true,
          "name": "txNumber",
          "type": "uint256"
        },
        {
          "indexed": true,
          "name": "value",
          "type": "uint256"
        }
      ],
      "name": "PayoutTx",
      "type": "event"
    },
    {
      "anonymous": false,
      "inputs": [
        {
          "indexed": false,
          "name": "block",
          "type": "uint256"
        }
      ],
      "name": "Suicide",
      "type": "event"
    },
    {
      "anonymous": false,
      "inputs": [
        {
          "indexed": true,
          "name": "previousOwner",
          "type": "address"
        },
        {
          "indexed": true,
          "name": "newOwner",
          "type": "address"
        }
      ],
      "name": "OwnershipTransferred",
      "type": "event"
    },
    {
      "constant": false,
      "inputs": [
        {
          "name": "_value",
          "type": "uint256"
        }
      ],
      "name": "PayIn",
      "outputs": [],
      "payable": false,
      "stateMutability": "nonpayable",
      "type": "function"
    },
    {
      "constant": false,
      "inputs": [
        {
          "name": "_to",
          "type": "address"
        },
        {
          "name": "_value",
          "type": "uint256"
        },
        {
          "name": "_txNumber",
          "type": "uint256"
        }
      ],
      "name": "Payout",
      "outputs": [],
      "payable": false,
      "stateMutability": "nonpayable",
      "type": "function"
    },
    {
      "constant": false,
      "inputs": [],
      "name": "kill",
      "outputs": [],
      "payable": false,
      "stateMutability": "nonpayable",
      "type": "function"
    }
  ],
  "bytecode": "0x6080604052600060025534801561001557600080fd5b506040516020806106d583398101604052516000805460018054600160a060020a03948516600160a060020a03199182161790915533939093169083168117909216909117905561066a8061006b6000396000f3006080604052600436106100825763ffffffff7c010000000000000000000000000000000000000000000000000000000060003504166341c0e1b58114610087578063634235fc1461009e5780638da5cb5b146100c55780639fab56ac146100f6578063add89bb21461010e578063d942bffa1461013a578063f2fde38b14610161575b600080fd5b34801561009357600080fd5b5061009c610182565b005b3480156100aa57600080fd5b5061009c600160a060020a036004351660243560443561031f565b3480156100d157600080fd5b506100da610489565b60408051600160a060020a039092168252519081900360200190f35b34801561010257600080fd5b5061009c600435610498565b34801561011a57600080fd5b5061012660043561058b565b604080519115158252519081900360200190f35b34801561014657600080fd5b5061014f6105a0565b60408051918252519081900360200190f35b34801561016d57600080fd5b5061009c600160a060020a03600435166105a6565b6000805433600160a060020a0390811691161461019e57600080fd5b600154604080517f70a08231000000000000000000000000000000000000000000000000000000008152600160a060020a033081166004830152915191909216916370a082319160248083019260209291908290030181600087803b15801561020657600080fd5b505af115801561021a573d6000803e3d6000fd5b505050506040513d602081101561023057600080fd5b505160015460008054604080517fa9059cbb000000000000000000000000000000000000000000000000000000008152600160a060020a03928316600482015260248101869052905194955092169263a9059cbb926044808201936020939283900390910190829087803b1580156102a757600080fd5b505af11580156102bb573d6000803e3d6000fd5b505050506040513d60208110156102d157600080fd5b505115156102de57600080fd5b6040805142815290517fa1ea9b09ea114021983e9ecf71cf2ffddfd80f5cb4f925e5bf24f9bdb5e55fde9181900360200190a1600054600160a060020a0316ff5b6000805433600160a060020a0390811691161461033b57600080fd5b50604080516c01000000000000000000000000600160a060020a0386160281526014810183905260348101849052815190819003605401902060008181526003602052919091205460ff161561039057600080fd5b600154604080517fa9059cbb000000000000000000000000000000000000000000000000000000008152600160a060020a038781166004830152602482018790529151919092169163a9059cbb9160448083019260209291908290030181600087803b1580156103ff57600080fd5b505af1158015610413573d6000803e3d6000fd5b505050506040513d602081101561042957600080fd5b5051151561043657600080fd5b600081815260036020526040808220805460ff191660011790555184918491600160a060020a038816917f731af16374848c2c73a6154fd410cb421138e7db45c5a904e5a475c756faa8d991a450505050565b600054600160a060020a031681565b600154604080517f23b872dd000000000000000000000000000000000000000000000000000000008152600160a060020a033381166004830152308116602483015260448201859052915191909216916323b872dd9160648083019260209291908290030181600087803b15801561050f57600080fd5b505af1158015610523573d6000803e3d6000fd5b505050506040513d602081101561053957600080fd5b5051151561054657600080fd5b6002805460010190819055604051829190600160a060020a033316907f63768eabd21c026cb17439a3c6556436c1b0219c2046875297ad3f4b14e6700f90600090a450565b60036020526000908152604090205460ff1681565b60025481565b60005433600160a060020a039081169116146105c157600080fd5b600160a060020a03811615156105d657600080fd5b60008054604051600160a060020a03808516939216917f8be0079c531659141344cd1fd0a4f28419497f9722a3daafe3b4186f6b6457e091a36000805473ffffffffffffffffffffffffffffffffffffffff1916600160a060020a03929092169190911790555600a165627a7a723058208f447f7fac4aab3e07133e574520820af20b375a0039a4d63b52615b0338f3cb0029",
  "source": "pragma solidity ^0.4.23;\n\n\nimport \"zeppelin-solidity/contracts/token/ERC20/StandardToken.sol\";\nimport \"zeppelin-solidity/contracts/ownership/Ownable.sol\";\n\n\ncontract SimpleGatekeeper is Ownable {\n\n    using SafeMath for uint256;\n\n    StandardToken token;\n\n    constructor(address _token) public {\n        token = StandardToken(_token);\n        owner = msg.sender;\n    }\n\n    uint256 public transactionAmount = 0;\n    mapping(bytes32 => bool) public paid;\n\n    event PayInTx(address indexed from, uint256 indexed txNumber, uint256 indexed value);\n    event PayoutTx(address indexed from, uint256 indexed txNumber, uint256 indexed value);\n    event Suicide(uint block);\n\n    function PayIn(uint256 _value) public {\n        require(token.transferFrom(msg.sender, this, _value));\n        transactionAmount = transactionAmount + 1;\n        emit PayInTx(msg.sender, transactionAmount, _value);\n    }\n\n    function Payout(address _to, uint256 _value, uint256 _txNumber) public onlyOwner{\n        bytes32 txHash = keccak256(_to, _txNumber, _value);\n        require(!paid[txHash]);\n        require(token.transfer(_to, _value));\n        paid[txHash] = true;\n        emit PayoutTx(_to, _txNumber, _value);\n    }\n\n    function kill() public onlyOwner{\n        uint balance = token.balanceOf(this);\n        require(token.transfer(owner, balance));\n        emit Suicide(block.timestamp); // solium-disable-line security/no-block-members\n        selfdestruct(owner);\n    }\n\n}\n",
  "sourcePath": "/Users/anton/go/src/github.com/sonm-io/core/blockchain/source/contracts/SimpleGatekeeper.sol",
  "compiler": {
    "name": "solc",
    "version": "0.4.23+commit.124ca40d.Emscripten.clang"
  },
  "schemaVersion": "2.0.0",
  "updatedAt": "2018-05-28T17:11:29.412Z"
}