{
  "contractName": "SimpleGatekeeper",
  "abi": [
    {
      "constant": true,
      "inputs": [],
      "name": "owner",
      "outputs": [
        {
          "name": "",
          "type": "address"
        }
      ],
      "payable": false,
      "stateMutability": "view",
      "type": "function"
    },
    {
      "constant": true,
      "inputs": [
        {
          "name": "",
          "type": "bytes32"
        }
      ],
      "name": "paid",
      "outputs": [
        {
          "name": "",
          "type": "bool"
        }
      ],
      "payable": false,
      "stateMutability": "view",
      "type": "function"
    },
    {
      "constant": true,
      "inputs": [],
      "name": "transactionAmount",
      "outputs": [
        {
          "name": "",
          "type": "uint256"
        }
      ],
      "payable": false,
      "stateMutability": "view",
      "type": "function"
    },
    {
      "constant": false,
      "inputs": [
        {
          "name": "newOwner",
          "type": "address"
        }
      ],
      "name": "transferOwnership",
      "outputs": [],
      "payable": false,
      "stateMutability": "nonpayable",
      "type": "function"
    },
    {
      "inputs": [
        {
          "name": "_token",
          "type": "address"
        }
      ],
      "payable": false,
      "stateMutability": "nonpayable",
      "type": "constructor"
    },
    {
      "anonymous": false,
      "inputs": [
        {
          "indexed": true,
          "name": "from",
          "type": "address"
        },
        {
          "indexed": true,
          "name": "txNumber",
          "type": "uint256"
        },
        {
          "indexed": true,
          "name": "value",
          "type": "uint256"
        }
      ],
      "name": "PayInTx",
      "type": "event"
    },
    {
      "anonymous": false,
      "inputs": [
        {
          "indexed": true,
          "name": "from",
          "type": "address"
        },
        {
          "indexed": true,
          "name": "txNumber",
          "type": "uint256"
        },
        {
          "indexed": true,
          "name": "value",
          "type": "uint256"
        }
      ],
      "name": "PayoutTx",
      "type": "event"
    },
    {
      "anonymous": false,
      "inputs": [
        {
          "indexed": false,
          "name": "block",
          "type": "uint256"
        }
      ],
      "name": "Suicide",
      "type": "event"
    },
    {
      "anonymous": false,
      "inputs": [
        {
          "indexed": true,
          "name": "previousOwner",
          "type": "address"
        },
        {
          "indexed": true,
          "name": "newOwner",
          "type": "address"
        }
      ],
      "name": "OwnershipTransferred",
      "type": "event"
    },
    {
      "constant": false,
      "inputs": [
        {
          "name": "_value",
          "type": "uint256"
        }
      ],
      "name": "PayIn",
      "outputs": [],
      "payable": false,
      "stateMutability": "nonpayable",
      "type": "function"
    },
    {
      "constant": false,
      "inputs": [
        {
          "name": "_to",
          "type": "address"
        },
        {
          "name": "_value",
          "type": "uint256"
        },
        {
          "name": "_txNumber",
          "type": "uint256"
        }
      ],
      "name": "Payout",
      "outputs": [],
      "payable": false,
      "stateMutability": "nonpayable",
      "type": "function"
    },
    {
      "constant": false,
      "inputs": [],
      "name": "kill",
      "outputs": [],
      "payable": false,
      "stateMutability": "nonpayable",
      "type": "function"
    }
  ],
  "bytecode": "0x6080604052600060025534801561001557600080fd5b506040516020806106b583398101604052516000805460018054600160a060020a03909416600160a060020a0319948516179055821633908117909216909117905561064f806100666000396000f3006080604052600436106100825763ffffffff7c010000000000000000000000000000000000000000000000000000000060003504166341c0e1b58114610087578063634235fc1461009e5780638da5cb5b146100c55780639fab56ac146100f6578063add89bb21461010e578063d942bffa1461013a578063f2fde38b14610161575b600080fd5b34801561009357600080fd5b5061009c610182565b005b3480156100aa57600080fd5b5061009c600160a060020a0360043516602435604435610319565b3480156100d157600080fd5b506100da61047f565b60408051600160a060020a039092168252519081900360200190f35b34801561010257600080fd5b5061009c60043561048e565b34801561011a57600080fd5b50610126600435610574565b604080519115158252519081900360200190f35b34801561014657600080fd5b5061014f610589565b60408051918252519081900360200190f35b34801561016d57600080fd5b5061009c600160a060020a036004351661058f565b60008054600160a060020a0316331461019a57600080fd5b600154604080517f70a082310000000000000000000000000000000000000000000000000000000081523060048201529051600160a060020a03909216916370a08231916024808201926020929091908290030181600087803b15801561020057600080fd5b505af1158015610214573d6000803e3d6000fd5b505050506040513d602081101561022a57600080fd5b505160015460008054604080517fa9059cbb000000000000000000000000000000000000000000000000000000008152600160a060020a03928316600482015260248101869052905194955092169263a9059cbb926044808201936020939283900390910190829087803b1580156102a157600080fd5b505af11580156102b5573d6000803e3d6000fd5b505050506040513d60208110156102cb57600080fd5b505115156102d857600080fd5b6040805142815290517fa1ea9b09ea114021983e9ecf71cf2ffddfd80f5cb4f925e5bf24f9bdb5e55fde9181900360200190a1600054600160a060020a0316ff5b60008054600160a060020a0316331461033157600080fd5b50604080516c01000000000000000000000000600160a060020a0386160281526014810183905260348101849052815190819003605401902060008181526003602052919091205460ff161561038657600080fd5b600154604080517fa9059cbb000000000000000000000000000000000000000000000000000000008152600160a060020a038781166004830152602482018790529151919092169163a9059cbb9160448083019260209291908290030181600087803b1580156103f557600080fd5b505af1158015610409573d6000803e3d6000fd5b505050506040513d602081101561041f57600080fd5b5051151561042c57600080fd5b600081815260036020526040808220805460ff191660011790555184918491600160a060020a038816917f731af16374848c2c73a6154fd410cb421138e7db45c5a904e5a475c756faa8d991a450505050565b600054600160a060020a031681565b600154604080517f23b872dd000000000000000000000000000000000000000000000000000000008152336004820152306024820152604481018490529051600160a060020a03909216916323b872dd916064808201926020929091908290030181600087803b15801561050157600080fd5b505af1158015610515573d6000803e3d6000fd5b505050506040513d602081101561052b57600080fd5b5051151561053857600080fd5b600280546001019081905560405182919033907f63768eabd21c026cb17439a3c6556436c1b0219c2046875297ad3f4b14e6700f90600090a450565b60036020526000908152604090205460ff1681565b60025481565b600054600160a060020a031633146105a657600080fd5b600160a060020a03811615156105bb57600080fd5b60008054604051600160a060020a03808516939216917f8be0079c531659141344cd1fd0a4f28419497f9722a3daafe3b4186f6b6457e091a36000805473ffffffffffffffffffffffffffffffffffffffff1916600160a060020a03929092169190911790555600a165627a7a723058208455575f9e51d88841569307171b552e8f84b5f482f06219a6cf960f384f47c80029",
  "source": "pragma solidity ^0.4.23;\n\n\nimport \"zeppelin-solidity/contracts/token/ERC20/StandardToken.sol\";\nimport \"zeppelin-solidity/contracts/ownership/Ownable.sol\";\n\n\ncontract SimpleGatekeeper is Ownable {\n\n    using SafeMath for uint256;\n\n    StandardToken token;\n\n    constructor(address _token) public {\n        token = StandardToken(_token);\n        owner = msg.sender;\n    }\n\n    uint256 public transactionAmount = 0;\n    mapping(bytes32 => bool) public paid;\n\n    event PayInTx(address indexed from, uint256 indexed txNumber, uint256 indexed value);\n    event PayoutTx(address indexed from, uint256 indexed txNumber, uint256 indexed value);\n    event Suicide(uint block);\n\n    function PayIn(uint256 _value) public {\n        require(token.transferFrom(msg.sender, this, _value));\n        transactionAmount = transactionAmount + 1;\n        emit PayInTx(msg.sender, transactionAmount, _value);\n    }\n\n    function Payout(address _to, uint256 _value, uint256 _txNumber) public onlyOwner{\n        bytes32 txHash = keccak256(_to, _txNumber, _value);\n        require(!paid[txHash]);\n        require(token.transfer(_to, _value));\n        paid[txHash] = true;\n        emit PayoutTx(_to, _txNumber, _value);\n    }\n\n    function kill() public onlyOwner{\n        uint balance = token.balanceOf(this);\n        require(token.transfer(owner, balance));\n        emit Suicide(block.timestamp); // solium-disable-line security/no-block-members\n        selfdestruct(owner);\n    }\n\n}\n",
  "sourcePath": "/Users/anton/go/src/github.com/sonm-io/core/blockchain/source/contracts/SimpleGatekeeper.sol",
  "compiler": {
    "name": "solc",
    "version": "0.4.24+commit.e67f0147.Emscripten.clang"
  },
  "schemaVersion": "2.0.0",
  "updatedAt": "2018-06-20T18:14:56.661Z"
}