{
  "contractName": "SNM",
  "abi": [
    {
      "constant": true,
      "inputs": [],
      "name": "name",
      "outputs": [
        {
          "name": "",
          "type": "string"
        }
      ],
      "payable": false,
      "stateMutability": "view",
      "type": "function"
    },
    {
      "constant": false,
      "inputs": [
        {
          "name": "_spender",
          "type": "address"
        },
        {
          "name": "_value",
          "type": "uint256"
        }
      ],
      "name": "approve",
      "outputs": [
        {
          "name": "",
          "type": "bool"
        }
      ],
      "payable": false,
      "stateMutability": "nonpayable",
      "type": "function"
    },
    {
      "constant": true,
      "inputs": [],
      "name": "totalSupply",
      "outputs": [
        {
          "name": "",
          "type": "uint256"
        }
      ],
      "payable": false,
      "stateMutability": "view",
      "type": "function"
    },
    {
      "constant": false,
      "inputs": [
        {
          "name": "_from",
          "type": "address"
        },
        {
          "name": "_to",
          "type": "address"
        },
        {
          "name": "_value",
          "type": "uint256"
        }
      ],
      "name": "transferFrom",
      "outputs": [
        {
          "name": "",
          "type": "bool"
        }
      ],
      "payable": false,
      "stateMutability": "nonpayable",
      "type": "function"
    },
    {
      "constant": true,
      "inputs": [],
      "name": "decimals",
      "outputs": [
        {
          "name": "",
          "type": "uint256"
        }
      ],
      "payable": false,
      "stateMutability": "view",
      "type": "function"
    },
    {
      "constant": false,
      "inputs": [
        {
          "name": "_spender",
          "type": "address"
        },
        {
          "name": "_subtractedValue",
          "type": "uint256"
        }
      ],
      "name": "decreaseApproval",
      "outputs": [
        {
          "name": "",
          "type": "bool"
        }
      ],
      "payable": false,
      "stateMutability": "nonpayable",
      "type": "function"
    },
    {
      "constant": true,
      "inputs": [
        {
          "name": "_owner",
          "type": "address"
        }
      ],
      "name": "balanceOf",
      "outputs": [
        {
          "name": "",
          "type": "uint256"
        }
      ],
      "payable": false,
      "stateMutability": "view",
      "type": "function"
    },
    {
      "constant": true,
      "inputs": [],
      "name": "owner",
      "outputs": [
        {
          "name": "",
          "type": "address"
        }
      ],
      "payable": false,
      "stateMutability": "view",
      "type": "function"
    },
    {
      "constant": true,
      "inputs": [],
      "name": "symbol",
      "outputs": [
        {
          "name": "",
          "type": "string"
        }
      ],
      "payable": false,
      "stateMutability": "view",
      "type": "function"
    },
    {
      "constant": false,
      "inputs": [
        {
          "name": "_to",
          "type": "address"
        },
        {
          "name": "_value",
          "type": "uint256"
        }
      ],
      "name": "transfer",
      "outputs": [
        {
          "name": "",
          "type": "bool"
        }
      ],
      "payable": false,
      "stateMutability": "nonpayable",
      "type": "function"
    },
    {
      "constant": false,
      "inputs": [
        {
          "name": "_spender",
          "type": "address"
        },
        {
          "name": "_addedValue",
          "type": "uint256"
        }
      ],
      "name": "increaseApproval",
      "outputs": [
        {
          "name": "",
          "type": "bool"
        }
      ],
      "payable": false,
      "stateMutability": "nonpayable",
      "type": "function"
    },
    {
      "constant": true,
      "inputs": [
        {
          "name": "_owner",
          "type": "address"
        },
        {
          "name": "_spender",
          "type": "address"
        }
      ],
      "name": "allowance",
      "outputs": [
        {
          "name": "",
          "type": "uint256"
        }
      ],
      "payable": false,
      "stateMutability": "view",
      "type": "function"
    },
    {
      "constant": false,
      "inputs": [
        {
          "name": "newOwner",
          "type": "address"
        }
      ],
      "name": "transferOwnership",
      "outputs": [],
      "payable": false,
      "stateMutability": "nonpayable",
      "type": "function"
    },
    {
      "inputs": [],
      "payable": false,
      "stateMutability": "nonpayable",
      "type": "constructor"
    },
    {
      "anonymous": false,
      "inputs": [
        {
          "indexed": true,
          "name": "previousOwner",
          "type": "address"
        },
        {
          "indexed": true,
          "name": "newOwner",
          "type": "address"
        }
      ],
      "name": "OwnershipTransferred",
      "type": "event"
    },
    {
      "anonymous": false,
      "inputs": [
        {
          "indexed": true,
          "name": "owner",
          "type": "address"
        },
        {
          "indexed": true,
          "name": "spender",
          "type": "address"
        },
        {
          "indexed": false,
          "name": "value",
          "type": "uint256"
        }
      ],
      "name": "Approval",
      "type": "event"
    },
    {
      "anonymous": false,
      "inputs": [
        {
          "indexed": true,
          "name": "from",
          "type": "address"
        },
        {
          "indexed": true,
          "name": "to",
          "type": "address"
        },
        {
          "indexed": false,
          "name": "value",
          "type": "uint256"
        }
      ],
      "name": "Transfer",
      "type": "event"
    }
  ],
  "bytecode": "0x60c0604052600a60808190527f534f4e4d20746f6b656e0000000000000000000000000000000000000000000060a090815261003e91600491906100e1565b506040805180820190915260038082527f534e4d00000000000000000000000000000000000000000000000000000000006020909201918252610083916005916100e1565b50601260065534801561009557600080fd5b5060038054600160a060020a033316600160a060020a0319918216811790911681179091556b016f44a83aab6c233c00000060018190556000918252602082905260409091205561017c565b828054600181600116156101000203166002900490600052602060002090601f016020900481019282601f1061012257805160ff191683800117855561014f565b8280016001018555821561014f579182015b8281111561014f578251825591602001919060010190610134565b5061015b92915061015f565b5090565b61017991905b8082111561015b5760008155600101610165565b90565b6109c08061018b6000396000f3006080604052600436106100c45763ffffffff7c010000000000000000000000000000000000000000000000000000000060003504166306fdde0381146100c9578063095ea7b31461015357806318160ddd1461018b57806323b872dd146101b2578063313ce567146101dc57806366188463146101f157806370a08231146102155780638da5cb5b1461023657806395d89b4114610267578063a9059cbb1461027c578063d73dd623146102a0578063dd62ed3e146102c4578063f2fde38b146102eb575b600080fd5b3480156100d557600080fd5b506100de61030e565b6040805160208082528351818301528351919283929083019185019080838360005b83811015610118578181015183820152602001610100565b50505050905090810190601f1680156101455780820380516001836020036101000a031916815260200191505b509250505060405180910390f35b34801561015f57600080fd5b50610177600160a060020a036004351660243561039c565b604080519115158252519081900360200190f35b34801561019757600080fd5b506101a0610406565b60408051918252519081900360200190f35b3480156101be57600080fd5b50610177600160a060020a036004358116906024351660443561040c565b3480156101e857600080fd5b506101a061058c565b3480156101fd57600080fd5b50610177600160a060020a0360043516602435610592565b34801561022157600080fd5b506101a0600160a060020a036004351661068b565b34801561024257600080fd5b5061024b6106a6565b60408051600160a060020a039092168252519081900360200190f35b34801561027357600080fd5b506100de6106b5565b34801561028857600080fd5b50610177600160a060020a0360043516602435610710565b3480156102ac57600080fd5b50610177600160a060020a0360043516602435610809565b3480156102d057600080fd5b506101a0600160a060020a03600435811690602435166108ab565b3480156102f757600080fd5b5061030c600160a060020a03600435166108d6565b005b6004805460408051602060026001851615610100026000190190941693909304601f810184900484028201840190925281815292918301828280156103945780601f1061036957610100808354040283529160200191610394565b820191906000526020600020905b81548152906001019060200180831161037757829003601f168201915b505050505081565b600160a060020a03338116600081815260026020908152604080832094871680845294825280832086905580518681529051929493927f8c5be1e5ebec7d5bd14f71427d1e84f3dd0314c0f7b2291e5b200ac8c7c3b925929181900390910190a350600192915050565b60015490565b6000600160a060020a038316151561042357600080fd5b600160a060020a03841660009081526020819052604090205482111561044857600080fd5b600160a060020a038085166000908152600260209081526040808320339094168352929052205482111561047b57600080fd5b600160a060020a0384166000908152602081905260409020546104a4908363ffffffff61096f16565b600160a060020a0380861660009081526020819052604080822093909355908516815220546104d9908363ffffffff61098116565b600160a060020a038085166000908152602081815260408083209490945587831682526002815283822033909316825291909152205461051f908363ffffffff61096f16565b600160a060020a038086166000818152600260209081526040808320338616845282529182902094909455805186815290519287169391927fddf252ad1be2c89b69c2b068fc378daa952ba7f163c4a11628f55a4df523b3ef929181900390910190a35060019392505050565b60065481565b600160a060020a033381166000908152600260209081526040808320938616835292905290812054808311156105ef57600160a060020a033381166000908152600260209081526040808320938816835292905290812055610626565b6105ff818463ffffffff61096f16565b600160a060020a033381166000908152600260209081526040808320938916835292905220555b600160a060020a0333811660008181526002602090815260408083209489168084529482529182902054825190815291517f8c5be1e5ebec7d5bd14f71427d1e84f3dd0314c0f7b2291e5b200ac8c7c3b9259281900390910190a35060019392505050565b600160a060020a031660009081526020819052604090205490565b600354600160a060020a031681565b6005805460408051602060026001851615610100026000190190941693909304601f810184900484028201840190925281815292918301828280156103945780601f1061036957610100808354040283529160200191610394565b6000600160a060020a038316151561072757600080fd5b600160a060020a03331660009081526020819052604090205482111561074c57600080fd5b600160a060020a033316600090815260208190526040902054610775908363ffffffff61096f16565b600160a060020a0333811660009081526020819052604080822093909355908516815220546107aa908363ffffffff61098116565b600160a060020a03808516600081815260208181526040918290209490945580518681529051919333909316927fddf252ad1be2c89b69c2b068fc378daa952ba7f163c4a11628f55a4df523b3ef92918290030190a350600192915050565b600160a060020a033381166000908152600260209081526040808320938616835292905290812054610841908363ffffffff61098116565b600160a060020a0333811660008181526002602090815260408083209489168084529482529182902085905581519485529051929391927f8c5be1e5ebec7d5bd14f71427d1e84f3dd0314c0f7b2291e5b200ac8c7c3b9259281900390910190a350600192915050565b600160a060020a03918216600090815260026020908152604080832093909416825291909152205490565b60035433600160a060020a039081169116146108f157600080fd5b600160a060020a038116151561090657600080fd5b600354604051600160a060020a038084169216907f8be0079c531659141344cd1fd0a4f28419497f9722a3daafe3b4186f6b6457e090600090a36003805473ffffffffffffffffffffffffffffffffffffffff1916600160a060020a0392909216919091179055565b60008282111561097b57fe5b50900390565b8181018281101561098e57fe5b929150505600a165627a7a7230582029c33873475600e50b9d1cab9ddd5da524f43b4d13af292916f01993bfd7bfb40029",
  "source": "pragma solidity ^0.4.23;\n\n\nimport \"zeppelin-solidity/contracts/token/ERC20/StandardToken.sol\";\nimport \"zeppelin-solidity/contracts/ownership/Ownable.sol\";\n\n\ncontract SNM is StandardToken, Ownable {\n\n    using SafeMath for uint256;\n\n    string public name = \"SONM token\";\n\n    string public symbol = \"SNM\";\n\n    uint public decimals = 18;\n\n    constructor() public {\n        owner = msg.sender;\n        totalSupply_ = 444 * 1e6 * 1e18;\n        balances[msg.sender] = totalSupply_;\n    }\n}\n",
  "sourcePath": "/Users/anton/go/src/github.com/sonm-io/core/blockchain/source/contracts/SNM.sol",
  "compiler": {
    "name": "solc",
    "version": "0.4.23+commit.124ca40d.Emscripten.clang"
  },
  "schemaVersion": "2.0.0",
  "updatedAt": "2018-06-20T18:15:24.905Z"
}