{
  "contractName": "SNM",
  "abi": [
    {
      "constant": true,
      "inputs": [],
      "name": "name",
      "outputs": [
        {
          "name": "",
          "type": "string"
        }
      ],
      "payable": false,
      "stateMutability": "view",
      "type": "function"
    },
    {
      "constant": false,
      "inputs": [
        {
          "name": "_spender",
          "type": "address"
        },
        {
          "name": "_value",
          "type": "uint256"
        }
      ],
      "name": "approve",
      "outputs": [
        {
          "name": "",
          "type": "bool"
        }
      ],
      "payable": false,
      "stateMutability": "nonpayable",
      "type": "function"
    },
    {
      "constant": true,
      "inputs": [],
      "name": "totalSupply",
      "outputs": [
        {
          "name": "",
          "type": "uint256"
        }
      ],
      "payable": false,
      "stateMutability": "view",
      "type": "function"
    },
    {
      "constant": false,
      "inputs": [
        {
          "name": "_from",
          "type": "address"
        },
        {
          "name": "_to",
          "type": "address"
        },
        {
          "name": "_value",
          "type": "uint256"
        }
      ],
      "name": "transferFrom",
      "outputs": [
        {
          "name": "",
          "type": "bool"
        }
      ],
      "payable": false,
      "stateMutability": "nonpayable",
      "type": "function"
    },
    {
      "constant": true,
      "inputs": [],
      "name": "decimals",
      "outputs": [
        {
          "name": "",
          "type": "uint256"
        }
      ],
      "payable": false,
      "stateMutability": "view",
      "type": "function"
    },
    {
      "constant": false,
      "inputs": [
        {
          "name": "_spender",
          "type": "address"
        },
        {
          "name": "_subtractedValue",
          "type": "uint256"
        }
      ],
      "name": "decreaseApproval",
      "outputs": [
        {
          "name": "",
          "type": "bool"
        }
      ],
      "payable": false,
      "stateMutability": "nonpayable",
      "type": "function"
    },
    {
      "constant": true,
      "inputs": [
        {
          "name": "_owner",
          "type": "address"
        }
      ],
      "name": "balanceOf",
      "outputs": [
        {
          "name": "",
          "type": "uint256"
        }
      ],
      "payable": false,
      "stateMutability": "view",
      "type": "function"
    },
    {
      "constant": true,
      "inputs": [],
      "name": "owner",
      "outputs": [
        {
          "name": "",
          "type": "address"
        }
      ],
      "payable": false,
      "stateMutability": "view",
      "type": "function"
    },
    {
      "constant": true,
      "inputs": [],
      "name": "symbol",
      "outputs": [
        {
          "name": "",
          "type": "string"
        }
      ],
      "payable": false,
      "stateMutability": "view",
      "type": "function"
    },
    {
      "constant": false,
      "inputs": [
        {
          "name": "_to",
          "type": "address"
        },
        {
          "name": "_value",
          "type": "uint256"
        }
      ],
      "name": "transfer",
      "outputs": [
        {
          "name": "",
          "type": "bool"
        }
      ],
      "payable": false,
      "stateMutability": "nonpayable",
      "type": "function"
    },
    {
      "constant": false,
      "inputs": [
        {
          "name": "_spender",
          "type": "address"
        },
        {
          "name": "_addedValue",
          "type": "uint256"
        }
      ],
      "name": "increaseApproval",
      "outputs": [
        {
          "name": "",
          "type": "bool"
        }
      ],
      "payable": false,
      "stateMutability": "nonpayable",
      "type": "function"
    },
    {
      "constant": true,
      "inputs": [
        {
          "name": "_owner",
          "type": "address"
        },
        {
          "name": "_spender",
          "type": "address"
        }
      ],
      "name": "allowance",
      "outputs": [
        {
          "name": "",
          "type": "uint256"
        }
      ],
      "payable": false,
      "stateMutability": "view",
      "type": "function"
    },
    {
      "constant": false,
      "inputs": [
        {
          "name": "newOwner",
          "type": "address"
        }
      ],
      "name": "transferOwnership",
      "outputs": [],
      "payable": false,
      "stateMutability": "nonpayable",
      "type": "function"
    },
    {
      "inputs": [],
      "payable": false,
      "stateMutability": "nonpayable",
      "type": "constructor"
    },
    {
      "anonymous": false,
      "inputs": [
        {
          "indexed": true,
          "name": "previousOwner",
          "type": "address"
        },
        {
          "indexed": true,
          "name": "newOwner",
          "type": "address"
        }
      ],
      "name": "OwnershipTransferred",
      "type": "event"
    },
    {
      "anonymous": false,
      "inputs": [
        {
          "indexed": true,
          "name": "owner",
          "type": "address"
        },
        {
          "indexed": true,
          "name": "spender",
          "type": "address"
        },
        {
          "indexed": false,
          "name": "value",
          "type": "uint256"
        }
      ],
      "name": "Approval",
      "type": "event"
    },
    {
      "anonymous": false,
      "inputs": [
        {
          "indexed": true,
          "name": "from",
          "type": "address"
        },
        {
          "indexed": true,
          "name": "to",
          "type": "address"
        },
        {
          "indexed": false,
          "name": "value",
          "type": "uint256"
        }
      ],
      "name": "Transfer",
      "type": "event"
    }
  ],
  "bytecode": "0x60c0604052600a60808190527f534f4e4d20746f6b656e0000000000000000000000000000000000000000000060a090815261003e91600491906100d8565b506040805180820190915260038082527f534e4d00000000000000000000000000000000000000000000000000000000006020909201918252610083916005916100d8565b50601260065534801561009557600080fd5b506003805433600160a060020a0319918216811790911681179091556b016f44a83aab6c233c000000600181905560009182526020829052604090912055610173565b828054600181600116156101000203166002900490600052602060002090601f016020900481019282601f1061011957805160ff1916838001178555610146565b82800160010185558215610146579182015b8281111561014657825182559160200191906001019061012b565b50610152929150610156565b5090565b61017091905b80821115610152576000815560010161015c565b90565b610985806101826000396000f3006080604052600436106100c45763ffffffff7c010000000000000000000000000000000000000000000000000000000060003504166306fdde0381146100c9578063095ea7b31461015357806318160ddd1461018b57806323b872dd146101b2578063313ce567146101dc57806366188463146101f157806370a08231146102155780638da5cb5b1461023657806395d89b4114610267578063a9059cbb1461027c578063d73dd623146102a0578063dd62ed3e146102c4578063f2fde38b146102eb575b600080fd5b3480156100d557600080fd5b506100de61030e565b6040805160208082528351818301528351919283929083019185019080838360005b83811015610118578181015183820152602001610100565b50505050905090810190601f1680156101455780820380516001836020036101000a031916815260200191505b509250505060405180910390f35b34801561015f57600080fd5b50610177600160a060020a036004351660243561039c565b604080519115158252519081900360200190f35b34801561019757600080fd5b506101a0610402565b60408051918252519081900360200190f35b3480156101be57600080fd5b50610177600160a060020a0360043581169060243516604435610408565b3480156101e857600080fd5b506101a061057f565b3480156101fd57600080fd5b50610177600160a060020a0360043516602435610585565b34801561022157600080fd5b506101a0600160a060020a0360043516610675565b34801561024257600080fd5b5061024b610690565b60408051600160a060020a039092168252519081900360200190f35b34801561027357600080fd5b506100de61069f565b34801561028857600080fd5b50610177600160a060020a03600435166024356106fa565b3480156102ac57600080fd5b50610177600160a060020a03600435166024356107db565b3480156102d057600080fd5b506101a0600160a060020a0360043581169060243516610874565b3480156102f757600080fd5b5061030c600160a060020a036004351661089f565b005b6004805460408051602060026001851615610100026000190190941693909304601f810184900484028201840190925281815292918301828280156103945780601f1061036957610100808354040283529160200191610394565b820191906000526020600020905b81548152906001019060200180831161037757829003601f168201915b505050505081565b336000818152600260209081526040808320600160a060020a038716808552908352818420869055815186815291519394909390927f8c5be1e5ebec7d5bd14f71427d1e84f3dd0314c0f7b2291e5b200ac8c7c3b925928290030190a350600192915050565b60015490565b6000600160a060020a038316151561041f57600080fd5b600160a060020a03841660009081526020819052604090205482111561044457600080fd5b600160a060020a038416600090815260026020908152604080832033845290915290205482111561047457600080fd5b600160a060020a03841660009081526020819052604090205461049d908363ffffffff61093416565b600160a060020a0380861660009081526020819052604080822093909355908516815220546104d2908363ffffffff61094616565b600160a060020a03808516600090815260208181526040808320949094559187168152600282528281203382529091522054610514908363ffffffff61093416565b600160a060020a03808616600081815260026020908152604080832033845282529182902094909455805186815290519287169391927fddf252ad1be2c89b69c2b068fc378daa952ba7f163c4a11628f55a4df523b3ef929181900390910190a35060019392505050565b60065481565b336000908152600260209081526040808320600160a060020a0386168452909152812054808311156105da57336000908152600260209081526040808320600160a060020a038816845290915281205561060f565b6105ea818463ffffffff61093416565b336000908152600260209081526040808320600160a060020a03891684529091529020555b336000818152600260209081526040808320600160a060020a0389168085529083529281902054815190815290519293927f8c5be1e5ebec7d5bd14f71427d1e84f3dd0314c0f7b2291e5b200ac8c7c3b925929181900390910190a35060019392505050565b600160a060020a031660009081526020819052604090205490565b600354600160a060020a031681565b6005805460408051602060026001851615610100026000190190941693909304601f810184900484028201840190925281815292918301828280156103945780601f1061036957610100808354040283529160200191610394565b6000600160a060020a038316151561071157600080fd5b3360009081526020819052604090205482111561072d57600080fd5b3360009081526020819052604090205461074d908363ffffffff61093416565b3360009081526020819052604080822092909255600160a060020a0385168152205461077f908363ffffffff61094616565b600160a060020a038416600081815260208181526040918290209390935580518581529051919233927fddf252ad1be2c89b69c2b068fc378daa952ba7f163c4a11628f55a4df523b3ef9281900390910190a350600192915050565b336000908152600260209081526040808320600160a060020a038616845290915281205461080f908363ffffffff61094616565b336000818152600260209081526040808320600160a060020a0389168085529083529281902085905580519485525191937f8c5be1e5ebec7d5bd14f71427d1e84f3dd0314c0f7b2291e5b200ac8c7c3b925929081900390910190a350600192915050565b600160a060020a03918216600090815260026020908152604080832093909416825291909152205490565b600354600160a060020a031633146108b657600080fd5b600160a060020a03811615156108cb57600080fd5b600354604051600160a060020a038084169216907f8be0079c531659141344cd1fd0a4f28419497f9722a3daafe3b4186f6b6457e090600090a36003805473ffffffffffffffffffffffffffffffffffffffff1916600160a060020a0392909216919091179055565b60008282111561094057fe5b50900390565b8181018281101561095357fe5b929150505600a165627a7a7230582032b301b68ed18f4280bb999e5c11a44b2e11452b676eb72f459569e551b29dda0029",
  "source": "pragma solidity ^0.4.23;\n\n\nimport \"zeppelin-solidity/contracts/token/ERC20/StandardToken.sol\";\nimport \"zeppelin-solidity/contracts/ownership/Ownable.sol\";\n\n\ncontract SNM is StandardToken, Ownable {\n\n    using SafeMath for uint256;\n\n    string public name = \"SONM token\";\n\n    string public symbol = \"SNM\";\n\n    uint public decimals = 18;\n\n    constructor() public {\n        owner = msg.sender;\n        totalSupply_ = 444 * 1e6 * 1e18;\n        balances[msg.sender] = totalSupply_;\n    }\n}\n",
  "sourcePath": "/Users/anton/go/src/github.com/sonm-io/core/blockchain/source/contracts/SNM.sol",
  "compiler": {
    "name": "solc",
    "version": "0.4.24+commit.e67f0147.Emscripten.clang"
  },
  "schemaVersion": "2.0.0",
  "updatedAt": "2018-05-28T17:11:29.409Z"
}