{
  "contractName": "SNMD",
  "abi": [
    {
      "constant": true,
      "inputs": [],
      "name": "name",
      "outputs": [
        {
          "name": "",
          "type": "string"
        }
      ],
      "payable": false,
      "stateMutability": "view",
      "type": "function"
    },
    {
      "constant": false,
      "inputs": [
        {
          "name": "_spender",
          "type": "address"
        },
        {
          "name": "_value",
          "type": "uint256"
        }
      ],
      "name": "approve",
      "outputs": [
        {
          "name": "",
          "type": "bool"
        }
      ],
      "payable": false,
      "stateMutability": "nonpayable",
      "type": "function"
    },
    {
      "constant": true,
      "inputs": [],
      "name": "totalSupply",
      "outputs": [
        {
          "name": "",
          "type": "uint256"
        }
      ],
      "payable": false,
      "stateMutability": "view",
      "type": "function"
    },
    {
      "constant": true,
      "inputs": [],
      "name": "decimals",
      "outputs": [
        {
          "name": "",
          "type": "uint256"
        }
      ],
      "payable": false,
      "stateMutability": "view",
      "type": "function"
    },
    {
      "constant": false,
      "inputs": [
        {
          "name": "_spender",
          "type": "address"
        },
        {
          "name": "_subtractedValue",
          "type": "uint256"
        }
      ],
      "name": "decreaseApproval",
      "outputs": [
        {
          "name": "",
          "type": "bool"
        }
      ],
      "payable": false,
      "stateMutability": "nonpayable",
      "type": "function"
    },
    {
      "constant": true,
      "inputs": [
        {
          "name": "_owner",
          "type": "address"
        }
      ],
      "name": "balanceOf",
      "outputs": [
        {
          "name": "",
          "type": "uint256"
        }
      ],
      "payable": false,
      "stateMutability": "view",
      "type": "function"
    },
    {
      "constant": true,
      "inputs": [],
      "name": "owner",
      "outputs": [
        {
          "name": "",
          "type": "address"
        }
      ],
      "payable": false,
      "stateMutability": "view",
      "type": "function"
    },
    {
      "constant": true,
      "inputs": [],
      "name": "symbol",
      "outputs": [
        {
          "name": "",
          "type": "string"
        }
      ],
      "payable": false,
      "stateMutability": "view",
      "type": "function"
    },
    {
      "constant": false,
      "inputs": [
        {
          "name": "_to",
          "type": "address"
        },
        {
          "name": "_value",
          "type": "uint256"
        }
      ],
      "name": "transfer",
      "outputs": [
        {
          "name": "",
          "type": "bool"
        }
      ],
      "payable": false,
      "stateMutability": "nonpayable",
      "type": "function"
    },
    {
      "constant": false,
      "inputs": [
        {
          "name": "_spender",
          "type": "address"
        },
        {
          "name": "_addedValue",
          "type": "uint256"
        }
      ],
      "name": "increaseApproval",
      "outputs": [
        {
          "name": "",
          "type": "bool"
        }
      ],
      "payable": false,
      "stateMutability": "nonpayable",
      "type": "function"
    },
    {
      "constant": true,
      "inputs": [
        {
          "name": "_owner",
          "type": "address"
        },
        {
          "name": "_spender",
          "type": "address"
        }
      ],
      "name": "allowance",
      "outputs": [
        {
          "name": "",
          "type": "uint256"
        }
      ],
      "payable": false,
      "stateMutability": "view",
      "type": "function"
    },
    {
      "constant": false,
      "inputs": [
        {
          "name": "newOwner",
          "type": "address"
        }
      ],
      "name": "transferOwnership",
      "outputs": [],
      "payable": false,
      "stateMutability": "nonpayable",
      "type": "function"
    },
    {
      "inputs": [],
      "payable": false,
      "stateMutability": "nonpayable",
      "type": "constructor"
    },
    {
      "anonymous": false,
      "inputs": [
        {
          "indexed": true,
          "name": "previousOwner",
          "type": "address"
        },
        {
          "indexed": true,
          "name": "newOwner",
          "type": "address"
        }
      ],
      "name": "OwnershipTransferred",
      "type": "event"
    },
    {
      "anonymous": false,
      "inputs": [
        {
          "indexed": true,
          "name": "owner",
          "type": "address"
        },
        {
          "indexed": true,
          "name": "spender",
          "type": "address"
        },
        {
          "indexed": false,
          "name": "value",
          "type": "uint256"
        }
      ],
      "name": "Approval",
      "type": "event"
    },
    {
      "anonymous": false,
      "inputs": [
        {
          "indexed": true,
          "name": "from",
          "type": "address"
        },
        {
          "indexed": true,
          "name": "to",
          "type": "address"
        },
        {
          "indexed": false,
          "name": "value",
          "type": "uint256"
        }
      ],
      "name": "Transfer",
      "type": "event"
    },
    {
      "constant": false,
      "inputs": [
        {
          "name": "_newMarket",
          "type": "address"
        }
      ],
      "name": "AddMarket",
      "outputs": [],
      "payable": false,
      "stateMutability": "nonpayable",
      "type": "function"
    },
    {
      "constant": false,
      "inputs": [
        {
          "name": "_from",
          "type": "address"
        },
        {
          "name": "_to",
          "type": "address"
        },
        {
          "name": "_value",
          "type": "uint256"
        }
      ],
      "name": "transferFrom",
      "outputs": [
        {
          "name": "",
          "type": "bool"
        }
      ],
      "payable": false,
      "stateMutability": "nonpayable",
      "type": "function"
    }
  ],
  "bytecode": "0x60c0604052601660808190527f534f4e4d20446576656c6f706d656e7420746f6b656e0000000000000000000060a090815261003e91600491906100e2565b506040805180820190915260048082527f534e4d44000000000000000000000000000000000000000000000000000000006020909201918252610083916005916100e2565b5060126006556b016f44a83aab6c233c0000006008553480156100a557600080fd5b5060038054600160a060020a033316600160a060020a0319918216811790911681179091556008546000918252602082905260409091205561017d565b828054600181600116156101000203166002900490600052602060002090601f016020900481019282601f1061012357805160ff1916838001178555610150565b82800160010185558215610150579182015b82811115610150578251825591602001919060010190610135565b5061015c929150610160565b5090565b61017a91905b8082111561015c5760008155600101610166565b90565b610b6f8061018c6000396000f3006080604052600436106100cf5763ffffffff7c010000000000000000000000000000000000000000000000000000000060003504166306fdde0381146100d4578063095ea7b31461015e57806318160ddd1461019657806323b872dd146101bd578063313ce567146101e757806366188463146101fc57806370a08231146102205780638da5cb5b1461024157806395d89b4114610272578063a9059cbb14610287578063c3dfb88e146102ab578063d73dd623146102ce578063dd62ed3e146102f2578063f2fde38b14610319575b600080fd5b3480156100e057600080fd5b506100e961033a565b6040805160208082528351818301528351919283929083019185019080838360005b8381101561012357818101518382015260200161010b565b50505050905090810190601f1680156101505780820380516001836020036101000a031916815260200191505b509250505060405180910390f35b34801561016a57600080fd5b50610182600160a060020a03600435166024356103c8565b604080519115158252519081900360200190f35b3480156101a257600080fd5b506101ab610432565b60408051918252519081900360200190f35b3480156101c957600080fd5b50610182600160a060020a0360043581169060243516604435610438565b3480156101f357600080fd5b506101ab6106fc565b34801561020857600080fd5b50610182600160a060020a0360043516602435610702565b34801561022c57600080fd5b506101ab600160a060020a03600435166107fb565b34801561024d57600080fd5b50610256610816565b60408051600160a060020a039092168252519081900360200190f35b34801561027e57600080fd5b506100e9610825565b34801561029357600080fd5b50610182600160a060020a0360043516602435610880565b3480156102b757600080fd5b506102cc600160a060020a0360043516610979565b005b3480156102da57600080fd5b50610182600160a060020a03600435166024356109b8565b3480156102fe57600080fd5b506101ab600160a060020a0360043581169060243516610a5a565b34801561032557600080fd5b506102cc600160a060020a0360043516610a85565b6004805460408051602060026001851615610100026000190190941693909304601f810184900484028201840190925281815292918301828280156103c05780601f10610395576101008083540402835291602001916103c0565b820191906000526020600020905b8154815290600101906020018083116103a357829003601f168201915b505050505081565b600160a060020a03338116600081815260026020908152604080832094871680845294825280832086905580518681529051929493927f8c5be1e5ebec7d5bd14f71427d1e84f3dd0314c0f7b2291e5b200ac8c7c3b925929181900390910190a350600192915050565b60015490565b600160a060020a03821660009081526007602052604081205460ff1615156001141561057d57600160a060020a038316151561047357600080fd5b600160a060020a03331660009081526007602052604090205460ff16151560011461049d57600080fd5b600160a060020a0384166000908152602081905260409020548211156104c257600080fd5b600160a060020a0384166000908152602081905260409020546104eb908363ffffffff610b1e16565b600160a060020a038086166000908152602081905260408082209390935590851681522054610520908363ffffffff610b3016565b600160a060020a038085166000818152602081815260409182902094909455805186815290519193928816927fddf252ad1be2c89b69c2b068fc378daa952ba7f163c4a11628f55a4df523b3ef92918290030190a35060016106f5565b600160a060020a038316151561059257600080fd5b600160a060020a0384166000908152602081905260409020548211156105b757600080fd5b600160a060020a03808516600090815260026020908152604080832033909416835292905220548211156105ea57600080fd5b600160a060020a038416600090815260208190526040902054610613908363ffffffff610b1e16565b600160a060020a038086166000908152602081905260408082209390935590851681522054610648908363ffffffff610b3016565b600160a060020a038085166000908152602081815260408083209490945587831682526002815283822033909316825291909152205461068e908363ffffffff610b1e16565b600160a060020a038086166000818152600260209081526040808320338616845282529182902094909455805186815290519287169391927fddf252ad1be2c89b69c2b068fc378daa952ba7f163c4a11628f55a4df523b3ef929181900390910190a35060015b9392505050565b60065481565b600160a060020a0333811660009081526002602090815260408083209386168352929052908120548083111561075f57600160a060020a033381166000908152600260209081526040808320938816835292905290812055610796565b61076f818463ffffffff610b1e16565b600160a060020a033381166000908152600260209081526040808320938916835292905220555b600160a060020a0333811660008181526002602090815260408083209489168084529482529182902054825190815291517f8c5be1e5ebec7d5bd14f71427d1e84f3dd0314c0f7b2291e5b200ac8c7c3b9259281900390910190a35060019392505050565b600160a060020a031660009081526020819052604090205490565b600354600160a060020a031681565b6005805460408051602060026001851615610100026000190190941693909304601f810184900484028201840190925281815292918301828280156103c05780601f10610395576101008083540402835291602001916103c0565b6000600160a060020a038316151561089757600080fd5b600160a060020a0333166000908152602081905260409020548211156108bc57600080fd5b600160a060020a0333166000908152602081905260409020546108e5908363ffffffff610b1e16565b600160a060020a03338116600090815260208190526040808220939093559085168152205461091a908363ffffffff610b3016565b600160a060020a03808516600081815260208181526040918290209490945580518681529051919333909316927fddf252ad1be2c89b69c2b068fc378daa952ba7f163c4a11628f55a4df523b3ef92918290030190a350600192915050565b60035433600160a060020a0390811691161461099457600080fd5b600160a060020a03166000908152600760205260409020805460ff19166001179055565b600160a060020a0333811660009081526002602090815260408083209386168352929052908120546109f0908363ffffffff610b3016565b600160a060020a0333811660008181526002602090815260408083209489168084529482529182902085905581519485529051929391927f8c5be1e5ebec7d5bd14f71427d1e84f3dd0314c0f7b2291e5b200ac8c7c3b9259281900390910190a350600192915050565b600160a060020a03918216600090815260026020908152604080832093909416825291909152205490565b60035433600160a060020a03908116911614610aa057600080fd5b600160a060020a0381161515610ab557600080fd5b600354604051600160a060020a038084169216907f8be0079c531659141344cd1fd0a4f28419497f9722a3daafe3b4186f6b6457e090600090a36003805473ffffffffffffffffffffffffffffffffffffffff1916600160a060020a0392909216919091179055565b600082821115610b2a57fe5b50900390565b81810182811015610b3d57fe5b929150505600a165627a7a7230582010fdb4f91f7cfb1262db930964340e6beb3b31696a24343b07ead482ec3ba6b10029",
  "source": "pragma solidity ^0.4.23;\n\n\nimport \"zeppelin-solidity/contracts/token/ERC20/StandardToken.sol\";\nimport \"zeppelin-solidity/contracts/ownership/Ownable.sol\";\n\n\ncontract SNMD is StandardToken, Ownable {\n\n    using SafeMath for uint256;\n\n    string public name = \"SONM Development token\";\n\n    string public symbol = \"SNMD\";\n\n    uint public decimals = 18;\n\n    mapping (address => bool) markets;\n\n    uint totalSupply_ = 444 * 1e6 * 1e18;\n\n    constructor() public{\n        owner = msg.sender;\n\n        balances[msg.sender] = totalSupply_;\n    }\n\n    function AddMarket(address _newMarket) onlyOwner public {\n        markets[_newMarket] = true;\n    }\n\n    //overrided for market\n    function transferFrom(address _from, address _to, uint256 _value) public returns (bool) {\n        if(markets[_to] == true){\n            require(_to != address(0));\n            require(markets[msg.sender] == true);\n            require(_value <= balances[_from]);\n\n            balances[_from] = balances[_from].sub(_value);\n            balances[_to] = balances[_to].add(_value);\n            Transfer(_from, _to, _value);\n\n            return true;\n        } else {\n            require(_to != address(0));\n            require(_value <= balances[_from]);\n            require(_value <= allowed[_from][msg.sender]);\n\n            balances[_from] = balances[_from].sub(_value);\n            balances[_to] = balances[_to].add(_value);\n            allowed[_from][msg.sender] = allowed[_from][msg.sender].sub(_value);\n            Transfer(_from, _to, _value);\n\n            return true;\n        }\n    }\n}\n",
  "sourcePath": "/Users/anton/go/src/github.com/sonm-io/core/blockchain/source/contracts/SNMD.sol",
  "compiler": {
    "name": "solc",
    "version": "0.4.23+commit.124ca40d.Emscripten.clang"
  },
  "schemaVersion": "2.0.0",
  "updatedAt": "2018-05-28T17:11:29.415Z"
}