{
  "contractName": "Administratable",
  "abi": [
    {
      "constant": true,
      "inputs": [],
      "name": "owner",
      "outputs": [
        {
          "name": "",
          "type": "address"
        }
      ],
      "payable": false,
      "stateMutability": "view",
      "type": "function"
    },
    {
      "constant": true,
      "inputs": [],
      "name": "administrator",
      "outputs": [
        {
          "name": "",
          "type": "address"
        }
      ],
      "payable": false,
      "stateMutability": "view",
      "type": "function"
    },
    {
      "inputs": [],
      "payable": false,
      "stateMutability": "nonpayable",
      "type": "constructor"
    },
    {
      "anonymous": false,
      "inputs": [
        {
          "indexed": true,
          "name": "previousOwner",
          "type": "address"
        }
      ],
      "name": "OwnershipRenounced",
      "type": "event"
    },
    {
      "anonymous": false,
      "inputs": [
        {
          "indexed": true,
          "name": "previousOwner",
          "type": "address"
        },
        {
          "indexed": true,
          "name": "newOwner",
          "type": "address"
        }
      ],
      "name": "OwnershipTransferred",
      "type": "event"
    },
    {
      "anonymous": false,
      "inputs": [
        {
          "indexed": true,
          "name": "previousAdministrator",
          "type": "address"
        },
        {
          "indexed": true,
          "name": "newAdministrator",
          "type": "address"
        }
      ],
      "name": "AdministratorshipTransferred",
      "type": "event"
    },
    {
      "constant": false,
      "inputs": [],
      "name": "renounceOwnership",
      "outputs": [],
      "payable": false,
      "stateMutability": "nonpayable",
      "type": "function"
    },
    {
      "constant": false,
      "inputs": [
        {
          "name": "_newOwner",
          "type": "address"
        }
      ],
      "name": "transferOwnership",
      "outputs": [],
      "payable": false,
      "stateMutability": "nonpayable",
      "type": "function"
    },
    {
      "constant": false,
      "inputs": [
        {
          "name": "_newAdministrator",
          "type": "address"
        }
      ],
      "name": "transferAdministratorship",
      "outputs": [],
      "payable": false,
      "stateMutability": "nonpayable",
      "type": "function"
    }
  ],
  "bytecode": "0x608060405234801561001057600080fd5b506000805433600160a060020a0319918216811783556001805490921617905561033290819061004090396000f30060806040526004361061006c5763ffffffff7c0100000000000000000000000000000000000000000000000000000000600035041663715018a681146100715780638da5cb5b14610088578063a9f0a590146100b9578063f2fde38b146100da578063f53d0a8e146100fb575b600080fd5b34801561007d57600080fd5b50610086610110565b005b34801561009457600080fd5b5061009d610193565b60408051600160a060020a039092168252519081900360200190f35b3480156100c557600080fd5b50610086600160a060020a03600435166101a2565b3480156100e657600080fd5b50610086600160a060020a03600435166101c5565b34801561010757600080fd5b5061009d6101fc565b600054600160a060020a03163314806101335750600154600160a060020a031633145b151561013e57600080fd5b60008054604051600160a060020a03909116917ff8df31144d9c2f0f6b59d69b8b98abd5459d07f2742c4df920b25aae33c6482091a26000805473ffffffffffffffffffffffffffffffffffffffff19169055565b600054600160a060020a031681565b600154600160a060020a031633146101b957600080fd5b6101c28161020b565b50565b600054600160a060020a03163314806101e85750600154600160a060020a031633145b15156101f357600080fd5b6101c281610289565b600154600160a060020a031681565b600160a060020a038116151561022057600080fd5b600154604051600160a060020a038084169216907f39e41585bde2224ba5127a3a5d20414c158e7966cc0d391983c1abbcf142c52b90600090a36001805473ffffffffffffffffffffffffffffffffffffffff1916600160a060020a0392909216919091179055565b600160a060020a038116151561029e57600080fd5b60008054604051600160a060020a03808516939216917f8be0079c531659141344cd1fd0a4f28419497f9722a3daafe3b4186f6b6457e091a36000805473ffffffffffffffffffffffffffffffffffffffff1916600160a060020a03929092169190911790555600a165627a7a72305820d431e5ec719c1a75bd110dc0fdc5399cde71d1ae7a8420db00784360a3e1a77b0029",
  "source": "pragma solidity ^0.4.23;\n\ncontract Administratable {\n    address public owner;\n    address public administrator;\n\n\n    event OwnershipRenounced(address indexed previousOwner);\n    event OwnershipTransferred(address indexed previousOwner, address indexed newOwner);\n    event AdministratorshipTransferred(address indexed previousAdministrator, address indexed newAdministrator);\n\n    constructor() public {\n        owner = msg.sender;\n        administrator = msg.sender;\n    }\n\n    modifier onlyOwner() {\n        require(msg.sender == owner);\n        _;\n    }\n\n    modifier ownerOrAdministrator() {\n        require(msg.sender == owner || msg.sender == administrator);\n        _;\n    }\n\n    modifier onlyAdministrator() {\n        require(msg.sender == administrator);\n        _;\n    }\n\n    function renounceOwnership() public ownerOrAdministrator {\n        emit OwnershipRenounced(owner);\n        owner = address(0);\n    }\n\n    function transferOwnership(address _newOwner) public ownerOrAdministrator {\n        _transferOwnership(_newOwner);\n    }\n\n    function _transferOwnership(address _newOwner) internal {\n        require(_newOwner != address(0));\n        emit OwnershipTransferred(owner, _newOwner);\n        owner = _newOwner;\n    }\n\n    function transferAdministratorship(address _newAdministrator) public onlyAdministrator {\n        _transferAdministratorship(_newAdministrator);\n    }\n\n    function _transferAdministratorship(address _newAdministrator) internal {\n        require(_newAdministrator != address(0));\n        emit AdministratorshipTransferred(administrator, _newAdministrator);\n        administrator = _newAdministrator;\n    }\n}\n",
  "sourcePath": "contracts/Administratable.sol",
  "compiler": {
    "name": "solc",
    "version": "0.4.24+commit.e67f0147.Emscripten.clang"
  },
  "schemaVersion": "2.0.1",
  "updatedAt": "2019-01-10T13:57:39.958Z"
}