{
  "contractName": "AutoPayout",
  "abi": [
    {
      "constant": true,
      "inputs": [
        {
          "name": "",
          "type": "address"
        }
      ],
      "name": "allowedPayouts",
      "outputs": [
        {
          "name": "lowLimit",
          "type": "uint256"
        },
        {
          "name": "target",
          "type": "address"
        }
      ],
      "payable": false,
      "stateMutability": "view",
      "type": "function"
    },
    {
      "constant": false,
      "inputs": [],
      "name": "renounceOwnership",
      "outputs": [],
      "payable": false,
      "stateMutability": "nonpayable",
      "type": "function"
    },
    {
      "constant": true,
      "inputs": [],
      "name": "owner",
      "outputs": [
        {
          "name": "",
          "type": "address"
        }
      ],
      "payable": false,
      "stateMutability": "view",
      "type": "function"
    },
    {
      "constant": false,
      "inputs": [
        {
          "name": "_newOwner",
          "type": "address"
        }
      ],
      "name": "transferOwnership",
      "outputs": [],
      "payable": false,
      "stateMutability": "nonpayable",
      "type": "function"
    },
    {
      "inputs": [
        {
          "name": "_token",
          "type": "address"
        },
        {
          "name": "_gatekeeper",
          "type": "address"
        }
      ],
      "payable": false,
      "stateMutability": "nonpayable",
      "type": "constructor"
    },
    {
      "anonymous": false,
      "inputs": [
        {
          "indexed": true,
          "name": "master",
          "type": "address"
        },
        {
          "indexed": true,
          "name": "target",
          "type": "address"
        },
        {
          "indexed": true,
          "name": "limit",
          "type": "uint256"
        }
      ],
      "name": "AutoPayoutChanged",
      "type": "event"
    },
    {
      "anonymous": false,
      "inputs": [
        {
          "indexed": true,
          "name": "master",
          "type": "address"
        }
      ],
      "name": "AutoPayout",
      "type": "event"
    },
    {
      "anonymous": false,
      "inputs": [
        {
          "indexed": false,
          "name": "block",
          "type": "uint256"
        }
      ],
      "name": "Suicide",
      "type": "event"
    },
    {
      "anonymous": false,
      "inputs": [
        {
          "indexed": true,
          "name": "previousOwner",
          "type": "address"
        }
      ],
      "name": "OwnershipRenounced",
      "type": "event"
    },
    {
      "anonymous": false,
      "inputs": [
        {
          "indexed": true,
          "name": "previousOwner",
          "type": "address"
        },
        {
          "indexed": true,
          "name": "newOwner",
          "type": "address"
        }
      ],
      "name": "OwnershipTransferred",
      "type": "event"
    },
    {
      "constant": false,
      "inputs": [
        {
          "name": "_limit",
          "type": "uint256"
        },
        {
          "name": "_target",
          "type": "address"
        }
      ],
      "name": "SetAutoPayout",
      "outputs": [],
      "payable": false,
      "stateMutability": "nonpayable",
      "type": "function"
    },
    {
      "constant": false,
      "inputs": [
        {
          "name": "_master",
          "type": "address"
        }
      ],
      "name": "DoAutoPayout",
      "outputs": [],
      "payable": false,
      "stateMutability": "nonpayable",
      "type": "function"
    },
    {
      "constant": false,
      "inputs": [],
      "name": "kill",
      "outputs": [],
      "payable": false,
      "stateMutability": "nonpayable",
      "type": "function"
    }
  ],
  "bytecode": "0x608060405234801561001057600080fd5b5060405160408061083b8339810160405280516020909101516000805460018054600160a060020a0319908116600160a060020a039687161790915560028054821695909416949094179092553391831682179092161781556107c290819061007990396000f3006080604052600436106100825763ffffffff7c010000000000000000000000000000000000000000000000000000000060003504166312fbd33c811461008757806341c0e1b5146100c9578063715018a6146100e05780638a12ae40146100f55780638da5cb5b14610119578063b5dfc1d51461014a578063f2fde38b1461016b575b600080fd5b34801561009357600080fd5b506100a8600160a060020a036004351661018c565b60408051928352600160a060020a0390911660208301528051918290030190f35b3480156100d557600080fd5b506100de6101ae565b005b3480156100ec57600080fd5b506100de610343565b34801561010157600080fd5b506100de600435600160a060020a03602435166103af565b34801561012557600080fd5b5061012e61041b565b60408051600160a060020a039092168252519081900360200190f35b34801561015657600080fd5b506100de600160a060020a036004351661042a565b34801561017757600080fd5b506100de600160a060020a03600435166106f6565b60036020526000908152604090208054600190910154600160a060020a031682565b600054600160a060020a031633146101c557600080fd5b60015460008054604080517f70a082310000000000000000000000000000000000000000000000000000000081523060048201529051600160a060020a039485169463a9059cbb9493169285926370a082319260248083019360209383900390910190829087803b15801561023957600080fd5b505af115801561024d573d6000803e3d6000fd5b505050506040513d602081101561026357600080fd5b5051604080517c010000000000000000000000000000000000000000000000000000000063ffffffff8616028152600160a060020a03909316600484015260248301919091525160448083019260209291908290030181600087803b1580156102cb57600080fd5b505af11580156102df573d6000803e3d6000fd5b505050506040513d60208110156102f557600080fd5b5051151561030257600080fd5b6040805142815290517fa1ea9b09ea114021983e9ecf71cf2ffddfd80f5cb4f925e5bf24f9bdb5e55fde9181900360200190a1600054600160a060020a0316ff5b600054600160a060020a0316331461035a57600080fd5b60008054604051600160a060020a03909116917ff8df31144d9c2f0f6b59d69b8b98abd5459d07f2742c4df920b25aae33c6482091a26000805473ffffffffffffffffffffffffffffffffffffffff19169055565b33600081815260036020526040808220858155600101805473ffffffffffffffffffffffffffffffffffffffff1916600160a060020a0386169081179091559051859391927f1ee471395ea2cfa5c7eec94aabde2b3c330825cb942ef8d0fd1eeb7a0d3d275291a45050565b600054600160a060020a031681565b600154604080517f70a08231000000000000000000000000000000000000000000000000000000008152600160a060020a038481166004830152915160009392909216916370a082319160248082019260209290919082900301818787803b15801561049557600080fd5b505af11580156104a9573d6000803e3d6000fd5b505050506040513d60208110156104bf57600080fd5b5051600160a060020a0383166000908152600360205260409020549091508110156104e957600080fd5b600154604080517f23b872dd000000000000000000000000000000000000000000000000000000008152600160a060020a03858116600483015230602483015260448201859052915191909216916323b872dd9160648083019260209291908290030181600087803b15801561055e57600080fd5b505af1158015610572573d6000803e3d6000fd5b505050506040513d602081101561058857600080fd5b5050600154600254604080517f095ea7b3000000000000000000000000000000000000000000000000000000008152600160a060020a039283166004820152602481018590529051919092169163095ea7b39160448083019260209291908290030181600087803b1580156105fc57600080fd5b505af1158015610610573d6000803e3d6000fd5b505050506040513d602081101561062657600080fd5b5050600254600160a060020a038381166000908152600360205260408082206001015481517fe3fcd18e0000000000000000000000000000000000000000000000000000000081526004810187905290841660248201529051929093169263e3fcd18e926044808301939282900301818387803b1580156106a657600080fd5b505af11580156106ba573d6000803e3d6000fd5b5050604051600160a060020a03851692507f5a9b1e90057b7163b237d41fbf5ba76b7eaf01f482fe75255aa290ced89e91b29150600090a25050565b600054600160a060020a0316331461070d57600080fd5b61071681610719565b50565b600160a060020a038116151561072e57600080fd5b60008054604051600160a060020a03808516939216917f8be0079c531659141344cd1fd0a4f28419497f9722a3daafe3b4186f6b6457e091a36000805473ffffffffffffffffffffffffffffffffffffffff1916600160a060020a03929092169190911790555600a165627a7a72305820f78d917c984b1a5b6c5b5d1f5609b909abf97b3c1d1e24680ef3a8c125667c950029",
  "source": "pragma solidity ^0.4.23;\n\nimport \"./SNM.sol\";\nimport \"./SimpleGatekeeperWithLimit.sol\";\n\ncontract AutoPayout is Ownable {\n\n    using SafeMath for uint256;\n\n    event AutoPayoutChanged(address indexed master, address indexed target, uint256 indexed limit);\n    event AutoPayout(address indexed master);\n    event Suicide(uint block);\n\n    struct PayoutSetting {\n        uint256 lowLimit;\n        address target;\n    }\n\n    SNM token;\n\n    SimpleGatekeeperWithLimit gatekeeper;\n\n    mapping(address => PayoutSetting) public allowedPayouts;\n\n    constructor(address _token, address _gatekeeper) public {\n        token = SNM(_token);\n        gatekeeper = SimpleGatekeeperWithLimit(_gatekeeper);\n        owner = msg.sender;\n    }\n\n    function SetAutoPayout(uint256 _limit, address _target) public {\n        allowedPayouts[msg.sender].lowLimit = _limit;\n        allowedPayouts[msg.sender].target = _target;\n        emit AutoPayoutChanged(msg.sender, _target, _limit);\n    }\n\n    function DoAutoPayout(address _master) public {\n        uint256 balance = token.balanceOf(_master);\n        require(balance >= allowedPayouts[_master].lowLimit);\n\n        token.transferFrom(_master, address(this), balance);\n\n        token.approve(gatekeeper, balance);\n        gatekeeper.PayinTargeted(balance, allowedPayouts[_master].target);\n        emit AutoPayout(_master);\n    }\n\n    function kill() public onlyOwner {\n        require(token.transfer(owner, token.balanceOf(address(this))));\n        emit Suicide(block.timestamp);\n        // solium-disable-line security/no-block-members\n        selfdestruct(owner);\n    }\n}\n",
  "sourcePath": "contracts/AutoPayout.sol",
  "compiler": {
    "name": "solc",
    "version": "0.4.24+commit.e67f0147.Emscripten.clang"
  },
  "schemaVersion": "2.0.1",
  "updatedAt": "2018-12-06T13:22:53.127Z"
}