{
  "contractName": "Blacklist",
  "abi": [
    {
      "constant": false,
      "inputs": [],
      "name": "renounceOwnership",
      "outputs": [],
      "payable": false,
      "stateMutability": "nonpayable",
      "type": "function"
    },
    {
      "constant": true,
      "inputs": [],
      "name": "market",
      "outputs": [
        {
          "name": "",
          "type": "address"
        }
      ],
      "payable": false,
      "stateMutability": "view",
      "type": "function"
    },
    {
      "constant": true,
      "inputs": [],
      "name": "owner",
      "outputs": [
        {
          "name": "",
          "type": "address"
        }
      ],
      "payable": false,
      "stateMutability": "view",
      "type": "function"
    },
    {
      "constant": false,
      "inputs": [
        {
          "name": "_newOwner",
          "type": "address"
        }
      ],
      "name": "transferOwnership",
      "outputs": [],
      "payable": false,
      "stateMutability": "nonpayable",
      "type": "function"
    },
    {
      "inputs": [],
      "payable": false,
      "stateMutability": "nonpayable",
      "type": "constructor"
    },
    {
      "anonymous": false,
      "inputs": [
        {
          "indexed": true,
          "name": "adder",
          "type": "address"
        },
        {
          "indexed": true,
          "name": "addee",
          "type": "address"
        }
      ],
      "name": "AddedToBlacklist",
      "type": "event"
    },
    {
      "anonymous": false,
      "inputs": [
        {
          "indexed": true,
          "name": "remover",
          "type": "address"
        },
        {
          "indexed": true,
          "name": "removee",
          "type": "address"
        }
      ],
      "name": "RemovedFromBlacklist",
      "type": "event"
    },
    {
      "anonymous": false,
      "inputs": [
        {
          "indexed": true,
          "name": "previousOwner",
          "type": "address"
        }
      ],
      "name": "OwnershipRenounced",
      "type": "event"
    },
    {
      "anonymous": false,
      "inputs": [
        {
          "indexed": true,
          "name": "previousOwner",
          "type": "address"
        },
        {
          "indexed": true,
          "name": "newOwner",
          "type": "address"
        }
      ],
      "name": "OwnershipTransferred",
      "type": "event"
    },
    {
      "constant": true,
      "inputs": [
        {
          "name": "_who",
          "type": "address"
        },
        {
          "name": "_whom",
          "type": "address"
        }
      ],
      "name": "Check",
      "outputs": [
        {
          "name": "",
          "type": "bool"
        }
      ],
      "payable": false,
      "stateMutability": "view",
      "type": "function"
    },
    {
      "constant": false,
      "inputs": [
        {
          "name": "_who",
          "type": "address"
        },
        {
          "name": "_whom",
          "type": "address"
        }
      ],
      "name": "Add",
      "outputs": [
        {
          "name": "",
          "type": "bool"
        }
      ],
      "payable": false,
      "stateMutability": "nonpayable",
      "type": "function"
    },
    {
      "constant": false,
      "inputs": [
        {
          "name": "_whom",
          "type": "address"
        }
      ],
      "name": "Remove",
      "outputs": [
        {
          "name": "",
          "type": "bool"
        }
      ],
      "payable": false,
      "stateMutability": "nonpayable",
      "type": "function"
    },
    {
      "constant": false,
      "inputs": [
        {
          "name": "_root",
          "type": "address"
        }
      ],
      "name": "AddMaster",
      "outputs": [
        {
          "name": "",
          "type": "bool"
        }
      ],
      "payable": false,
      "stateMutability": "nonpayable",
      "type": "function"
    },
    {
      "constant": false,
      "inputs": [
        {
          "name": "_root",
          "type": "address"
        }
      ],
      "name": "RemoveMaster",
      "outputs": [
        {
          "name": "",
          "type": "bool"
        }
      ],
      "payable": false,
      "stateMutability": "nonpayable",
      "type": "function"
    },
    {
      "constant": false,
      "inputs": [
        {
          "name": "_market",
          "type": "address"
        }
      ],
      "name": "SetMarketAddress",
      "outputs": [
        {
          "name": "",
          "type": "bool"
        }
      ],
      "payable": false,
      "stateMutability": "nonpayable",
      "type": "function"
    }
  ],
  "bytecode": "0x608060405260038054600160a060020a031916905534801561002057600080fd5b5060008054600160a060020a0319908116339081179091161790556105e68061004a6000396000f3006080604052600436106100a35763ffffffff7c0100000000000000000000000000000000000000000000000000000000600035041663473b736f81146100a8578063584720f5146100e3578063715018a61461010457806377d58a151461011b57806380f556051461013c5780638a1051f81461016d5780638da5cb5b1461018e578063968f600c146101a3578063be7c7ac3146101ca578063f2fde38b146101eb575b600080fd5b3480156100b457600080fd5b506100cf600160a060020a036004358116906024351661020c565b604080519115158252519081900360200190f35b3480156100ef57600080fd5b506100cf600160a060020a03600435166102bc565b34801561011057600080fd5b50610119610323565b005b34801561012757600080fd5b506100cf600160a060020a036004351661038f565b34801561014857600080fd5b506101516103d9565b60408051600160a060020a039092168252519081900360200190f35b34801561017957600080fd5b506100cf600160a060020a03600435166103e8565b34801561019a57600080fd5b5061015161044f565b3480156101af57600080fd5b506100cf600160a060020a036004358116906024351661045e565b3480156101d657600080fd5b506100cf600160a060020a036004351661048c565b3480156101f757600080fd5b50610119600160a060020a036004351661051a565b600354600090600160a060020a0316151561022657600080fd5b600354600160a060020a031633148061024e57503360009081526002602052604090205460ff165b151561025957600080fd5b600160a060020a03808416600081815260016020818152604080842095881680855295909152808320805460ff1916909217909155517f708802ac7da0a63d9f6b2df693b53345ad263e42d74c245110e1ec1e03a1567e9190a350600192915050565b60008054600160a060020a031633146102d457600080fd5b600160a060020a03821660009081526002602052604090205460ff1615156001146102fe57600080fd5b50600160a060020a03166000908152600260205260409020805460ff19169055600190565b600054600160a060020a0316331461033a57600080fd5b60008054604051600160a060020a03909116917ff8df31144d9c2f0f6b59d69b8b98abd5459d07f2742c4df920b25aae33c6482091a26000805473ffffffffffffffffffffffffffffffffffffffff19169055565b60008054600160a060020a031633146103a757600080fd5b5060038054600160a060020a03831673ffffffffffffffffffffffffffffffffffffffff199091161790556001919050565b600354600160a060020a031681565b60008054600160a060020a0316331461040057600080fd5b600160a060020a03821660009081526002602052604090205460ff161561042657600080fd5b50600160a060020a03166000908152600260205260409020805460ff1916600190811790915590565b600054600160a060020a031681565b600160a060020a03918216600090815260016020908152604080832093909416825291909152205460ff1690565b336000908152600160208181526040808420600160a060020a038616855290915282205460ff161515146104bf57600080fd5b336000818152600160209081526040808320600160a060020a0387168085529252808320805460ff19169055519092917f576a9aef294e1b4baf3617fde4cbc80ba5344d5eb508222f29e558981704a45791a3506001919050565b600054600160a060020a0316331461053157600080fd5b61053a8161053d565b50565b600160a060020a038116151561055257600080fd5b60008054604051600160a060020a03808516939216917f8be0079c531659141344cd1fd0a4f28419497f9722a3daafe3b4186f6b6457e091a36000805473ffffffffffffffffffffffffffffffffffffffff1916600160a060020a03929092169190911790555600a165627a7a72305820464d7612eb697c84e91586dcfd1cadb3322d3aa9c03146de08040a490ef5fd2b0029",
  "source": "pragma solidity ^0.4.23;\n\n\nimport \"zeppelin-solidity/contracts/ownership/Ownable.sol\";\n\n\ncontract Blacklist is Ownable {\n\n    modifier OnlyMarket() {\n        require(market != 0x0);\n        require(msg.sender == market || master[msg.sender]);\n        _;\n    }\n\n    event AddedToBlacklist(address indexed adder, address indexed addee);\n\n    event RemovedFromBlacklist(address indexed remover, address indexed removee);\n\n    mapping(address => mapping(address => bool)) blacklisted;\n\n    mapping(address => bool) master;\n\n    address public market = 0x0;\n\n    constructor() public {\n        owner = msg.sender;\n    }\n\n    function Check(address _who, address _whom) public view returns (bool) {\n        return blacklisted[_who][_whom];\n    }\n\n    function Add(address _who, address _whom) external OnlyMarket returns (bool) {\n        blacklisted[_who][_whom] = true;\n        emit AddedToBlacklist(_who, _whom);\n        return true;\n    }\n\n    function Remove(address _whom) public returns (bool) {\n        require(blacklisted[msg.sender][_whom] == true);\n        blacklisted[msg.sender][_whom] = false;\n        emit RemovedFromBlacklist(msg.sender, _whom);\n        return true;\n    }\n\n    function AddMaster(address _root) public onlyOwner returns (bool) {\n        require(master[_root] == false);\n        master[_root] = true;\n        return true;\n    }\n\n    function RemoveMaster(address _root) public onlyOwner returns (bool) {\n        require(master[_root] == true);\n        master[_root] = false;\n        return true;\n    }\n\n    function SetMarketAddress(address _market) public onlyOwner returns (bool) {\n        market = _market;\n        return true;\n    }\n}\n",
  "sourcePath": "contracts/Blacklist.sol",
  "compiler": {
    "name": "solc",
    "version": "0.4.24+commit.e67f0147.Emscripten.clang"
  },
  "schemaVersion": "2.0.1",
  "updatedAt": "2019-01-11T16:10:01.974Z"
}