{
  "contractName": "DeployList",
  "abi": [
    {
      "constant": false,
      "inputs": [],
      "name": "renounceOwnership",
      "outputs": [],
      "payable": false,
      "stateMutability": "nonpayable",
      "type": "function"
    },
    {
      "constant": true,
      "inputs": [],
      "name": "owner",
      "outputs": [
        {
          "name": "",
          "type": "address"
        }
      ],
      "payable": false,
      "stateMutability": "view",
      "type": "function"
    },
    {
      "constant": false,
      "inputs": [
        {
          "name": "_newOwner",
          "type": "address"
        }
      ],
      "name": "transferOwnership",
      "outputs": [],
      "payable": false,
      "stateMutability": "nonpayable",
      "type": "function"
    },
    {
      "inputs": [
        {
          "name": "_deployers",
          "type": "address[]"
        }
      ],
      "payable": false,
      "stateMutability": "nonpayable",
      "type": "constructor"
    },
    {
      "anonymous": false,
      "inputs": [
        {
          "indexed": false,
          "name": "deployer",
          "type": "address"
        }
      ],
      "name": "DeployerAdded",
      "type": "event"
    },
    {
      "anonymous": false,
      "inputs": [
        {
          "indexed": false,
          "name": "deployer",
          "type": "address"
        }
      ],
      "name": "DeployerRemoved",
      "type": "event"
    },
    {
      "anonymous": false,
      "inputs": [
        {
          "indexed": true,
          "name": "previousOwner",
          "type": "address"
        }
      ],
      "name": "OwnershipRenounced",
      "type": "event"
    },
    {
      "anonymous": false,
      "inputs": [
        {
          "indexed": true,
          "name": "previousOwner",
          "type": "address"
        },
        {
          "indexed": true,
          "name": "newOwner",
          "type": "address"
        }
      ],
      "name": "OwnershipTransferred",
      "type": "event"
    },
    {
      "constant": false,
      "inputs": [
        {
          "name": "_deployer",
          "type": "address"
        }
      ],
      "name": "addDeployer",
      "outputs": [],
      "payable": false,
      "stateMutability": "nonpayable",
      "type": "function"
    },
    {
      "constant": false,
      "inputs": [
        {
          "name": "_deployer",
          "type": "address"
        }
      ],
      "name": "removeDeployer",
      "outputs": [],
      "payable": false,
      "stateMutability": "nonpayable",
      "type": "function"
    },
    {
      "constant": true,
      "inputs": [],
      "name": "getDeployers",
      "outputs": [
        {
          "name": "",
          "type": "address[]"
        }
      ],
      "payable": false,
      "stateMutability": "view",
      "type": "function"
    }
  ],
  "bytecode": "0x608060405234801561001057600080fd5b5060405161063e38038061063e8339810160405280516000805433600160a060020a0319918216811790911617905501805161005390600190602084019061005a565b50506100e6565b8280548282559060005260206000209081019282156100af579160200282015b828111156100af5782518254600160a060020a031916600160a060020a0390911617825560209092019160019091019061007a565b506100bb9291506100bf565b5090565b6100e391905b808211156100bb578054600160a060020a03191681556001016100c5565b90565b610549806100f56000396000f3006080604052600436106100775763ffffffff7c0100000000000000000000000000000000000000000000000000000000600035041663607c12b5811461007c578063715018a6146100e1578063880f4039146100f85780638da5cb5b14610119578063f2fde38b1461014a578063f315df861461016b575b600080fd5b34801561008857600080fd5b5061009161018c565b60408051602080825283518183015283519192839290830191858101910280838360005b838110156100cd5781810151838201526020016100b5565b505050509050019250505060405180910390f35b3480156100ed57600080fd5b506100f66101ef565b005b34801561010457600080fd5b506100f6600160a060020a036004351661025b565b34801561012557600080fd5b5061012e610302565b60408051600160a060020a039092168252519081900360200190f35b34801561015657600080fd5b506100f6600160a060020a0360043516610311565b34801561017757600080fd5b506100f6600160a060020a0360043516610334565b606060018054806020026020016040519081016040528092919081815260200182805480156101e457602002820191906000526020600020905b8154600160a060020a031681526001909101906020018083116101c6575b505050505090505b90565b600054600160a060020a0316331461020657600080fd5b60008054604051600160a060020a03909116917ff8df31144d9c2f0f6b59d69b8b98abd5459d07f2742c4df920b25aae33c6482091a26000805473ffffffffffffffffffffffffffffffffffffffff19169055565b600054600160a060020a0316331461027257600080fd5b6001805480820182556000919091527fb10e2d527612073b26eecdfd717e6a320cf44b4afac2b0732d9fcbe2b7fa0cf6018054600160a060020a03831673ffffffffffffffffffffffffffffffffffffffff19909116811790915560408051918252517f861a21548a3ee34d896ccac3668a9d65030aaf2cb7367a2ed13608014016a0329181900360200190a150565b600054600160a060020a031681565b600054600160a060020a0316331461032857600080fd5b61033181610459565b50565b60008054600160a060020a0316331461034c57600080fd5b5060005b600154600019018110156104055781600160a060020a031660018281548110151561037757fe5b600091825260209091200154600160a060020a031614156103fd576001805460001981019081106103a457fe5b60009182526020909120015460018054600160a060020a0390921691839081106103ca57fe5b9060005260206000200160006101000a815481600160a060020a030219169083600160a060020a03160217905550610405565b600101610350565b60018054600019019061041890826104d6565b5060408051600160a060020a038416815290517ffdb22628e87f888d060acc53d048a6a8400a5024f81f9dcb0606e723f238864a9181900360200190a15050565b600160a060020a038116151561046e57600080fd5b60008054604051600160a060020a03808516939216917f8be0079c531659141344cd1fd0a4f28419497f9722a3daafe3b4186f6b6457e091a36000805473ffffffffffffffffffffffffffffffffffffffff1916600160a060020a0392909216919091179055565b8154818355818111156104fa576000838152602090206104fa9181019083016104ff565b505050565b6101ec91905b808211156105195760008155600101610505565b50905600a165627a7a72305820e9fc8432afc30cdd5dc2cb14c650ee92c84cddf8014f5d38b3a7dc97efabcbc90029",
  "source": "pragma solidity ^0.4.23;\n\n\nimport \"zeppelin-solidity/contracts/ownership/Ownable.sol\";\n\n\ncontract DeployList is Ownable {\n    address[] deployers;\n\n    event DeployerAdded(address deployer);\n\n    event DeployerRemoved(address deployer);\n\n    constructor(address[] _deployers){\n        owner = msg.sender;\n        deployers = _deployers;\n    }\n\n    function addDeployer(address _deployer) public onlyOwner {\n        deployers.push(_deployer);\n        emit DeployerAdded(_deployer);\n    }\n\n    function removeDeployer(address _deployer) public onlyOwner {\n        for (uint i = 0; i < deployers.length - 1; i++)\n            if (deployers[i] == _deployer) {\n                deployers[i] = deployers[deployers.length - 1];\n                break;\n            }\n        deployers.length -= 1;\n        emit DeployerRemoved(_deployer);\n    }\n\n    function getDeployers() public view returns (address[]){\n        return deployers;\n    }\n}\n",
  "sourcePath": "contracts/DeployList.sol",
  "compiler": {
    "name": "solc",
    "version": "0.4.24+commit.e67f0147.Emscripten.clang"
  },
  "schemaVersion": "2.0.1",
  "updatedAt": "2018-12-06T13:22:53.129Z"
}