{
  "contractName": "DevicesStorage",
  "abi": [
    {
      "constant": false,
      "inputs": [],
      "name": "renounceOwnership",
      "outputs": [],
      "payable": false,
      "stateMutability": "nonpayable",
      "type": "function"
    },
    {
      "constant": true,
      "inputs": [],
      "name": "owner",
      "outputs": [
        {
          "name": "",
          "type": "address"
        }
      ],
      "payable": false,
      "stateMutability": "view",
      "type": "function"
    },
    {
      "constant": false,
      "inputs": [
        {
          "name": "_newOwner",
          "type": "address"
        }
      ],
      "name": "transferOwnership",
      "outputs": [],
      "payable": false,
      "stateMutability": "nonpayable",
      "type": "function"
    },
    {
      "inputs": [],
      "payable": false,
      "stateMutability": "nonpayable",
      "type": "constructor"
    },
    {
      "anonymous": false,
      "inputs": [
        {
          "indexed": true,
          "name": "owner",
          "type": "address"
        }
      ],
      "name": "DevicesHasSet",
      "type": "event"
    },
    {
      "anonymous": false,
      "inputs": [
        {
          "indexed": true,
          "name": "owner",
          "type": "address"
        }
      ],
      "name": "DevicesUpdated",
      "type": "event"
    },
    {
      "anonymous": false,
      "inputs": [
        {
          "indexed": true,
          "name": "owner",
          "type": "address"
        }
      ],
      "name": "DevicesTimestampUpdated",
      "type": "event"
    },
    {
      "anonymous": false,
      "inputs": [
        {
          "indexed": false,
          "name": "block",
          "type": "uint256"
        }
      ],
      "name": "Suicide",
      "type": "event"
    },
    {
      "anonymous": false,
      "inputs": [
        {
          "indexed": true,
          "name": "previousOwner",
          "type": "address"
        }
      ],
      "name": "OwnershipRenounced",
      "type": "event"
    },
    {
      "anonymous": false,
      "inputs": [
        {
          "indexed": true,
          "name": "previousOwner",
          "type": "address"
        },
        {
          "indexed": true,
          "name": "newOwner",
          "type": "address"
        }
      ],
      "name": "OwnershipTransferred",
      "type": "event"
    },
    {
      "constant": false,
      "inputs": [
        {
          "name": "_deviceList",
          "type": "bytes"
        }
      ],
      "name": "SetDevices",
      "outputs": [],
      "payable": false,
      "stateMutability": "nonpayable",
      "type": "function"
    },
    {
      "constant": false,
      "inputs": [
        {
          "name": "_hash",
          "type": "bytes32"
        }
      ],
      "name": "Touch",
      "outputs": [
        {
          "name": "",
          "type": "bool"
        }
      ],
      "payable": false,
      "stateMutability": "nonpayable",
      "type": "function"
    },
    {
      "constant": true,
      "inputs": [
        {
          "name": "_owner",
          "type": "address"
        }
      ],
      "name": "Hash",
      "outputs": [
        {
          "name": "",
          "type": "bytes32"
        }
      ],
      "payable": false,
      "stateMutability": "view",
      "type": "function"
    },
    {
      "constant": true,
      "inputs": [
        {
          "name": "_owner",
          "type": "address"
        }
      ],
      "name": "GetDevices",
      "outputs": [
        {
          "name": "devices",
          "type": "bytes"
        },
        {
          "name": "timestamp",
          "type": "uint256"
        }
      ],
      "payable": false,
      "stateMutability": "view",
      "type": "function"
    },
    {
      "constant": false,
      "inputs": [],
      "name": "KillDevicesStorage",
      "outputs": [],
      "payable": false,
      "stateMutability": "nonpayable",
      "type": "function"
    }
  ],
  "bytecode": "0x608060405234801561001057600080fd5b5060008054600160a060020a0319908116339081179091161790556109b38061003a6000396000f30060806040526004361061008d5763ffffffff7c01000000000000000000000000000000000000000000000000000000006000350416632d8dce7b81146100925780633e550cd4146100be57806359ef39501461015e578063715018a61461019157806375ff58db146101a85780638da5cb5b14610201578063cd33174a14610232578063f2fde38b14610247575b600080fd5b34801561009e57600080fd5b506100aa600435610268565b604080519115158252519081900360200190f35b3480156100ca57600080fd5b506100df600160a060020a03600435166103de565b6040518080602001838152602001828103825284818151815260200191508051906020019080838360005b8381101561012257818101518382015260200161010a565b50505050905090810190601f16801561014f5780820380516001836020036101000a031916815260200191505b50935050505060405180910390f35b34801561016a57600080fd5b5061017f600160a060020a03600435166104b7565b60408051918252519081900360200190f35b34801561019d57600080fd5b506101a66105b4565b005b3480156101b457600080fd5b506040805160206004803580820135601f81018490048402850184019095528484526101a69436949293602493928401919081908401838280828437509497506106209650505050505050565b34801561020d57600080fd5b506102166107cd565b60408051600160a060020a039092168252519081900360200190f35b34801561023e57600080fd5b506101a66107dc565b34801561025357600080fd5b506101a6600160a060020a0360043516610834565b6000806001600033600160a060020a0316600160a060020a0316815260200190815260200160002060000160405160200180828054600181600116156101000203166002900480156102f15780601f106102cf5761010080835404028352918201916102f1565b820191906000526020600020905b8154815290600101906020018083116102dd575b50509150506040516020818303038152906040526040518082805190602001908083835b602083106103345780518252601f199092019160209182019101610315565b5181516020939093036101000a60001901801990911692169190911790526040519201829003909120935050508382149050801561039257507fc5d2460186f7233c927e7db2dcc703c0e500b653ca82273b7bfad8045d85a4708114155b1561008d5733600081815260016020819052604080832042920191909155517f84769e7ee13c01432c7d8b384e4a9ba21ead8189731b1049244807be07df834a9190a250600192915050565b606060006103ea6108d4565b600160a060020a0384166000908152600160208181526040928390208351815460029481161561010002600019011693909304601f810183900490920283016060908101855293830182815292939092849290918491908401828280156104925780601f1061046757610100808354040283529160200191610492565b820191906000526020600020905b81548152906001019060200180831161047557829003601f168201915b5050509183525050600191909101546020918201528151910151909590945092505050565b60006001600083600160a060020a0316600160a060020a03168152602001908152602001600020600001604051602001808280546001816001161561010002031660029004801561053f5780601f1061051d57610100808354040283529182019161053f565b820191906000526020600020905b81548152906001019060200180831161052b575b50509150506040516020818303038152906040526040518082805190602001908083835b602083106105825780518252601f199092019160209182019101610563565b5181516020939093036101000a6000190180199091169216919091179052604051920182900390912095945050505050565b600054600160a060020a031633146105cb57600080fd5b60008054604051600160a060020a03909116917ff8df31144d9c2f0f6b59d69b8b98abd5459d07f2742c4df920b25aae33c6482091a26000805473ffffffffffffffffffffffffffffffffffffffff19169055565b60408051336000908152600160208181529390912080547fc5d2460186f7233c927e7db2dcc703c0e500b653ca82273b7bfad8045d85a47094919391909101918291849160026101009183161591909102600019019091160480156106bc5780601f1061069a5761010080835404028352918201916106bc565b820191906000526020600020905b8154815290600101906020018083116106a8575b50509150506040516020818303038152906040526040518082805190602001908083835b602083106106ff5780518252601f1990920191602091820191016106e0565b6001836020036101000a0380198251168184511680821785525050505050509050019150506040518091039020600019161415156107675760405133907f1cd3cdf902f594faafe10e417201b346dcfaceed5eb9fc913379951f0d40068f90600090a2610793565b60405133907fc7582f50a7f5f4ab5898d20e888a592d9338cb6bdd957aa01f89fd3198d0fa9690600090a25b33600090815260016020908152604090912082516107b3928401906108ec565b505033600090815260016020819052604090912042910155565b600054600160a060020a031681565b600054600160a060020a031633146107f357600080fd5b6040805142815290517fa1ea9b09ea114021983e9ecf71cf2ffddfd80f5cb4f925e5bf24f9bdb5e55fde9181900360200190a1600054600160a060020a0316ff5b600054600160a060020a0316331461084b57600080fd5b61085481610857565b50565b600160a060020a038116151561086c57600080fd5b60008054604051600160a060020a03808516939216917f8be0079c531659141344cd1fd0a4f28419497f9722a3daafe3b4186f6b6457e091a36000805473ffffffffffffffffffffffffffffffffffffffff1916600160a060020a0392909216919091179055565b60408051808201909152606081526000602082015290565b828054600181600116156101000203166002900490600052602060002090601f016020900481019282601f1061092d57805160ff191683800117855561095a565b8280016001018555821561095a579182015b8281111561095a57825182559160200191906001019061093f565b5061096692915061096a565b5090565b61098491905b808211156109665760008155600101610970565b905600a165627a7a72305820df50965bc39729ab0b29d9c276304718203612d4916d40e28786def0e53dbca50029",
  "source": "pragma solidity ^0.4.23;\n\nimport \"zeppelin-solidity/contracts/ownership/Ownable.sol\";\n\ncontract DevicesStorage is Ownable {\n\n    // DATA\n    struct Record {\n        bytes devices;\n        uint timestamp;\n    }\n\n    mapping (address => Record) devicesMap;\n\n    bytes32 constant emptyStringHash = keccak256(\"\");\n\n    // EVENTS\n    event DevicesHasSet(address indexed owner);\n    event DevicesUpdated(address indexed owner);\n    event DevicesTimestampUpdated(address indexed owner);\n    event Suicide(uint block);\n\n    constructor() public {\n        owner = msg.sender;\n    }\n\n    // SETTERS\n    function SetDevices(bytes _deviceList) public {\n        if (keccak256(abi.encodePacked(devicesMap[msg.sender].devices)) != emptyStringHash) {\n            emit DevicesUpdated(msg.sender);\n        } else {\n            emit DevicesHasSet(msg.sender);\n        }\n\n        devicesMap[msg.sender].devices = _deviceList;\n        devicesMap[msg.sender].timestamp = block.timestamp;\n    }\n\n    function Touch(bytes32 _hash) public returns(bool) {\n        bytes32 recordHash = keccak256(abi.encodePacked(devicesMap[msg.sender].devices));\n        if (recordHash == _hash && recordHash != emptyStringHash) {\n            devicesMap[msg.sender].timestamp = block.timestamp;\n            emit DevicesTimestampUpdated(msg.sender);\n            return true;\n        }\n        revert();\n    }\n\n    function Hash(address _owner) public view returns(bytes32) {\n        return keccak256(abi.encodePacked(devicesMap[_owner].devices));\n    }\n\n    function GetDevices(address _owner) public view returns (bytes devices, uint timestamp) {\n        Record memory record = devicesMap[_owner];\n        return (record.devices, record.timestamp);\n    }\n\n    function KillDevicesStorage() public onlyOwner {\n        emit Suicide(block.timestamp);\n        selfdestruct(owner);\n    }\n}\n",
  "sourcePath": "contracts/DevicesStorage.sol",
  "compiler": {
    "name": "solc",
    "version": "0.4.24+commit.e67f0147.Emscripten.clang"
  },
  "schemaVersion": "2.0.1",
  "updatedAt": "2018-12-24T11:55:10.289Z"
}