{
  "contractName": "Dummy",
  "abi": [
    {
      "constant": false,
      "inputs": [],
      "name": "renounceOwnership",
      "outputs": [],
      "payable": false,
      "stateMutability": "nonpayable",
      "type": "function"
    },
    {
      "constant": true,
      "inputs": [],
      "name": "owner",
      "outputs": [
        {
          "name": "",
          "type": "address"
        }
      ],
      "payable": false,
      "stateMutability": "view",
      "type": "function"
    },
    {
      "constant": false,
      "inputs": [
        {
          "name": "_newAdministrator",
          "type": "address"
        }
      ],
      "name": "transferAdministratorship",
      "outputs": [],
      "payable": false,
      "stateMutability": "nonpayable",
      "type": "function"
    },
    {
      "constant": false,
      "inputs": [
        {
          "name": "_newOwner",
          "type": "address"
        }
      ],
      "name": "transferOwnership",
      "outputs": [],
      "payable": false,
      "stateMutability": "nonpayable",
      "type": "function"
    },
    {
      "constant": true,
      "inputs": [],
      "name": "administrator",
      "outputs": [
        {
          "name": "",
          "type": "address"
        }
      ],
      "payable": false,
      "stateMutability": "view",
      "type": "function"
    },
    {
      "anonymous": false,
      "inputs": [
        {
          "indexed": false,
          "name": "method",
          "type": "string"
        }
      ],
      "name": "Call",
      "type": "event"
    },
    {
      "anonymous": false,
      "inputs": [
        {
          "indexed": true,
          "name": "previousOwner",
          "type": "address"
        }
      ],
      "name": "OwnershipRenounced",
      "type": "event"
    },
    {
      "anonymous": false,
      "inputs": [
        {
          "indexed": true,
          "name": "previousOwner",
          "type": "address"
        },
        {
          "indexed": true,
          "name": "newOwner",
          "type": "address"
        }
      ],
      "name": "OwnershipTransferred",
      "type": "event"
    },
    {
      "anonymous": false,
      "inputs": [
        {
          "indexed": true,
          "name": "previousAdministrator",
          "type": "address"
        },
        {
          "indexed": true,
          "name": "newAdministrator",
          "type": "address"
        }
      ],
      "name": "AdministratorshipTransferred",
      "type": "event"
    },
    {
      "constant": false,
      "inputs": [],
      "name": "testOnlyOwner",
      "outputs": [],
      "payable": false,
      "stateMutability": "nonpayable",
      "type": "function"
    },
    {
      "constant": false,
      "inputs": [],
      "name": "testPublic",
      "outputs": [
        {
          "name": "",
          "type": "bool"
        }
      ],
      "payable": false,
      "stateMutability": "nonpayable",
      "type": "function"
    },
    {
      "constant": false,
      "inputs": [],
      "name": "testOwnerOrAdministrator",
      "outputs": [
        {
          "name": "",
          "type": "bool"
        }
      ],
      "payable": false,
      "stateMutability": "nonpayable",
      "type": "function"
    }
  ],
  "bytecode": "0x60806040526000805433600160a060020a0319918216811783556001805490921617905561051890819061003390396000f30060806040526004361061008d5763ffffffff7c010000000000000000000000000000000000000000000000000000000060003504166325e7d9ee8114610092578063715018a6146100a95780638da5cb5b146100be578063916b2be0146100ef578063a9f0a59014610118578063f2fde38b14610139578063f53d0a8e1461015a578063f5fda8cd1461016f575b600080fd5b34801561009e57600080fd5b506100a7610184565b005b3480156100b557600080fd5b506100a76101fd565b3480156100ca57600080fd5b506100d3610280565b60408051600160a060020a039092168252519081900360200190f35b3480156100fb57600080fd5b5061010461028f565b604080519115158252519081900360200190f35b34801561012457600080fd5b506100a7600160a060020a0360043516610321565b34801561014557600080fd5b506100a7600160a060020a0360043516610344565b34801561016657600080fd5b506100d361037b565b34801561017b57600080fd5b5061010461038a565b600054600160a060020a0316331461019b57600080fd5b6040805160208082526009908201527f6f6e6c794f776e657200000000000000000000000000000000000000000000008183015290517f76cd15b4362d70f576bc9a8057fa5525509bd67b0aabccae82e1d5aeb523a9ef9181900360600190a1565b600054600160a060020a03163314806102205750600154600160a060020a031633145b151561022b57600080fd5b60008054604051600160a060020a03909116917ff8df31144d9c2f0f6b59d69b8b98abd5459d07f2742c4df920b25aae33c6482091a26000805473ffffffffffffffffffffffffffffffffffffffff19169055565b600054600160a060020a031681565b60008054600160a060020a03163314806102b35750600154600160a060020a031633145b15156102be57600080fd5b6040805160208082526014908201527f6f776e65724f7241646d696e6973747261746f720000000000000000000000008183015290517f76cd15b4362d70f576bc9a8057fa5525509bd67b0aabccae82e1d5aeb523a9ef9181900360600190a190565b600154600160a060020a0316331461033857600080fd5b610341816103f1565b50565b600054600160a060020a03163314806103675750600154600160a060020a031633145b151561037257600080fd5b6103418161046f565b600154600160a060020a031681565b6040805160208082526006908201527f7075626c696300000000000000000000000000000000000000000000000000008183015290516000917f76cd15b4362d70f576bc9a8057fa5525509bd67b0aabccae82e1d5aeb523a9ef919081900360600190a190565b600160a060020a038116151561040657600080fd5b600154604051600160a060020a038084169216907f39e41585bde2224ba5127a3a5d20414c158e7966cc0d391983c1abbcf142c52b90600090a36001805473ffffffffffffffffffffffffffffffffffffffff1916600160a060020a0392909216919091179055565b600160a060020a038116151561048457600080fd5b60008054604051600160a060020a03808516939216917f8be0079c531659141344cd1fd0a4f28419497f9722a3daafe3b4186f6b6457e091a36000805473ffffffffffffffffffffffffffffffffffffffff1916600160a060020a03929092169190911790555600a165627a7a72305820a632383e9f08329121a31c03f1465386391a3fa683dfa54efe39634a2f7de22e0029",
  "source": "pragma solidity ^0.4.23;\n\nimport \"../Administratable.sol\";\n\ncontract Dummy is Administratable {\n\n    event Call(string method);\n\n    function testOnlyOwner() public onlyOwner {\n        emit Call(\"onlyOwner\");\n    }\n\n    function testPublic() public returns (bool) {\n        emit Call(\"public\");\n    }\n\n    function testOwnerOrAdministrator() public ownerOrAdministrator returns (bool) {\n        emit Call(\"ownerOrAdministrator\");\n    }\n}\n",
  "sourcePath": "contracts/test/Dummy.sol",
  "compiler": {
    "name": "solc",
    "version": "0.4.24+commit.e67f0147.Emscripten.clang"
  },
  "schemaVersion": "2.0.1",
  "updatedAt": "2018-12-06T13:22:53.161Z"
}