{
  "contractName": "Market",
  "abi": [
    {
      "constant": true,
      "inputs": [
        {
          "name": "",
          "type": "uint256"
        }
      ],
      "name": "deals",
      "outputs": [
        {
          "name": "supplierID",
          "type": "address"
        },
        {
          "name": "consumerID",
          "type": "address"
        },
        {
          "name": "masterID",
          "type": "address"
        },
        {
          "name": "askID",
          "type": "uint256"
        },
        {
          "name": "bidID",
          "type": "uint256"
        },
        {
          "name": "duration",
          "type": "uint256"
        },
        {
          "name": "price",
          "type": "uint256"
        },
        {
          "name": "startTime",
          "type": "uint256"
        },
        {
          "name": "endTime",
          "type": "uint256"
        },
        {
          "name": "status",
          "type": "uint8"
        },
        {
          "name": "blockedBalance",
          "type": "uint256"
        },
        {
          "name": "totalPayout",
          "type": "uint256"
        },
        {
          "name": "lastBillTS",
          "type": "uint256"
        }
      ],
      "payable": false,
      "stateMutability": "view",
      "type": "function"
    },
    {
      "constant": false,
      "inputs": [],
      "name": "unpause",
      "outputs": [],
      "payable": false,
      "stateMutability": "nonpayable",
      "type": "function"
    },
    {
      "constant": true,
      "inputs": [],
      "name": "paused",
      "outputs": [
        {
          "name": "",
          "type": "bool"
        }
      ],
      "payable": false,
      "stateMutability": "view",
      "type": "function"
    },
    {
      "constant": false,
      "inputs": [],
      "name": "renounceOwnership",
      "outputs": [],
      "payable": false,
      "stateMutability": "nonpayable",
      "type": "function"
    },
    {
      "constant": false,
      "inputs": [],
      "name": "pause",
      "outputs": [],
      "payable": false,
      "stateMutability": "nonpayable",
      "type": "function"
    },
    {
      "constant": true,
      "inputs": [],
      "name": "owner",
      "outputs": [
        {
          "name": "",
          "type": "address"
        }
      ],
      "payable": false,
      "stateMutability": "view",
      "type": "function"
    },
    {
      "constant": true,
      "inputs": [
        {
          "name": "",
          "type": "uint256"
        }
      ],
      "name": "orders",
      "outputs": [
        {
          "name": "orderType",
          "type": "uint8"
        },
        {
          "name": "orderStatus",
          "type": "uint8"
        },
        {
          "name": "author",
          "type": "address"
        },
        {
          "name": "counterparty",
          "type": "address"
        },
        {
          "name": "duration",
          "type": "uint256"
        },
        {
          "name": "price",
          "type": "uint256"
        },
        {
          "name": "identityLevel",
          "type": "uint8"
        },
        {
          "name": "blacklist",
          "type": "address"
        },
        {
          "name": "tag",
          "type": "bytes32"
        },
        {
          "name": "frozenSum",
          "type": "uint256"
        },
        {
          "name": "dealID",
          "type": "uint256"
        }
      ],
      "payable": false,
      "stateMutability": "view",
      "type": "function"
    },
    {
      "constant": false,
      "inputs": [
        {
          "name": "_newOwner",
          "type": "address"
        }
      ],
      "name": "transferOwnership",
      "outputs": [],
      "payable": false,
      "stateMutability": "nonpayable",
      "type": "function"
    },
    {
      "inputs": [
        {
          "name": "_token",
          "type": "address"
        },
        {
          "name": "_blacklist",
          "type": "address"
        },
        {
          "name": "_oracle",
          "type": "address"
        },
        {
          "name": "_profileRegistry",
          "type": "address"
        },
        {
          "name": "_benchmarksQuantity",
          "type": "uint256"
        },
        {
          "name": "_netflagsQuantity",
          "type": "uint256"
        }
      ],
      "payable": false,
      "stateMutability": "nonpayable",
      "type": "constructor"
    },
    {
      "anonymous": false,
      "inputs": [
        {
          "indexed": true,
          "name": "orderID",
          "type": "uint256"
        }
      ],
      "name": "OrderPlaced",
      "type": "event"
    },
    {
      "anonymous": false,
      "inputs": [
        {
          "indexed": true,
          "name": "orderID",
          "type": "uint256"
        }
      ],
      "name": "OrderUpdated",
      "type": "event"
    },
    {
      "anonymous": false,
      "inputs": [
        {
          "indexed": true,
          "name": "dealID",
          "type": "uint256"
        }
      ],
      "name": "DealOpened",
      "type": "event"
    },
    {
      "anonymous": false,
      "inputs": [
        {
          "indexed": true,
          "name": "dealID",
          "type": "uint256"
        }
      ],
      "name": "DealUpdated",
      "type": "event"
    },
    {
      "anonymous": false,
      "inputs": [
        {
          "indexed": true,
          "name": "dealID",
          "type": "uint256"
        },
        {
          "indexed": true,
          "name": "paidAmount",
          "type": "uint256"
        }
      ],
      "name": "Billed",
      "type": "event"
    },
    {
      "anonymous": false,
      "inputs": [
        {
          "indexed": true,
          "name": "changeRequestID",
          "type": "uint256"
        }
      ],
      "name": "DealChangeRequestSet",
      "type": "event"
    },
    {
      "anonymous": false,
      "inputs": [
        {
          "indexed": true,
          "name": "changeRequestID",
          "type": "uint256"
        }
      ],
      "name": "DealChangeRequestUpdated",
      "type": "event"
    },
    {
      "anonymous": false,
      "inputs": [
        {
          "indexed": true,
          "name": "worker",
          "type": "address"
        },
        {
          "indexed": true,
          "name": "master",
          "type": "address"
        }
      ],
      "name": "WorkerAnnounced",
      "type": "event"
    },
    {
      "anonymous": false,
      "inputs": [
        {
          "indexed": true,
          "name": "worker",
          "type": "address"
        },
        {
          "indexed": true,
          "name": "master",
          "type": "address"
        }
      ],
      "name": "WorkerConfirmed",
      "type": "event"
    },
    {
      "anonymous": false,
      "inputs": [
        {
          "indexed": true,
          "name": "worker",
          "type": "address"
        },
        {
          "indexed": true,
          "name": "master",
          "type": "address"
        }
      ],
      "name": "WorkerRemoved",
      "type": "event"
    },
    {
      "anonymous": false,
      "inputs": [
        {
          "indexed": true,
          "name": "newNum",
          "type": "uint256"
        }
      ],
      "name": "NumBenchmarksUpdated",
      "type": "event"
    },
    {
      "anonymous": false,
      "inputs": [
        {
          "indexed": true,
          "name": "newNum",
          "type": "uint256"
        }
      ],
      "name": "NumNetflagsUpdated",
      "type": "event"
    },
    {
      "anonymous": false,
      "inputs": [],
      "name": "Pause",
      "type": "event"
    },
    {
      "anonymous": false,
      "inputs": [],
      "name": "Unpause",
      "type": "event"
    },
    {
      "anonymous": false,
      "inputs": [
        {
          "indexed": true,
          "name": "previousOwner",
          "type": "address"
        }
      ],
      "name": "OwnershipRenounced",
      "type": "event"
    },
    {
      "anonymous": false,
      "inputs": [
        {
          "indexed": true,
          "name": "previousOwner",
          "type": "address"
        },
        {
          "indexed": true,
          "name": "newOwner",
          "type": "address"
        }
      ],
      "name": "OwnershipTransferred",
      "type": "event"
    },
    {
      "constant": false,
      "inputs": [
        {
          "name": "_orderType",
          "type": "uint8"
        },
        {
          "name": "_id_counterparty",
          "type": "address"
        },
        {
          "name": "_duration",
          "type": "uint256"
        },
        {
          "name": "_price",
          "type": "uint256"
        },
        {
          "name": "_netflags",
          "type": "bool[]"
        },
        {
          "name": "_identityLevel",
          "type": "uint8"
        },
        {
          "name": "_blacklist",
          "type": "address"
        },
        {
          "name": "_tag",
          "type": "bytes32"
        },
        {
          "name": "_benchmarks",
          "type": "uint64[]"
        }
      ],
      "name": "PlaceOrder",
      "outputs": [
        {
          "name": "",
          "type": "uint256"
        }
      ],
      "payable": false,
      "stateMutability": "nonpayable",
      "type": "function"
    },
    {
      "constant": false,
      "inputs": [
        {
          "name": "orderID",
          "type": "uint256"
        }
      ],
      "name": "CancelOrder",
      "outputs": [
        {
          "name": "",
          "type": "bool"
        }
      ],
      "payable": false,
      "stateMutability": "nonpayable",
      "type": "function"
    },
    {
      "constant": false,
      "inputs": [
        {
          "name": "askID",
          "type": "uint256"
        },
        {
          "name": "buyoutDuration",
          "type": "uint256"
        }
      ],
      "name": "QuickBuy",
      "outputs": [],
      "payable": false,
      "stateMutability": "nonpayable",
      "type": "function"
    },
    {
      "constant": false,
      "inputs": [
        {
          "name": "_askID",
          "type": "uint256"
        },
        {
          "name": "_bidID",
          "type": "uint256"
        }
      ],
      "name": "OpenDeal",
      "outputs": [],
      "payable": false,
      "stateMutability": "nonpayable",
      "type": "function"
    },
    {
      "constant": false,
      "inputs": [
        {
          "name": "dealID",
          "type": "uint256"
        },
        {
          "name": "blacklisted",
          "type": "uint8"
        }
      ],
      "name": "CloseDeal",
      "outputs": [
        {
          "name": "",
          "type": "bool"
        }
      ],
      "payable": false,
      "stateMutability": "nonpayable",
      "type": "function"
    },
    {
      "constant": false,
      "inputs": [
        {
          "name": "dealID",
          "type": "uint256"
        }
      ],
      "name": "Bill",
      "outputs": [
        {
          "name": "",
          "type": "bool"
        }
      ],
      "payable": false,
      "stateMutability": "nonpayable",
      "type": "function"
    },
    {
      "constant": false,
      "inputs": [
        {
          "name": "dealID",
          "type": "uint256"
        },
        {
          "name": "newPrice",
          "type": "uint256"
        },
        {
          "name": "newDuration",
          "type": "uint256"
        }
      ],
      "name": "CreateChangeRequest",
      "outputs": [
        {
          "name": "changeRequestID",
          "type": "uint256"
        }
      ],
      "payable": false,
      "stateMutability": "nonpayable",
      "type": "function"
    },
    {
      "constant": false,
      "inputs": [
        {
          "name": "changeRequestID",
          "type": "uint256"
        }
      ],
      "name": "CancelChangeRequest",
      "outputs": [
        {
          "name": "",
          "type": "bool"
        }
      ],
      "payable": false,
      "stateMutability": "nonpayable",
      "type": "function"
    },
    {
      "constant": false,
      "inputs": [
        {
          "name": "_master",
          "type": "address"
        }
      ],
      "name": "RegisterWorker",
      "outputs": [
        {
          "name": "",
          "type": "bool"
        }
      ],
      "payable": false,
      "stateMutability": "nonpayable",
      "type": "function"
    },
    {
      "constant": false,
      "inputs": [
        {
          "name": "_worker",
          "type": "address"
        }
      ],
      "name": "ConfirmWorker",
      "outputs": [
        {
          "name": "",
          "type": "bool"
        }
      ],
      "payable": false,
      "stateMutability": "nonpayable",
      "type": "function"
    },
    {
      "constant": false,
      "inputs": [
        {
          "name": "_worker",
          "type": "address"
        },
        {
          "name": "_master",
          "type": "address"
        }
      ],
      "name": "RemoveWorker",
      "outputs": [
        {
          "name": "",
          "type": "bool"
        }
      ],
      "payable": false,
      "stateMutability": "nonpayable",
      "type": "function"
    },
    {
      "constant": true,
      "inputs": [
        {
          "name": "orderID",
          "type": "uint256"
        }
      ],
      "name": "GetOrderInfo",
      "outputs": [
        {
          "name": "orderType",
          "type": "uint8"
        },
        {
          "name": "author",
          "type": "address"
        },
        {
          "name": "counterparty",
          "type": "address"
        },
        {
          "name": "duration",
          "type": "uint256"
        },
        {
          "name": "price",
          "type": "uint256"
        },
        {
          "name": "netflags",
          "type": "bool[]"
        },
        {
          "name": "identityLevel",
          "type": "uint8"
        },
        {
          "name": "blacklist",
          "type": "address"
        },
        {
          "name": "tag",
          "type": "bytes32"
        },
        {
          "name": "benchmarks",
          "type": "uint64[]"
        },
        {
          "name": "frozenSum",
          "type": "uint256"
        }
      ],
      "payable": false,
      "stateMutability": "view",
      "type": "function"
    },
    {
      "constant": true,
      "inputs": [
        {
          "name": "orderID",
          "type": "uint256"
        }
      ],
      "name": "GetOrderParams",
      "outputs": [
        {
          "name": "orderStatus",
          "type": "uint8"
        },
        {
          "name": "dealID",
          "type": "uint256"
        }
      ],
      "payable": false,
      "stateMutability": "view",
      "type": "function"
    },
    {
      "constant": true,
      "inputs": [
        {
          "name": "dealID",
          "type": "uint256"
        }
      ],
      "name": "GetDealInfo",
      "outputs": [
        {
          "name": "benchmarks",
          "type": "uint64[]"
        },
        {
          "name": "supplierID",
          "type": "address"
        },
        {
          "name": "consumerID",
          "type": "address"
        },
        {
          "name": "masterID",
          "type": "address"
        },
        {
          "name": "askID",
          "type": "uint256"
        },
        {
          "name": "bidID",
          "type": "uint256"
        },
        {
          "name": "startTime",
          "type": "uint256"
        }
      ],
      "payable": false,
      "stateMutability": "view",
      "type": "function"
    },
    {
      "constant": true,
      "inputs": [
        {
          "name": "dealID",
          "type": "uint256"
        }
      ],
      "name": "GetDealParams",
      "outputs": [
        {
          "name": "duration",
          "type": "uint256"
        },
        {
          "name": "price",
          "type": "uint256"
        },
        {
          "name": "endTime",
          "type": "uint256"
        },
        {
          "name": "status",
          "type": "uint8"
        },
        {
          "name": "blockedBalance",
          "type": "uint256"
        },
        {
          "name": "totalPayout",
          "type": "uint256"
        },
        {
          "name": "lastBillTS",
          "type": "uint256"
        }
      ],
      "payable": false,
      "stateMutability": "view",
      "type": "function"
    },
    {
      "constant": true,
      "inputs": [
        {
          "name": "_worker",
          "type": "address"
        }
      ],
      "name": "GetMaster",
      "outputs": [
        {
          "name": "master",
          "type": "address"
        }
      ],
      "payable": false,
      "stateMutability": "view",
      "type": "function"
    },
    {
      "constant": true,
      "inputs": [
        {
          "name": "changeRequestID",
          "type": "uint256"
        }
      ],
      "name": "GetChangeRequestInfo",
      "outputs": [
        {
          "name": "dealID",
          "type": "uint256"
        },
        {
          "name": "requestType",
          "type": "uint8"
        },
        {
          "name": "price",
          "type": "uint256"
        },
        {
          "name": "duration",
          "type": "uint256"
        },
        {
          "name": "status",
          "type": "uint8"
        }
      ],
      "payable": false,
      "stateMutability": "view",
      "type": "function"
    },
    {
      "constant": true,
      "inputs": [],
      "name": "GetDealsAmount",
      "outputs": [
        {
          "name": "",
          "type": "uint256"
        }
      ],
      "payable": false,
      "stateMutability": "view",
      "type": "function"
    },
    {
      "constant": true,
      "inputs": [],
      "name": "GetOrdersAmount",
      "outputs": [
        {
          "name": "",
          "type": "uint256"
        }
      ],
      "payable": false,
      "stateMutability": "view",
      "type": "function"
    },
    {
      "constant": true,
      "inputs": [],
      "name": "GetChangeRequestsAmount",
      "outputs": [
        {
          "name": "",
          "type": "uint256"
        }
      ],
      "payable": false,
      "stateMutability": "view",
      "type": "function"
    },
    {
      "constant": true,
      "inputs": [],
      "name": "GetBenchmarksQuantity",
      "outputs": [
        {
          "name": "",
          "type": "uint256"
        }
      ],
      "payable": false,
      "stateMutability": "view",
      "type": "function"
    },
    {
      "constant": true,
      "inputs": [],
      "name": "GetNetflagsQuantity",
      "outputs": [
        {
          "name": "",
          "type": "uint256"
        }
      ],
      "payable": false,
      "stateMutability": "view",
      "type": "function"
    },
    {
      "constant": false,
      "inputs": [
        {
          "name": "_newPR",
          "type": "address"
        }
      ],
      "name": "SetProfileRegistryAddress",
      "outputs": [
        {
          "name": "",
          "type": "bool"
        }
      ],
      "payable": false,
      "stateMutability": "nonpayable",
      "type": "function"
    },
    {
      "constant": false,
      "inputs": [
        {
          "name": "_newBL",
          "type": "address"
        }
      ],
      "name": "SetBlacklistAddress",
      "outputs": [
        {
          "name": "",
          "type": "bool"
        }
      ],
      "payable": false,
      "stateMutability": "nonpayable",
      "type": "function"
    },
    {
      "constant": false,
      "inputs": [
        {
          "name": "_newOracle",
          "type": "address"
        }
      ],
      "name": "SetOracleAddress",
      "outputs": [
        {
          "name": "",
          "type": "bool"
        }
      ],
      "payable": false,
      "stateMutability": "nonpayable",
      "type": "function"
    },
    {
      "constant": false,
      "inputs": [
        {
          "name": "_newQuantity",
          "type": "uint256"
        }
      ],
      "name": "SetBenchmarksQuantity",
      "outputs": [
        {
          "name": "",
          "type": "bool"
        }
      ],
      "payable": false,
      "stateMutability": "nonpayable",
      "type": "function"
    },
    {
      "constant": false,
      "inputs": [
        {
          "name": "_newQuantity",
          "type": "uint256"
        }
      ],
      "name": "SetNetflagsQuantity",
      "outputs": [
        {
          "name": "",
          "type": "bool"
        }
      ],
      "payable": false,
      "stateMutability": "nonpayable",
      "type": "function"
    },
    {
      "constant": false,
      "inputs": [],
      "name": "KillMarket",
      "outputs": [],
      "payable": false,
      "stateMutability": "nonpayable",
      "type": "function"
    }
  ],
  "bytecode": "0x60806040526000805460a060020a60ff02191681556005819055600681905560075534801561002d57600080fd5b5060405160c0806153ce83398101604090815281516020830151918301516060840151608085015160a09095015160008054600160a060020a0319908116331790915560018054600160a060020a0396871690831617905560028054968616968216969096179095556003805493851693861693909317909255600480549390911692909316919091179091556008919091556009556152fc806100d26000396000f3006080604052600436106101a85763ffffffff60e060020a60003504166303988f8481146101ad5780630adef86c146102735780631a3d5f82146102a8578063289e77b3146102c9578063348843cf146103065780633a9072271461032d5780633c1cbb34146103705780633f4ba83a1461038e5780634fabdd4b146103a55780635ad5f6ae1461040b5780635c975abb146104d7578063616451c5146104ec57806363fb292914610552578063715018a6146105675780638456cb591461057c5780638bce1fdf146105915780638da5cb5b146105ac57806391e75fc0146105c1578063935c9ad2146105d95780639a1ea609146105f1578063a70a7af014610609578063a85c38ef1461062a578063b1defc89146106de578063b4bf396e146106f9578063c4b22e7d1461070e578063c86c16f214610723578063d0cca9221461073b578063d362343214610759578063d85e677614610780578063de4e86c5146107a1578063e217866c146107b6578063e45ea8d3146108dd578063e67d7dd8146108f2578063ef78b8d3146109bb578063f1bf6fd5146109d3578063f2fde38b146109f4575b600080fd5b3480156101b957600080fd5b506101c5600435610a15565b604051808e600160a060020a0316600160a060020a031681526020018d600160a060020a0316600160a060020a031681526020018c600160a060020a0316600160a060020a031681526020018b81526020018a815260200189815260200188815260200187815260200186815260200185600281111561024157fe5b60ff1681526020018481526020018381526020018281526020019d505050505050505050505050505060405180910390f35b34801561027f57600080fd5b50610294600160a060020a0360043516610a93565b604080519115158252519081900360200190f35b3480156102b457600080fd5b50610294600160a060020a0360043516610b44565b3480156102d557600080fd5b506102ea600160a060020a0360043516610c1e565b60408051600160a060020a039092168252519081900360200190f35b34801561031257600080fd5b5061031b610c8c565b60408051918252519081900360200190f35b34801561033957600080fd5b50610345600435610c93565b6040518083600281111561035557fe5b60ff1681526020018281526020019250505060405180910390f35b34801561037c57600080fd5b5061031b600435602435604435610ebe565b34801561039a57600080fd5b506103a3611646565b005b3480156103b157600080fd5b506103bd6004356116bc565b604051808881526020018781526020018681526020018560028111156103df57fe5b60ff16815260200184815260200183815260200182815260200197505050505050505060405180910390f35b34801561041757600080fd5b50610423600435611700565b604051808060200188600160a060020a0316600160a060020a0316815260200187600160a060020a0316600160a060020a0316815260200186600160a060020a0316600160a060020a03168152602001858152602001848152602001838152602001828103825289818151815260200191508051906020019060200280838360005b838110156104bd5781810151838201526020016104a5565b505050509050019850505050505050505060405180910390f35b3480156104e357600080fd5b506102946117ef565b3480156104f857600080fd5b506105046004356117ff565b6040518086815260200185600281111561051a57fe5b60ff16815260200184815260200183815260200182600481111561053a57fe5b60ff1681526020019550505050505060405180910390f35b34801561055e57600080fd5b5061031b611836565b34801561057357600080fd5b506103a361183c565b34801561058857600080fd5b506103a361189b565b34801561059d57600080fd5b506103a3600435602435611916565b3480156105b857600080fd5b506102ea611e6c565b3480156105cd57600080fd5b50610294600435611e7b565b3480156105e557600080fd5b50610294600435611ed5565b3480156105fd57600080fd5b50610294600435612025565b34801561061557600080fd5b50610294600160a060020a0360043516612298565b34801561063657600080fd5b5061064260043561236d565b604051808c600281111561065257fe5b60ff1681526020018b600281111561066657fe5b60ff168152600160a060020a03808c1660208301528a166040820152606081018990526080810188905260a00186600481111561069f57fe5b60ff168152600160a060020a0390951660208601525060408085019390935260608401919091526080830152519081900360a001975095505050505050f35b3480156106ea57600080fd5b506103a36004356024356123d6565b34801561070557600080fd5b5061031b613380565b34801561071a57600080fd5b506103a3613386565b34801561072f57600080fd5b506102946004356134c4565b34801561074757600080fd5b5061029460043560ff602435166134d9565b34801561076557600080fd5b50610294600160a060020a03600435811690602435166135fd565b34801561078c57600080fd5b50610294600160a060020a03600435166136bd565b3480156107ad57600080fd5b5061031b6136fa565b3480156107c257600080fd5b506107ce600435613700565b604051808c60028111156107de57fe5b60ff168152600160a060020a03808d1660208301528b166040820152606081018a90526080810189905260a081019060c00187600481111561081c57fe5b60ff168152600160a060020a038716602080830191909152604082018790526080820185905260a0848303810184528a51908301528951606083019260c001918b8101910280838360005b8381101561087f578181015183820152602001610867565b50505050905001838103825285818151815260200191508051906020019060200280838360005b838110156108be5781810151838201526020016108a6565b505050509050019d505050505050505050505050505060405180910390f35b3480156108e957600080fd5b5061031b61398d565b3480156108fe57600080fd5b50604080516020600460843581810135838102808601850190965280855261031b95833560ff169560248035600160a060020a03169660443596606435963696919560a4959490910192829190850190849080828437505060408051602060608901358a01803582810280850184018652818552999c8b3560ff169c848d0135600160a060020a03169c968701359b919a509850608090950196509294508101928291850190849080828437509497506139939650505050505050565b3480156109c757600080fd5b50610294600435613d86565b3480156109df57600080fd5b50610294600160a060020a0360043516613de0565b348015610a0057600080fd5b506103a3600160a060020a0360043516613e1d565b600b602081905260009182526040909120600181015460028201546003830154600484015460058501546006860154600787015460088801546009890154600a8a01549a8a0154600c8b0154600d909b0154600160a060020a039a8b169c998b169b9a9098169996989597949693959294919360ff9093169290918d565b60008054600160a060020a03163314610aab57600080fd5b81600160a060020a031663eb91d37e6040518163ffffffff1660e060020a028152600401602060405180830381600087803b158015610ae957600080fd5b505af1158015610afd573d6000803e3d6000fd5b505050506040513d6020811015610b1357600080fd5b50511515610b2057600080fd5b5060038054600160a060020a031916600160a060020a03831617905560015b919050565b6000805460a060020a900460ff1615610b5c57600080fd5b336000908152601160209081526040808320600160a060020a038616845290915290205460ff161515600114610b9157600080fd5b600160a060020a0382166000818152600f602090815260408083208054600160a060020a0319163390811790915580845260108352818420805460ff19908116600117909155601184528285208686529093528184208054909316909255519092917f4940ef08d5aed63b7d3d3db293d69d6ed1d624995b90e9e944839c8ea0ae450d91a3506001919050565b600160a060020a038082166000908152600f60205260408120549091161580610c615750600160a060020a038083166000818152600f6020526040902054909116145b15610c6d575080610b3f565b50600160a060020a039081166000908152600f60205260409020541690565b6008545b90565b600080610c9e614fe5565b6000848152600a60205260409081902081516101a081019092528054829060ff166002811115610cca57fe5b6002811115610cd557fe5b81528154602090910190610100900460ff166002811115610cf257fe5b6002811115610cfd57fe5b81528154600160a060020a036201000090910481166020808401919091526001840154909116604080840191909152600284015460608401526003840154608084015260048401805482518185028101850190935280835260a0909401939192909190830182828015610daf57602002820191906000526020600020906000905b825461010083900a900460ff161515815260206001928301818104948501949093039092029101808411610d7e5790505b5050509183525050600582015460209091019060ff166004811115610dd057fe5b6004811115610ddb57fe5b815260058201546101009004600160a060020a031660208083019190915260068301546040808401919091526007840180548251818502810185019093528083526060909401939192909190830182828015610e8a57602002820191906000526020600020906000905b82829054906101000a900467ffffffffffffffff1667ffffffffffffffff1681526020019060080190602082600701049283019260010382029150808411610e455790505b5050505050815260200160088201548152602001600982015481525050905080602001518161018001519250925050915091565b600080610ec961504f565b6000868152600b6020526040902060020154600160a060020a0316331480610f0a57506000868152600b6020526040902060030154600160a060020a031633145b80610f2e57506000868152600b6020526040902060010154600160a060020a031633145b1515610f3957600080fd5b60016000878152600b60205260409020600a015460ff166002811115610f5b57fe5b14610f6557600080fd5b610f6e86613e40565b15610f7e578315610f7e57600080fd5b600754610f9290600163ffffffff613e5616565b6007556000868152600b6020526040902060020154600160a060020a0316331415610fc05760019150610fc5565b600291505b60a060405190810160405280878152602001836002811115610fe357fe5b81526020810187905260408101869052606001600190526007546000908152600d60209081526040909120825181559082015160018083018054909160ff199091169083600281111561103257fe5b0217905550604082015181600201556060820151816003015560808201518160040160006101000a81548160ff0219169083600481111561106f57fe5b0217905550506007546040519091507f7ff56b2eb3ce318aad93d0ba39a3e4a406992a136f9554f17f6bcc43509275d190600090a260018260028111156110b257fe5b1415611394576000868152600e60205260409020600101546040516000805160206152b183398151915290600090a26000868152600e60209081526040808320600180820180548652600d8552838620600401805460ff191660029081179091556007549091559154855293829020825160a08101909352805483529384015491939284019160ff169081111561114557fe5b600281111561115057fe5b8152600282015460208201526003820154604082015260048083015460609092019160ff169081111561117f57fe5b600481111561118a57fe5b9052506000878152600b6020526040902060060154909150841480156111c057506000868152600b602052604090206007015485115b15611231576007546000908152600d602052604090206004908101805460ff191690911790556111ef866134c4565b506000868152600b60209081526040808320600701889055600e9091528120600101556007546040516000805160206152b183398151915290600090a2611333565b60018160800151600481111561124357fe5b148015611254575083816060015110155b8015611264575084816040015111155b15611329576007546000908152600d602081815260408084206004908101805460ff1990811683179091558b8652600e808552838720805488529585528387208301805490921690921790558a85529091529054905190916000805160206152b183398151915291a26000868152600e60205260408120818155600101556112eb866134c4565b506040808201516000888152600b602052828120600780820193909355600601879055905491516000805160206152b18339815191529190a2611333565b600754925061163d565b6000868152600e6020818152604080842060010180548552600d8352818520600401805460ff191660021790558a8552929091529054905190916000805160206152b183398151915291a26007546000878152600e60205260409020600101555b60028260028111156113a257fe5b14156115fd576000868152600e6020526040812001546040516000805160206152b183398151915290600090a26000868152600e6020908152604080832080548452600d8352818420600401805460ff191660029081179091556007548255600191820154855293829020825160a0810190935280548352908101549193909284019160ff169081111561143257fe5b600281111561143d57fe5b8152600282015460208201526003820154604082015260048083015460609092019160ff169081111561146c57fe5b600481111561147757fe5b9052506000878152600b6020526040902060060154909150841480156114ad57506000868152600b602052604090206007015485105b1561151d576007546000908152600d602052604090206004908101805460ff191690911790556114dc866134c4565b506000868152600b60209081526040808320600701889055600e90915281208101556007546040516000805160206152b183398151915290600090a26115fd565b60018160800151600481111561152f57fe5b148015611540575083816060015111155b8015611550575084816040015110155b15611329576007546000908152600d602052604090206004908101805460ff191660018302179055506000868152600e60205260409020600101546040516000805160206152b183398151915290600090a26000868152600e60205260408120818155600101556115c0866134c4565b506000868152600b60205260408082206007808201899055606085015160069092019190915554905190916000805160206152b183398151915291a25b6000868152600b6020526040902060068101546008909101546116259163ffffffff613e5616565b6000878152600b602052604090206009015560075492505b50509392505050565b600054600160a060020a0316331461165d57600080fd5b60005460a060020a900460ff16151561167557600080fd5b6000805474ff0000000000000000000000000000000000000000191681556040517f7805862f689e2f13df9f062ff482ad3ad112aca9e0847911ed832e158c525b339190a1565b6000908152600b60208190526040909120600681015460078201546009830154600a84015494840154600c850154600d9095015493969295919460ff909216939092565b6000818152600b6020908152604080832060018101546002820154600383015460048401546005850154600886015486548851818b0281018b0190995280895260609a998a998a998a998a998a999298600160a060020a0392831698918316979390921695919490939189918301828280156117cf57602002820191906000526020600020906000905b82829054906101000a900467ffffffffffffffff1667ffffffffffffffff168152602001906008019060208260070104928301926001038202915080841161178a5790505b505050505096509650965096509650965096509650919395979092949650565b60005460a060020a900460ff1681565b6000908152600d602052604090208054600182015460028301546003840154600490940154929460ff928316949193919290911690565b60055490565b600054600160a060020a0316331461185357600080fd5b60008054604051600160a060020a03909116917ff8df31144d9c2f0f6b59d69b8b98abd5459d07f2742c4df920b25aae33c6482091a260008054600160a060020a0319169055565b600054600160a060020a031633146118b257600080fd5b60005460a060020a900460ff16156118c957600080fd5b6000805474ff0000000000000000000000000000000000000000191660a060020a1781556040517f6985a02210a168e66602d3235cb6db0e70f92b3ba4d376a33c0f3d9434bff6259190a1565b61191e614fe5565b60005460a060020a900460ff161561193557600080fd5b6000838152600a60205260409081902081516101a081019092528054829060ff16600281111561196157fe5b600281111561196c57fe5b81528154602090910190610100900460ff16600281111561198957fe5b600281111561199457fe5b81528154600160a060020a036201000090910481166020808401919091526001840154909116604080840191909152600284015460608401526003840154608084015260048401805482518185028101850190935280835260a0909401939192909190830182828015611a4657602002820191906000526020600020906000905b825461010083900a900460ff161515815260206001928301818104948501949093039092029101808411611a155790505b5050509183525050600582015460209091019060ff166004811115611a6757fe5b6004811115611a7257fe5b815260058201546101009004600160a060020a031660208083019190915260068301546040808401919091526007840180548251818502810185019093528083526060909401939192909190830182828015611b2157602002820191906000526020600020906000905b82829054906101000a900467ffffffffffffffff1667ffffffffffffffff1681526020019060080190602082600701049283019260010382029150808411611adc5790505b5050509183525050600882015460208201526009909101546040909101529050600281516002811115611b5057fe5b14611b5a57600080fd5b600281602001516002811115611b6c57fe5b14611b7657600080fd5b6080810151821115611b8757600080fd5b8060e001516004811115611b9757fe5b60048054604080517f23eee3e6000000000000000000000000000000000000000000000000000000008152339381019390935251600160a060020a03909116916323eee3e69160248083019260209291908290030181600087803b158015611bfe57600080fd5b505af1158015611c12573d6000803e3d6000fd5b505050506040513d6020811015611c2857600080fd5b50516004811115611c3557fe5b1015611c4057600080fd5b6002546040820151600160a060020a039091169063968f600c903390611c6590610c1e565b6040518363ffffffff1660e060020a0281526004018083600160a060020a0316600160a060020a0316815260200182600160a060020a0316600160a060020a0316815260200192505050602060405180830381600087803b158015611cc957600080fd5b505af1158015611cdd573d6000803e3d6000fd5b505050506040513d6020811015611cf357600080fd5b5051158015611d865750600254604080830151815160e260020a6325a3d803028152600160a060020a039182166004820152336024820152915192169163968f600c916044808201926020929091908290030181600087803b158015611d5857600080fd5b505af1158015611d6c573d6000803e3d6000fd5b505050506040513d6020811015611d8257600080fd5b5051155b1515611d9157600080fd5b6002546101008201516040805160e260020a6325a3d803028152600160a060020a0392831660048201523360248201529051919092169163968f600c9160448083019260209291908290030181600087803b158015611def57600080fd5b505af1158015611e03573d6000803e3d6000fd5b505050506040513d6020811015611e1957600080fd5b505115611e2557600080fd5b611e556001611e378360400151610c1e565b848460a001518560c001516001600080600102896101400151613993565b50611e6783611e62611836565b6123d6565b505050565b600054600160a060020a031681565b60008054600160a060020a03163314611e9357600080fd5b6009548211611ea157600080fd5b60405182907f1bd10793763c43c1a677f0975376032cebc657fd07cfd7c58ded8e8cce79f1c490600090a250600955600190565b600554600090821115611ee757600080fd5b60026000838152600a6020526040902054610100900460ff166002811115611f0b57fe5b14611f1557600080fd5b6000828152600a6020526040902054620100009004600160a060020a03163314611f3e57600080fd5b6001546000838152600a6020908152604080832060080154815160e060020a63a9059cbb02815233600482015260248101919091529051600160a060020a039094169363a9059cbb93604480840194938390030190829087803b158015611fa457600080fd5b505af1158015611fb8573d6000803e3d6000fd5b505050506040513d6020811015611fce57600080fd5b50511515611fdb57600080fd5b6000828152600a6020526040808220805461ff0019166101001790555183917fb8b459bc0688c37baf5f735d17f1711684bc14ab7db116f88bc18bf409b9309a91a2506001919050565b600061202f61504f565b6000838152600d6020908152604091829020825160a08101909352805483526001810154909183019060ff16600281111561206657fe5b600281111561207157fe5b8152600282015460208201526003820154604082015260048083015460609092019160ff16908111156120a057fe5b60048111156120ab57fe5b90525080516000908152600b6020526040902060010154909150600160a060020a03163314806120f6575080516000908152600b6020526040902060030154600160a060020a031633145b8061211c575080516000908152600b6020526040902060020154600160a060020a031633145b151561212757600080fd5b60048160800151600481111561213957fe5b141561214457600080fd5b60028160200151600281111561215657fe5b14156121e75780516000908152600b6020526040902060020154600160a060020a03163314156121a1576000838152600d60205260409020600401805460ff191660031790556121be565b6000838152600d60205260409020600401805460ff191660021790555b80516000908152600e60205260408082208290555184916000805160206152b183398151915291a25b6001816020015160028111156121f957fe5b141561228f5780516000908152600b6020526040902060020154600160a060020a0316331415612244576000838152600d60205260409020600401805460ff19166002179055612261565b6000838152600d60205260409020600401805460ff191660031790555b80516000908152600e602052604081206001015560405183906000805160206152b183398151915290600090a25b50600192915050565b6000805460a060020a900460ff16156122b057600080fd5b336122ba81610c1e565b600160a060020a0316146122cd57600080fd5b3360009081526010602052604090205460ff16156122ea57600080fd5b81600160a060020a03166122fd83610c1e565b600160a060020a03161461231057600080fd5b600160a060020a0382166000818152601160209081526040808320338085529252808320805460ff191660011790555190917fe398d33bf7e881cdfc9f34c743822904d4e45a0be0db740dd88cb132e4ce2ed991a3506001919050565b600a602052600090815260409020805460018201546002830154600384015460058501546006860154600887015460099097015460ff80881698610100808a04831699600160a060020a036201000090910481169981169897969384169591909304909216928b565b6123de614fe5565b6123e6614fe5565b60008054819081908190819060a060020a900460ff161561240657600080fd5b6000898152600a60205260409081902081516101a081019092528054829060ff16600281111561243257fe5b600281111561243d57fe5b81528154602090910190610100900460ff16600281111561245a57fe5b600281111561246557fe5b81528154600160a060020a036201000090910481166020808401919091526001840154909116604080840191909152600284015460608401526003840154608084015260048401805482518185028101850190935280835260a090940193919290919083018282801561251757602002820191906000526020600020906000905b825461010083900a900460ff1615158152602060019283018181049485019490930390920291018084116124e65790505b5050509183525050600582015460209091019060ff16600481111561253857fe5b600481111561254357fe5b815260058201546101009004600160a060020a0316602080830191909152600683015460408084019190915260078401805482518185028101850190935280835260609094019391929091908301828280156125f257602002820191906000526020600020906000905b82829054906101000a900467ffffffffffffffff1667ffffffffffffffff16815260200190600801906020826007010492830192600103820291508084116125ad5790505b5050509183525050600882015460208083019190915260099092015460409182015260008b8152600a9092529081902081516101a0810190925280549299509091829060ff16600281111561264357fe5b600281111561264e57fe5b81528154602090910190610100900460ff16600281111561266b57fe5b600281111561267657fe5b81528154600160a060020a036201000090910481166020808401919091526001840154909116604080840191909152600284015460608401526003840154608084015260048401805482518185028101850190935280835260a090940193919290919083018282801561272857602002820191906000526020600020906000905b825461010083900a900460ff1615158152602060019283018181049485019490930390920291018084116126f75790505b5050509183525050600582015460209091019060ff16600481111561274957fe5b600481111561275457fe5b815260058201546101009004600160a060020a03166020808301919091526006830154604080840191909152600784018054825181850281018501909352808352606090940193919290919083018282801561280357602002820191906000526020600020906000905b82829054906101000a900467ffffffffffffffff1667ffffffffffffffff16815260200190600801906020826007010492830192600103820291508084116127be5790505b505050918352505060088201546020820152600990910154604090910152955060028760200151600281111561283557fe5b148015612851575060028660200151600281111561284f57fe5b145b151561285c57600080fd5b6060870151600160a060020a03161580612897575061287e8660400151610c1e565b600160a060020a03168760600151600160a060020a0316145b80156128d957506060860151600160a060020a031615806128d957506128c08760400151610c1e565b600160a060020a03168660600151600160a060020a0316145b15156128e457600080fd5b6002875160028111156128f357fe5b146128fd57600080fd5b60018651600281111561290c57fe5b1461291657600080fd5b6002546101008701516040890151600160a060020a039092169163968f600c919061294090610c1e565b6040518363ffffffff1660e060020a0281526004018083600160a060020a0316600160a060020a0316815260200182600160a060020a0316600160a060020a0316815260200192505050602060405180830381600087803b1580156129a457600080fd5b505af11580156129b8573d6000803e3d6000fd5b505050506040513d60208110156129ce57600080fd5b5051158015612a6a57506002546101008701516040808a0151815160e260020a6325a3d803028152600160a060020a03938416600482015290831660248201529051919092169163968f600c9160448083019260209291908290030181600087803b158015612a3c57600080fd5b505af1158015612a50573d6000803e3d6000fd5b505050506040513d6020811015612a6657600080fd5b5051155b8015612b2c575060025460408088015190890151600160a060020a039092169163968f600c9190612a9a90610c1e565b6040518363ffffffff1660e060020a0281526004018083600160a060020a0316600160a060020a0316815260200182600160a060020a0316600160a060020a0316815260200192505050602060405180830381600087803b158015612afe57600080fd5b505af1158015612b12573d6000803e3d6000fd5b505050506040513d6020811015612b2857600080fd5b5051155b8015612bc2575060025460408088015189820151825160e260020a6325a3d803028152600160a060020a0392831660048201529082166024820152915192169163968f600c916044808201926020929091908290030181600087803b158015612b9457600080fd5b505af1158015612ba8573d6000803e3d6000fd5b505050506040513d6020811015612bbe57600080fd5b5051155b8015612c5b5750600254610100880151604080890151815160e260020a6325a3d803028152600160a060020a03938416600482015290831660248201529051919092169163968f600c9160448083019260209291908290030181600087803b158015612c2d57600080fd5b505af1158015612c41573d6000803e3d6000fd5b505050506040513d6020811015612c5757600080fd5b5051155b8015612d0357506002546040880151600160a060020a039091169063968f600c90612c8590610c1e565b6040808a0151815160e060020a63ffffffff8616028152600160a060020a039384166004820152921660248301525160448083019260209291908290030181600087803b158015612cd557600080fd5b505af1158015612ce9573d6000803e3d6000fd5b505050506040513d6020811015612cff57600080fd5b5051155b8015612d99575060025460408089015188820151825160e260020a6325a3d803028152600160a060020a0392831660048201529082166024820152915192169163968f600c916044808201926020929091908290030181600087803b158015612d6b57600080fd5b505af1158015612d7f573d6000803e3d6000fd5b505050506040513d6020811015612d9557600080fd5b5051155b1515612da457600080fd5b60a080870151908801511115612db957600080fd5b608080870151908801511015612dce57600080fd5b8660e001516004811115612dde57fe5b600480546040808a015181517f23eee3e6000000000000000000000000000000000000000000000000000000008152600160a060020a039182169481019490945290519116916323eee3e69160248083019260209291908290030181600087803b158015612e4b57600080fd5b505af1158015612e5f573d6000803e3d6000fd5b505050506040513d6020811015612e7557600080fd5b50516004811115612e8257fe5b1015612e8d57600080fd5b8560e001516004811115612e9d57fe5b600480546040808b015181517f23eee3e6000000000000000000000000000000000000000000000000000000008152600160a060020a039182169481019490945290519116916323eee3e69160248083019260209291908290030181600087803b158015612f0a57600080fd5b505af1158015612f1e573d6000803e3d6000fd5b505050506040513d6020811015612f3457600080fd5b50516004811115612f4157fe5b1015612f4c57600080fd5b6009548760c00151511015612f6e57612f688760c00151613e63565b60c08801525b6009548660c00151511015612f9057612f8a8760c00151613e63565b60c08701525b600094505b8660c0015151851015612ff65760c0860151805186908110612fb357fe5b906020019060200201511580612fe0575060c0870151805186908110612fd557fe5b906020019060200201515b1515612feb57600080fd5b600190940193612f95565b60085487610140015151101561301b57613014876101400151613eed565b6101408801525b60085486610140015151101561304057613039866101400151613eed565b6101408701525b600094505b866101400151518510156130b65761014086015180518690811061306557fe5b9060200190602002015167ffffffffffffffff168761014001518681518110151561308c57fe5b6020908102909101015167ffffffffffffffff1610156130ab57600080fd5b600190940193613045565b6006546130ca90600163ffffffff613e5616565b60065560408701516130db90610c1e565b60008a8152600a6020526040808220805461010061ff0019918216811783558d855283852080549092161781556006546009928301819055910155519195508a917fb8b459bc0688c37baf5f735d17f1711684bc14ab7db116f88bc18bf409b9309a9190a260405188907fb8b459bc0688c37baf5f735d17f1711684bc14ab7db116f88bc18bf409b9309a90600090a26080870151429350600092501561319557608086015161319290849063ffffffff613e5616565b91505b85610160015190506101c06040519081016040528088610140015181526020018860400151600160a060020a031681526020018760400151600160a060020a0316815260200185600160a060020a031681526020018a8152602001898152602001876080015181526020018860a0015181526020018481526020018381526020016001600281111561322357fe5b81526020018281526020016000815260200142815250600b60006006548152602001908152602001600020600082015181600001908051906020019061326a92919061507b565b50602082015160018281018054600160a060020a0319908116600160a060020a0394851617909155604085015160028086018054841692861692909217909155606086015160038601805490931694169390931790556080840151600484015560a0840151600584015560c0840151600684015560e0840151600784015561010084015160088401556101208401516009840155610140840151600a840180549193909260ff199092169190849081111561332157fe5b0217905550610160820151600b820155610180820151600c8201556101a090910151600d909101556006546040517fb9ffc65567b7238dd641372277b8c93ed03df73945932dd84fd3cbb33f3eddbf90600090a2505050505050505050565b60075490565b600054600160a060020a0316331461339d57600080fd5b60015460008054604080517f70a082310000000000000000000000000000000000000000000000000000000081523060048201529051600160a060020a039485169463a9059cbb9493169285926370a082319260248083019360209383900390910190829087803b15801561341157600080fd5b505af1158015613425573d6000803e3d6000fd5b505050506040513d602081101561343b57600080fd5b50516040805160e060020a63ffffffff8616028152600160a060020a03909316600484015260248301919091525160448083019260209291908290030181600087803b15801561348a57600080fd5b505af115801561349e573d6000803e3d6000fd5b505050506040513d60208110156134b457600080fd5b5050600054600160a060020a0316ff5b60006134cf82613f75565b5061228f82614668565b600060016000848152600b60205260409020600a015460ff1660028111156134fd57fe5b1461350757600080fd5b6000838152600b6020526040902060010154600160a060020a031633148061354857506000838152600b6020526040902060020154600160a060020a031633145b8061356c57506000838152600b6020526040902060030154600160a060020a031633145b151561357757600080fd5b6000838152600b60205260409020600681015460089091015461359f9163ffffffff613e5616565b42116135cb576000838152600b6020526040902060020154600160a060020a031633146135cb57600080fd5b6135d58383614aaa565b6135de83613f75565b506135e883614c7f565b6135f183614d96565b50600190505b92915050565b6000805460a060020a900460ff161561361557600080fd5b81600160a060020a031661362884610c1e565b600160a060020a0316148015613658575033600160a060020a0384161480613658575033600160a060020a038316145b151561366357600080fd5b600160a060020a038084166000818152600f60205260408082208054600160a060020a031916905551928516927f7822736ed69a5fe0ad6dc2c6669e8053495d711118e5435b047f9b83deda4c379190a350600192915050565b60008054600160a060020a031633146136d557600080fd5b5060028054600160a060020a038316600160a060020a03199091161790556001919050565b60095490565b6000806000806000606060008060006060600061371b614fe5565b60008d8152600a60205260409081902081516101a081019092528054829060ff16600281111561374757fe5b600281111561375257fe5b81528154602090910190610100900460ff16600281111561376f57fe5b600281111561377a57fe5b81528154600160a060020a036201000090910481166020808401919091526001840154909116604080840191909152600284015460608401526003840154608084015260048401805482518185028101850190935280835260a090940193919290919083018282801561382c57602002820191906000526020600020906000905b825461010083900a900460ff1615158152602060019283018181049485019490930390920291018084116137fb5790505b5050509183525050600582015460209091019060ff16600481111561384d57fe5b600481111561385857fe5b815260058201546101009004600160a060020a03166020808301919091526006830154604080840191909152600784018054825181850281018501909352808352606090940193919290919083018282801561390757602002820191906000526020600020906000905b82829054906101000a900467ffffffffffffffff1667ffffffffffffffff16815260200190600801906020826007010492830192600103820291508084116138c25790505b5050505050815260200160088201548152602001600982015481525050905080600001518160400151826060015183608001518460a001518560c001518660e001518761010001518861012001518961014001518a61016001518595508191509b509b509b509b509b509b509b509b509b509b509b505091939597999b90929496989a50565b60065490565b6000805481908190819060a060020a900460ff16156139b157600080fd5b60018860048111156139bf57fe5b10156139ca57600080fd5b600954895111156139da57600080fd5b600854855111156139ea57600080fd5b600092505b8451831015613a38576780000000000000008584815181101515613a0f57fe5b6020908102909101015167ffffffffffffffff1610613a2d57600080fd5b6001909201916139ef565b6000915060018d6002811115613a4a57fe5b1415613b39578a1515613a6a57613a638a610e10614e61565b9150613a8f565b620151808b1015613a7f57613a638a8c614e61565b613a8c8a62015180614e61565b91505b600154604080517f23b872dd000000000000000000000000000000000000000000000000000000008152336004820152306024820152604481018590529051600160a060020a03909216916323b872dd916064808201926020929091908290030181600087803b158015613b0257600080fd5b505af1158015613b16573d6000803e3d6000fd5b505050506040513d6020811015613b2c57600080fd5b50511515613b3957600080fd5b600554613b4d90600163ffffffff613e5616565b6005819055604080516101a08101909152909150808e6002811115613b6e57fe5b81526020016002815260200133600160a060020a031681526020018d600160a060020a031681526020018c81526020018b81526020018a8152602001896004811115613bb657fe5b8152600160a060020a03891660208083019190915260408083018a90526060830189905260808301869052600060a0909301839052848352600a909152902081518154829060ff19166001836002811115613c0d57fe5b021790555060208201518154829061ff001916610100836002811115613c2f57fe5b02179055506040820151815475ffffffffffffffffffffffffffffffffffffffff0000191662010000600160a060020a03928316021782556060830151600183018054600160a060020a031916919092161790556080820151600282015560a0820151600382015560c08201518051613cb2916004840191602090910190615136565b5060e082015160058201805460ff19166001836004811115613cd057fe5b02179055506101008281015160058301805474ffffffffffffffffffffffffffffffffffffffff001916600160a060020a0390921690920217905561012082015160068201556101408201518051613d3291600784019160209091019061507b565b5061016082015160088201556101809091015160099091015560405181907fffa896d8919f0556f53ace1395617969a3b53ab5271a085e28ac0c4a3724e63d90600090a29c9b505050505050505050505050565b60008054600160a060020a03163314613d9e57600080fd5b6008548211613dac57600080fd5b60405182907f1acf16d0a0451282e1d2cac3f5473ca7c931bcda610ff6e061041af50e2abc1390600090a250600855600190565b60008054600160a060020a03163314613df857600080fd5b5060048054600160a060020a038316600160a060020a03199091161790556001919050565b600054600160a060020a03163314613e3457600080fd5b613e3d81614f25565b50565b6000908152600b60205260409020600601541590565b818101828110156135f757fe5b6060806000600954604051908082528060200260200182016040528015613e94578160200160208202803883390190505b509150600090505b8351811015613ee2578381815181101515613eb357fe5b906020019060200201518282815181101515613ecb57fe5b911515602092830290910190910152600101613e9c565b8192505b5050919050565b6060806000600854604051908082528060200260200182016040528015613f1e578160200160208202803883390190505b509150600090505b8351811015613ee2578381815181101515613f3d57fe5b906020019060200201518282815181101515613f5557fe5b67ffffffffffffffff909216602092830290910190910152600101613f26565b6000613f7f6151d7565b600060016000858152600b60205260409020600a015460ff166002811115613fa357fe5b14613fad57600080fd5b6000848152600b6020526040902060010154600160a060020a0316331480613fee57506000848152600b6020526040902060020154600160a060020a031633145b8061401257506000848152600b6020526040902060030154600160a060020a031633145b151561401d57600080fd5b6000848152600b6020908152604091829020825181546101e0938102820184019094526101c0810184815290939192849284918401828280156140b357602002820191906000526020600020906000905b82829054906101000a900467ffffffffffffffff1667ffffffffffffffff168152602001906008019060208260070104928301926001038202915080841161406e5790505b50505091835250506001820154600160a060020a039081166020830152600280840154821660408401526003840154909116606083015260048301546080830152600583015460a0830152600683015460c0830152600783015460e083015260088301546101008301526009830154610120830152600a8301546101409092019160ff169081111561414157fe5b600281111561414c57fe5b8152602001600b8201548152602001600c8201548152602001600d82015481525050915061417984613e40565b1580156141905750816101200151826101a0015110155b1561419e5760019250613ee6565b6141a784613e40565b1580156141b8575081610120015142115b80156141cd5750816101200151826101a00151105b15614203576141fc8260e001516141f7846101a00151856101200151614f9590919063ffffffff16565b614e61565b9050614226565b6142238260e001516141f7846101a0015142614f9590919063ffffffff16565b90505b81610160015181111561452f5761016082015161424a90829063ffffffff614f9516565b60015460408085015181517f70a08231000000000000000000000000000000000000000000000000000000008152600160a060020a03918216600482015291519216916370a08231916024808201926020929091908290030181600087803b1580156142b557600080fd5b505af11580156142c9573d6000803e3d6000fd5b505050506040513d60208110156142df57600080fd5b5051106143f7576001546040830151610160840151600160a060020a03909216916323b872dd9190309061431a90869063ffffffff614f9516565b6040805160e060020a63ffffffff8716028152600160a060020a0394851660048201529290931660248301526044820152905160648083019260209291908290030181600087803b15801561436e57600080fd5b505af1158015614382573d6000803e3d6000fd5b505050506040513d602081101561439857600080fd5b505115156143a557600080fd5b6143df6143c083610160015183614f9590919063ffffffff16565b6000868152600b6020819052604090912001549063ffffffff613e5616565b6000858152600b60208190526040909120015561452f565b6000848152600b60208190526040808320909101549051909186917f51f87cd83a2ce6c4ff7957861f7aba400dc3857d2325e0c94cc69f468874515c9190a361443f84614c7f565b60015460608301516101608401516040805160e060020a63a9059cbb028152600160a060020a039384166004820152602481019290925251919092169163a9059cbb9160448083019260209291908290030181600087803b1580156144a357600080fd5b505af11580156144b7573d6000803e3d6000fd5b505050506040513d60208110156144cd57600080fd5b505115156144da57600080fd5b6000848152600b6020526040902042600d820155610160830151600c909101546145099163ffffffff613e5616565b6000858152600b602081905260408220600c810193909355919091015560019250613ee6565b60015460608301516040805160e060020a63a9059cbb028152600160a060020a039283166004820152602481018590529051919092169163a9059cbb9160448083019260209291908290030181600087803b15801561458d57600080fd5b505af11580156145a1573d6000803e3d6000fd5b505050506040513d60208110156145b757600080fd5b505115156145c457600080fd5b6000848152600b6020819052604090912001546145e7908263ffffffff614f9516565b6000858152600b6020819052604090912090810191909155600c0154614613908263ffffffff613e5616565b6000858152600b6020526040808220600c81019390935542600d909301929092559051829186917f51f87cd83a2ce6c4ff7957861f7aba400dc3857d2325e0c94cc69f468874515c9190a35060019392505050565b6000806146736151d7565b6000848152600b60209081526040808320815181546101e0948102820185019093526101c0810183815290939192849284919084018282801561470957602002820191906000526020600020906000905b82829054906101000a900467ffffffffffffffff1667ffffffffffffffff16815260200190600801906020826007010492830192600103820291508084116146c45790505b50505091835250506001820154600160a060020a039081166020830152600280840154821660408401526003840154909116606083015260048301546080830152600583015460a0830152600683015460c0830152600783015460e083015260088301546101008301526009830154610120830152600a8301546101409092019160ff169081111561479757fe5b60028111156147a257fe5b8152602001600b8201548152602001600c8201548152602001600d8201548152505091506147cf85613e40565b1561480057600282610140015160028111156147e757fe5b14156147f65760019350614aa2565b610e10925061485b565b8161012001514211156148165760019350614aa2565b6101208201516201518090614831904263ffffffff614f9516565b10156148545761012082015161484d904263ffffffff614f9516565b925061485b565b6201518092505b6000858152600b60208190526040909120015460e083015161487d9085614e61565b1115614a9d576148b7600b6000878152602001908152602001600020600b01546148ab8460e0015186614e61565b9063ffffffff614f9516565b60015460408085015181517f70a08231000000000000000000000000000000000000000000000000000000008152600160a060020a039182166004820152915193945084939216916370a08231916024808201926020929091908290030181600087803b15801561492757600080fd5b505af115801561493b573d6000803e3d6000fd5b505050506040513d602081101561495157600080fd5b505110614a425760015460408084015181517f23b872dd000000000000000000000000000000000000000000000000000000008152600160a060020a0391821660048201523060248201526044810185905291519216916323b872dd916064808201926020929091908290030181600087803b1580156149d057600080fd5b505af11580156149e4573d6000803e3d6000fd5b505050506040513d60208110156149fa57600080fd5b50511515614a0757600080fd5b6000858152600b602081905260409091200154614a2a908263ffffffff613e5616565b6000868152600b602081905260409091200155614a9d565b6000858152600b60208190526040808320909101549051909187917f51f87cd83a2ce6c4ff7957861f7aba400dc3857d2325e0c94cc69f468874515c9190a3614a8a85614c7f565b614a9385614d96565b5060019350614aa2565b600193505b505050919050565b6000828152600b6020526040902060020154600160a060020a0316331480614add57506000816002811115614adb57fe5b145b1515614ae857600080fd5b6001816002811115614af657fe5b1415614bb457600280546000848152600b602090815260408083209485015460019095015481517f473b736f000000000000000000000000000000000000000000000000000000008152600160a060020a03968716600482015290861660248201529051949093169363473b736f93604480820194918390030190829087803b158015614b8257600080fd5b505af1158015614b96573d6000803e3d6000fd5b505050506040513d6020811015614bac57600080fd5b50614c7b9050565b6002816002811115614bc257fe5b1415614c7b57600280546000848152600b602090815260408083209485015460039095015481517f473b736f000000000000000000000000000000000000000000000000000000008152600160a060020a03968716600482015290861660248201529051949093169363473b736f93604480820194918390030190829087803b158015614c4e57600080fd5b505af1158015614c62573d6000803e3d6000fd5b505050506040513d6020811015614c7857600080fd5b50505b5050565b60026000828152600b60205260409020600a015460ff166002811115614ca157fe5b1415614cac57613e3d565b60016000828152600b60205260409020600a015460ff166002811115614cce57fe5b14614cd857600080fd5b6000818152600b6020526040902060020154600160a060020a0316331480614d1957506000818152600b6020526040902060010154600160a060020a031633145b80614d3d57506000818152600b6020526040902060030154600160a060020a031633145b1515614d4857600080fd5b6000818152600b6020526040808220600a8101805460ff19166002179055426009909101555182917f0b27183934cfdbeb1fbbe288c2e163ed7aa8f458a954054970f78446bccb36e091a250565b6000818152600b602081905260408220015415614e59576001546000838152600b602081815260408084206002810154930154815160e060020a63a9059cbb028152600160a060020a03948516600482015260248101919091529051929094169363a9059cbb93604480830194928390030190829087803b158015614e1a57600080fd5b505af1158015614e2e573d6000803e3d6000fd5b505050506040513d6020811015614e4457600080fd5b50506000828152600b60208190526040822001555b506001919050565b600080600360009054906101000a9004600160a060020a0316600160a060020a031663eb91d37e6040518163ffffffff1660e060020a028152600401602060405180830381600087803b158015614eb757600080fd5b505af1158015614ecb573d6000803e3d6000fd5b505050506040513d6020811015614ee157600080fd5b50519050614f1d670de0b6b3a7640000614f1185614f05858963ffffffff614fa716565b9063ffffffff614fa716565b9063ffffffff614fd016565b949350505050565b600160a060020a0381161515614f3a57600080fd5b60008054604051600160a060020a03808516939216917f8be0079c531659141344cd1fd0a4f28419497f9722a3daafe3b4186f6b6457e091a360008054600160a060020a031916600160a060020a0392909216919091179055565b600082821115614fa157fe5b50900390565b6000821515614fb8575060006135f7565b50818102818382811515614fc857fe5b04146135f757fe5b60008183811515614fdd57fe5b049392505050565b604080516101a081019091528060008152602001600081526000602082018190526040820181905260608083018290526080830182905260a083015260c0909101908152600060208201819052604082018190526060808301526080820181905260a09091015290565b6040805160a0810182526000808252602082018190529181018290526060810182905290608082015290565b828054828255906000526020600020906003016004900481019282156151265791602002820160005b838211156150f057835183826101000a81548167ffffffffffffffff021916908367ffffffffffffffff16021790555092602001926008016020816007010492830192600103026150a4565b80156151245782816101000a81549067ffffffffffffffff02191690556008016020816007010492830192600103026150f0565b505b5061513292915061526d565b5090565b82805482825590600052602060002090601f016020900481019282156151cb5791602002820160005b8382111561519c57835183826101000a81548160ff021916908315150217905550926020019260010160208160000104928301926001030261515f565b80156151c95782816101000a81549060ff021916905560010160208160000104928301926001030261519c565b505b50615132929150615292565b6101c060405190810160405280606081526020016000600160a060020a031681526020016000600160a060020a031681526020016000600160a060020a031681526020016000815260200160008152602001600081526020016000815260200160008152602001600081526020016000600281111561525257fe5b81526020016000815260200160008152602001600081525090565b610c9091905b8082111561513257805467ffffffffffffffff19168155600101615273565b610c9091905b8082111561513257805460ff1916815560010161529856004b92d35447745e95b7344414a41ae94984787d0ebcd2c12021169197bb59af39a165627a7a723058204c821cd8ec0d34125017488e569263a04876edb010a9b34000b9b29c0ab3f66a0029",
  "source": "pragma solidity ^0.4.23;\n\n\nimport \"zeppelin-solidity/contracts/ownership/Ownable.sol\";\nimport \"zeppelin-solidity/contracts/lifecycle/Pausable.sol\";\nimport \"./SNM.sol\";\nimport \"./Blacklist.sol\";\nimport \"./OracleUSD.sol\";\nimport \"./ProfileRegistry.sol\";\n\n\ncontract Market is Ownable, Pausable {\n\n    using SafeMath for uint256;\n\n    // DECLARATIONS\n\n    enum DealStatus{\n        STATUS_UNKNOWN,\n        STATUS_ACCEPTED,\n        STATUS_CLOSED\n    }\n\n    enum OrderType {\n        ORDER_UNKNOWN,\n        ORDER_BID,\n        ORDER_ASK\n    }\n\n    enum OrderStatus {\n        UNKNOWN,\n        ORDER_INACTIVE,\n        ORDER_ACTIVE\n    }\n\n    enum RequestStatus {\n        REQUEST_UNKNOWN,\n        REQUEST_CREATED,\n        REQUEST_CANCELED,\n        REQUEST_REJECTED,\n        REQUEST_ACCEPTED\n    }\n\n    enum BlacklistPerson {\n        BLACKLIST_NOBODY,\n        BLACKLIST_WORKER,\n        BLACKLIST_MASTER\n    }\n\n    struct Deal {\n        uint64[] benchmarks;\n        address supplierID;\n        address consumerID;\n        address masterID;\n        uint askID;\n        uint bidID;\n        uint duration;\n        uint price; //usd * 10^-18\n        uint startTime;\n        uint endTime;\n        DealStatus status;\n        uint blockedBalance;\n        uint totalPayout;\n        uint lastBillTS;\n    }\n\n    struct Order {\n        OrderType orderType;\n        OrderStatus orderStatus;\n        address author;\n        address counterparty;\n        uint duration;\n        uint256 price;\n        bool[] netflags;\n        ProfileRegistry.IdentityLevel identityLevel;\n        address blacklist;\n        bytes32 tag;\n        uint64[] benchmarks;\n        uint frozenSum;\n        uint dealID;\n    }\n\n    struct ChangeRequest {\n        uint dealID;\n        OrderType requestType;\n        uint price;\n        uint duration;\n        RequestStatus status;\n    }\n\n    // EVENTS\n\n    event OrderPlaced(uint indexed orderID);\n    event OrderUpdated(uint indexed orderID);\n\n    event DealOpened(uint indexed dealID);\n    event DealUpdated(uint indexed dealID);\n\n    event Billed(uint indexed dealID, uint indexed paidAmount);\n\n    event DealChangeRequestSet(uint indexed changeRequestID);\n    event DealChangeRequestUpdated(uint indexed changeRequestID);\n\n    event WorkerAnnounced(address indexed worker, address indexed master);\n    event WorkerConfirmed(address indexed worker, address indexed master);\n    event WorkerRemoved(address indexed worker, address indexed master);\n\n    event NumBenchmarksUpdated(uint indexed newNum);\n    event NumNetflagsUpdated(uint indexed newNum);\n\n    // VARS\n\n    uint constant MAX_BENCHMARKS_VALUE = 2 ** 63;\n\n    SNM token;\n\n    Blacklist bl;\n\n    OracleUSD oracle;\n\n    ProfileRegistry pr;\n\n    uint ordersAmount = 0;\n\n    uint dealAmount = 0;\n\n    uint requestsAmount = 0;\n\n    // current length of benchmarks\n    uint benchmarksQuantity;\n\n    // current length of netflags\n    uint netflagsQuantity;\n\n    mapping(uint => Order) public orders;\n\n    mapping(uint => Deal) public deals;\n\n    mapping(address => uint[]) dealsID;\n\n    mapping(uint => ChangeRequest) requests;\n\n    mapping(uint => uint[2]) actualRequests;\n\n    mapping(address => address) masterOf;\n\n    mapping(address => bool) isMaster;\n\n    mapping(address => mapping(address => bool)) masterRequest;\n\n    // INIT\n\n    constructor(address _token, address _blacklist, address _oracle, address _profileRegistry, uint _benchmarksQuantity, uint _netflagsQuantity) public {\n        token = SNM(_token);\n        bl = Blacklist(_blacklist);\n        oracle = OracleUSD(_oracle);\n        pr = ProfileRegistry(_profileRegistry);\n        benchmarksQuantity = _benchmarksQuantity;\n        netflagsQuantity = _netflagsQuantity;\n    }\n\n    // EXTERNAL\n\n    // Order functions\n\n    function PlaceOrder(\n        OrderType _orderType,\n        address _id_counterparty,\n        uint _duration,\n        uint _price,\n        bool[] _netflags,\n        ProfileRegistry.IdentityLevel _identityLevel,\n        address _blacklist,\n        bytes32 _tag,\n        uint64[] _benchmarks\n    ) whenNotPaused public returns (uint){\n\n        require(_identityLevel >= ProfileRegistry.IdentityLevel.ANONYMOUS);\n        require(_netflags.length <= netflagsQuantity);\n        require(_benchmarks.length <= benchmarksQuantity);\n\n        for (uint i = 0; i < _benchmarks.length; i++) {\n            require(_benchmarks[i] < MAX_BENCHMARKS_VALUE);\n        }\n\n        uint lockedSum = 0;\n\n        if (_orderType == OrderType.ORDER_BID) {\n            if (_duration == 0) {\n                lockedSum = CalculatePayment(_price, 1 hours);\n            } else if (_duration < 1 days) {\n                lockedSum = CalculatePayment(_price, _duration);\n            } else {\n                lockedSum = CalculatePayment(_price, 1 days);\n            }\n            // this line contains err.\n            require(token.transferFrom(msg.sender, this, lockedSum));\n        }\n\n        ordersAmount = ordersAmount.add(1);\n        uint256 orderId = ordersAmount;\n\n        orders[orderId] = Order(\n            _orderType,\n            OrderStatus.ORDER_ACTIVE,\n            msg.sender,\n            _id_counterparty,\n            _duration,\n            _price,\n            _netflags,\n            _identityLevel,\n            _blacklist,\n            _tag,\n            _benchmarks,\n            lockedSum,\n            0\n        );\n\n        emit OrderPlaced(orderId);\n        return orderId;\n    }\n\n    function CancelOrder(uint orderID) public returns (bool){\n        require(orderID <= ordersAmount);\n        require(orders[orderID].orderStatus == OrderStatus.ORDER_ACTIVE);\n        require(orders[orderID].author == msg.sender);\n\n        require(token.transfer(msg.sender, orders[orderID].frozenSum));\n        orders[orderID].orderStatus = OrderStatus.ORDER_INACTIVE;\n\n        emit OrderUpdated(orderID);\n        return true;\n    }\n\n    function QuickBuy(uint askID, uint buyoutDuration) public whenNotPaused {\n        Order memory ask = orders[askID];\n        require(ask.orderType == OrderType.ORDER_ASK);\n        require(ask.orderStatus == OrderStatus.ORDER_ACTIVE);\n\n        require(ask.duration >= buyoutDuration);\n        require(pr.GetProfileLevel(msg.sender) >= ask.identityLevel);\n        require(bl.Check(msg.sender, GetMaster(ask.author)) == false && bl.Check(ask.author, msg.sender) == false);\n        require(bl.Check(ask.blacklist, msg.sender) == false);\n\n        PlaceOrder(\n            OrderType.ORDER_BID,\n            GetMaster(ask.author),\n            buyoutDuration,\n            ask.price,\n            ask.netflags,\n            ProfileRegistry.IdentityLevel.ANONYMOUS,\n            address(0),\n            bytes32(0),\n            ask.benchmarks);\n\n        OpenDeal(askID, GetOrdersAmount());\n    }\n\n    // Deal functions\n\n    function OpenDeal(uint _askID, uint _bidID) whenNotPaused public {\n        Order memory ask = orders[_askID];\n        Order memory bid = orders[_bidID];\n\n        require(ask.orderStatus == OrderStatus.ORDER_ACTIVE && bid.orderStatus == OrderStatus.ORDER_ACTIVE);\n        require((ask.counterparty == 0x0 || ask.counterparty == GetMaster(bid.author)) && (bid.counterparty == 0x0 || bid.counterparty == GetMaster(ask.author)));\n        require(ask.orderType == OrderType.ORDER_ASK);\n        require(bid.orderType == OrderType.ORDER_BID);\n        require(\n            bl.Check(bid.blacklist, GetMaster(ask.author)) == false\n            && bl.Check(bid.blacklist, ask.author) == false\n            && bl.Check(bid.author, GetMaster(ask.author)) == false\n            && bl.Check(bid.author, ask.author) == false\n            && bl.Check(ask.blacklist, bid.author) == false\n            && bl.Check(GetMaster(ask.author), bid.author) == false\n            && bl.Check(ask.author, bid.author) == false);\n        require(ask.price <= bid.price);\n        require(ask.duration >= bid.duration);\n        // profile level check\n        require(pr.GetProfileLevel(bid.author) >= ask.identityLevel);\n        require(pr.GetProfileLevel(ask.author) >= bid.identityLevel);\n\n        if (ask.netflags.length < netflagsQuantity) {\n            ask.netflags = ResizeNetflags(ask.netflags);\n        }\n\n        if (bid.netflags.length < netflagsQuantity) {\n            bid.netflags = ResizeNetflags(ask.netflags);\n        }\n\n        for (uint i = 0; i < ask.netflags.length; i++) {\n            // implementation: when bid contains requirement, ask necessary needs to have this\n            // if ask have this one - pass\n            require(!bid.netflags[i] || ask.netflags[i]);\n        }\n\n        if (ask.benchmarks.length < benchmarksQuantity) {\n            ask.benchmarks = ResizeBenchmarks(ask.benchmarks);\n        }\n\n        if (bid.benchmarks.length < benchmarksQuantity) {\n            bid.benchmarks = ResizeBenchmarks(bid.benchmarks);\n        }\n\n        for (i = 0; i < ask.benchmarks.length; i++) {\n            require(ask.benchmarks[i] >= bid.benchmarks[i]);\n        }\n\n        dealAmount = dealAmount.add(1);\n        address master = GetMaster(ask.author);\n        orders[_askID].orderStatus = OrderStatus.ORDER_INACTIVE;\n        orders[_bidID].orderStatus = OrderStatus.ORDER_INACTIVE;\n        orders[_askID].dealID = dealAmount;\n        orders[_bidID].dealID = dealAmount;\n\n        emit OrderUpdated(_askID);\n        emit OrderUpdated(_bidID);\n\n        uint startTime = block.timestamp;\n        uint endTime = 0;\n        // `0` - for spot deal\n\n        // if deal is normal\n        if (ask.duration != 0) {\n            endTime = startTime.add(bid.duration);\n        }\n        uint blockedBalance = bid.frozenSum;\n        deals[dealAmount] = Deal(ask.benchmarks, ask.author, bid.author, master, _askID, _bidID, bid.duration, ask.price, startTime, endTime, DealStatus.STATUS_ACCEPTED, blockedBalance, 0, block.timestamp);\n        emit DealOpened(dealAmount);\n    }\n\n    function CloseDeal(uint dealID, BlacklistPerson blacklisted) public returns (bool){\n        require((deals[dealID].status == DealStatus.STATUS_ACCEPTED));\n        require(msg.sender == deals[dealID].supplierID || msg.sender == deals[dealID].consumerID || msg.sender == deals[dealID].masterID);\n\n        if (block.timestamp <= deals[dealID].startTime.add(deals[dealID].duration)) {\n            // after endTime\n            require(deals[dealID].consumerID == msg.sender);\n        }\n        AddToBlacklist(dealID, blacklisted);\n        InternalBill(dealID);\n        InternalCloseDeal(dealID);\n        RefundRemainingFunds(dealID);\n        return true;\n    }\n\n    function Bill(uint dealID) public returns (bool){\n        InternalBill(dealID);\n        ReserveNextPeriodFunds(dealID);\n        return true;\n    }\n\n    function CreateChangeRequest(uint dealID, uint newPrice, uint newDuration) public returns (uint changeRequestID) {\n        require(msg.sender == deals[dealID].consumerID || msg.sender == deals[dealID].masterID || msg.sender == deals[dealID].supplierID);\n        require(deals[dealID].status == DealStatus.STATUS_ACCEPTED);\n\n        if (IsSpot(dealID)) {\n            require(newDuration == 0);\n        }\n\n        requestsAmount = requestsAmount.add(1);\n\n        OrderType requestType;\n\n        if (msg.sender == deals[dealID].consumerID) {\n            requestType = OrderType.ORDER_BID;\n        } else {\n            requestType = OrderType.ORDER_ASK;\n        }\n\n        requests[requestsAmount] = ChangeRequest(dealID, requestType, newPrice, newDuration, RequestStatus.REQUEST_CREATED);\n        emit DealChangeRequestSet(requestsAmount);\n\n        if (requestType == OrderType.ORDER_BID) {\n            emit DealChangeRequestUpdated(actualRequests[dealID][1]);\n            requests[actualRequests[dealID][1]].status = RequestStatus.REQUEST_CANCELED;\n            actualRequests[dealID][1] = requestsAmount;\n            ChangeRequest memory matchingRequest = requests[actualRequests[dealID][0]];\n\n            if (newDuration == deals[dealID].duration && newPrice > deals[dealID].price) {\n                requests[requestsAmount].status = RequestStatus.REQUEST_ACCEPTED;\n                Bill(dealID);\n                deals[dealID].price = newPrice;\n                actualRequests[dealID][1] = 0;\n                emit DealChangeRequestUpdated(requestsAmount);\n            } else if (matchingRequest.status == RequestStatus.REQUEST_CREATED && matchingRequest.duration >= newDuration && matchingRequest.price <= newPrice) {\n                requests[requestsAmount].status = RequestStatus.REQUEST_ACCEPTED;\n                requests[actualRequests[dealID][0]].status = RequestStatus.REQUEST_ACCEPTED;\n                emit DealChangeRequestUpdated(actualRequests[dealID][0]);\n                actualRequests[dealID][0] = 0;\n                actualRequests[dealID][1] = 0;\n                Bill(dealID);\n                deals[dealID].price = matchingRequest.price;\n                deals[dealID].duration = newDuration;\n                emit DealChangeRequestUpdated(requestsAmount);\n            } else {\n                return requestsAmount;\n            }\n\n            requests[actualRequests[dealID][1]].status = RequestStatus.REQUEST_CANCELED;\n            emit DealChangeRequestUpdated(actualRequests[dealID][1]);\n            actualRequests[dealID][1] = requestsAmount;\n        }\n\n        if (requestType == OrderType.ORDER_ASK) {\n            emit DealChangeRequestUpdated(actualRequests[dealID][0]);\n            requests[actualRequests[dealID][0]].status = RequestStatus.REQUEST_CANCELED;\n            actualRequests[dealID][0] = requestsAmount;\n            matchingRequest = requests[actualRequests[dealID][1]];\n\n            if (newDuration == deals[dealID].duration && newPrice < deals[dealID].price) {\n                requests[requestsAmount].status = RequestStatus.REQUEST_ACCEPTED;\n                Bill(dealID);\n                deals[dealID].price = newPrice;\n                actualRequests[dealID][0] = 0;\n                emit DealChangeRequestUpdated(requestsAmount);\n            } else if (matchingRequest.status == RequestStatus.REQUEST_CREATED && matchingRequest.duration <= newDuration && matchingRequest.price >= newPrice) {\n                requests[requestsAmount].status = RequestStatus.REQUEST_ACCEPTED;\n                emit DealChangeRequestUpdated(actualRequests[dealID][1]);\n                actualRequests[dealID][0] = 0;\n                actualRequests[dealID][1] = 0;\n                Bill(dealID);\n                deals[dealID].price = newPrice;\n                deals[dealID].duration = matchingRequest.duration;\n                emit DealChangeRequestUpdated(requestsAmount);\n            } else {\n                return requestsAmount;\n            }\n        }\n\n        deals[dealID].endTime = deals[dealID].startTime.add(deals[dealID].duration);\n        return requestsAmount;\n    }\n\n    function CancelChangeRequest(uint changeRequestID) public returns (bool) {\n        ChangeRequest memory request = requests[changeRequestID];\n        require(msg.sender == deals[request.dealID].supplierID || msg.sender == deals[request.dealID].masterID || msg.sender == deals[request.dealID].consumerID);\n        require(request.status != RequestStatus.REQUEST_ACCEPTED);\n\n        if (request.requestType == OrderType.ORDER_ASK) {\n            if (msg.sender == deals[request.dealID].consumerID) {\n                requests[changeRequestID].status = RequestStatus.REQUEST_REJECTED;\n            } else {\n                requests[changeRequestID].status = RequestStatus.REQUEST_CANCELED;\n            }\n            actualRequests[request.dealID][0] = 0;\n            emit DealChangeRequestUpdated(changeRequestID);\n        }\n\n        if (request.requestType == OrderType.ORDER_BID) {\n            if (msg.sender == deals[request.dealID].consumerID) {\n                requests[changeRequestID].status = RequestStatus.REQUEST_CANCELED;\n            } else {\n                requests[changeRequestID].status = RequestStatus.REQUEST_REJECTED;\n            }\n            actualRequests[request.dealID][1] = 0;\n            emit DealChangeRequestUpdated(changeRequestID);\n        }\n        return true;\n    }\n\n    // Master-worker functions\n\n    function RegisterWorker(address _master) public whenNotPaused returns (bool) {\n        require(GetMaster(msg.sender) == msg.sender);\n        require(isMaster[msg.sender] == false);\n        require(GetMaster(_master) == _master);\n        masterRequest[_master][msg.sender] = true;\n        emit WorkerAnnounced(msg.sender, _master);\n        return true;\n    }\n\n    function ConfirmWorker(address _worker) public whenNotPaused returns (bool) {\n        require(masterRequest[msg.sender][_worker] == true);\n        masterOf[_worker] = msg.sender;\n        isMaster[msg.sender] = true;\n        delete masterRequest[msg.sender][_worker];\n        emit WorkerConfirmed(_worker, msg.sender);\n        return true;\n    }\n\n    function RemoveWorker(address _worker, address _master) public whenNotPaused returns (bool) {\n        require(GetMaster(_worker) == _master && (msg.sender == _worker || msg.sender == _master));\n        delete masterOf[_worker];\n        emit WorkerRemoved(_worker, _master);\n        return true;\n    }\n\n    // GETTERS\n\n    function GetOrderInfo(uint orderID) view public\n    returns (\n        OrderType orderType,\n        address author,\n        address counterparty,\n        uint duration,\n        uint price,\n        bool[] netflags,\n        ProfileRegistry.IdentityLevel identityLevel,\n        address blacklist,\n        bytes32 tag,\n        uint64[] benchmarks,\n        uint frozenSum\n    ){\n        Order memory order = orders[orderID];\n        return (\n        order.orderType,\n        order.author,\n        order.counterparty,\n        order.duration,\n        order.price,\n        order.netflags,\n        order.identityLevel,\n        order.blacklist,\n        order.tag,\n        order.benchmarks,\n        order.frozenSum\n        );\n    }\n\n\n    function GetOrderParams(uint orderID) view public\n    returns (\n        OrderStatus orderStatus,\n        uint dealID\n    ){\n        Order memory order = orders[orderID];\n        return (\n        order.orderStatus,\n        order.dealID\n        );\n    }\n\n    function GetDealInfo(uint dealID) view public\n    returns (\n        uint64[] benchmarks,\n        address supplierID,\n        address consumerID,\n        address masterID,\n        uint askID,\n        uint bidID,\n        uint startTime\n    ){\n        return (\n        deals[dealID].benchmarks,\n        deals[dealID].supplierID,\n        deals[dealID].consumerID,\n        deals[dealID].masterID,\n        deals[dealID].askID,\n        deals[dealID].bidID,\n        deals[dealID].startTime\n\n        );\n    }\n\n    function GetDealParams(uint dealID) view public\n    returns (\n        uint duration,\n        uint price,\n        uint endTime,\n        DealStatus status,\n        uint blockedBalance,\n        uint totalPayout,\n        uint lastBillTS\n    ){\n        return (\n        deals[dealID].duration,\n        deals[dealID].price,\n        deals[dealID].endTime,\n        deals[dealID].status,\n        deals[dealID].blockedBalance,\n        deals[dealID].totalPayout,\n        deals[dealID].lastBillTS\n        );\n    }\n\n    function GetMaster(address _worker) view public returns (address master) {\n        if (masterOf[_worker] == 0x0 || masterOf[_worker] == _worker) {\n            master = _worker;\n        } else {\n            master = masterOf[_worker];\n        }\n    }\n\n    function GetChangeRequestInfo(uint changeRequestID) view public\n    returns (\n        uint dealID,\n        OrderType requestType,\n        uint price,\n        uint duration,\n        RequestStatus status\n    ){\n        return (\n        requests[changeRequestID].dealID,\n        requests[changeRequestID].requestType,\n        requests[changeRequestID].price,\n        requests[changeRequestID].duration,\n        requests[changeRequestID].status\n        );\n    }\n\n    function GetDealsAmount() public view returns (uint){\n        return dealAmount;\n    }\n\n    function GetOrdersAmount() public view returns (uint){\n        return ordersAmount;\n    }\n\n    function GetChangeRequestsAmount() public view returns (uint){\n        return requestsAmount;\n    }\n\n    function GetBenchmarksQuantity() public view returns (uint) {\n        return benchmarksQuantity;\n    }\n\n    function GetNetflagsQuantity() public view returns (uint) {\n        return netflagsQuantity;\n    }\n\n\n    // INTERNAL\n\n    function InternalBill(uint dealID) internal returns (bool){\n        require(deals[dealID].status == DealStatus.STATUS_ACCEPTED);\n        require(msg.sender == deals[dealID].supplierID || msg.sender == deals[dealID].consumerID || msg.sender == deals[dealID].masterID);\n        Deal memory deal = deals[dealID];\n\n        uint paidAmount;\n\n        if (!IsSpot(dealID) && deal.lastBillTS >= deal.endTime) {\n            // means we already billed deal after endTime\n            return true;\n        } else if (!IsSpot(dealID) && block.timestamp > deal.endTime && deal.lastBillTS < deal.endTime) {\n            paidAmount = CalculatePayment(deal.price, deal.endTime.sub(deal.lastBillTS));\n        } else {\n            paidAmount = CalculatePayment(deal.price, block.timestamp.sub(deal.lastBillTS));\n        }\n\n        if (paidAmount > deal.blockedBalance) {\n            if (token.balanceOf(deal.consumerID) >= paidAmount.sub(deal.blockedBalance)) {\n                require(token.transferFrom(deal.consumerID, this, paidAmount.sub(deal.blockedBalance)));\n                deals[dealID].blockedBalance = deals[dealID].blockedBalance.add(paidAmount.sub(deal.blockedBalance));\n            } else {\n                emit Billed(dealID, deals[dealID].blockedBalance);\n                InternalCloseDeal(dealID);\n                require(token.transfer(deal.masterID, deal.blockedBalance));\n                deals[dealID].lastBillTS = block.timestamp;\n                deals[dealID].totalPayout = deals[dealID].totalPayout.add(deal.blockedBalance);\n                deals[dealID].blockedBalance = 0;\n                return true;\n            }\n        }\n        require(token.transfer(deal.masterID, paidAmount));\n        deals[dealID].blockedBalance = deals[dealID].blockedBalance.sub(paidAmount);\n        deals[dealID].totalPayout = deals[dealID].totalPayout.add(paidAmount);\n        deals[dealID].lastBillTS = block.timestamp;\n        emit Billed(dealID, paidAmount);\n        return true;\n    }\n\n    function ReserveNextPeriodFunds(uint dealID) internal returns (bool) {\n        uint nextPeriod;\n        Deal memory deal = deals[dealID];\n\n        if (IsSpot(dealID)) {\n            if (deal.status == DealStatus.STATUS_CLOSED) {\n                return true;\n            }\n            nextPeriod = 1 hours;\n        } else {\n            if (block.timestamp > deal.endTime) {\n                // we don't reserve funds for next period\n                return true;\n            }\n            if (deal.endTime.sub(block.timestamp) < 1 days) {\n                nextPeriod = deal.endTime.sub(block.timestamp);\n            } else {\n                nextPeriod = 1 days;\n            }\n        }\n\n        if (CalculatePayment(deal.price, nextPeriod) > deals[dealID].blockedBalance) {\n            uint nextPeriodSum = CalculatePayment(deal.price, nextPeriod).sub(deals[dealID].blockedBalance);\n\n            if (token.balanceOf(deal.consumerID) >= nextPeriodSum) {\n                require(token.transferFrom(deal.consumerID, this, nextPeriodSum));\n                deals[dealID].blockedBalance = deals[dealID].blockedBalance.add(nextPeriodSum);\n            } else {\n                emit Billed(dealID, deals[dealID].blockedBalance);\n                InternalCloseDeal(dealID);\n                RefundRemainingFunds(dealID);\n                return true;\n            }\n        }\n        return true;\n    }\n\n    function RefundRemainingFunds(uint dealID) internal returns (bool){\n        if (deals[dealID].blockedBalance != 0) {\n            token.transfer(deals[dealID].consumerID, deals[dealID].blockedBalance);\n            deals[dealID].blockedBalance = 0;\n        }\n        return true;\n    }\n\n    function IsSpot(uint dealID) internal view returns (bool){\n        return deals[dealID].duration == 0;\n    }\n\n    function CalculatePayment(uint _price, uint _period) internal view returns (uint) {\n        uint rate = oracle.getCurrentPrice();\n        return rate.mul(_price).mul(_period).div(1e18);\n    }\n\n    function AddToBlacklist(uint dealID, BlacklistPerson role) internal {\n        // only consumer can blacklist\n        require(msg.sender == deals[dealID].consumerID || role == BlacklistPerson.BLACKLIST_NOBODY);\n        if (role == BlacklistPerson.BLACKLIST_WORKER) {\n            bl.Add(deals[dealID].consumerID, deals[dealID].supplierID);\n        } else if (role == BlacklistPerson.BLACKLIST_MASTER) {\n            bl.Add(deals[dealID].consumerID, deals[dealID].masterID);\n        }\n    }\n\n    function InternalCloseDeal(uint dealID) internal {\n        if (deals[dealID].status == DealStatus.STATUS_CLOSED) {\n            return;\n        }\n        require((deals[dealID].status == DealStatus.STATUS_ACCEPTED));\n        require(msg.sender == deals[dealID].consumerID || msg.sender == deals[dealID].supplierID || msg.sender == deals[dealID].masterID);\n        deals[dealID].status = DealStatus.STATUS_CLOSED;\n        deals[dealID].endTime = block.timestamp;\n        emit DealUpdated(dealID);\n    }\n\n    function ResizeBenchmarks(uint64[] _benchmarks) internal view returns (uint64[]) {\n        uint64[] memory benchmarks = new uint64[](benchmarksQuantity);\n        for (uint i = 0; i < _benchmarks.length; i++) {\n            benchmarks[i] = _benchmarks[i];\n        }\n        return benchmarks;\n    }\n\n    function ResizeNetflags(bool[] _netflags) internal view returns (bool[]) {\n        bool[] memory netflags = new bool[](netflagsQuantity);\n        for (uint i = 0; i < _netflags.length; i++) {\n            netflags[i] = _netflags[i];\n        }\n        return netflags;\n    }\n\n    // SETTERS\n\n    function SetProfileRegistryAddress(address _newPR) onlyOwner public returns (bool) {\n        pr = ProfileRegistry(_newPR);\n        return true;\n    }\n\n    function SetBlacklistAddress(address _newBL) onlyOwner public returns (bool) {\n        bl = Blacklist(_newBL);\n        return true;\n    }\n\n    function SetOracleAddress(address _newOracle) onlyOwner public returns (bool) {\n        require(OracleUSD(_newOracle).getCurrentPrice() != 0);\n        oracle = OracleUSD(_newOracle);\n        return true;\n    }\n\n    function SetBenchmarksQuantity(uint _newQuantity) onlyOwner public returns (bool) {\n        require(_newQuantity > benchmarksQuantity);\n        emit NumBenchmarksUpdated(_newQuantity);\n        benchmarksQuantity = _newQuantity;\n        return true;\n    }\n\n    function SetNetflagsQuantity(uint _newQuantity) onlyOwner public returns (bool) {\n        require(_newQuantity > netflagsQuantity);\n        emit NumNetflagsUpdated(_newQuantity);\n        netflagsQuantity = _newQuantity;\n        return true;\n    }\n\n    function KillMarket() onlyOwner public {\n        token.transfer(owner, token.balanceOf(address(this)));\n        selfdestruct(owner);\n    }\n}\n",
  "sourcePath": "contracts/Market.sol",
  "compiler": {
    "name": "solc",
    "version": "0.4.24+commit.e67f0147.Emscripten.clang"
  },
  "schemaVersion": "2.0.1",
  "updatedAt": "2019-01-10T13:57:40.027Z"
}