{
  "contractName": "Market",
  "abi": [
    {
      "constant": true,
      "inputs": [
        {
          "name": "",
          "type": "uint256"
        }
      ],
      "name": "deals",
      "outputs": [
        {
          "name": "supplierID",
          "type": "address"
        },
        {
          "name": "consumerID",
          "type": "address"
        },
        {
          "name": "masterID",
          "type": "address"
        },
        {
          "name": "askID",
          "type": "uint256"
        },
        {
          "name": "bidID",
          "type": "uint256"
        },
        {
          "name": "duration",
          "type": "uint256"
        },
        {
          "name": "price",
          "type": "uint256"
        },
        {
          "name": "startTime",
          "type": "uint256"
        },
        {
          "name": "endTime",
          "type": "uint256"
        },
        {
          "name": "status",
          "type": "uint8"
        },
        {
          "name": "blockedBalance",
          "type": "uint256"
        },
        {
          "name": "totalPayout",
          "type": "uint256"
        },
        {
          "name": "lastBillTS",
          "type": "uint256"
        }
      ],
      "payable": false,
      "stateMutability": "view",
      "type": "function"
    },
    {
      "constant": false,
      "inputs": [],
      "name": "unpause",
      "outputs": [],
      "payable": false,
      "stateMutability": "nonpayable",
      "type": "function"
    },
    {
      "constant": true,
      "inputs": [],
      "name": "paused",
      "outputs": [
        {
          "name": "",
          "type": "bool"
        }
      ],
      "payable": false,
      "stateMutability": "view",
      "type": "function"
    },
    {
      "constant": false,
      "inputs": [],
      "name": "renounceOwnership",
      "outputs": [],
      "payable": false,
      "stateMutability": "nonpayable",
      "type": "function"
    },
    {
      "constant": false,
      "inputs": [],
      "name": "pause",
      "outputs": [],
      "payable": false,
      "stateMutability": "nonpayable",
      "type": "function"
    },
    {
      "constant": true,
      "inputs": [],
      "name": "owner",
      "outputs": [
        {
          "name": "",
          "type": "address"
        }
      ],
      "payable": false,
      "stateMutability": "view",
      "type": "function"
    },
    {
      "constant": true,
      "inputs": [
        {
          "name": "",
          "type": "uint256"
        }
      ],
      "name": "orders",
      "outputs": [
        {
          "name": "orderType",
          "type": "uint8"
        },
        {
          "name": "orderStatus",
          "type": "uint8"
        },
        {
          "name": "author",
          "type": "address"
        },
        {
          "name": "counterparty",
          "type": "address"
        },
        {
          "name": "duration",
          "type": "uint256"
        },
        {
          "name": "price",
          "type": "uint256"
        },
        {
          "name": "identityLevel",
          "type": "uint8"
        },
        {
          "name": "blacklist",
          "type": "address"
        },
        {
          "name": "tag",
          "type": "bytes32"
        },
        {
          "name": "frozenSum",
          "type": "uint256"
        },
        {
          "name": "dealID",
          "type": "uint256"
        }
      ],
      "payable": false,
      "stateMutability": "view",
      "type": "function"
    },
    {
      "constant": false,
      "inputs": [
        {
          "name": "_newOwner",
          "type": "address"
        }
      ],
      "name": "transferOwnership",
      "outputs": [],
      "payable": false,
      "stateMutability": "nonpayable",
      "type": "function"
    },
    {
      "inputs": [
        {
          "name": "_token",
          "type": "address"
        },
        {
          "name": "_blacklist",
          "type": "address"
        },
        {
          "name": "_oracle",
          "type": "address"
        },
        {
          "name": "_profileRegistry",
          "type": "address"
        },
        {
          "name": "_benchmarksQuantity",
          "type": "uint256"
        },
        {
          "name": "_netflagsQuantity",
          "type": "uint256"
        }
      ],
      "payable": false,
      "stateMutability": "nonpayable",
      "type": "constructor"
    },
    {
      "anonymous": false,
      "inputs": [
        {
          "indexed": true,
          "name": "orderID",
          "type": "uint256"
        }
      ],
      "name": "OrderPlaced",
      "type": "event"
    },
    {
      "anonymous": false,
      "inputs": [
        {
          "indexed": true,
          "name": "orderID",
          "type": "uint256"
        }
      ],
      "name": "OrderUpdated",
      "type": "event"
    },
    {
      "anonymous": false,
      "inputs": [
        {
          "indexed": true,
          "name": "dealID",
          "type": "uint256"
        }
      ],
      "name": "DealOpened",
      "type": "event"
    },
    {
      "anonymous": false,
      "inputs": [
        {
          "indexed": true,
          "name": "dealID",
          "type": "uint256"
        }
      ],
      "name": "DealUpdated",
      "type": "event"
    },
    {
      "anonymous": false,
      "inputs": [
        {
          "indexed": true,
          "name": "dealID",
          "type": "uint256"
        },
        {
          "indexed": true,
          "name": "paidAmount",
          "type": "uint256"
        }
      ],
      "name": "Billed",
      "type": "event"
    },
    {
      "anonymous": false,
      "inputs": [
        {
          "indexed": true,
          "name": "changeRequestID",
          "type": "uint256"
        }
      ],
      "name": "DealChangeRequestSet",
      "type": "event"
    },
    {
      "anonymous": false,
      "inputs": [
        {
          "indexed": true,
          "name": "changeRequestID",
          "type": "uint256"
        }
      ],
      "name": "DealChangeRequestUpdated",
      "type": "event"
    },
    {
      "anonymous": false,
      "inputs": [
        {
          "indexed": true,
          "name": "worker",
          "type": "address"
        },
        {
          "indexed": true,
          "name": "master",
          "type": "address"
        }
      ],
      "name": "WorkerAnnounced",
      "type": "event"
    },
    {
      "anonymous": false,
      "inputs": [
        {
          "indexed": true,
          "name": "worker",
          "type": "address"
        },
        {
          "indexed": true,
          "name": "master",
          "type": "address"
        }
      ],
      "name": "WorkerConfirmed",
      "type": "event"
    },
    {
      "anonymous": false,
      "inputs": [
        {
          "indexed": true,
          "name": "worker",
          "type": "address"
        },
        {
          "indexed": true,
          "name": "master",
          "type": "address"
        }
      ],
      "name": "WorkerRemoved",
      "type": "event"
    },
    {
      "anonymous": false,
      "inputs": [
        {
          "indexed": true,
          "name": "newNum",
          "type": "uint256"
        }
      ],
      "name": "NumBenchmarksUpdated",
      "type": "event"
    },
    {
      "anonymous": false,
      "inputs": [
        {
          "indexed": true,
          "name": "newNum",
          "type": "uint256"
        }
      ],
      "name": "NumNetflagsUpdated",
      "type": "event"
    },
    {
      "anonymous": false,
      "inputs": [],
      "name": "Pause",
      "type": "event"
    },
    {
      "anonymous": false,
      "inputs": [],
      "name": "Unpause",
      "type": "event"
    },
    {
      "anonymous": false,
      "inputs": [
        {
          "indexed": true,
          "name": "previousOwner",
          "type": "address"
        }
      ],
      "name": "OwnershipRenounced",
      "type": "event"
    },
    {
      "anonymous": false,
      "inputs": [
        {
          "indexed": true,
          "name": "previousOwner",
          "type": "address"
        },
        {
          "indexed": true,
          "name": "newOwner",
          "type": "address"
        }
      ],
      "name": "OwnershipTransferred",
      "type": "event"
    },
    {
      "constant": false,
      "inputs": [
        {
          "name": "_orderType",
          "type": "uint8"
        },
        {
          "name": "_id_counterparty",
          "type": "address"
        },
        {
          "name": "_duration",
          "type": "uint256"
        },
        {
          "name": "_price",
          "type": "uint256"
        },
        {
          "name": "_netflags",
          "type": "bool[]"
        },
        {
          "name": "_identityLevel",
          "type": "uint8"
        },
        {
          "name": "_blacklist",
          "type": "address"
        },
        {
          "name": "_tag",
          "type": "bytes32"
        },
        {
          "name": "_benchmarks",
          "type": "uint64[]"
        }
      ],
      "name": "PlaceOrder",
      "outputs": [
        {
          "name": "",
          "type": "uint256"
        }
      ],
      "payable": false,
      "stateMutability": "nonpayable",
      "type": "function"
    },
    {
      "constant": false,
      "inputs": [
        {
          "name": "orderID",
          "type": "uint256"
        }
      ],
      "name": "CancelOrder",
      "outputs": [
        {
          "name": "",
          "type": "bool"
        }
      ],
      "payable": false,
      "stateMutability": "nonpayable",
      "type": "function"
    },
    {
      "constant": false,
      "inputs": [
        {
          "name": "askID",
          "type": "uint256"
        },
        {
          "name": "buyoutDuration",
          "type": "uint256"
        }
      ],
      "name": "QuickBuy",
      "outputs": [],
      "payable": false,
      "stateMutability": "nonpayable",
      "type": "function"
    },
    {
      "constant": false,
      "inputs": [
        {
          "name": "_askID",
          "type": "uint256"
        },
        {
          "name": "_bidID",
          "type": "uint256"
        }
      ],
      "name": "OpenDeal",
      "outputs": [],
      "payable": false,
      "stateMutability": "nonpayable",
      "type": "function"
    },
    {
      "constant": false,
      "inputs": [
        {
          "name": "dealID",
          "type": "uint256"
        },
        {
          "name": "blacklisted",
          "type": "uint8"
        }
      ],
      "name": "CloseDeal",
      "outputs": [
        {
          "name": "",
          "type": "bool"
        }
      ],
      "payable": false,
      "stateMutability": "nonpayable",
      "type": "function"
    },
    {
      "constant": false,
      "inputs": [
        {
          "name": "dealID",
          "type": "uint256"
        }
      ],
      "name": "Bill",
      "outputs": [
        {
          "name": "",
          "type": "bool"
        }
      ],
      "payable": false,
      "stateMutability": "nonpayable",
      "type": "function"
    },
    {
      "constant": false,
      "inputs": [
        {
          "name": "dealID",
          "type": "uint256"
        },
        {
          "name": "newPrice",
          "type": "uint256"
        },
        {
          "name": "newDuration",
          "type": "uint256"
        }
      ],
      "name": "CreateChangeRequest",
      "outputs": [
        {
          "name": "changeRequestID",
          "type": "uint256"
        }
      ],
      "payable": false,
      "stateMutability": "nonpayable",
      "type": "function"
    },
    {
      "constant": false,
      "inputs": [
        {
          "name": "changeRequestID",
          "type": "uint256"
        }
      ],
      "name": "CancelChangeRequest",
      "outputs": [
        {
          "name": "",
          "type": "bool"
        }
      ],
      "payable": false,
      "stateMutability": "nonpayable",
      "type": "function"
    },
    {
      "constant": false,
      "inputs": [
        {
          "name": "_master",
          "type": "address"
        }
      ],
      "name": "RegisterWorker",
      "outputs": [
        {
          "name": "",
          "type": "bool"
        }
      ],
      "payable": false,
      "stateMutability": "nonpayable",
      "type": "function"
    },
    {
      "constant": false,
      "inputs": [
        {
          "name": "_worker",
          "type": "address"
        }
      ],
      "name": "ConfirmWorker",
      "outputs": [
        {
          "name": "",
          "type": "bool"
        }
      ],
      "payable": false,
      "stateMutability": "nonpayable",
      "type": "function"
    },
    {
      "constant": false,
      "inputs": [
        {
          "name": "_worker",
          "type": "address"
        },
        {
          "name": "_master",
          "type": "address"
        }
      ],
      "name": "RemoveWorker",
      "outputs": [
        {
          "name": "",
          "type": "bool"
        }
      ],
      "payable": false,
      "stateMutability": "nonpayable",
      "type": "function"
    },
    {
      "constant": true,
      "inputs": [
        {
          "name": "orderID",
          "type": "uint256"
        }
      ],
      "name": "GetOrderInfo",
      "outputs": [
        {
          "name": "orderType",
          "type": "uint8"
        },
        {
          "name": "author",
          "type": "address"
        },
        {
          "name": "counterparty",
          "type": "address"
        },
        {
          "name": "duration",
          "type": "uint256"
        },
        {
          "name": "price",
          "type": "uint256"
        },
        {
          "name": "netflags",
          "type": "bool[]"
        },
        {
          "name": "identityLevel",
          "type": "uint8"
        },
        {
          "name": "blacklist",
          "type": "address"
        },
        {
          "name": "tag",
          "type": "bytes32"
        },
        {
          "name": "benchmarks",
          "type": "uint64[]"
        },
        {
          "name": "frozenSum",
          "type": "uint256"
        }
      ],
      "payable": false,
      "stateMutability": "view",
      "type": "function"
    },
    {
      "constant": true,
      "inputs": [
        {
          "name": "orderID",
          "type": "uint256"
        }
      ],
      "name": "GetOrderParams",
      "outputs": [
        {
          "name": "orderStatus",
          "type": "uint8"
        },
        {
          "name": "dealID",
          "type": "uint256"
        }
      ],
      "payable": false,
      "stateMutability": "view",
      "type": "function"
    },
    {
      "constant": true,
      "inputs": [
        {
          "name": "dealID",
          "type": "uint256"
        }
      ],
      "name": "GetDealInfo",
      "outputs": [
        {
          "name": "benchmarks",
          "type": "uint64[]"
        },
        {
          "name": "supplierID",
          "type": "address"
        },
        {
          "name": "consumerID",
          "type": "address"
        },
        {
          "name": "masterID",
          "type": "address"
        },
        {
          "name": "askID",
          "type": "uint256"
        },
        {
          "name": "bidID",
          "type": "uint256"
        },
        {
          "name": "startTime",
          "type": "uint256"
        }
      ],
      "payable": false,
      "stateMutability": "view",
      "type": "function"
    },
    {
      "constant": true,
      "inputs": [
        {
          "name": "dealID",
          "type": "uint256"
        }
      ],
      "name": "GetDealParams",
      "outputs": [
        {
          "name": "duration",
          "type": "uint256"
        },
        {
          "name": "price",
          "type": "uint256"
        },
        {
          "name": "endTime",
          "type": "uint256"
        },
        {
          "name": "status",
          "type": "uint8"
        },
        {
          "name": "blockedBalance",
          "type": "uint256"
        },
        {
          "name": "totalPayout",
          "type": "uint256"
        },
        {
          "name": "lastBillTS",
          "type": "uint256"
        }
      ],
      "payable": false,
      "stateMutability": "view",
      "type": "function"
    },
    {
      "constant": true,
      "inputs": [
        {
          "name": "_worker",
          "type": "address"
        }
      ],
      "name": "GetMaster",
      "outputs": [
        {
          "name": "master",
          "type": "address"
        }
      ],
      "payable": false,
      "stateMutability": "view",
      "type": "function"
    },
    {
      "constant": true,
      "inputs": [
        {
          "name": "changeRequestID",
          "type": "uint256"
        }
      ],
      "name": "GetChangeRequestInfo",
      "outputs": [
        {
          "name": "dealID",
          "type": "uint256"
        },
        {
          "name": "requestType",
          "type": "uint8"
        },
        {
          "name": "price",
          "type": "uint256"
        },
        {
          "name": "duration",
          "type": "uint256"
        },
        {
          "name": "status",
          "type": "uint8"
        }
      ],
      "payable": false,
      "stateMutability": "view",
      "type": "function"
    },
    {
      "constant": true,
      "inputs": [],
      "name": "GetDealsAmount",
      "outputs": [
        {
          "name": "",
          "type": "uint256"
        }
      ],
      "payable": false,
      "stateMutability": "view",
      "type": "function"
    },
    {
      "constant": true,
      "inputs": [],
      "name": "GetOrdersAmount",
      "outputs": [
        {
          "name": "",
          "type": "uint256"
        }
      ],
      "payable": false,
      "stateMutability": "view",
      "type": "function"
    },
    {
      "constant": true,
      "inputs": [],
      "name": "GetChangeRequestsAmount",
      "outputs": [
        {
          "name": "",
          "type": "uint256"
        }
      ],
      "payable": false,
      "stateMutability": "view",
      "type": "function"
    },
    {
      "constant": true,
      "inputs": [],
      "name": "GetBenchmarksQuantity",
      "outputs": [
        {
          "name": "",
          "type": "uint256"
        }
      ],
      "payable": false,
      "stateMutability": "view",
      "type": "function"
    },
    {
      "constant": true,
      "inputs": [],
      "name": "GetNetflagsQuantity",
      "outputs": [
        {
          "name": "",
          "type": "uint256"
        }
      ],
      "payable": false,
      "stateMutability": "view",
      "type": "function"
    },
    {
      "constant": false,
      "inputs": [
        {
          "name": "_newPR",
          "type": "address"
        }
      ],
      "name": "SetProfileRegistryAddress",
      "outputs": [
        {
          "name": "",
          "type": "bool"
        }
      ],
      "payable": false,
      "stateMutability": "nonpayable",
      "type": "function"
    },
    {
      "constant": false,
      "inputs": [
        {
          "name": "_newBL",
          "type": "address"
        }
      ],
      "name": "SetBlacklistAddress",
      "outputs": [
        {
          "name": "",
          "type": "bool"
        }
      ],
      "payable": false,
      "stateMutability": "nonpayable",
      "type": "function"
    },
    {
      "constant": false,
      "inputs": [
        {
          "name": "_newOracle",
          "type": "address"
        }
      ],
      "name": "SetOracleAddress",
      "outputs": [
        {
          "name": "",
          "type": "bool"
        }
      ],
      "payable": false,
      "stateMutability": "nonpayable",
      "type": "function"
    },
    {
      "constant": false,
      "inputs": [
        {
          "name": "_newQuantity",
          "type": "uint256"
        }
      ],
      "name": "SetBenchmarksQuantity",
      "outputs": [
        {
          "name": "",
          "type": "bool"
        }
      ],
      "payable": false,
      "stateMutability": "nonpayable",
      "type": "function"
    },
    {
      "constant": false,
      "inputs": [
        {
          "name": "_newQuantity",
          "type": "uint256"
        }
      ],
      "name": "SetNetflagsQuantity",
      "outputs": [
        {
          "name": "",
          "type": "bool"
        }
      ],
      "payable": false,
      "stateMutability": "nonpayable",
      "type": "function"
    },
    {
      "constant": false,
      "inputs": [],
      "name": "KillMarket",
      "outputs": [],
      "payable": false,
      "stateMutability": "nonpayable",
      "type": "function"
    }
  ],
  "bytecode": "0x60806040526000805460a060020a60ff02191681556005819055600681905560075534801561002d57600080fd5b5060405160c0806153d683398101604090815281516020830151918301516060840151608085015160a09095015160008054600160a060020a0319908116331790915560018054600160a060020a039687169083161790556002805496861696821696909617909555600380549385169386169390931790925560048054939091169290931691909117909155600891909155600955615304806100d26000396000f3006080604052600436106101a85763ffffffff60e060020a60003504166303988f8481146101ad5780630adef86c146102735780631a3d5f82146102a8578063289e77b3146102c9578063348843cf146103065780633a9072271461032d5780633c1cbb34146103705780633f4ba83a1461038e5780634fabdd4b146103a55780635ad5f6ae1461040b5780635c975abb146104d7578063616451c5146104ec57806363fb292914610552578063715018a6146105675780638456cb591461057c5780638bce1fdf146105915780638da5cb5b146105ac57806391e75fc0146105c1578063935c9ad2146105d95780639a1ea609146105f1578063a70a7af014610609578063a85c38ef1461062a578063b1defc89146106de578063b4bf396e146106f9578063c4b22e7d1461070e578063c86c16f214610723578063d0cca9221461073b578063d362343214610759578063d85e677614610780578063de4e86c5146107a1578063e217866c146107b6578063e45ea8d3146108dd578063e67d7dd8146108f2578063ef78b8d3146109bb578063f1bf6fd5146109d3578063f2fde38b146109f4575b600080fd5b3480156101b957600080fd5b506101c5600435610a15565b604051808e600160a060020a0316600160a060020a031681526020018d600160a060020a0316600160a060020a031681526020018c600160a060020a0316600160a060020a031681526020018b81526020018a815260200189815260200188815260200187815260200186815260200185600281111561024157fe5b60ff1681526020018481526020018381526020018281526020019d505050505050505050505050505060405180910390f35b34801561027f57600080fd5b50610294600160a060020a0360043516610a93565b604080519115158252519081900360200190f35b3480156102b457600080fd5b50610294600160a060020a0360043516610b44565b3480156102d557600080fd5b506102ea600160a060020a0360043516610c1e565b60408051600160a060020a039092168252519081900360200190f35b34801561031257600080fd5b5061031b610c8c565b60408051918252519081900360200190f35b34801561033957600080fd5b50610345600435610c93565b6040518083600281111561035557fe5b60ff1681526020018281526020019250505060405180910390f35b34801561037c57600080fd5b5061031b600435602435604435610ebe565b34801561039a57600080fd5b506103a3611646565b005b3480156103b157600080fd5b506103bd6004356116bc565b604051808881526020018781526020018681526020018560028111156103df57fe5b60ff16815260200184815260200183815260200182815260200197505050505050505060405180910390f35b34801561041757600080fd5b50610423600435611700565b604051808060200188600160a060020a0316600160a060020a0316815260200187600160a060020a0316600160a060020a0316815260200186600160a060020a0316600160a060020a03168152602001858152602001848152602001838152602001828103825289818151815260200191508051906020019060200280838360005b838110156104bd5781810151838201526020016104a5565b505050509050019850505050505050505060405180910390f35b3480156104e357600080fd5b506102946117ef565b3480156104f857600080fd5b506105046004356117ff565b6040518086815260200185600281111561051a57fe5b60ff16815260200184815260200183815260200182600481111561053a57fe5b60ff1681526020019550505050505060405180910390f35b34801561055e57600080fd5b5061031b611836565b34801561057357600080fd5b506103a361183c565b34801561058857600080fd5b506103a361189b565b34801561059d57600080fd5b506103a3600435602435611916565b3480156105b857600080fd5b506102ea611e6c565b3480156105cd57600080fd5b50610294600435611e7b565b3480156105e557600080fd5b50610294600435611ed5565b3480156105fd57600080fd5b50610294600435612025565b34801561061557600080fd5b50610294600160a060020a0360043516612298565b34801561063657600080fd5b5061064260043561236d565b604051808c600281111561065257fe5b60ff1681526020018b600281111561066657fe5b60ff168152600160a060020a03808c1660208301528a166040820152606081018990526080810188905260a00186600481111561069f57fe5b60ff168152600160a060020a0390951660208601525060408085019390935260608401919091526080830152519081900360a001975095505050505050f35b3480156106ea57600080fd5b506103a36004356024356123d6565b34801561070557600080fd5b5061031b613388565b34801561071a57600080fd5b506103a361338e565b34801561072f57600080fd5b506102946004356134cc565b34801561074757600080fd5b5061029460043560ff602435166134e1565b34801561076557600080fd5b50610294600160a060020a0360043581169060243516613605565b34801561078c57600080fd5b50610294600160a060020a03600435166136c5565b3480156107ad57600080fd5b5061031b613702565b3480156107c257600080fd5b506107ce600435613708565b604051808c60028111156107de57fe5b60ff168152600160a060020a03808d1660208301528b166040820152606081018a90526080810189905260a081019060c00187600481111561081c57fe5b60ff168152600160a060020a038716602080830191909152604082018790526080820185905260a0848303810184528a51908301528951606083019260c001918b8101910280838360005b8381101561087f578181015183820152602001610867565b50505050905001838103825285818151815260200191508051906020019060200280838360005b838110156108be5781810151838201526020016108a6565b505050509050019d505050505050505050505050505060405180910390f35b3480156108e957600080fd5b5061031b613995565b3480156108fe57600080fd5b50604080516020600460843581810135838102808601850190965280855261031b95833560ff169560248035600160a060020a03169660443596606435963696919560a4959490910192829190850190849080828437505060408051602060608901358a01803582810280850184018652818552999c8b3560ff169c848d0135600160a060020a03169c968701359b919a5098506080909501965092945081019282918501908490808284375094975061399b9650505050505050565b3480156109c757600080fd5b50610294600435613d8e565b3480156109df57600080fd5b50610294600160a060020a0360043516613de8565b348015610a0057600080fd5b506103a3600160a060020a0360043516613e25565b600b602081905260009182526040909120600181015460028201546003830154600484015460058501546006860154600787015460088801546009890154600a8a01549a8a0154600c8b0154600d909b0154600160a060020a039a8b169c998b169b9a9098169996989597949693959294919360ff9093169290918d565b60008054600160a060020a03163314610aab57600080fd5b81600160a060020a031663eb91d37e6040518163ffffffff1660e060020a028152600401602060405180830381600087803b158015610ae957600080fd5b505af1158015610afd573d6000803e3d6000fd5b505050506040513d6020811015610b1357600080fd5b50511515610b2057600080fd5b5060038054600160a060020a031916600160a060020a03831617905560015b919050565b6000805460a060020a900460ff1615610b5c57600080fd5b336000908152601160209081526040808320600160a060020a038616845290915290205460ff161515600114610b9157600080fd5b600160a060020a0382166000818152600f602090815260408083208054600160a060020a0319163390811790915580845260108352818420805460ff19908116600117909155601184528285208686529093528184208054909316909255519092917f4940ef08d5aed63b7d3d3db293d69d6ed1d624995b90e9e944839c8ea0ae450d91a3506001919050565b600160a060020a038082166000908152600f60205260408120549091161580610c615750600160a060020a038083166000818152600f6020526040902054909116145b15610c6d575080610b3f565b50600160a060020a039081166000908152600f60205260409020541690565b6008545b90565b600080610c9e614fed565b6000848152600a60205260409081902081516101a081019092528054829060ff166002811115610cca57fe5b6002811115610cd557fe5b81528154602090910190610100900460ff166002811115610cf257fe5b6002811115610cfd57fe5b81528154600160a060020a036201000090910481166020808401919091526001840154909116604080840191909152600284015460608401526003840154608084015260048401805482518185028101850190935280835260a0909401939192909190830182828015610daf57602002820191906000526020600020906000905b825461010083900a900460ff161515815260206001928301818104948501949093039092029101808411610d7e5790505b5050509183525050600582015460209091019060ff166004811115610dd057fe5b6004811115610ddb57fe5b815260058201546101009004600160a060020a031660208083019190915260068301546040808401919091526007840180548251818502810185019093528083526060909401939192909190830182828015610e8a57602002820191906000526020600020906000905b82829054906101000a900467ffffffffffffffff1667ffffffffffffffff1681526020019060080190602082600701049283019260010382029150808411610e455790505b5050505050815260200160088201548152602001600982015481525050905080602001518161018001519250925050915091565b600080610ec9615057565b6000868152600b6020526040902060020154600160a060020a0316331480610f0a57506000868152600b6020526040902060030154600160a060020a031633145b80610f2e57506000868152600b6020526040902060010154600160a060020a031633145b1515610f3957600080fd5b60016000878152600b60205260409020600a015460ff166002811115610f5b57fe5b14610f6557600080fd5b610f6e86613e48565b15610f7e578315610f7e57600080fd5b600754610f9290600163ffffffff613e5e16565b6007556000868152600b6020526040902060020154600160a060020a0316331415610fc05760019150610fc5565b600291505b60a060405190810160405280878152602001836002811115610fe357fe5b81526020810187905260408101869052606001600190526007546000908152600d60209081526040909120825181559082015160018083018054909160ff199091169083600281111561103257fe5b0217905550604082015181600201556060820151816003015560808201518160040160006101000a81548160ff0219169083600481111561106f57fe5b0217905550506007546040519091507f7ff56b2eb3ce318aad93d0ba39a3e4a406992a136f9554f17f6bcc43509275d190600090a260018260028111156110b257fe5b1415611394576000868152600e60205260409020600101546040516000805160206152b983398151915290600090a26000868152600e60209081526040808320600180820180548652600d8552838620600401805460ff191660029081179091556007549091559154855293829020825160a08101909352805483529384015491939284019160ff169081111561114557fe5b600281111561115057fe5b8152600282015460208201526003820154604082015260048083015460609092019160ff169081111561117f57fe5b600481111561118a57fe5b9052506000878152600b6020526040902060060154909150841480156111c057506000868152600b602052604090206007015485115b15611231576007546000908152600d602052604090206004908101805460ff191690911790556111ef866134cc565b506000868152600b60209081526040808320600701889055600e9091528120600101556007546040516000805160206152b983398151915290600090a2611333565b60018160800151600481111561124357fe5b148015611254575083816060015110155b8015611264575084816040015111155b15611329576007546000908152600d602081815260408084206004908101805460ff1990811683179091558b8652600e808552838720805488529585528387208301805490921690921790558a85529091529054905190916000805160206152b983398151915291a26000868152600e60205260408120818155600101556112eb866134cc565b506040808201516000888152600b602052828120600780820193909355600601879055905491516000805160206152b98339815191529190a2611333565b600754925061163d565b6000868152600e6020818152604080842060010180548552600d8352818520600401805460ff191660021790558a8552929091529054905190916000805160206152b983398151915291a26007546000878152600e60205260409020600101555b60028260028111156113a257fe5b14156115fd576000868152600e6020526040812001546040516000805160206152b983398151915290600090a26000868152600e6020908152604080832080548452600d8352818420600401805460ff191660029081179091556007548255600191820154855293829020825160a0810190935280548352908101549193909284019160ff169081111561143257fe5b600281111561143d57fe5b8152600282015460208201526003820154604082015260048083015460609092019160ff169081111561146c57fe5b600481111561147757fe5b9052506000878152600b6020526040902060060154909150841480156114ad57506000868152600b602052604090206007015485105b1561151d576007546000908152600d602052604090206004908101805460ff191690911790556114dc866134cc565b506000868152600b60209081526040808320600701889055600e90915281208101556007546040516000805160206152b983398151915290600090a26115fd565b60018160800151600481111561152f57fe5b148015611540575083816060015111155b8015611550575084816040015110155b15611329576007546000908152600d602052604090206004908101805460ff191660018302179055506000868152600e60205260409020600101546040516000805160206152b983398151915290600090a26000868152600e60205260408120818155600101556115c0866134cc565b506000868152600b60205260408082206007808201899055606085015160069092019190915554905190916000805160206152b983398151915291a25b6000868152600b6020526040902060068101546008909101546116259163ffffffff613e5e16565b6000878152600b602052604090206009015560075492505b50509392505050565b600054600160a060020a0316331461165d57600080fd5b60005460a060020a900460ff16151561167557600080fd5b6000805474ff0000000000000000000000000000000000000000191681556040517f7805862f689e2f13df9f062ff482ad3ad112aca9e0847911ed832e158c525b339190a1565b6000908152600b60208190526040909120600681015460078201546009830154600a84015494840154600c850154600d9095015493969295919460ff909216939092565b6000818152600b6020908152604080832060018101546002820154600383015460048401546005850154600886015486548851818b0281018b0190995280895260609a998a998a998a998a998a999298600160a060020a0392831698918316979390921695919490939189918301828280156117cf57602002820191906000526020600020906000905b82829054906101000a900467ffffffffffffffff1667ffffffffffffffff168152602001906008019060208260070104928301926001038202915080841161178a5790505b505050505096509650965096509650965096509650919395979092949650565b60005460a060020a900460ff1681565b6000908152600d602052604090208054600182015460028301546003840154600490940154929460ff928316949193919290911690565b60055490565b600054600160a060020a0316331461185357600080fd5b60008054604051600160a060020a03909116917ff8df31144d9c2f0f6b59d69b8b98abd5459d07f2742c4df920b25aae33c6482091a260008054600160a060020a0319169055565b600054600160a060020a031633146118b257600080fd5b60005460a060020a900460ff16156118c957600080fd5b6000805474ff0000000000000000000000000000000000000000191660a060020a1781556040517f6985a02210a168e66602d3235cb6db0e70f92b3ba4d376a33c0f3d9434bff6259190a1565b61191e614fed565b60005460a060020a900460ff161561193557600080fd5b6000838152600a60205260409081902081516101a081019092528054829060ff16600281111561196157fe5b600281111561196c57fe5b81528154602090910190610100900460ff16600281111561198957fe5b600281111561199457fe5b81528154600160a060020a036201000090910481166020808401919091526001840154909116604080840191909152600284015460608401526003840154608084015260048401805482518185028101850190935280835260a0909401939192909190830182828015611a4657602002820191906000526020600020906000905b825461010083900a900460ff161515815260206001928301818104948501949093039092029101808411611a155790505b5050509183525050600582015460209091019060ff166004811115611a6757fe5b6004811115611a7257fe5b815260058201546101009004600160a060020a031660208083019190915260068301546040808401919091526007840180548251818502810185019093528083526060909401939192909190830182828015611b2157602002820191906000526020600020906000905b82829054906101000a900467ffffffffffffffff1667ffffffffffffffff1681526020019060080190602082600701049283019260010382029150808411611adc5790505b5050509183525050600882015460208201526009909101546040909101529050600281516002811115611b5057fe5b14611b5a57600080fd5b600281602001516002811115611b6c57fe5b14611b7657600080fd5b6080810151821115611b8757600080fd5b8060e001516004811115611b9757fe5b60048054604080517f23eee3e6000000000000000000000000000000000000000000000000000000008152339381019390935251600160a060020a03909116916323eee3e69160248083019260209291908290030181600087803b158015611bfe57600080fd5b505af1158015611c12573d6000803e3d6000fd5b505050506040513d6020811015611c2857600080fd5b50516004811115611c3557fe5b1015611c4057600080fd5b6002546040820151600160a060020a039091169063968f600c903390611c6590610c1e565b6040518363ffffffff1660e060020a0281526004018083600160a060020a0316600160a060020a0316815260200182600160a060020a0316600160a060020a0316815260200192505050602060405180830381600087803b158015611cc957600080fd5b505af1158015611cdd573d6000803e3d6000fd5b505050506040513d6020811015611cf357600080fd5b5051158015611d865750600254604080830151815160e260020a6325a3d803028152600160a060020a039182166004820152336024820152915192169163968f600c916044808201926020929091908290030181600087803b158015611d5857600080fd5b505af1158015611d6c573d6000803e3d6000fd5b505050506040513d6020811015611d8257600080fd5b5051155b1515611d9157600080fd5b6002546101008201516040805160e260020a6325a3d803028152600160a060020a0392831660048201523360248201529051919092169163968f600c9160448083019260209291908290030181600087803b158015611def57600080fd5b505af1158015611e03573d6000803e3d6000fd5b505050506040513d6020811015611e1957600080fd5b505115611e2557600080fd5b611e556001611e378360400151610c1e565b848460a001518560c00151600160008060010289610140015161399b565b50611e6783611e62611836565b6123d6565b505050565b600054600160a060020a031681565b60008054600160a060020a03163314611e9357600080fd5b6009548211611ea157600080fd5b60405182907f1bd10793763c43c1a677f0975376032cebc657fd07cfd7c58ded8e8cce79f1c490600090a250600955600190565b600554600090821115611ee757600080fd5b60026000838152600a6020526040902054610100900460ff166002811115611f0b57fe5b14611f1557600080fd5b6000828152600a6020526040902054620100009004600160a060020a03163314611f3e57600080fd5b6001546000838152600a6020908152604080832060080154815160e060020a63a9059cbb02815233600482015260248101919091529051600160a060020a039094169363a9059cbb93604480840194938390030190829087803b158015611fa457600080fd5b505af1158015611fb8573d6000803e3d6000fd5b505050506040513d6020811015611fce57600080fd5b50511515611fdb57600080fd5b6000828152600a6020526040808220805461ff0019166101001790555183917fb8b459bc0688c37baf5f735d17f1711684bc14ab7db116f88bc18bf409b9309a91a2506001919050565b600061202f615057565b6000838152600d6020908152604091829020825160a08101909352805483526001810154909183019060ff16600281111561206657fe5b600281111561207157fe5b8152600282015460208201526003820154604082015260048083015460609092019160ff16908111156120a057fe5b60048111156120ab57fe5b90525080516000908152600b6020526040902060010154909150600160a060020a03163314806120f6575080516000908152600b6020526040902060030154600160a060020a031633145b8061211c575080516000908152600b6020526040902060020154600160a060020a031633145b151561212757600080fd5b60048160800151600481111561213957fe5b141561214457600080fd5b60028160200151600281111561215657fe5b14156121e75780516000908152600b6020526040902060020154600160a060020a03163314156121a1576000838152600d60205260409020600401805460ff191660031790556121be565b6000838152600d60205260409020600401805460ff191660021790555b80516000908152600e60205260408082208290555184916000805160206152b983398151915291a25b6001816020015160028111156121f957fe5b141561228f5780516000908152600b6020526040902060020154600160a060020a0316331415612244576000838152600d60205260409020600401805460ff19166002179055612261565b6000838152600d60205260409020600401805460ff191660031790555b80516000908152600e602052604081206001015560405183906000805160206152b983398151915290600090a25b50600192915050565b6000805460a060020a900460ff16156122b057600080fd5b336122ba81610c1e565b600160a060020a0316146122cd57600080fd5b3360009081526010602052604090205460ff16156122ea57600080fd5b81600160a060020a03166122fd83610c1e565b600160a060020a03161461231057600080fd5b600160a060020a0382166000818152601160209081526040808320338085529252808320805460ff191660011790555190917fe398d33bf7e881cdfc9f34c743822904d4e45a0be0db740dd88cb132e4ce2ed991a3506001919050565b600a602052600090815260409020805460018201546002830154600384015460058501546006860154600887015460099097015460ff80881698610100808a04831699600160a060020a036201000090910481169981169897969384169591909304909216928b565b6123de614fed565b6123e6614fed565b60008054819081908190819060a060020a900460ff161561240657600080fd5b6000898152600a60205260409081902081516101a081019092528054829060ff16600281111561243257fe5b600281111561243d57fe5b81528154602090910190610100900460ff16600281111561245a57fe5b600281111561246557fe5b81528154600160a060020a036201000090910481166020808401919091526001840154909116604080840191909152600284015460608401526003840154608084015260048401805482518185028101850190935280835260a090940193919290919083018282801561251757602002820191906000526020600020906000905b825461010083900a900460ff1615158152602060019283018181049485019490930390920291018084116124e65790505b5050509183525050600582015460209091019060ff16600481111561253857fe5b600481111561254357fe5b815260058201546101009004600160a060020a0316602080830191909152600683015460408084019190915260078401805482518185028101850190935280835260609094019391929091908301828280156125f257602002820191906000526020600020906000905b82829054906101000a900467ffffffffffffffff1667ffffffffffffffff16815260200190600801906020826007010492830192600103820291508084116125ad5790505b5050509183525050600882015460208083019190915260099092015460409182015260008b8152600a9092529081902081516101a0810190925280549299509091829060ff16600281111561264357fe5b600281111561264e57fe5b81528154602090910190610100900460ff16600281111561266b57fe5b600281111561267657fe5b81528154600160a060020a036201000090910481166020808401919091526001840154909116604080840191909152600284015460608401526003840154608084015260048401805482518185028101850190935280835260a090940193919290919083018282801561272857602002820191906000526020600020906000905b825461010083900a900460ff1615158152602060019283018181049485019490930390920291018084116126f75790505b5050509183525050600582015460209091019060ff16600481111561274957fe5b600481111561275457fe5b815260058201546101009004600160a060020a03166020808301919091526006830154604080840191909152600784018054825181850281018501909352808352606090940193919290919083018282801561280357602002820191906000526020600020906000905b82829054906101000a900467ffffffffffffffff1667ffffffffffffffff16815260200190600801906020826007010492830192600103820291508084116127be5790505b505050918352505060088201546020820152600990910154604090910152955060028760200151600281111561283557fe5b148015612851575060028660200151600281111561284f57fe5b145b151561285c57600080fd5b6060870151600160a060020a03161580612897575061287e8660400151610c1e565b600160a060020a03168760600151600160a060020a0316145b15156128a257600080fd5b6060860151600160a060020a031615806128dd57506128c48760400151610c1e565b600160a060020a03168660600151600160a060020a0316145b15156128e857600080fd5b6002875160028111156128f757fe5b1461290157600080fd5b60018651600281111561291057fe5b1461291a57600080fd5b6002546101008701516040890151600160a060020a039092169163968f600c919061294490610c1e565b6040518363ffffffff1660e060020a0281526004018083600160a060020a0316600160a060020a0316815260200182600160a060020a0316600160a060020a0316815260200192505050602060405180830381600087803b1580156129a857600080fd5b505af11580156129bc573d6000803e3d6000fd5b505050506040513d60208110156129d257600080fd5b5051156129de57600080fd5b6002546101008701516040808a0151815160e260020a6325a3d803028152600160a060020a03938416600482015290831660248201529051919092169163968f600c9160448083019260209291908290030181600087803b158015612a4257600080fd5b505af1158015612a56573d6000803e3d6000fd5b505050506040513d6020811015612a6c57600080fd5b505115612a7857600080fd5b60025460408088015190890151600160a060020a039092169163968f600c9190612aa190610c1e565b6040518363ffffffff1660e060020a0281526004018083600160a060020a0316600160a060020a0316815260200182600160a060020a0316600160a060020a0316815260200192505050602060405180830381600087803b158015612b0557600080fd5b505af1158015612b19573d6000803e3d6000fd5b505050506040513d6020811015612b2f57600080fd5b505115612b3b57600080fd5b60025460408088015189820151825160e260020a6325a3d803028152600160a060020a0392831660048201529082166024820152915192169163968f600c916044808201926020929091908290030181600087803b158015612b9c57600080fd5b505af1158015612bb0573d6000803e3d6000fd5b505050506040513d6020811015612bc657600080fd5b505115612bd257600080fd5b600254610100880151604080890151815160e260020a6325a3d803028152600160a060020a03938416600482015290831660248201529051919092169163968f600c9160448083019260209291908290030181600087803b158015612c3657600080fd5b505af1158015612c4a573d6000803e3d6000fd5b505050506040513d6020811015612c6057600080fd5b505115612c6c57600080fd5b6002546040880151600160a060020a039091169063968f600c90612c8f90610c1e565b6040808a0151815160e060020a63ffffffff8616028152600160a060020a039384166004820152921660248301525160448083019260209291908290030181600087803b158015612cdf57600080fd5b505af1158015612cf3573d6000803e3d6000fd5b505050506040513d6020811015612d0957600080fd5b505115612d1557600080fd5b60025460408089015188820151825160e260020a6325a3d803028152600160a060020a0392831660048201529082166024820152915192169163968f600c916044808201926020929091908290030181600087803b158015612d7657600080fd5b505af1158015612d8a573d6000803e3d6000fd5b505050506040513d6020811015612da057600080fd5b505115612dac57600080fd5b60a080870151908801511115612dc157600080fd5b608080870151908801511015612dd657600080fd5b8660e001516004811115612de657fe5b600480546040808a015181517f23eee3e6000000000000000000000000000000000000000000000000000000008152600160a060020a039182169481019490945290519116916323eee3e69160248083019260209291908290030181600087803b158015612e5357600080fd5b505af1158015612e67573d6000803e3d6000fd5b505050506040513d6020811015612e7d57600080fd5b50516004811115612e8a57fe5b1015612e9557600080fd5b8560e001516004811115612ea557fe5b600480546040808b015181517f23eee3e6000000000000000000000000000000000000000000000000000000008152600160a060020a039182169481019490945290519116916323eee3e69160248083019260209291908290030181600087803b158015612f1257600080fd5b505af1158015612f26573d6000803e3d6000fd5b505050506040513d6020811015612f3c57600080fd5b50516004811115612f4957fe5b1015612f5457600080fd5b6009548760c00151511015612f7657612f708760c00151613e6b565b60c08801525b6009548660c00151511015612f9857612f928760c00151613e6b565b60c08701525b600094505b8660c0015151851015612ffe5760c0860151805186908110612fbb57fe5b906020019060200201511580612fe8575060c0870151805186908110612fdd57fe5b906020019060200201515b1515612ff357600080fd5b600190940193612f9d565b6008548761014001515110156130235761301c876101400151613ef5565b6101408801525b60085486610140015151101561304857613041866101400151613ef5565b6101408701525b600094505b866101400151518510156130be5761014086015180518690811061306d57fe5b9060200190602002015167ffffffffffffffff168761014001518681518110151561309457fe5b6020908102909101015167ffffffffffffffff1610156130b357600080fd5b60019094019361304d565b6006546130d290600163ffffffff613e5e16565b60065560408701516130e390610c1e565b60008a8152600a6020526040808220805461010061ff0019918216811783558d855283852080549092161781556006546009928301819055910155519195508a917fb8b459bc0688c37baf5f735d17f1711684bc14ab7db116f88bc18bf409b9309a9190a260405188907fb8b459bc0688c37baf5f735d17f1711684bc14ab7db116f88bc18bf409b9309a90600090a26080870151429350600092501561319d57608086015161319a90849063ffffffff613e5e16565b91505b85610160015190506101c06040519081016040528088610140015181526020018860400151600160a060020a031681526020018760400151600160a060020a0316815260200185600160a060020a031681526020018a8152602001898152602001876080015181526020018860a0015181526020018481526020018381526020016001600281111561322b57fe5b81526020018281526020016000815260200142815250600b600060065481526020019081526020016000206000820151816000019080519060200190613272929190615083565b50602082015160018281018054600160a060020a0319908116600160a060020a0394851617909155604085015160028086018054841692861692909217909155606086015160038601805490931694169390931790556080840151600484015560a0840151600584015560c0840151600684015560e0840151600784015561010084015160088401556101208401516009840155610140840151600a840180549193909260ff199092169190849081111561332957fe5b0217905550610160820151600b820155610180820151600c8201556101a090910151600d909101556006546040517fb9ffc65567b7238dd641372277b8c93ed03df73945932dd84fd3cbb33f3eddbf90600090a2505050505050505050565b60075490565b600054600160a060020a031633146133a557600080fd5b60015460008054604080517f70a082310000000000000000000000000000000000000000000000000000000081523060048201529051600160a060020a039485169463a9059cbb9493169285926370a082319260248083019360209383900390910190829087803b15801561341957600080fd5b505af115801561342d573d6000803e3d6000fd5b505050506040513d602081101561344357600080fd5b50516040805160e060020a63ffffffff8616028152600160a060020a03909316600484015260248301919091525160448083019260209291908290030181600087803b15801561349257600080fd5b505af11580156134a6573d6000803e3d6000fd5b505050506040513d60208110156134bc57600080fd5b5050600054600160a060020a0316ff5b60006134d782613f7d565b5061228f82614670565b600060016000848152600b60205260409020600a015460ff16600281111561350557fe5b1461350f57600080fd5b6000838152600b6020526040902060010154600160a060020a031633148061355057506000838152600b6020526040902060020154600160a060020a031633145b8061357457506000838152600b6020526040902060030154600160a060020a031633145b151561357f57600080fd5b6000838152600b6020526040902060068101546008909101546135a79163ffffffff613e5e16565b42116135d3576000838152600b6020526040902060020154600160a060020a031633146135d357600080fd5b6135dd8383614ab2565b6135e683613f7d565b506135f083614c87565b6135f983614d9e565b50600190505b92915050565b6000805460a060020a900460ff161561361d57600080fd5b81600160a060020a031661363084610c1e565b600160a060020a0316148015613660575033600160a060020a0384161480613660575033600160a060020a038316145b151561366b57600080fd5b600160a060020a038084166000818152600f60205260408082208054600160a060020a031916905551928516927f7822736ed69a5fe0ad6dc2c6669e8053495d711118e5435b047f9b83deda4c379190a350600192915050565b60008054600160a060020a031633146136dd57600080fd5b5060028054600160a060020a038316600160a060020a03199091161790556001919050565b60095490565b60008060008060006060600080600060606000613723614fed565b60008d8152600a60205260409081902081516101a081019092528054829060ff16600281111561374f57fe5b600281111561375a57fe5b81528154602090910190610100900460ff16600281111561377757fe5b600281111561378257fe5b81528154600160a060020a036201000090910481166020808401919091526001840154909116604080840191909152600284015460608401526003840154608084015260048401805482518185028101850190935280835260a090940193919290919083018282801561383457602002820191906000526020600020906000905b825461010083900a900460ff1615158152602060019283018181049485019490930390920291018084116138035790505b5050509183525050600582015460209091019060ff16600481111561385557fe5b600481111561386057fe5b815260058201546101009004600160a060020a03166020808301919091526006830154604080840191909152600784018054825181850281018501909352808352606090940193919290919083018282801561390f57602002820191906000526020600020906000905b82829054906101000a900467ffffffffffffffff1667ffffffffffffffff16815260200190600801906020826007010492830192600103820291508084116138ca5790505b5050505050815260200160088201548152602001600982015481525050905080600001518160400151826060015183608001518460a001518560c001518660e001518761010001518861012001518961014001518a61016001518595508191509b509b509b509b509b509b509b509b509b509b509b505091939597999b90929496989a50565b60065490565b6000805481908190819060a060020a900460ff16156139b957600080fd5b60018860048111156139c757fe5b10156139d257600080fd5b600954895111156139e257600080fd5b600854855111156139f257600080fd5b600092505b8451831015613a40576780000000000000008584815181101515613a1757fe5b6020908102909101015167ffffffffffffffff1610613a3557600080fd5b6001909201916139f7565b6000915060018d6002811115613a5257fe5b1415613b41578a1515613a7257613a6b8a610e10614e69565b9150613a97565b620151808b1015613a8757613a6b8a8c614e69565b613a948a62015180614e69565b91505b600154604080517f23b872dd000000000000000000000000000000000000000000000000000000008152336004820152306024820152604481018590529051600160a060020a03909216916323b872dd916064808201926020929091908290030181600087803b158015613b0a57600080fd5b505af1158015613b1e573d6000803e3d6000fd5b505050506040513d6020811015613b3457600080fd5b50511515613b4157600080fd5b600554613b5590600163ffffffff613e5e16565b6005819055604080516101a08101909152909150808e6002811115613b7657fe5b81526020016002815260200133600160a060020a031681526020018d600160a060020a031681526020018c81526020018b81526020018a8152602001896004811115613bbe57fe5b8152600160a060020a03891660208083019190915260408083018a90526060830189905260808301869052600060a0909301839052848352600a909152902081518154829060ff19166001836002811115613c1557fe5b021790555060208201518154829061ff001916610100836002811115613c3757fe5b02179055506040820151815475ffffffffffffffffffffffffffffffffffffffff0000191662010000600160a060020a03928316021782556060830151600183018054600160a060020a031916919092161790556080820151600282015560a0820151600382015560c08201518051613cba91600484019160209091019061513e565b5060e082015160058201805460ff19166001836004811115613cd857fe5b02179055506101008281015160058301805474ffffffffffffffffffffffffffffffffffffffff001916600160a060020a0390921690920217905561012082015160068201556101408201518051613d3a916007840191602090910190615083565b5061016082015160088201556101809091015160099091015560405181907fffa896d8919f0556f53ace1395617969a3b53ab5271a085e28ac0c4a3724e63d90600090a29c9b505050505050505050505050565b60008054600160a060020a03163314613da657600080fd5b6008548211613db457600080fd5b60405182907f1acf16d0a0451282e1d2cac3f5473ca7c931bcda610ff6e061041af50e2abc1390600090a250600855600190565b60008054600160a060020a03163314613e0057600080fd5b5060048054600160a060020a038316600160a060020a03199091161790556001919050565b600054600160a060020a03163314613e3c57600080fd5b613e4581614f2d565b50565b6000908152600b60205260409020600601541590565b818101828110156135ff57fe5b6060806000600954604051908082528060200260200182016040528015613e9c578160200160208202803883390190505b509150600090505b8351811015613eea578381815181101515613ebb57fe5b906020019060200201518282815181101515613ed357fe5b911515602092830290910190910152600101613ea4565b8192505b5050919050565b6060806000600854604051908082528060200260200182016040528015613f26578160200160208202803883390190505b509150600090505b8351811015613eea578381815181101515613f4557fe5b906020019060200201518282815181101515613f5d57fe5b67ffffffffffffffff909216602092830290910190910152600101613f2e565b6000613f876151df565b600060016000858152600b60205260409020600a015460ff166002811115613fab57fe5b14613fb557600080fd5b6000848152600b6020526040902060010154600160a060020a0316331480613ff657506000848152600b6020526040902060020154600160a060020a031633145b8061401a57506000848152600b6020526040902060030154600160a060020a031633145b151561402557600080fd5b6000848152600b6020908152604091829020825181546101e0938102820184019094526101c0810184815290939192849284918401828280156140bb57602002820191906000526020600020906000905b82829054906101000a900467ffffffffffffffff1667ffffffffffffffff16815260200190600801906020826007010492830192600103820291508084116140765790505b50505091835250506001820154600160a060020a039081166020830152600280840154821660408401526003840154909116606083015260048301546080830152600583015460a0830152600683015460c0830152600783015460e083015260088301546101008301526009830154610120830152600a8301546101409092019160ff169081111561414957fe5b600281111561415457fe5b8152602001600b8201548152602001600c8201548152602001600d82015481525050915061418184613e48565b1580156141985750816101200151826101a0015110155b156141a65760019250613eee565b6141af84613e48565b1580156141c0575081610120015142115b80156141d55750816101200151826101a00151105b1561420b576142048260e001516141ff846101a00151856101200151614f9d90919063ffffffff16565b614e69565b905061422e565b61422b8260e001516141ff846101a0015142614f9d90919063ffffffff16565b90505b8161016001518111156145375761016082015161425290829063ffffffff614f9d16565b60015460408085015181517f70a08231000000000000000000000000000000000000000000000000000000008152600160a060020a03918216600482015291519216916370a08231916024808201926020929091908290030181600087803b1580156142bd57600080fd5b505af11580156142d1573d6000803e3d6000fd5b505050506040513d60208110156142e757600080fd5b5051106143ff576001546040830151610160840151600160a060020a03909216916323b872dd9190309061432290869063ffffffff614f9d16565b6040805160e060020a63ffffffff8716028152600160a060020a0394851660048201529290931660248301526044820152905160648083019260209291908290030181600087803b15801561437657600080fd5b505af115801561438a573d6000803e3d6000fd5b505050506040513d60208110156143a057600080fd5b505115156143ad57600080fd5b6143e76143c883610160015183614f9d90919063ffffffff16565b6000868152600b6020819052604090912001549063ffffffff613e5e16565b6000858152600b602081905260409091200155614537565b6000848152600b60208190526040808320909101549051909186917f51f87cd83a2ce6c4ff7957861f7aba400dc3857d2325e0c94cc69f468874515c9190a361444784614c87565b60015460608301516101608401516040805160e060020a63a9059cbb028152600160a060020a039384166004820152602481019290925251919092169163a9059cbb9160448083019260209291908290030181600087803b1580156144ab57600080fd5b505af11580156144bf573d6000803e3d6000fd5b505050506040513d60208110156144d557600080fd5b505115156144e257600080fd5b6000848152600b6020526040902042600d820155610160830151600c909101546145119163ffffffff613e5e16565b6000858152600b602081905260408220600c810193909355919091015560019250613eee565b60015460608301516040805160e060020a63a9059cbb028152600160a060020a039283166004820152602481018590529051919092169163a9059cbb9160448083019260209291908290030181600087803b15801561459557600080fd5b505af11580156145a9573d6000803e3d6000fd5b505050506040513d60208110156145bf57600080fd5b505115156145cc57600080fd5b6000848152600b6020819052604090912001546145ef908263ffffffff614f9d16565b6000858152600b6020819052604090912090810191909155600c015461461b908263ffffffff613e5e16565b6000858152600b6020526040808220600c81019390935542600d909301929092559051829186917f51f87cd83a2ce6c4ff7957861f7aba400dc3857d2325e0c94cc69f468874515c9190a35060019392505050565b60008061467b6151df565b6000848152600b60209081526040808320815181546101e0948102820185019093526101c0810183815290939192849284919084018282801561471157602002820191906000526020600020906000905b82829054906101000a900467ffffffffffffffff1667ffffffffffffffff16815260200190600801906020826007010492830192600103820291508084116146cc5790505b50505091835250506001820154600160a060020a039081166020830152600280840154821660408401526003840154909116606083015260048301546080830152600583015460a0830152600683015460c0830152600783015460e083015260088301546101008301526009830154610120830152600a8301546101409092019160ff169081111561479f57fe5b60028111156147aa57fe5b8152602001600b8201548152602001600c8201548152602001600d8201548152505091506147d785613e48565b1561480857600282610140015160028111156147ef57fe5b14156147fe5760019350614aaa565b610e109250614863565b81610120015142111561481e5760019350614aaa565b6101208201516201518090614839904263ffffffff614f9d16565b101561485c57610120820151614855904263ffffffff614f9d16565b9250614863565b6201518092505b6000858152600b60208190526040909120015460e08301516148859085614e69565b1115614aa5576148bf600b6000878152602001908152602001600020600b01546148b38460e0015186614e69565b9063ffffffff614f9d16565b60015460408085015181517f70a08231000000000000000000000000000000000000000000000000000000008152600160a060020a039182166004820152915193945084939216916370a08231916024808201926020929091908290030181600087803b15801561492f57600080fd5b505af1158015614943573d6000803e3d6000fd5b505050506040513d602081101561495957600080fd5b505110614a4a5760015460408084015181517f23b872dd000000000000000000000000000000000000000000000000000000008152600160a060020a0391821660048201523060248201526044810185905291519216916323b872dd916064808201926020929091908290030181600087803b1580156149d857600080fd5b505af11580156149ec573d6000803e3d6000fd5b505050506040513d6020811015614a0257600080fd5b50511515614a0f57600080fd5b6000858152600b602081905260409091200154614a32908263ffffffff613e5e16565b6000868152600b602081905260409091200155614aa5565b6000858152600b60208190526040808320909101549051909187917f51f87cd83a2ce6c4ff7957861f7aba400dc3857d2325e0c94cc69f468874515c9190a3614a9285614c87565b614a9b85614d9e565b5060019350614aaa565b600193505b505050919050565b6000828152600b6020526040902060020154600160a060020a0316331480614ae557506000816002811115614ae357fe5b145b1515614af057600080fd5b6001816002811115614afe57fe5b1415614bbc57600280546000848152600b602090815260408083209485015460019095015481517f473b736f000000000000000000000000000000000000000000000000000000008152600160a060020a03968716600482015290861660248201529051949093169363473b736f93604480820194918390030190829087803b158015614b8a57600080fd5b505af1158015614b9e573d6000803e3d6000fd5b505050506040513d6020811015614bb457600080fd5b50614c839050565b6002816002811115614bca57fe5b1415614c8357600280546000848152600b602090815260408083209485015460039095015481517f473b736f000000000000000000000000000000000000000000000000000000008152600160a060020a03968716600482015290861660248201529051949093169363473b736f93604480820194918390030190829087803b158015614c5657600080fd5b505af1158015614c6a573d6000803e3d6000fd5b505050506040513d6020811015614c8057600080fd5b50505b5050565b60026000828152600b60205260409020600a015460ff166002811115614ca957fe5b1415614cb457613e45565b60016000828152600b60205260409020600a015460ff166002811115614cd657fe5b14614ce057600080fd5b6000818152600b6020526040902060020154600160a060020a0316331480614d2157506000818152600b6020526040902060010154600160a060020a031633145b80614d4557506000818152600b6020526040902060030154600160a060020a031633145b1515614d5057600080fd5b6000818152600b6020526040808220600a8101805460ff19166002179055426009909101555182917f0b27183934cfdbeb1fbbe288c2e163ed7aa8f458a954054970f78446bccb36e091a250565b6000818152600b602081905260408220015415614e61576001546000838152600b602081815260408084206002810154930154815160e060020a63a9059cbb028152600160a060020a03948516600482015260248101919091529051929094169363a9059cbb93604480830194928390030190829087803b158015614e2257600080fd5b505af1158015614e36573d6000803e3d6000fd5b505050506040513d6020811015614e4c57600080fd5b50506000828152600b60208190526040822001555b506001919050565b600080600360009054906101000a9004600160a060020a0316600160a060020a031663eb91d37e6040518163ffffffff1660e060020a028152600401602060405180830381600087803b158015614ebf57600080fd5b505af1158015614ed3573d6000803e3d6000fd5b505050506040513d6020811015614ee957600080fd5b50519050614f25670de0b6b3a7640000614f1985614f0d858963ffffffff614faf16565b9063ffffffff614faf16565b9063ffffffff614fd816565b949350505050565b600160a060020a0381161515614f4257600080fd5b60008054604051600160a060020a03808516939216917f8be0079c531659141344cd1fd0a4f28419497f9722a3daafe3b4186f6b6457e091a360008054600160a060020a031916600160a060020a0392909216919091179055565b600082821115614fa957fe5b50900390565b6000821515614fc0575060006135ff565b50818102818382811515614fd057fe5b04146135ff57fe5b60008183811515614fe557fe5b049392505050565b604080516101a081019091528060008152602001600081526000602082018190526040820181905260608083018290526080830182905260a083015260c0909101908152600060208201819052604082018190526060808301526080820181905260a09091015290565b6040805160a0810182526000808252602082018190529181018290526060810182905290608082015290565b8280548282559060005260206000209060030160049004810192821561512e5791602002820160005b838211156150f857835183826101000a81548167ffffffffffffffff021916908367ffffffffffffffff16021790555092602001926008016020816007010492830192600103026150ac565b801561512c5782816101000a81549067ffffffffffffffff02191690556008016020816007010492830192600103026150f8565b505b5061513a929150615275565b5090565b82805482825590600052602060002090601f016020900481019282156151d35791602002820160005b838211156151a457835183826101000a81548160ff0219169083151502179055509260200192600101602081600001049283019260010302615167565b80156151d15782816101000a81549060ff02191690556001016020816000010492830192600103026151a4565b505b5061513a92915061529a565b6101c060405190810160405280606081526020016000600160a060020a031681526020016000600160a060020a031681526020016000600160a060020a031681526020016000815260200160008152602001600081526020016000815260200160008152602001600081526020016000600281111561525a57fe5b81526020016000815260200160008152602001600081525090565b610c9091905b8082111561513a57805467ffffffffffffffff1916815560010161527b565b610c9091905b8082111561513a57805460ff191681556001016152a056004b92d35447745e95b7344414a41ae94984787d0ebcd2c12021169197bb59af39a165627a7a7230582015a4481d4af7f0151be2d0d778f76077b36f1b7a02879809dae626a9c6ceaef60029",
  "source": "pragma solidity ^0.4.23;\n\n\nimport \"zeppelin-solidity/contracts/ownership/Ownable.sol\";\nimport \"zeppelin-solidity/contracts/lifecycle/Pausable.sol\";\nimport \"./SNM.sol\";\nimport \"./Blacklist.sol\";\nimport \"./OracleUSD.sol\";\nimport \"./ProfileRegistry.sol\";\n\n\ncontract Market is Ownable, Pausable {\n\n    using SafeMath for uint256;\n\n    // DECLARATIONS\n\n    enum DealStatus{\n        STATUS_UNKNOWN,\n        STATUS_ACCEPTED,\n        STATUS_CLOSED\n    }\n\n    enum OrderType {\n        ORDER_UNKNOWN,\n        ORDER_BID,\n        ORDER_ASK\n    }\n\n    enum OrderStatus {\n        UNKNOWN,\n        ORDER_INACTIVE,\n        ORDER_ACTIVE\n    }\n\n    enum RequestStatus {\n        REQUEST_UNKNOWN,\n        REQUEST_CREATED,\n        REQUEST_CANCELED,\n        REQUEST_REJECTED,\n        REQUEST_ACCEPTED\n    }\n\n    enum BlacklistPerson {\n        BLACKLIST_NOBODY,\n        BLACKLIST_WORKER,\n        BLACKLIST_MASTER\n    }\n\n    struct Deal {\n        uint64[] benchmarks;\n        address supplierID;\n        address consumerID;\n        address masterID;\n        uint askID;\n        uint bidID;\n        uint duration;\n        uint price; //usd * 10^-18\n        uint startTime;\n        uint endTime;\n        DealStatus status;\n        uint blockedBalance;\n        uint totalPayout;\n        uint lastBillTS;\n    }\n\n    struct Order {\n        OrderType orderType;\n        OrderStatus orderStatus;\n        address author;\n        address counterparty;\n        uint duration;\n        uint256 price;\n        bool[] netflags;\n        ProfileRegistry.IdentityLevel identityLevel;\n        address blacklist;\n        bytes32 tag;\n        uint64[] benchmarks;\n        uint frozenSum;\n        uint dealID;\n    }\n\n    struct ChangeRequest {\n        uint dealID;\n        OrderType requestType;\n        uint price;\n        uint duration;\n        RequestStatus status;\n    }\n\n    // EVENTS\n\n    event OrderPlaced(uint indexed orderID);\n    event OrderUpdated(uint indexed orderID);\n\n    event DealOpened(uint indexed dealID);\n    event DealUpdated(uint indexed dealID);\n\n    event Billed(uint indexed dealID, uint indexed paidAmount);\n\n    event DealChangeRequestSet(uint indexed changeRequestID);\n    event DealChangeRequestUpdated(uint indexed changeRequestID);\n\n    event WorkerAnnounced(address indexed worker, address indexed master);\n    event WorkerConfirmed(address indexed worker, address indexed master);\n    event WorkerRemoved(address indexed worker, address indexed master);\n\n    event NumBenchmarksUpdated(uint indexed newNum);\n    event NumNetflagsUpdated(uint indexed newNum);\n\n    // VARS\n\n    uint constant MAX_BENCHMARKS_VALUE = 2 ** 63;\n\n    SNM token;\n\n    Blacklist bl;\n\n    OracleUSD oracle;\n\n    ProfileRegistry pr;\n\n    uint ordersAmount = 0;\n\n    uint dealAmount = 0;\n\n    uint requestsAmount = 0;\n\n    // current length of benchmarks\n    uint benchmarksQuantity;\n\n    // current length of netflags\n    uint netflagsQuantity;\n\n    mapping(uint => Order) public orders;\n\n    mapping(uint => Deal) public deals;\n\n    mapping(address => uint[]) dealsID;\n\n    mapping(uint => ChangeRequest) requests;\n\n    mapping(uint => uint[2]) actualRequests;\n\n    mapping(address => address) masterOf;\n\n    mapping(address => bool) isMaster;\n\n    mapping(address => mapping(address => bool)) masterRequest;\n\n    // INIT\n\n    constructor(address _token,\n                address _blacklist,\n                address _oracle,\n                address _profileRegistry,\n                uint _benchmarksQuantity,\n                uint _netflagsQuantity\n    ) public {\n        token = SNM(_token);\n        bl = Blacklist(_blacklist);\n        oracle = OracleUSD(_oracle);\n        pr = ProfileRegistry(_profileRegistry);\n        benchmarksQuantity = _benchmarksQuantity;\n        netflagsQuantity = _netflagsQuantity;\n    }\n\n    // EXTERNAL\n\n    // Order functions\n\n    function PlaceOrder(\n        OrderType _orderType,\n        address _id_counterparty,\n        uint _duration,\n        uint _price,\n        bool[] _netflags,\n        ProfileRegistry.IdentityLevel _identityLevel,\n        address _blacklist,\n        bytes32 _tag,\n        uint64[] _benchmarks\n    ) public whenNotPaused returns (uint){\n\n        require(_identityLevel >= ProfileRegistry.IdentityLevel.ANONYMOUS);\n        require(_netflags.length <= netflagsQuantity);\n        require(_benchmarks.length <= benchmarksQuantity);\n\n        for (uint i = 0; i < _benchmarks.length; i++) {\n            require(_benchmarks[i] < MAX_BENCHMARKS_VALUE);\n        }\n\n        uint lockedSum = 0;\n\n        if (_orderType == OrderType.ORDER_BID) {\n            if (_duration == 0) {\n                lockedSum = CalculatePayment(_price, 1 hours);\n            } else if (_duration < 1 days) {\n                lockedSum = CalculatePayment(_price, _duration);\n            } else {\n                lockedSum = CalculatePayment(_price, 1 days);\n            }\n            // this line contains err.\n            require(token.transferFrom(msg.sender, this, lockedSum));\n        }\n\n        ordersAmount = ordersAmount.add(1);\n        uint256 orderId = ordersAmount;\n\n        orders[orderId] = Order(\n            _orderType,\n            OrderStatus.ORDER_ACTIVE,\n            msg.sender,\n            _id_counterparty,\n            _duration,\n            _price,\n            _netflags,\n            _identityLevel,\n            _blacklist,\n            _tag,\n            _benchmarks,\n            lockedSum,\n            0\n        );\n\n        emit OrderPlaced(orderId);\n        return orderId;\n    }\n\n    function CancelOrder(uint orderID) public returns (bool){\n        require(orderID <= ordersAmount);\n        require(orders[orderID].orderStatus == OrderStatus.ORDER_ACTIVE);\n        require(orders[orderID].author == msg.sender);\n\n        require(token.transfer(msg.sender, orders[orderID].frozenSum));\n        orders[orderID].orderStatus = OrderStatus.ORDER_INACTIVE;\n\n        emit OrderUpdated(orderID);\n        return true;\n    }\n\n    function QuickBuy(uint askID, uint buyoutDuration) public whenNotPaused {\n        Order memory ask = orders[askID];\n        require(ask.orderType == OrderType.ORDER_ASK);\n        require(ask.orderStatus == OrderStatus.ORDER_ACTIVE);\n\n        require(ask.duration >= buyoutDuration);\n        require(pr.GetProfileLevel(msg.sender) >= ask.identityLevel);\n        require(bl.Check(msg.sender, GetMaster(ask.author)) == false && bl.Check(ask.author, msg.sender) == false);\n        require(bl.Check(ask.blacklist, msg.sender) == false);\n\n        PlaceOrder(\n            OrderType.ORDER_BID,\n            GetMaster(ask.author),\n            buyoutDuration,\n            ask.price,\n            ask.netflags,\n            ProfileRegistry.IdentityLevel.ANONYMOUS,\n            address(0),\n            bytes32(0),\n            ask.benchmarks);\n\n        OpenDeal(askID, GetOrdersAmount());\n    }\n\n    // Deal functions\n\n    function OpenDeal(uint _askID, uint _bidID) public whenNotPaused {\n        Order memory ask = orders[_askID];\n        Order memory bid = orders[_bidID];\n\n        require(ask.orderStatus == OrderStatus.ORDER_ACTIVE && bid.orderStatus == OrderStatus.ORDER_ACTIVE);\n        require(ask.counterparty == 0x0 || ask.counterparty == GetMaster(bid.author));\n        require(bid.counterparty == 0x0 || bid.counterparty == GetMaster(ask.author));\n        require(ask.orderType == OrderType.ORDER_ASK);\n        require(bid.orderType == OrderType.ORDER_BID);\n        require(bl.Check(bid.blacklist, GetMaster(ask.author)) == false);\n        require(bl.Check(bid.blacklist, ask.author) == false);\n        require(bl.Check(bid.author, GetMaster(ask.author)) == false);\n        require(bl.Check(bid.author, ask.author) == false);\n        require(bl.Check(ask.blacklist, bid.author) == false);\n        require(bl.Check(GetMaster(ask.author), bid.author) == false);\n        require(bl.Check(ask.author, bid.author) == false);\n        require(ask.price <= bid.price);\n        require(ask.duration >= bid.duration);\n        // profile level check\n        require(pr.GetProfileLevel(bid.author) >= ask.identityLevel);\n        require(pr.GetProfileLevel(ask.author) >= bid.identityLevel);\n\n        if (ask.netflags.length < netflagsQuantity) {\n            ask.netflags = ResizeNetflags(ask.netflags);\n        }\n\n        if (bid.netflags.length < netflagsQuantity) {\n            bid.netflags = ResizeNetflags(ask.netflags);\n        }\n\n        for (uint i = 0; i < ask.netflags.length; i++) {\n            // implementation: when bid contains requirement, ask necessary needs to have this\n            // if ask have this one - pass\n            require(!bid.netflags[i] || ask.netflags[i]);\n        }\n\n        if (ask.benchmarks.length < benchmarksQuantity) {\n            ask.benchmarks = ResizeBenchmarks(ask.benchmarks);\n        }\n\n        if (bid.benchmarks.length < benchmarksQuantity) {\n            bid.benchmarks = ResizeBenchmarks(bid.benchmarks);\n        }\n\n        for (i = 0; i < ask.benchmarks.length; i++) {\n            require(ask.benchmarks[i] >= bid.benchmarks[i]);\n        }\n\n        dealAmount = dealAmount.add(1);\n        address master = GetMaster(ask.author);\n        orders[_askID].orderStatus = OrderStatus.ORDER_INACTIVE;\n        orders[_bidID].orderStatus = OrderStatus.ORDER_INACTIVE;\n        orders[_askID].dealID = dealAmount;\n        orders[_bidID].dealID = dealAmount;\n\n        emit OrderUpdated(_askID);\n        emit OrderUpdated(_bidID);\n\n        uint startTime = block.timestamp;\n        uint endTime = 0;\n        // `0` - for spot deal\n\n        // if deal is normal\n        if (ask.duration != 0) {\n            endTime = startTime.add(bid.duration);\n        }\n        uint blockedBalance = bid.frozenSum;\n        deals[dealAmount] = Deal(\n            ask.benchmarks,\n            ask.author,\n            bid.author,\n            master,\n            _askID,\n            _bidID,\n            bid.duration,\n            ask.price,\n            startTime,\n            endTime,\n            DealStatus.STATUS_ACCEPTED,\n            blockedBalance,\n            0,\n            block.timestamp\n        );\n        emit DealOpened(dealAmount);\n    }\n\n    function CloseDeal(uint dealID, BlacklistPerson blacklisted) public returns (bool){\n        require((deals[dealID].status == DealStatus.STATUS_ACCEPTED));\n        require(msg.sender == deals[dealID].supplierID || msg.sender == deals[dealID].consumerID || msg.sender == deals[dealID].masterID);\n\n        if (block.timestamp <= deals[dealID].startTime.add(deals[dealID].duration)) {\n            // after endTime\n            require(deals[dealID].consumerID == msg.sender);\n        }\n        AddToBlacklist(dealID, blacklisted);\n        InternalBill(dealID);\n        InternalCloseDeal(dealID);\n        RefundRemainingFunds(dealID);\n        return true;\n    }\n\n    function Bill(uint dealID) public returns (bool){\n        InternalBill(dealID);\n        ReserveNextPeriodFunds(dealID);\n        return true;\n    }\n\n    function CreateChangeRequest(uint dealID, uint newPrice, uint newDuration) public returns (uint changeRequestID) {\n        require(msg.sender == deals[dealID].consumerID || msg.sender == deals[dealID].masterID || msg.sender == deals[dealID].supplierID);\n        require(deals[dealID].status == DealStatus.STATUS_ACCEPTED);\n\n        if (IsSpot(dealID)) {\n            require(newDuration == 0);\n        }\n\n        requestsAmount = requestsAmount.add(1);\n\n        OrderType requestType;\n\n        if (msg.sender == deals[dealID].consumerID) {\n            requestType = OrderType.ORDER_BID;\n        } else {\n            requestType = OrderType.ORDER_ASK;\n        }\n\n        requests[requestsAmount] = ChangeRequest(dealID, requestType, newPrice, newDuration, RequestStatus.REQUEST_CREATED);\n        emit DealChangeRequestSet(requestsAmount);\n\n        if (requestType == OrderType.ORDER_BID) {\n            emit DealChangeRequestUpdated(actualRequests[dealID][1]);\n            requests[actualRequests[dealID][1]].status = RequestStatus.REQUEST_CANCELED;\n            actualRequests[dealID][1] = requestsAmount;\n            ChangeRequest memory matchingRequest = requests[actualRequests[dealID][0]];\n\n            if (newDuration == deals[dealID].duration && newPrice > deals[dealID].price) {\n                requests[requestsAmount].status = RequestStatus.REQUEST_ACCEPTED;\n                Bill(dealID);\n                deals[dealID].price = newPrice;\n                actualRequests[dealID][1] = 0;\n                emit DealChangeRequestUpdated(requestsAmount);\n            } else if (matchingRequest.status == RequestStatus.REQUEST_CREATED && matchingRequest.duration >= newDuration && matchingRequest.price <= newPrice) {\n                requests[requestsAmount].status = RequestStatus.REQUEST_ACCEPTED;\n                requests[actualRequests[dealID][0]].status = RequestStatus.REQUEST_ACCEPTED;\n                emit DealChangeRequestUpdated(actualRequests[dealID][0]);\n                actualRequests[dealID][0] = 0;\n                actualRequests[dealID][1] = 0;\n                Bill(dealID);\n                deals[dealID].price = matchingRequest.price;\n                deals[dealID].duration = newDuration;\n                emit DealChangeRequestUpdated(requestsAmount);\n            } else {\n                return requestsAmount;\n            }\n\n            requests[actualRequests[dealID][1]].status = RequestStatus.REQUEST_CANCELED;\n            emit DealChangeRequestUpdated(actualRequests[dealID][1]);\n            actualRequests[dealID][1] = requestsAmount;\n        }\n\n        if (requestType == OrderType.ORDER_ASK) {\n            emit DealChangeRequestUpdated(actualRequests[dealID][0]);\n            requests[actualRequests[dealID][0]].status = RequestStatus.REQUEST_CANCELED;\n            actualRequests[dealID][0] = requestsAmount;\n            matchingRequest = requests[actualRequests[dealID][1]];\n\n            if (newDuration == deals[dealID].duration && newPrice < deals[dealID].price) {\n                requests[requestsAmount].status = RequestStatus.REQUEST_ACCEPTED;\n                Bill(dealID);\n                deals[dealID].price = newPrice;\n                actualRequests[dealID][0] = 0;\n                emit DealChangeRequestUpdated(requestsAmount);\n            } else if (matchingRequest.status == RequestStatus.REQUEST_CREATED && matchingRequest.duration <= newDuration && matchingRequest.price >= newPrice) {\n                requests[requestsAmount].status = RequestStatus.REQUEST_ACCEPTED;\n                emit DealChangeRequestUpdated(actualRequests[dealID][1]);\n                actualRequests[dealID][0] = 0;\n                actualRequests[dealID][1] = 0;\n                Bill(dealID);\n                deals[dealID].price = newPrice;\n                deals[dealID].duration = matchingRequest.duration;\n                emit DealChangeRequestUpdated(requestsAmount);\n            } else {\n                return requestsAmount;\n            }\n        }\n\n        deals[dealID].endTime = deals[dealID].startTime.add(deals[dealID].duration);\n        return requestsAmount;\n    }\n\n    function CancelChangeRequest(uint changeRequestID) public returns (bool) {\n        ChangeRequest memory request = requests[changeRequestID];\n\n        require(\n            msg.sender == deals[request.dealID].supplierID ||\n            msg.sender == deals[request.dealID].masterID ||\n            msg.sender == deals[request.dealID].consumerID\n        );\n        require(request.status != RequestStatus.REQUEST_ACCEPTED);\n\n        if (request.requestType == OrderType.ORDER_ASK) {\n            if (msg.sender == deals[request.dealID].consumerID) {\n                requests[changeRequestID].status = RequestStatus.REQUEST_REJECTED;\n            } else {\n                requests[changeRequestID].status = RequestStatus.REQUEST_CANCELED;\n            }\n            actualRequests[request.dealID][0] = 0;\n            emit DealChangeRequestUpdated(changeRequestID);\n        }\n\n        if (request.requestType == OrderType.ORDER_BID) {\n            if (msg.sender == deals[request.dealID].consumerID) {\n                requests[changeRequestID].status = RequestStatus.REQUEST_CANCELED;\n            } else {\n                requests[changeRequestID].status = RequestStatus.REQUEST_REJECTED;\n            }\n            actualRequests[request.dealID][1] = 0;\n            emit DealChangeRequestUpdated(changeRequestID);\n        }\n        return true;\n    }\n\n    // Master-worker functions\n\n    function RegisterWorker(address _master) public whenNotPaused returns (bool) {\n        require(GetMaster(msg.sender) == msg.sender);\n        require(isMaster[msg.sender] == false);\n        require(GetMaster(_master) == _master);\n        masterRequest[_master][msg.sender] = true;\n        emit WorkerAnnounced(msg.sender, _master);\n        return true;\n    }\n\n    function ConfirmWorker(address _worker) public whenNotPaused returns (bool) {\n        require(masterRequest[msg.sender][_worker] == true);\n        masterOf[_worker] = msg.sender;\n        isMaster[msg.sender] = true;\n        delete masterRequest[msg.sender][_worker];\n        emit WorkerConfirmed(_worker, msg.sender);\n        return true;\n    }\n\n    function RemoveWorker(address _worker, address _master) public whenNotPaused returns (bool) {\n        require(GetMaster(_worker) == _master && (msg.sender == _worker || msg.sender == _master));\n        delete masterOf[_worker];\n        emit WorkerRemoved(_worker, _master);\n        return true;\n    }\n\n    // GETTERS\n\n    function GetOrderInfo(uint orderID) public view\n    returns (\n        OrderType orderType,\n        address author,\n        address counterparty,\n        uint duration,\n        uint price,\n        bool[] netflags,\n        ProfileRegistry.IdentityLevel identityLevel,\n        address blacklist,\n        bytes32 tag,\n        uint64[] benchmarks,\n        uint frozenSum\n    ){\n        Order memory order = orders[orderID];\n        return (\n        order.orderType,\n        order.author,\n        order.counterparty,\n        order.duration,\n        order.price,\n        order.netflags,\n        order.identityLevel,\n        order.blacklist,\n        order.tag,\n        order.benchmarks,\n        order.frozenSum\n        );\n    }\n\n\n    function GetOrderParams(uint orderID) public view\n    returns (\n        OrderStatus orderStatus,\n        uint dealID\n    ){\n        Order memory order = orders[orderID];\n        return (\n        order.orderStatus,\n        order.dealID\n        );\n    }\n\n    function GetDealInfo(uint dealID) public view\n    returns (\n        uint64[] benchmarks,\n        address supplierID,\n        address consumerID,\n        address masterID,\n        uint askID,\n        uint bidID,\n        uint startTime\n    ){\n        return (\n        deals[dealID].benchmarks,\n        deals[dealID].supplierID,\n        deals[dealID].consumerID,\n        deals[dealID].masterID,\n        deals[dealID].askID,\n        deals[dealID].bidID,\n        deals[dealID].startTime\n\n        );\n    }\n\n    function GetDealParams(uint dealID) public view\n    returns (\n        uint duration,\n        uint price,\n        uint endTime,\n        DealStatus status,\n        uint blockedBalance,\n        uint totalPayout,\n        uint lastBillTS\n    ){\n        return (\n        deals[dealID].duration,\n        deals[dealID].price,\n        deals[dealID].endTime,\n        deals[dealID].status,\n        deals[dealID].blockedBalance,\n        deals[dealID].totalPayout,\n        deals[dealID].lastBillTS\n        );\n    }\n\n    function GetMaster(address _worker) public view returns (address master) {\n        if (masterOf[_worker] == 0x0 || masterOf[_worker] == _worker) {\n            master = _worker;\n        } else {\n            master = masterOf[_worker];\n        }\n    }\n\n    function GetChangeRequestInfo(uint changeRequestID) public view\n    returns (\n        uint dealID,\n        OrderType requestType,\n        uint price,\n        uint duration,\n        RequestStatus status\n    ){\n        return (\n        requests[changeRequestID].dealID,\n        requests[changeRequestID].requestType,\n        requests[changeRequestID].price,\n        requests[changeRequestID].duration,\n        requests[changeRequestID].status\n        );\n    }\n\n    function GetDealsAmount() public view returns (uint){\n        return dealAmount;\n    }\n\n    function GetOrdersAmount() public view returns (uint){\n        return ordersAmount;\n    }\n\n    function GetChangeRequestsAmount() public view returns (uint){\n        return requestsAmount;\n    }\n\n    function GetBenchmarksQuantity() public view returns (uint) {\n        return benchmarksQuantity;\n    }\n\n    function GetNetflagsQuantity() public view returns (uint) {\n        return netflagsQuantity;\n    }\n\n\n    // INTERNAL\n\n    function InternalBill(uint dealID) internal returns (bool){\n        require(deals[dealID].status == DealStatus.STATUS_ACCEPTED);\n        require(msg.sender == deals[dealID].supplierID || msg.sender == deals[dealID].consumerID || msg.sender == deals[dealID].masterID);\n        Deal memory deal = deals[dealID];\n\n        uint paidAmount;\n\n        if (!IsSpot(dealID) && deal.lastBillTS >= deal.endTime) {\n            // means we already billed deal after endTime\n            return true;\n        } else if (!IsSpot(dealID) && block.timestamp > deal.endTime && deal.lastBillTS < deal.endTime) {\n            paidAmount = CalculatePayment(deal.price, deal.endTime.sub(deal.lastBillTS));\n        } else {\n            paidAmount = CalculatePayment(deal.price, block.timestamp.sub(deal.lastBillTS));\n        }\n\n        if (paidAmount > deal.blockedBalance) {\n            if (token.balanceOf(deal.consumerID) >= paidAmount.sub(deal.blockedBalance)) {\n                require(token.transferFrom(deal.consumerID, this, paidAmount.sub(deal.blockedBalance)));\n                deals[dealID].blockedBalance = deals[dealID].blockedBalance.add(paidAmount.sub(deal.blockedBalance));\n            } else {\n                emit Billed(dealID, deals[dealID].blockedBalance);\n                InternalCloseDeal(dealID);\n                require(token.transfer(deal.masterID, deal.blockedBalance));\n                deals[dealID].lastBillTS = block.timestamp;\n                deals[dealID].totalPayout = deals[dealID].totalPayout.add(deal.blockedBalance);\n                deals[dealID].blockedBalance = 0;\n                return true;\n            }\n        }\n        require(token.transfer(deal.masterID, paidAmount));\n        deals[dealID].blockedBalance = deals[dealID].blockedBalance.sub(paidAmount);\n        deals[dealID].totalPayout = deals[dealID].totalPayout.add(paidAmount);\n        deals[dealID].lastBillTS = block.timestamp;\n        emit Billed(dealID, paidAmount);\n        return true;\n    }\n\n    function ReserveNextPeriodFunds(uint dealID) internal returns (bool) {\n        uint nextPeriod;\n        Deal memory deal = deals[dealID];\n\n        if (IsSpot(dealID)) {\n            if (deal.status == DealStatus.STATUS_CLOSED) {\n                return true;\n            }\n            nextPeriod = 1 hours;\n        } else {\n            if (block.timestamp > deal.endTime) {\n                // we don't reserve funds for next period\n                return true;\n            }\n            if (deal.endTime.sub(block.timestamp) < 1 days) {\n                nextPeriod = deal.endTime.sub(block.timestamp);\n            } else {\n                nextPeriod = 1 days;\n            }\n        }\n\n        if (CalculatePayment(deal.price, nextPeriod) > deals[dealID].blockedBalance) {\n            uint nextPeriodSum = CalculatePayment(deal.price, nextPeriod).sub(deals[dealID].blockedBalance);\n\n            if (token.balanceOf(deal.consumerID) >= nextPeriodSum) {\n                require(token.transferFrom(deal.consumerID, this, nextPeriodSum));\n                deals[dealID].blockedBalance = deals[dealID].blockedBalance.add(nextPeriodSum);\n            } else {\n                emit Billed(dealID, deals[dealID].blockedBalance);\n                InternalCloseDeal(dealID);\n                RefundRemainingFunds(dealID);\n                return true;\n            }\n        }\n        return true;\n    }\n\n    function RefundRemainingFunds(uint dealID) internal returns (bool){\n        if (deals[dealID].blockedBalance != 0) {\n            token.transfer(deals[dealID].consumerID, deals[dealID].blockedBalance);\n            deals[dealID].blockedBalance = 0;\n        }\n        return true;\n    }\n\n    function IsSpot(uint dealID) internal view returns (bool){\n        return deals[dealID].duration == 0;\n    }\n\n    function CalculatePayment(uint _price, uint _period) internal view returns (uint) {\n        uint rate = oracle.getCurrentPrice();\n        return rate.mul(_price).mul(_period).div(1e18);\n    }\n\n    function AddToBlacklist(uint dealID, BlacklistPerson role) internal {\n        // only consumer can blacklist\n        require(msg.sender == deals[dealID].consumerID || role == BlacklistPerson.BLACKLIST_NOBODY);\n        if (role == BlacklistPerson.BLACKLIST_WORKER) {\n            bl.Add(deals[dealID].consumerID, deals[dealID].supplierID);\n        } else if (role == BlacklistPerson.BLACKLIST_MASTER) {\n            bl.Add(deals[dealID].consumerID, deals[dealID].masterID);\n        }\n    }\n\n    function InternalCloseDeal(uint dealID) internal {\n        if (deals[dealID].status == DealStatus.STATUS_CLOSED) {\n            return;\n        }\n        require((deals[dealID].status == DealStatus.STATUS_ACCEPTED));\n        require(msg.sender == deals[dealID].consumerID || msg.sender == deals[dealID].supplierID || msg.sender == deals[dealID].masterID);\n        deals[dealID].status = DealStatus.STATUS_CLOSED;\n        deals[dealID].endTime = block.timestamp;\n        emit DealUpdated(dealID);\n    }\n\n    function ResizeBenchmarks(uint64[] _benchmarks) internal view returns (uint64[]) {\n        uint64[] memory benchmarks = new uint64[](benchmarksQuantity);\n        for (uint i = 0; i < _benchmarks.length; i++) {\n            benchmarks[i] = _benchmarks[i];\n        }\n        return benchmarks;\n    }\n\n    function ResizeNetflags(bool[] _netflags) internal view returns (bool[]) {\n        bool[] memory netflags = new bool[](netflagsQuantity);\n        for (uint i = 0; i < _netflags.length; i++) {\n            netflags[i] = _netflags[i];\n        }\n        return netflags;\n    }\n\n    // SETTERS\n\n    function SetProfileRegistryAddress(address _newPR) public onlyOwner returns (bool) {\n        pr = ProfileRegistry(_newPR);\n        return true;\n    }\n\n    function SetBlacklistAddress(address _newBL) public onlyOwner returns (bool) {\n        bl = Blacklist(_newBL);\n        return true;\n    }\n\n    function SetOracleAddress(address _newOracle) public onlyOwner returns (bool) {\n        require(OracleUSD(_newOracle).getCurrentPrice() != 0);\n        oracle = OracleUSD(_newOracle);\n        return true;\n    }\n\n    function SetBenchmarksQuantity(uint _newQuantity) public onlyOwner returns (bool) {\n        require(_newQuantity > benchmarksQuantity);\n        emit NumBenchmarksUpdated(_newQuantity);\n        benchmarksQuantity = _newQuantity;\n        return true;\n    }\n\n    function SetNetflagsQuantity(uint _newQuantity) public onlyOwner returns (bool) {\n        require(_newQuantity > netflagsQuantity);\n        emit NumNetflagsUpdated(_newQuantity);\n        netflagsQuantity = _newQuantity;\n        return true;\n    }\n\n    function KillMarket() public onlyOwner {\n        token.transfer(owner, token.balanceOf(address(this)));\n        selfdestruct(owner);\n    }\n}\n",
  "sourcePath": "contracts/Market.sol",
  "compiler": {
    "name": "solc",
    "version": "0.4.24+commit.e67f0147.Emscripten.clang"
  },
  "schemaVersion": "2.0.1",
  "updatedAt": "2019-01-11T16:09:31.252Z"
}