{
  "contractName": "OracleUSD",
  "abi": [
    {
      "constant": false,
      "inputs": [],
      "name": "renounceOwnership",
      "outputs": [],
      "payable": false,
      "stateMutability": "nonpayable",
      "type": "function"
    },
    {
      "constant": true,
      "inputs": [],
      "name": "owner",
      "outputs": [
        {
          "name": "",
          "type": "address"
        }
      ],
      "payable": false,
      "stateMutability": "view",
      "type": "function"
    },
    {
      "constant": false,
      "inputs": [
        {
          "name": "_newOwner",
          "type": "address"
        }
      ],
      "name": "transferOwnership",
      "outputs": [],
      "payable": false,
      "stateMutability": "nonpayable",
      "type": "function"
    },
    {
      "inputs": [],
      "payable": false,
      "stateMutability": "nonpayable",
      "type": "constructor"
    },
    {
      "anonymous": false,
      "inputs": [
        {
          "indexed": false,
          "name": "price",
          "type": "uint256"
        }
      ],
      "name": "PriceChanged",
      "type": "event"
    },
    {
      "anonymous": false,
      "inputs": [
        {
          "indexed": true,
          "name": "previousOwner",
          "type": "address"
        }
      ],
      "name": "OwnershipRenounced",
      "type": "event"
    },
    {
      "anonymous": false,
      "inputs": [
        {
          "indexed": true,
          "name": "previousOwner",
          "type": "address"
        },
        {
          "indexed": true,
          "name": "newOwner",
          "type": "address"
        }
      ],
      "name": "OwnershipTransferred",
      "type": "event"
    },
    {
      "constant": false,
      "inputs": [
        {
          "name": "_price",
          "type": "uint256"
        }
      ],
      "name": "setCurrentPrice",
      "outputs": [],
      "payable": false,
      "stateMutability": "nonpayable",
      "type": "function"
    },
    {
      "constant": true,
      "inputs": [],
      "name": "getCurrentPrice",
      "outputs": [
        {
          "name": "",
          "type": "uint256"
        }
      ],
      "payable": false,
      "stateMutability": "view",
      "type": "function"
    }
  ],
  "bytecode": "0x60806040526001805534801561001457600080fd5b5060008054600160a060020a0319908116339081179091161790556102c58061003e6000396000f30060806040526004361061006c5763ffffffff7c010000000000000000000000000000000000000000000000000000000060003504166318b200718114610071578063715018a61461008b5780638da5cb5b146100a0578063eb91d37e146100d1578063f2fde38b146100f8575b600080fd5b34801561007d57600080fd5b50610089600435610119565b005b34801561009757600080fd5b50610089610178565b3480156100ac57600080fd5b506100b56101e4565b60408051600160a060020a039092168252519081900360200190f35b3480156100dd57600080fd5b506100e66101f3565b60408051918252519081900360200190f35b34801561010457600080fd5b50610089600160a060020a03600435166101f9565b600054600160a060020a0316331461013057600080fd5b6000811161013d57600080fd5b60018190556040805182815290517fa6dc15bdb68da224c66db4b3838d9a2b205138e8cff6774e57d0af91e196d6229181900360200190a150565b600054600160a060020a0316331461018f57600080fd5b60008054604051600160a060020a03909116917ff8df31144d9c2f0f6b59d69b8b98abd5459d07f2742c4df920b25aae33c6482091a26000805473ffffffffffffffffffffffffffffffffffffffff19169055565b600054600160a060020a031681565b60015490565b600054600160a060020a0316331461021057600080fd5b6102198161021c565b50565b600160a060020a038116151561023157600080fd5b60008054604051600160a060020a03808516939216917f8be0079c531659141344cd1fd0a4f28419497f9722a3daafe3b4186f6b6457e091a36000805473ffffffffffffffffffffffffffffffffffffffff1916600160a060020a03929092169190911790555600a165627a7a72305820be6f69c6a3f6722d576a1b501aff2cf9b9de7b8c862ddb317bd0d7808c5a41ad0029",
  "source": "pragma solidity ^0.4.23;\n\n\nimport \"zeppelin-solidity/contracts/ownership/Ownable.sol\";\n\n\ncontract OracleUSD is Ownable {\n\n    uint currentPrice = 1;\n\n    event PriceChanged(uint price);\n\n    constructor() public{\n        owner = msg.sender;\n    }\n\n    function setCurrentPrice(uint _price) public onlyOwner{\n        require(_price > 0);\n        currentPrice = _price;\n        emit PriceChanged(_price);\n    }\n\n    function getCurrentPrice() public view returns (uint){\n        return currentPrice;\n    }\n}\n",
  "sourcePath": "contracts/OracleUSD.sol",
  "compiler": {
    "name": "solc",
    "version": "0.4.24+commit.e67f0147.Emscripten.clang"
  },
  "schemaVersion": "2.0.1",
  "updatedAt": "2018-12-19T16:46:12.328Z"
}