{
  "contractName": "ProfileRegistry",
  "abi": [
    {
      "constant": false,
      "inputs": [],
      "name": "unpause",
      "outputs": [],
      "payable": false,
      "stateMutability": "nonpayable",
      "type": "function"
    },
    {
      "constant": true,
      "inputs": [],
      "name": "paused",
      "outputs": [
        {
          "name": "",
          "type": "bool"
        }
      ],
      "payable": false,
      "stateMutability": "view",
      "type": "function"
    },
    {
      "constant": true,
      "inputs": [
        {
          "name": "",
          "type": "uint256"
        }
      ],
      "name": "certificates",
      "outputs": [
        {
          "name": "from",
          "type": "address"
        },
        {
          "name": "to",
          "type": "address"
        },
        {
          "name": "attributeType",
          "type": "uint256"
        },
        {
          "name": "value",
          "type": "bytes"
        }
      ],
      "payable": false,
      "stateMutability": "view",
      "type": "function"
    },
    {
      "constant": false,
      "inputs": [],
      "name": "renounceOwnership",
      "outputs": [],
      "payable": false,
      "stateMutability": "nonpayable",
      "type": "function"
    },
    {
      "constant": false,
      "inputs": [],
      "name": "pause",
      "outputs": [],
      "payable": false,
      "stateMutability": "nonpayable",
      "type": "function"
    },
    {
      "constant": true,
      "inputs": [],
      "name": "owner",
      "outputs": [
        {
          "name": "",
          "type": "address"
        }
      ],
      "payable": false,
      "stateMutability": "view",
      "type": "function"
    },
    {
      "constant": false,
      "inputs": [
        {
          "name": "_newOwner",
          "type": "address"
        }
      ],
      "name": "transferOwnership",
      "outputs": [],
      "payable": false,
      "stateMutability": "nonpayable",
      "type": "function"
    },
    {
      "constant": true,
      "inputs": [
        {
          "name": "",
          "type": "address"
        }
      ],
      "name": "validators",
      "outputs": [
        {
          "name": "",
          "type": "int8"
        }
      ],
      "payable": false,
      "stateMutability": "view",
      "type": "function"
    },
    {
      "inputs": [],
      "payable": false,
      "stateMutability": "nonpayable",
      "type": "constructor"
    },
    {
      "anonymous": false,
      "inputs": [
        {
          "indexed": true,
          "name": "validator",
          "type": "address"
        }
      ],
      "name": "ValidatorCreated",
      "type": "event"
    },
    {
      "anonymous": false,
      "inputs": [
        {
          "indexed": true,
          "name": "validator",
          "type": "address"
        }
      ],
      "name": "ValidatorDeleted",
      "type": "event"
    },
    {
      "anonymous": false,
      "inputs": [
        {
          "indexed": true,
          "name": "id",
          "type": "uint256"
        }
      ],
      "name": "CertificateCreated",
      "type": "event"
    },
    {
      "anonymous": false,
      "inputs": [
        {
          "indexed": true,
          "name": "id",
          "type": "uint256"
        }
      ],
      "name": "CertificateUpdated",
      "type": "event"
    },
    {
      "anonymous": false,
      "inputs": [],
      "name": "Pause",
      "type": "event"
    },
    {
      "anonymous": false,
      "inputs": [],
      "name": "Unpause",
      "type": "event"
    },
    {
      "anonymous": false,
      "inputs": [
        {
          "indexed": true,
          "name": "previousOwner",
          "type": "address"
        }
      ],
      "name": "OwnershipRenounced",
      "type": "event"
    },
    {
      "anonymous": false,
      "inputs": [
        {
          "indexed": true,
          "name": "previousOwner",
          "type": "address"
        },
        {
          "indexed": true,
          "name": "newOwner",
          "type": "address"
        }
      ],
      "name": "OwnershipTransferred",
      "type": "event"
    },
    {
      "constant": false,
      "inputs": [
        {
          "name": "_validator",
          "type": "address"
        },
        {
          "name": "_level",
          "type": "int8"
        }
      ],
      "name": "AddValidator",
      "outputs": [
        {
          "name": "",
          "type": "address"
        }
      ],
      "payable": false,
      "stateMutability": "nonpayable",
      "type": "function"
    },
    {
      "constant": false,
      "inputs": [
        {
          "name": "_validator",
          "type": "address"
        }
      ],
      "name": "RemoveValidator",
      "outputs": [
        {
          "name": "",
          "type": "address"
        }
      ],
      "payable": false,
      "stateMutability": "nonpayable",
      "type": "function"
    },
    {
      "constant": true,
      "inputs": [
        {
          "name": "_validator",
          "type": "address"
        }
      ],
      "name": "GetValidatorLevel",
      "outputs": [
        {
          "name": "",
          "type": "int8"
        }
      ],
      "payable": false,
      "stateMutability": "view",
      "type": "function"
    },
    {
      "constant": false,
      "inputs": [
        {
          "name": "_owner",
          "type": "address"
        },
        {
          "name": "_type",
          "type": "uint256"
        },
        {
          "name": "_value",
          "type": "bytes"
        }
      ],
      "name": "CreateCertificate",
      "outputs": [],
      "payable": false,
      "stateMutability": "nonpayable",
      "type": "function"
    },
    {
      "constant": false,
      "inputs": [
        {
          "name": "_id",
          "type": "uint256"
        }
      ],
      "name": "RemoveCertificate",
      "outputs": [],
      "payable": false,
      "stateMutability": "nonpayable",
      "type": "function"
    },
    {
      "constant": true,
      "inputs": [
        {
          "name": "_id",
          "type": "uint256"
        }
      ],
      "name": "GetCertificate",
      "outputs": [
        {
          "name": "",
          "type": "address"
        },
        {
          "name": "",
          "type": "address"
        },
        {
          "name": "",
          "type": "uint256"
        },
        {
          "name": "",
          "type": "bytes"
        }
      ],
      "payable": false,
      "stateMutability": "view",
      "type": "function"
    },
    {
      "constant": true,
      "inputs": [
        {
          "name": "_owner",
          "type": "address"
        },
        {
          "name": "_type",
          "type": "uint256"
        }
      ],
      "name": "GetAttributeValue",
      "outputs": [
        {
          "name": "",
          "type": "bytes"
        }
      ],
      "payable": false,
      "stateMutability": "view",
      "type": "function"
    },
    {
      "constant": true,
      "inputs": [
        {
          "name": "_owner",
          "type": "address"
        },
        {
          "name": "_type",
          "type": "uint256"
        }
      ],
      "name": "GetAttributeCount",
      "outputs": [
        {
          "name": "",
          "type": "uint256"
        }
      ],
      "payable": false,
      "stateMutability": "view",
      "type": "function"
    },
    {
      "constant": true,
      "inputs": [
        {
          "name": "_owner",
          "type": "address"
        }
      ],
      "name": "GetProfileLevel",
      "outputs": [
        {
          "name": "",
          "type": "uint8"
        }
      ],
      "payable": false,
      "stateMutability": "view",
      "type": "function"
    },
    {
      "constant": false,
      "inputs": [
        {
          "name": "_validator",
          "type": "address"
        }
      ],
      "name": "AddSonmValidator",
      "outputs": [
        {
          "name": "",
          "type": "bool"
        }
      ],
      "payable": false,
      "stateMutability": "nonpayable",
      "type": "function"
    },
    {
      "constant": false,
      "inputs": [
        {
          "name": "_validator",
          "type": "address"
        }
      ],
      "name": "RemoveSonmValidator",
      "outputs": [
        {
          "name": "",
          "type": "bool"
        }
      ],
      "payable": false,
      "stateMutability": "nonpayable",
      "type": "function"
    }
  ],
  "bytecode": "0x60806040526000805460a060020a60ff021916815560015534801561002357600080fd5b5060008054600160a060020a031990811633908117909116811782558152600260205260409020805460ff191660ff179055611311806100646000396000f3006080604052600436106101045763ffffffff7c0100000000000000000000000000000000000000000000000000000000600035041662707c75811461010957806274fc391461013e5780630553701a146101d75780631af60f72146101f857806323eee3e6146102355780632eb4b2a51461027a5780633e34e129146102945780633f4ba83a1461035d5780635c975abb146103725780636209a63314610387578063663b3e22146103bd578063715018a6146103d55780638456cb59146103ea5780638997d27a146103ff5780638da5cb5b1461043957806393d767421461044e578063e7bcef44146104b7578063f2fde38b146104de578063fa52c7d8146104ff575b600080fd5b34801561011557600080fd5b5061012a600160a060020a0360043516610520565b604080519115158252519081900360200190f35b34801561014a57600080fd5b50610162600160a060020a0360043516602435610564565b6040805160208082528351818301528351919283929083019185019080838360005b8381101561019c578181015183820152602001610184565b50505050905090810190601f1680156101c95780820380516001836020036101000a031916815260200191505b509250505060405180910390f35b3480156101e357600080fd5b5061012a600160a060020a0360043516610618565b34801561020457600080fd5b50610219600160a060020a0360043516610670565b60408051600160a060020a039092168252519081900360200190f35b34801561024157600080fd5b50610256600160a060020a0360043516610706565b6040518082600481111561026657fe5b60ff16815260200191505060405180910390f35b34801561028657600080fd5b50610292600435610766565b005b3480156102a057600080fd5b506102ac600435610a48565b6040518085600160a060020a0316600160a060020a0316815260200184600160a060020a0316600160a060020a0316815260200183815260200180602001828103825283818151815260200191508051906020019080838360005b8381101561031f578181015183820152602001610307565b50505050905090810190601f16801561034c5780820380516001836020036101000a031916815260200191505b509550505050505060405180910390f35b34801561036957600080fd5b50610292610b1a565b34801561037e57600080fd5b5061012a610b90565b34801561039357600080fd5b506103ab600160a060020a0360043516602435610ba0565b60408051918252519081900360200190f35b3480156103c957600080fd5b506102ac600435610bc8565b3480156103e157600080fd5b50610292610c87565b3480156103f657600080fd5b50610292610cf3565b34801561040b57600080fd5b50610420600160a060020a0360043516610d6e565b60408051600092830b90920b8252519081900360200190f35b34801561044557600080fd5b50610219610d8b565b34801561045a57600080fd5b50604080516020600460443581810135601f8101849004840285018401909552848452610292948235600160a060020a0316946024803595369594606494920191908190840183828082843750949750610d9a9650505050505050565b3480156104c357600080fd5b50610219600160a060020a036004351660243560000b6110c3565b3480156104ea57600080fd5b50610292600160a060020a0360043516611170565b34801561050b57600080fd5b50610420600160a060020a0360043516611193565b60008054600160a060020a0316331461053857600080fd5b50600160a060020a0381166000908152600260205260409020805460ff191660ff17905560015b919050565b600160a060020a038216600090815260046020908152604080832084845282529182902080548351601f600260001961010060018616150201909316929092049182018490048402810184019094528084526060939283018282801561060b5780601f106105e05761010080835404028352916020019161060b565b820191906000526020600020905b8154815290600101906020018083116105ee57829003601f168201915b5050505050905092915050565b60008054600160a060020a0316331461063057600080fd5b61063982610d6e565b60000b60001914151561064b57600080fd5b50600160a060020a03166000908152600260205260409020805460ff19169055600190565b600061067b33610d6e565b60000b60001914151561068d57600080fd5b60005460a060020a900460ff16156106a457600080fd5b60006106af83610d6e565b60000b136106bc57600080fd5b600160a060020a038216600081815260026020526040808220805460ff19169055517fa7a579573d398d7b67cd7450121bb250bbd060b29eabafdebc3ce0918658635c9190a25090565b60008061071583610579610564565b5111156107245750600461055f565b600061073283610515610564565b5111156107415750600361055f565b600061074f836104b1610564565b51111561075e5750600261055f565b50600161055f565b61076e611224565b60005460a060020a900460ff161561078557600080fd5b60008281526003602081815260409283902083516080810185528154600160a060020a0390811682526001808401549091168285015260028084015483880152948301805487516101009382161593909302600019011695909504601f8101859004850282018501909652858152909491936060860193919290918301828280156108515780601f1061082657610100808354040283529160200191610851565b820191906000526020600020905b81548152906001019060200180831161083457829003601f168201915b505050505081525050905033600160a060020a03168160200151600160a060020a0316148061088957508051600160a060020a031633145b806108a0575061089833610d6e565b60000b600019145b15156108ab57600080fd5b604051606082015180517fc5d2460186f7233c927e7db2dcc703c0e500b653ca82273b7bfad8045d85a4709290819060208401908083835b602083106109025780518252601f1990920191602091820191016108e3565b6001836020036101000a0380198251168184511680821785525050505050509050019150506040518091039020600019161415151561094057600080fd5b60208082018051600160a060020a03908116600090815260058085526040808320818801805185529087528184205486518616855283885282852082518652885282852060001990910190559451909316825284528181209251815291909252205415156109e957604080516020818101808452600080845285830151600160a060020a031681526004835284812086860151825290925292902090516109e7929061124a565b505b6040805160208181018084526000808452868152600392839052939093209151610a189392909101919061124a565b5060405182907f9a100d2018161ede6ca34c8007992b09bbffc636a636014a922e4c875041262890600090a25050565b6000818152600360208181526040808420805460018083015460028085015494909701805486516101009482161594909402600019011697909704601f810187900487028301870190955284825287968796606096600160a060020a039586169695909316949391928391830182828015610b045780601f10610ad957610100808354040283529160200191610b04565b820191906000526020600020905b815481529060010190602001808311610ae757829003601f168201915b5050505050905093509350935093509193509193565b600054600160a060020a03163314610b3157600080fd5b60005460a060020a900460ff161515610b4957600080fd5b6000805474ff0000000000000000000000000000000000000000191681556040517f7805862f689e2f13df9f062ff482ad3ad112aca9e0847911ed832e158c525b339190a1565b60005460a060020a900460ff1681565b600160a060020a03919091166000908152600560209081526040808320938352929052205490565b6003602081815260009283526040928390208054600180830154600280850154968501805489516101009582161595909502600019011691909104601f8101879004870284018701909852878352600160a060020a039384169793909116959491929091830182828015610c7d5780601f10610c5257610100808354040283529160200191610c7d565b820191906000526020600020905b815481529060010190602001808311610c6057829003601f168201915b5050505050905084565b600054600160a060020a03163314610c9e57600080fd5b60008054604051600160a060020a03909116917ff8df31144d9c2f0f6b59d69b8b98abd5459d07f2742c4df920b25aae33c6482091a26000805473ffffffffffffffffffffffffffffffffffffffff19169055565b600054600160a060020a03163314610d0a57600080fd5b60005460a060020a900460ff1615610d2157600080fd5b6000805474ff0000000000000000000000000000000000000000191660a060020a1781556040517f6985a02210a168e66602d3235cb6db0e70f92b3ba4d376a33c0f3d9434bff6259190a1565b600160a060020a0316600090815260026020526040812054900b90565b600054600160a060020a031681565b60008054819060a060020a900460ff1615610db457600080fd5b61044c8410610de857600a60648504069150610dcf33610d6e565b60000b8260000b13151515610de357600080fd5b610dfd565b600160a060020a0385163314610dfd57600080fd5b60405183517fc5d2460186f7233c927e7db2dcc703c0e500b653ca82273b7bfad8045d85a470918591819060208401908083835b60208310610e505780518252601f199092019160209182019101610e31565b6001836020036101000a03801982511681845116808217855250505050505090500191505060405180910390206000191614151515610e8e57600080fd5b5060026103e884041480610fd457600160a060020a03851660009081526005602090815260408083208784529091529020541515610efd57600160a060020a038516600090815260046020908152604080832087845282529091208451610ef79286019061124a565b50610fd4565b826040518082805190602001908083835b60208310610f2d5780518252601f199092019160209182019101610f0e565b6001836020036101000a038019825116818451168082178552505050505050905001915050604051809103902060001916610f688686610564565b6040518082805190602001908083835b60208310610f975780518252601f199092019160209182019101610f78565b6001836020036101000a038019825116818451168082178552505050505050905001915050604051809103902060001916141515610fd457600080fd5b600160a060020a0380861660008181526005602090815260408083208984528252808320805460019081019091558054810180825582516080810184523381528085019687528084018c8152606082018c815292875260038087529490962081518154908a1673ffffffffffffffffffffffffffffffffffffffff19918216178255975193810180549490991693909716929092179096559251600285015593518051929461108b9390850192919091019061124a565b50506001546040519091507fb9bb1df26fde5c1295a7ccd167330e5d6cb9df14fe4c3884669a64433cc9e76090600090a25050505050565b60006110ce33610d6e565b60000b6000191415156110e057600080fd5b60005460a060020a900460ff16156110f757600080fd5b600082810b1361110657600080fd5b61110f83610d6e565b60000b1561111c57600080fd5b600160a060020a038316600081815260026020526040808220805460ff191660ff87850b16179055517f02db26aafd16e8ecd93c4fa202917d50b1693f30b1594e57f7a432ede944eefc9190a25090919050565b600054600160a060020a0316331461118757600080fd5b611190816111a7565b50565b600260205260009081526040812054900b81565b600160a060020a03811615156111bc57600080fd5b60008054604051600160a060020a03808516939216917f8be0079c531659141344cd1fd0a4f28419497f9722a3daafe3b4186f6b6457e091a36000805473ffffffffffffffffffffffffffffffffffffffff1916600160a060020a0392909216919091179055565b604080516080810182526000808252602082018190529181019190915260608082015290565b828054600181600116156101000203166002900490600052602060002090601f016020900481019282601f1061128b57805160ff19168380011785556112b8565b828001600101855582156112b8579182015b828111156112b857825182559160200191906001019061129d565b506112c49291506112c8565b5090565b6112e291905b808211156112c457600081556001016112ce565b905600a165627a7a7230582062063412dc64c0ee657ce05f8e88f1f13a7c8937a61cd4f42db5d324754e10750029",
  "source": "pragma solidity ^0.4.23;\n\n\nimport \"zeppelin-solidity/contracts/ownership/Ownable.sol\";\nimport \"zeppelin-solidity/contracts/lifecycle/Pausable.sol\";\n\n\ncontract ProfileRegistry is Ownable, Pausable {\n\n    modifier onlySonm() {\n        require(GetValidatorLevel(msg.sender) == - 1);\n        _;\n    }\n\n    enum IdentityLevel {\n        UNKNOWN,\n        ANONYMOUS,\n        REGISTERED,\n        IDENTIFIED,\n        PROFESSIONAL\n    }\n\n    struct Certificate {\n        address from;\n\n        address to;\n\n        uint attributeType;\n\n        bytes value;\n    }\n\n    event ValidatorCreated(address indexed validator);\n\n    event ValidatorDeleted(address indexed validator);\n\n    event CertificateCreated(uint indexed id);\n\n    event CertificateUpdated(uint indexed id);\n\n    uint256 certificatesCount = 0;\n\n    mapping(address => int8) public validators;\n\n    mapping(uint256 => Certificate) public certificates;\n\n    mapping(address => mapping(uint256 => bytes)) certificateValue;\n\n    mapping(address => mapping(uint256 => uint)) certificateCount;\n\n    constructor() public {\n        owner = msg.sender;\n        validators[msg.sender] = - 1;\n    }\n\n    function AddValidator(address _validator, int8 _level) public onlySonm whenNotPaused returns (address) {\n        require(_level > 0);\n        require(GetValidatorLevel(_validator) == 0);\n        validators[_validator] = _level;\n        emit ValidatorCreated(_validator);\n        return _validator;\n    }\n\n    function RemoveValidator(address _validator) public onlySonm whenNotPaused returns (address) {\n        require(GetValidatorLevel(_validator) > 0);\n        validators[_validator] = 0;\n        emit ValidatorDeleted(_validator);\n        return _validator;\n    }\n\n    function GetValidatorLevel(address _validator) public view returns (int8) {\n        return validators[_validator];\n    }\n\n    function CreateCertificate(address _owner, uint256 _type, bytes _value) public whenNotPaused {\n        //Check validator level\n        if (_type >= 1100) {\n            int8 attributeLevel = int8(_type / 100 % 10);\n            require(attributeLevel <= GetValidatorLevel(msg.sender));\n        } else {\n            require(_owner == msg.sender);\n        }\n\n        // Check empty value\n        require(keccak256(_value) != keccak256(\"\"));\n\n        bool isMultiple = _type / 1000 == 2;\n        if (!isMultiple) {\n            if (certificateCount[_owner][_type] == 0) {\n                certificateValue[_owner][_type] = _value;\n            } else {\n                require(keccak256(GetAttributeValue(_owner, _type)) == keccak256(_value));\n            }\n        }\n\n        certificateCount[_owner][_type] = certificateCount[_owner][_type] + 1;\n\n        certificatesCount = certificatesCount + 1;\n        certificates[certificatesCount] = Certificate(msg.sender, _owner, _type, _value);\n\n        emit CertificateCreated(certificatesCount);\n    }\n\n    function RemoveCertificate(uint256 _id) public whenNotPaused {\n        Certificate memory crt = certificates[_id];\n\n        require(crt.to == msg.sender || crt.from == msg.sender || GetValidatorLevel(msg.sender) == -1);\n        require(keccak256(crt.value) != keccak256(\"\"));\n\n        certificateCount[crt.to][crt.attributeType] = certificateCount[crt.to][crt.attributeType] - 1;\n        if (certificateCount[crt.to][crt.attributeType] == 0) {\n            certificateValue[crt.to][crt.attributeType] = \"\";\n        }\n        certificates[_id].value = \"\";\n        emit CertificateUpdated(_id);\n    }\n\n    function GetCertificate(uint256 _id) public view returns (address, address, uint256, bytes) {\n        return (certificates[_id].from, certificates[_id].to, certificates[_id].attributeType, certificates[_id].value);\n    }\n\n    function GetAttributeValue(address _owner, uint256 _type) public view returns (bytes) {\n        return certificateValue[_owner][_type];\n    }\n\n    function GetAttributeCount(address _owner, uint256 _type) public view returns (uint256) {\n        return certificateCount[_owner][_type];\n    }\n\n    function GetProfileLevel(address _owner) public view returns (IdentityLevel) {\n        if (GetAttributeValue(_owner, 1401).length > 0) {\n            return IdentityLevel.PROFESSIONAL;\n        } else if (GetAttributeValue(_owner, 1301).length > 0) {\n            return IdentityLevel.IDENTIFIED;\n        } else if (GetAttributeValue(_owner, 1201).length > 0) {\n            return IdentityLevel.REGISTERED;\n        } else {\n            return IdentityLevel.ANONYMOUS;\n        }\n    }\n\n    function AddSonmValidator(address _validator) public onlyOwner returns (bool) {\n        validators[_validator] = -1;\n        return true;\n    }\n\n    function RemoveSonmValidator(address _validator) public onlyOwner returns (bool) {\n        require(GetValidatorLevel(_validator) == -1);\n        validators[_validator] = 0;\n        return true;\n    }\n}\n",
  "sourcePath": "contracts/ProfileRegistry.sol",
  "compiler": {
    "name": "solc",
    "version": "0.4.24+commit.e67f0147.Emscripten.clang"
  },
  "schemaVersion": "2.0.1",
  "updatedAt": "2018-12-19T16:46:12.362Z"
}