{
  "contractName": "SimpleGatekeeperWithLimitLive",
  "abi": [
    {
      "constant": true,
      "inputs": [
        {
          "name": "",
          "type": "address"
        }
      ],
      "name": "keepers",
      "outputs": [
        {
          "name": "dayLimit",
          "type": "uint256"
        },
        {
          "name": "lastDay",
          "type": "uint256"
        },
        {
          "name": "spentToday",
          "type": "uint256"
        },
        {
          "name": "frozen",
          "type": "bool"
        }
      ],
      "payable": false,
      "stateMutability": "view",
      "type": "function"
    },
    {
      "constant": false,
      "inputs": [],
      "name": "renounceOwnership",
      "outputs": [],
      "payable": false,
      "stateMutability": "nonpayable",
      "type": "function"
    },
    {
      "constant": true,
      "inputs": [],
      "name": "owner",
      "outputs": [
        {
          "name": "",
          "type": "address"
        }
      ],
      "payable": false,
      "stateMutability": "view",
      "type": "function"
    },
    {
      "constant": true,
      "inputs": [
        {
          "name": "",
          "type": "bytes32"
        }
      ],
      "name": "paid",
      "outputs": [
        {
          "name": "commitTS",
          "type": "uint256"
        },
        {
          "name": "paid",
          "type": "bool"
        },
        {
          "name": "keeper",
          "type": "address"
        }
      ],
      "payable": false,
      "stateMutability": "view",
      "type": "function"
    },
    {
      "constant": true,
      "inputs": [],
      "name": "transactionAmount",
      "outputs": [
        {
          "name": "",
          "type": "uint256"
        }
      ],
      "payable": false,
      "stateMutability": "view",
      "type": "function"
    },
    {
      "constant": false,
      "inputs": [
        {
          "name": "_newOwner",
          "type": "address"
        }
      ],
      "name": "transferOwnership",
      "outputs": [],
      "payable": false,
      "stateMutability": "nonpayable",
      "type": "function"
    },
    {
      "inputs": [
        {
          "name": "_token",
          "type": "address"
        },
        {
          "name": "_freezingTime",
          "type": "uint256"
        }
      ],
      "payable": false,
      "stateMutability": "nonpayable",
      "type": "constructor"
    },
    {
      "anonymous": false,
      "inputs": [
        {
          "indexed": true,
          "name": "from",
          "type": "address"
        },
        {
          "indexed": true,
          "name": "txNumber",
          "type": "uint256"
        },
        {
          "indexed": true,
          "name": "value",
          "type": "uint256"
        }
      ],
      "name": "PayinTx",
      "type": "event"
    },
    {
      "anonymous": false,
      "inputs": [
        {
          "indexed": true,
          "name": "from",
          "type": "address"
        },
        {
          "indexed": true,
          "name": "txNumber",
          "type": "uint256"
        },
        {
          "indexed": true,
          "name": "value",
          "type": "uint256"
        },
        {
          "indexed": false,
          "name": "commitTimestamp",
          "type": "uint256"
        }
      ],
      "name": "CommitTx",
      "type": "event"
    },
    {
      "anonymous": false,
      "inputs": [
        {
          "indexed": true,
          "name": "from",
          "type": "address"
        },
        {
          "indexed": true,
          "name": "txNumber",
          "type": "uint256"
        },
        {
          "indexed": true,
          "name": "value",
          "type": "uint256"
        }
      ],
      "name": "PayoutTx",
      "type": "event"
    },
    {
      "anonymous": false,
      "inputs": [
        {
          "indexed": false,
          "name": "block",
          "type": "uint256"
        }
      ],
      "name": "Suicide",
      "type": "event"
    },
    {
      "anonymous": false,
      "inputs": [
        {
          "indexed": true,
          "name": "keeper",
          "type": "address"
        },
        {
          "indexed": true,
          "name": "dayLimit",
          "type": "uint256"
        }
      ],
      "name": "LimitChanged",
      "type": "event"
    },
    {
      "anonymous": false,
      "inputs": [
        {
          "indexed": true,
          "name": "keeper",
          "type": "address"
        }
      ],
      "name": "KeeperFreezed",
      "type": "event"
    },
    {
      "anonymous": false,
      "inputs": [
        {
          "indexed": true,
          "name": "keeper",
          "type": "address"
        }
      ],
      "name": "KeeperUnfreezed",
      "type": "event"
    },
    {
      "anonymous": false,
      "inputs": [
        {
          "indexed": true,
          "name": "previousOwner",
          "type": "address"
        }
      ],
      "name": "OwnershipRenounced",
      "type": "event"
    },
    {
      "anonymous": false,
      "inputs": [
        {
          "indexed": true,
          "name": "previousOwner",
          "type": "address"
        },
        {
          "indexed": true,
          "name": "newOwner",
          "type": "address"
        }
      ],
      "name": "OwnershipTransferred",
      "type": "event"
    },
    {
      "constant": false,
      "inputs": [
        {
          "name": "_keeper",
          "type": "address"
        },
        {
          "name": "_limit",
          "type": "uint256"
        }
      ],
      "name": "ChangeKeeperLimit",
      "outputs": [],
      "payable": false,
      "stateMutability": "nonpayable",
      "type": "function"
    },
    {
      "constant": false,
      "inputs": [
        {
          "name": "_keeper",
          "type": "address"
        }
      ],
      "name": "FreezeKeeper",
      "outputs": [],
      "payable": false,
      "stateMutability": "nonpayable",
      "type": "function"
    },
    {
      "constant": false,
      "inputs": [
        {
          "name": "_keeper",
          "type": "address"
        }
      ],
      "name": "UnfreezeKeeper",
      "outputs": [],
      "payable": false,
      "stateMutability": "nonpayable",
      "type": "function"
    },
    {
      "constant": false,
      "inputs": [
        {
          "name": "_value",
          "type": "uint256"
        }
      ],
      "name": "Payin",
      "outputs": [],
      "payable": false,
      "stateMutability": "nonpayable",
      "type": "function"
    },
    {
      "constant": false,
      "inputs": [
        {
          "name": "_to",
          "type": "address"
        },
        {
          "name": "_value",
          "type": "uint256"
        },
        {
          "name": "_txNumber",
          "type": "uint256"
        }
      ],
      "name": "Payout",
      "outputs": [],
      "payable": false,
      "stateMutability": "nonpayable",
      "type": "function"
    },
    {
      "constant": false,
      "inputs": [
        {
          "name": "_freezingTime",
          "type": "uint256"
        }
      ],
      "name": "SetFreezingTime",
      "outputs": [],
      "payable": false,
      "stateMutability": "nonpayable",
      "type": "function"
    },
    {
      "constant": true,
      "inputs": [],
      "name": "GetFreezingTime",
      "outputs": [
        {
          "name": "",
          "type": "uint256"
        }
      ],
      "payable": false,
      "stateMutability": "view",
      "type": "function"
    },
    {
      "constant": false,
      "inputs": [],
      "name": "kill",
      "outputs": [],
      "payable": false,
      "stateMutability": "nonpayable",
      "type": "function"
    }
  ],
  "bytecode": "0x6080604052600060035534801561001557600080fd5b50604051604080610c1c8339810160405280516020909101516000805460018054600160a060020a03909516600160a060020a0319958616179055831633908117909316909217909155600555610bab806100716000396000f3006080604052600436106100cf5763ffffffff7c010000000000000000000000000000000000000000000000000000000060003504166328f727f081146100d457806336ab802e146100ee5780633bbd64bc1461011557806341c0e1b51461015e578063634235fc14610173578063715018a61461019a5780638da5cb5b146101af578063ad835c0b146101e0578063add89bb214610204578063b38ad8e714610243578063cc38d7ca14610264578063d942bffa1461027c578063e5837a7b14610291578063f2fde38b146102b2575b600080fd5b3480156100e057600080fd5b506100ec6004356102d3565b005b3480156100fa57600080fd5b5061010361039a565b60408051918252519081900360200190f35b34801561012157600080fd5b50610136600160a060020a03600435166103a0565b6040805194855260208501939093528383019190915215156060830152519081900360800190f35b34801561016a57600080fd5b506100ec6103cc565b34801561017f57600080fd5b506100ec600160a060020a0360043516602435604435610542565b3480156101a657600080fd5b506100ec6107ab565b3480156101bb57600080fd5b506101c4610817565b60408051600160a060020a039092168252519081900360200190f35b3480156101ec57600080fd5b506100ec600160a060020a0360043516602435610826565b34801561021057600080fd5b5061021c600435610884565b604080519384529115156020840152600160a060020a031682820152519081900360600190f35b34801561024f57600080fd5b506100ec600160a060020a03600435166108b0565b34801561027057600080fd5b506100ec60043561093c565b34801561028857600080fd5b50610103610958565b34801561029d57600080fd5b506100ec600160a060020a036004351661095e565b3480156102be57600080fd5b506100ec600160a060020a03600435166109e4565b600154604080517f23b872dd000000000000000000000000000000000000000000000000000000008152336004820152306024820152604481018490529051600160a060020a03909216916323b872dd9160648082019260009290919082900301818387803b15801561034557600080fd5b505af1158015610359573d6000803e3d6000fd5b5050600380546001019081905560405184935090915033907f14312725abbc46ad798bc078b2663e1fcbace97be0247cd177176f3b4df2538e90600090a450565b60055490565b600260208190526000918252604090912080546001820154928201546003909201549092919060ff1684565b600054600160a060020a031633146103e357600080fd5b60015460008054604080517f70a082310000000000000000000000000000000000000000000000000000000081523060048201529051600160a060020a039485169463a9059cbb9493169285926370a082319260248083019360209383900390910190829087803b15801561045757600080fd5b505af115801561046b573d6000803e3d6000fd5b505050506040513d602081101561048157600080fd5b5051604080517c010000000000000000000000000000000000000000000000000000000063ffffffff8616028152600160a060020a039093166004840152602483019190915251604480830192600092919082900301818387803b1580156104e857600080fd5b505af11580156104fc573d6000803e3d6000fd5b50506040805142815290517fa1ea9b09ea114021983e9ecf71cf2ffddfd80f5cb4f925e5bf24f9bdb5e55fde9350908190036020019150a1600054600160a060020a0316ff5b3360009081526002602052604081206003015460ff161561056257600080fd5b336000908152600260205260408120541161057c57600080fd5b50604080516c01000000000000000000000000600160a060020a0386160281526014810183905260348101849052815190819003605401902060008181526004602052919091206001015460ff16156105d457600080fd5b6000818152600460205260409020541515610680576105f33384610a07565b15156105fe57600080fd5b600081815260046020908152604091829020428082556001909101805474ffffffffffffffffffffffffffffffffffffffff00191633610100021790558251908152915185928592600160a060020a038916927f65546c3bc3a77ffc91667da85018004299542e28a511328cfb4b3f86974902ee9281900390910190a46107a5565b6000818152600460205260409020600101546101009004600160a060020a031633146106ab57600080fd5b60055460008281526004602052604090205442910111156106cb57600080fd5b600154604080517fa9059cbb000000000000000000000000000000000000000000000000000000008152600160a060020a038781166004830152602482018790529151919092169163a9059cbb91604480830192600092919082900301818387803b15801561073957600080fd5b505af115801561074d573d6000803e3d6000fd5b5050506000828152600460205260408082206001908101805460ff19169091179055518592508491600160a060020a038816917f731af16374848c2c73a6154fd410cb421138e7db45c5a904e5a475c756faa8d99190a45b50505050565b600054600160a060020a031633146107c257600080fd5b60008054604051600160a060020a03909116917ff8df31144d9c2f0f6b59d69b8b98abd5459d07f2742c4df920b25aae33c6482091a26000805473ffffffffffffffffffffffffffffffffffffffff19169055565b600054600160a060020a031681565b600054600160a060020a0316331461083d57600080fd5b600160a060020a038216600081815260026020526040808220849055518392917fef9c668177207fb68ca5e3894a1efacebb659762b27a737fde58ceebc4f30ad391a35050565b6004602052600090815260409020805460019091015460ff8116906101009004600160a060020a031683565b33600090815260026020526040812054116108ca57600080fd5b600160a060020a038116600090815260026020526040812054116108ed57600080fd5b600160a060020a038116600081815260026020526040808220600301805460ff19166001179055517fdf4868d2f39f6ab9f41b92c6917da5aec882c461ce7316bb62076865108502bd9190a250565b600054600160a060020a0316331461095357600080fd5b600555565b60035481565b600054600160a060020a0316331461097557600080fd5b600160a060020a0381166000908152600260205260408120541161099857600080fd5b600160a060020a038116600081815260026020526040808220600301805460ff19169055517fbbe17a7427b5192903e1b3f0f2b6ef8b2a1af9b33e1079faf8f8383f2fb63b539190a250565b600054600160a060020a031633146109fb57600080fd5b610a0481610af9565b50565b600160a060020a038216600090815260026020526040812060010154610a2b610b76565b1115610a7257600160a060020a038316600090815260026020819052604082200155610a55610b76565b600160a060020a0384166000908152600260205260409020600101555b600160a060020a0383166000908152600260208190526040909120015482810110801590610ac05750600160a060020a03831660009081526002602081905260409091208054910154830111155b15610aef5750600160a060020a0382166000908152600260208190526040909120018054820190556001610af3565b5060005b92915050565b600160a060020a0381161515610b0e57600080fd5b60008054604051600160a060020a03808516939216917f8be0079c531659141344cd1fd0a4f28419497f9722a3daafe3b4186f6b6457e091a36000805473ffffffffffffffffffffffffffffffffffffffff1916600160a060020a0392909216919091179055565b620151804204905600a165627a7a72305820e7c887d3422c4f9a9a340d62d676e86f8c6e9ca6019825f49e43b298b4996cb50029",
  "source": "pragma solidity ^0.4.23;\n\n\nimport \"./SNMMasterchain.sol\";\nimport \"zeppelin-solidity/contracts/ownership/Ownable.sol\";\n\n\ncontract SimpleGatekeeperWithLimitLive is Ownable {\n\n    using SafeMath for uint256;\n\n    SNMMasterchain token;\n\n    struct Keeper {\n        uint256 dayLimit;\n        uint256 lastDay;\n        uint256 spentToday;\n        bool frozen;\n    }\n\n    struct TransactionState {\n        uint256 commitTS;\n        bool paid;\n        address keeper;\n    }\n\n    mapping(address => Keeper) public keepers;\n\n    uint256 public transactionAmount = 0;\n\n    mapping(bytes32 => TransactionState) public paid;\n\n    uint256 freezingTime;\n\n    constructor(address _token, uint256 _freezingTime) public {\n        token = SNMMasterchain(_token);\n        owner = msg.sender;\n        freezingTime = _freezingTime;\n    }\n\n    event PayinTx(address indexed from, uint256 indexed txNumber, uint256 indexed value);\n    event CommitTx(address indexed from, uint256 indexed txNumber, uint256 indexed value, uint commitTimestamp);\n    event PayoutTx(address indexed from, uint256 indexed txNumber, uint256 indexed value);\n    event Suicide(uint block);\n\n    event LimitChanged(address indexed keeper, uint256 indexed dayLimit);\n    event KeeperFreezed(address indexed keeper);\n    event KeeperUnfreezed(address indexed keeper);\n\n    function ChangeKeeperLimit(address _keeper, uint256 _limit) public onlyOwner {\n        keepers[_keeper].dayLimit = _limit;\n        emit LimitChanged(_keeper, _limit);\n    }\n\n    function FreezeKeeper(address _keeper) public {\n        // check access of sender\n        require(keepers[msg.sender].dayLimit > 0);\n        // check that freezing keeper has limit\n        require(keepers[_keeper].dayLimit > 0);\n        keepers[_keeper].frozen = true;\n        emit KeeperFreezed(_keeper);\n    }\n\n    function UnfreezeKeeper(address _keeper) public onlyOwner {\n        require(keepers[_keeper].dayLimit > 0);\n        keepers[_keeper].frozen = false;\n        emit KeeperUnfreezed(_keeper);\n    }\n\n    function Payin(uint256 _value) public {\n        token.transferFrom(msg.sender, this, _value);\n        transactionAmount = transactionAmount + 1;\n        emit PayinTx(msg.sender, transactionAmount, _value);\n    }\n\n    function Payout(address _to, uint256 _value, uint256 _txNumber) public {\n        // check that keeper is not frozen\n        require(!keepers[msg.sender].frozen);\n        require(keepers[msg.sender].dayLimit > 0);\n\n        bytes32 txHash = keccak256(_to, _txNumber, _value);\n\n        // check that transaction is not paid\n        require(!paid[txHash].paid);\n\n        if (paid[txHash].commitTS == 0) {\n            // check daylimit\n            require(underLimit(msg.sender, _value));\n            paid[txHash].commitTS = block.timestamp;\n            paid[txHash].keeper = msg.sender;\n            emit CommitTx(_to, _txNumber, _value, block.timestamp);\n        } else {\n            require(paid[txHash].keeper == msg.sender);\n            require(paid[txHash].commitTS + freezingTime <= block.timestamp);\n            token.transfer(_to, _value);\n            paid[txHash].paid = true;\n            emit PayoutTx(_to, _txNumber, _value);\n        }\n    }\n\n    function SetFreezingTime(uint256 _freezingTime) public onlyOwner {\n        freezingTime = _freezingTime;\n    }\n\n    function GetFreezingTime() public view returns (uint256) {\n        return freezingTime;\n    }\n\n    function underLimit(address _keeper, uint256 _value) internal returns (bool) {\n        // reset the spend limit if we're on a different day to last time.\n        if (today() > keepers[_keeper].lastDay) {\n            keepers[_keeper].spentToday = 0;\n            keepers[_keeper].lastDay = today();\n        }\n        // check to see if there's enough left - if so, subtract and return true.\n        // overflow protection                    // dailyLimit check\n        if (keepers[_keeper].spentToday + _value >= keepers[_keeper].spentToday &&\n        keepers[_keeper].spentToday + _value <= keepers[_keeper].dayLimit) {\n            keepers[_keeper].spentToday += _value;\n            return true;\n        }\n        return false;\n    }\n\n    function today() private view returns (uint256) {\n        // solium-disable-next-line security/no-block-members\n        return block.timestamp / 1 days;\n    }\n\n    function kill() public onlyOwner {\n        token.transfer(owner, token.balanceOf(address(this)));\n        emit Suicide(block.timestamp);\n        // solium-disable-line security/no-block-members\n        selfdestruct(owner);\n    }\n\n}\n",
  "sourcePath": "contracts/SimpleGatekeeperWithLimitLive.sol",
  "compiler": {
    "name": "solc",
    "version": "0.4.24+commit.e67f0147.Emscripten.clang"
  },
  "schemaVersion": "2.0.1",
  "updatedAt": "2018-12-06T13:25:10.544Z"
}