{
  "contractName": "SNMMasterchain",
  "abi": [
    {
      "constant": true,
      "inputs": [],
      "name": "name",
      "outputs": [
        {
          "name": "",
          "type": "string"
        }
      ],
      "payable": false,
      "stateMutability": "view",
      "type": "function"
    },
    {
      "constant": true,
      "inputs": [],
      "name": "totalSupply",
      "outputs": [
        {
          "name": "",
          "type": "uint256"
        }
      ],
      "payable": false,
      "stateMutability": "view",
      "type": "function"
    },
    {
      "constant": true,
      "inputs": [],
      "name": "decimals",
      "outputs": [
        {
          "name": "",
          "type": "uint256"
        }
      ],
      "payable": false,
      "stateMutability": "view",
      "type": "function"
    },
    {
      "constant": true,
      "inputs": [],
      "name": "ico",
      "outputs": [
        {
          "name": "",
          "type": "address"
        }
      ],
      "payable": false,
      "stateMutability": "view",
      "type": "function"
    },
    {
      "constant": true,
      "inputs": [
        {
          "name": "_owner",
          "type": "address"
        }
      ],
      "name": "balanceOf",
      "outputs": [
        {
          "name": "balance",
          "type": "uint256"
        }
      ],
      "payable": false,
      "stateMutability": "view",
      "type": "function"
    },
    {
      "constant": true,
      "inputs": [],
      "name": "symbol",
      "outputs": [
        {
          "name": "",
          "type": "string"
        }
      ],
      "payable": false,
      "stateMutability": "view",
      "type": "function"
    },
    {
      "constant": true,
      "inputs": [],
      "name": "tokensAreFrozen",
      "outputs": [
        {
          "name": "",
          "type": "bool"
        }
      ],
      "payable": false,
      "stateMutability": "view",
      "type": "function"
    },
    {
      "constant": true,
      "inputs": [
        {
          "name": "_owner",
          "type": "address"
        },
        {
          "name": "_spender",
          "type": "address"
        }
      ],
      "name": "allowance",
      "outputs": [
        {
          "name": "remaining",
          "type": "uint256"
        }
      ],
      "payable": false,
      "stateMutability": "view",
      "type": "function"
    },
    {
      "inputs": [
        {
          "name": "_ico",
          "type": "address"
        }
      ],
      "payable": false,
      "stateMutability": "nonpayable",
      "type": "constructor"
    },
    {
      "anonymous": false,
      "inputs": [
        {
          "indexed": true,
          "name": "owner",
          "type": "address"
        },
        {
          "indexed": true,
          "name": "spender",
          "type": "address"
        },
        {
          "indexed": false,
          "name": "value",
          "type": "uint256"
        }
      ],
      "name": "Approval",
      "type": "event"
    },
    {
      "anonymous": false,
      "inputs": [
        {
          "indexed": true,
          "name": "from",
          "type": "address"
        },
        {
          "indexed": true,
          "name": "to",
          "type": "address"
        },
        {
          "indexed": false,
          "name": "value",
          "type": "uint256"
        }
      ],
      "name": "Transfer",
      "type": "event"
    },
    {
      "constant": false,
      "inputs": [
        {
          "name": "_holder",
          "type": "address"
        },
        {
          "name": "_value",
          "type": "uint256"
        }
      ],
      "name": "mint",
      "outputs": [],
      "payable": false,
      "stateMutability": "nonpayable",
      "type": "function"
    },
    {
      "constant": false,
      "inputs": [],
      "name": "defrost",
      "outputs": [],
      "payable": false,
      "stateMutability": "nonpayable",
      "type": "function"
    },
    {
      "constant": false,
      "inputs": [
        {
          "name": "_to",
          "type": "address"
        },
        {
          "name": "_value",
          "type": "uint256"
        }
      ],
      "name": "transfer",
      "outputs": [],
      "payable": false,
      "stateMutability": "nonpayable",
      "type": "function"
    },
    {
      "constant": false,
      "inputs": [
        {
          "name": "_from",
          "type": "address"
        },
        {
          "name": "_to",
          "type": "address"
        },
        {
          "name": "_value",
          "type": "uint256"
        }
      ],
      "name": "transferFrom",
      "outputs": [],
      "payable": false,
      "stateMutability": "nonpayable",
      "type": "function"
    },
    {
      "constant": false,
      "inputs": [
        {
          "name": "_spender",
          "type": "address"
        },
        {
          "name": "_value",
          "type": "uint256"
        }
      ],
      "name": "approve",
      "outputs": [],
      "payable": false,
      "stateMutability": "nonpayable",
      "type": "function"
    }
  ],
  "bytecode": "0x60c0604052600a60808190527f534f4e4d20546f6b656e0000000000000000000000000000000000000000000060a090815261003e91600391906100f2565b506040805180820190915260038082527f534e4d00000000000000000000000000000000000000000000000000000000006020909201918252610083916004916100f2565b5060126005556006805460a060020a60ff021916740100000000000000000000000000000000000000001790553480156100bc57600080fd5b506040516020806109e5833981016040525160068054600160a060020a031916600160a060020a0390921691909117905561018d565b828054600181600116156101000203166002900490600052602060002090601f016020900481019282601f1061013357805160ff1916838001178555610160565b82800160010185558215610160579182015b82811115610160578251825591602001919060010190610145565b5061016c929150610170565b5090565b61018a91905b8082111561016c5760008155600101610176565b90565b6108498061019c6000396000f3006080604052600436106100c45763ffffffff7c010000000000000000000000000000000000000000000000000000000060003504166306fdde0381146100c9578063095ea7b31461015357806318160ddd1461017957806323b872dd146101a0578063313ce567146101ca57806340c10f19146101df5780635d4522011461020357806370a082311461023457806395d89b4114610255578063a9059cbb1461026a578063ca67065f1461028e578063dd62ed3e146102b7578063f21cdf6f146102de575b600080fd5b3480156100d557600080fd5b506100de6102f3565b6040805160208082528351818301528351919283929083019185019080838360005b83811015610118578181015183820152602001610100565b50505050905090810190601f1680156101455780820380516001836020036101000a031916815260200191505b509250505060405180910390f35b34801561015f57600080fd5b50610177600160a060020a0360043516602435610381565b005b34801561018557600080fd5b5061018e6103b7565b60408051918252519081900360200190f35b3480156101ac57600080fd5b50610177600160a060020a03600435811690602435166044356103bd565b3480156101d657600080fd5b5061018e6103f5565b3480156101eb57600080fd5b50610177600160a060020a03600435166024356103fb565b34801561020f57600080fd5b50610218610499565b60408051600160a060020a039092168252519081900360200190f35b34801561024057600080fd5b5061018e600160a060020a03600435166104a8565b34801561026157600080fd5b506100de6104c3565b34801561027657600080fd5b50610177600160a060020a036004351660243561051e565b34801561029a57600080fd5b506102a3610550565b604080519115158252519081900360200190f35b3480156102c357600080fd5b5061018e600160a060020a0360043581169060243516610571565b3480156102ea57600080fd5b5061017761059c565b6003805460408051602060026001851615610100026000190190941693909304601f810184900484028201840190925281815292918301828280156103795780601f1061034e57610100808354040283529160200191610379565b820191906000526020600020905b81548152906001019060200180831161035c57829003601f168201915b505050505081565b60065474010000000000000000000000000000000000000000900460ff16156103a957600080fd5b6103b382826105d3565b5050565b60005481565b60065474010000000000000000000000000000000000000000900460ff16156103e557600080fd5b6103f0838383610635565b505050565b60055481565b600654600160a060020a0316331461041257600080fd5b80151561041e57600080fd5b6000546b016f44a83aab6c233c000000908201111561043c57600080fd5b600160a060020a0382166000818152600160209081526040808320805486019055825485018355805185815290517fddf252ad1be2c89b69c2b068fc378daa952ba7f163c4a11628f55a4df523b3ef929181900390910190a35050565b600654600160a060020a031681565b600160a060020a031660009081526001602052604090205490565b6004805460408051602060026001851615610100026000190190941693909304601f810184900484028201840190925281815292918301828280156103795780601f1061034e57610100808354040283529160200191610379565b60065474010000000000000000000000000000000000000000900460ff161561054657600080fd5b6103b3828261073c565b60065474010000000000000000000000000000000000000000900460ff1681565b600160a060020a03918216600090815260026020908152604080832093909416825291909152205490565b600654600160a060020a031633146105b357600080fd5b6006805474ff000000000000000000000000000000000000000019169055565b336000818152600260209081526040808320600160a060020a03871680855290835292819020859055805185815290519293927f8c5be1e5ebec7d5bd14f71427d1e84f3dd0314c0f7b2291e5b200ac8c7c3b925929181900390910190a35050565b600160a060020a03808416600090815260026020908152604080832033845282528083205493861683526001909152902054610677908363ffffffff6107f816565b600160a060020a0380851660009081526001602052604080822093909355908616815220546106ac908363ffffffff61080b16565b600160a060020a0385166000908152600160205260409020556106d5818363ffffffff61080b16565b600160a060020a03808616600081815260026020908152604080832033845282529182902094909455805186815290519287169391927fddf252ad1be2c89b69c2b068fc378daa952ba7f163c4a11628f55a4df523b3ef929181900390910190a350505050565b6040604436101561074c57600080fd5b3360009081526001602052604090205461076c908363ffffffff61080b16565b3360009081526001602052604080822092909255600160a060020a0385168152205461079e908363ffffffff6107f816565b600160a060020a0384166000818152600160209081526040918290209390935580518581529051919233927fddf252ad1be2c89b69c2b068fc378daa952ba7f163c4a11628f55a4df523b3ef9281900390910190a3505050565b8181018281101561080557fe5b92915050565b60008282111561081757fe5b509003905600a165627a7a723058204500c0d8f5bbdf8d7c79234cb49c5740cc4a9114985c151434c7210e5156ef470029",
  "source": "pragma solidity ^0.4.11;\nimport \"zeppelin-solidity/contracts/math/SafeMath.sol\";\n\ncontract ERC20BasicDeployed {\n  uint public totalSupply;\n  function balanceOf(address who) constant returns (uint);\n  function transfer(address to, uint value);\n  event Transfer(address indexed from, address indexed to, uint value);\n}\n\ncontract BasicTokenDeployed is ERC20BasicDeployed {\n  using SafeMath for uint;\n\n  mapping(address => uint) balances;\n\n  modifier onlyPayloadSize(uint size) {\n     if(msg.data.length < size + 4) {\n       throw;\n     }\n     _;\n  }\n\n  function transfer(address _to, uint _value) onlyPayloadSize(2 * 32) {\n    balances[msg.sender] = balances[msg.sender].sub(_value);\n    balances[_to] = balances[_to].add(_value);\n    Transfer(msg.sender, _to, _value);\n  }\n\n  function balanceOf(address _owner) constant returns (uint balance) {\n    return balances[_owner];\n  }\n\n}\n\ncontract ERC20Deployed is ERC20BasicDeployed {\n  function allowance(address owner, address spender) constant returns (uint);\n  function transferFrom(address from, address to, uint value);\n  function approve(address spender, uint value);\n  event Approval(address indexed owner, address indexed spender, uint value);\n}\n\ncontract StandardTokenDeployed is BasicTokenDeployed, ERC20Deployed {\n\n  mapping (address => mapping (address => uint)) allowed;\n\n  function transferFrom(address _from, address _to, uint _value) {\n    var _allowance = allowed[_from][msg.sender];\n    balances[_to] = balances[_to].add(_value);\n    balances[_from] = balances[_from].sub(_value);\n    allowed[_from][msg.sender] = _allowance.sub(_value);\n    Transfer(_from, _to, _value);\n  }\n\n  function approve(address _spender, uint _value) {\n    allowed[msg.sender][_spender] = _value;\n    Approval(msg.sender, _spender, _value);\n  }\n\n  function allowance(address _owner, address _spender) constant returns (uint remaining) {\n    return allowed[_owner][_spender];\n  }\n\n}\n\ncontract SNMMasterchain  is StandardTokenDeployed {\n  string public name = \"SONM Token\";\n  string public symbol = \"SNM\";\n  uint public decimals = 18;\n  uint constant TOKEN_LIMIT = 444 * 1e6 * 1e18;\n  address public ico;\n\n  // We block token transfers until ICO is finished.\n  bool public tokensAreFrozen = true;\n\n  function SNMMasterchain(address _ico) {\n    ico = _ico;\n  }\n\n  // Mint few tokens and transefer them to some address.\n  function mint(address _holder, uint _value) external {\n    require(msg.sender == ico);\n    require(_value != 0);\n    require(totalSupply + _value <= TOKEN_LIMIT);\n\n    balances[_holder] += _value;\n    totalSupply += _value;\n    Transfer(0x0, _holder, _value);\n  }\n\n\n  // Allow token transfer.\n  function defrost() external {\n    require(msg.sender == ico);\n    tokensAreFrozen = false;\n  }\n\n  function transfer(address _to, uint _value) public {\n    require(!tokensAreFrozen);\n    super.transfer(_to, _value);\n  }\n\n\n  function transferFrom(address _from, address _to, uint _value) public {\n    require(!tokensAreFrozen);\n    super.transferFrom(_from, _to, _value);\n  }\n\n\n  function approve(address _spender, uint _value) public {\n    require(!tokensAreFrozen);\n    super.approve(_spender, _value);\n  }\n}\n",
  "sourcePath": "contracts/SNMMasterchain.sol",
  "compiler": {
    "name": "solc",
    "version": "0.4.24+commit.e67f0147.Emscripten.clang"
  },
  "schemaVersion": "2.0.1",
  "updatedAt": "2018-12-19T16:23:22.523Z"
}