{
  "contractName": "SimpleGatekeeperWithLimit",
  "abi": [
    {
      "constant": true,
      "inputs": [
        {
          "name": "",
          "type": "address"
        }
      ],
      "name": "keepers",
      "outputs": [
        {
          "name": "dayLimit",
          "type": "uint256"
        },
        {
          "name": "lastDay",
          "type": "uint256"
        },
        {
          "name": "spentToday",
          "type": "uint256"
        },
        {
          "name": "frozen",
          "type": "bool"
        }
      ],
      "payable": false,
      "stateMutability": "view",
      "type": "function"
    },
    {
      "constant": false,
      "inputs": [],
      "name": "renounceOwnership",
      "outputs": [],
      "payable": false,
      "stateMutability": "nonpayable",
      "type": "function"
    },
    {
      "constant": true,
      "inputs": [],
      "name": "owner",
      "outputs": [
        {
          "name": "",
          "type": "address"
        }
      ],
      "payable": false,
      "stateMutability": "view",
      "type": "function"
    },
    {
      "constant": true,
      "inputs": [
        {
          "name": "",
          "type": "bytes32"
        }
      ],
      "name": "paid",
      "outputs": [
        {
          "name": "commitTS",
          "type": "uint256"
        },
        {
          "name": "paid",
          "type": "bool"
        },
        {
          "name": "keeper",
          "type": "address"
        }
      ],
      "payable": false,
      "stateMutability": "view",
      "type": "function"
    },
    {
      "constant": true,
      "inputs": [],
      "name": "transactionAmount",
      "outputs": [
        {
          "name": "",
          "type": "uint256"
        }
      ],
      "payable": false,
      "stateMutability": "view",
      "type": "function"
    },
    {
      "constant": true,
      "inputs": [],
      "name": "commissionBalance",
      "outputs": [
        {
          "name": "",
          "type": "uint256"
        }
      ],
      "payable": false,
      "stateMutability": "view",
      "type": "function"
    },
    {
      "constant": true,
      "inputs": [],
      "name": "commission",
      "outputs": [
        {
          "name": "",
          "type": "uint256"
        }
      ],
      "payable": false,
      "stateMutability": "view",
      "type": "function"
    },
    {
      "constant": false,
      "inputs": [
        {
          "name": "_newOwner",
          "type": "address"
        }
      ],
      "name": "transferOwnership",
      "outputs": [],
      "payable": false,
      "stateMutability": "nonpayable",
      "type": "function"
    },
    {
      "inputs": [
        {
          "name": "_token",
          "type": "address"
        },
        {
          "name": "_freezingTime",
          "type": "uint256"
        }
      ],
      "payable": false,
      "stateMutability": "nonpayable",
      "type": "constructor"
    },
    {
      "anonymous": false,
      "inputs": [
        {
          "indexed": true,
          "name": "from",
          "type": "address"
        },
        {
          "indexed": true,
          "name": "txNumber",
          "type": "uint256"
        },
        {
          "indexed": true,
          "name": "value",
          "type": "uint256"
        }
      ],
      "name": "PayinTx",
      "type": "event"
    },
    {
      "anonymous": false,
      "inputs": [
        {
          "indexed": true,
          "name": "from",
          "type": "address"
        },
        {
          "indexed": true,
          "name": "txNumber",
          "type": "uint256"
        },
        {
          "indexed": true,
          "name": "value",
          "type": "uint256"
        },
        {
          "indexed": false,
          "name": "commitTimestamp",
          "type": "uint256"
        }
      ],
      "name": "CommitTx",
      "type": "event"
    },
    {
      "anonymous": false,
      "inputs": [
        {
          "indexed": true,
          "name": "from",
          "type": "address"
        },
        {
          "indexed": true,
          "name": "txNumber",
          "type": "uint256"
        },
        {
          "indexed": true,
          "name": "value",
          "type": "uint256"
        }
      ],
      "name": "PayoutTx",
      "type": "event"
    },
    {
      "anonymous": false,
      "inputs": [
        {
          "indexed": false,
          "name": "block",
          "type": "uint256"
        }
      ],
      "name": "Suicide",
      "type": "event"
    },
    {
      "anonymous": false,
      "inputs": [
        {
          "indexed": true,
          "name": "keeper",
          "type": "address"
        },
        {
          "indexed": true,
          "name": "dayLimit",
          "type": "uint256"
        }
      ],
      "name": "LimitChanged",
      "type": "event"
    },
    {
      "anonymous": false,
      "inputs": [
        {
          "indexed": true,
          "name": "keeper",
          "type": "address"
        }
      ],
      "name": "KeeperFreezed",
      "type": "event"
    },
    {
      "anonymous": false,
      "inputs": [
        {
          "indexed": true,
          "name": "keeper",
          "type": "address"
        }
      ],
      "name": "KeeperUnfreezed",
      "type": "event"
    },
    {
      "anonymous": false,
      "inputs": [
        {
          "indexed": true,
          "name": "commission",
          "type": "uint256"
        }
      ],
      "name": "CommissionChanged",
      "type": "event"
    },
    {
      "anonymous": false,
      "inputs": [
        {
          "indexed": true,
          "name": "previousOwner",
          "type": "address"
        }
      ],
      "name": "OwnershipRenounced",
      "type": "event"
    },
    {
      "anonymous": false,
      "inputs": [
        {
          "indexed": true,
          "name": "previousOwner",
          "type": "address"
        },
        {
          "indexed": true,
          "name": "newOwner",
          "type": "address"
        }
      ],
      "name": "OwnershipTransferred",
      "type": "event"
    },
    {
      "constant": false,
      "inputs": [
        {
          "name": "_keeper",
          "type": "address"
        },
        {
          "name": "_limit",
          "type": "uint256"
        }
      ],
      "name": "ChangeKeeperLimit",
      "outputs": [],
      "payable": false,
      "stateMutability": "nonpayable",
      "type": "function"
    },
    {
      "constant": false,
      "inputs": [
        {
          "name": "_keeper",
          "type": "address"
        }
      ],
      "name": "FreezeKeeper",
      "outputs": [],
      "payable": false,
      "stateMutability": "nonpayable",
      "type": "function"
    },
    {
      "constant": false,
      "inputs": [
        {
          "name": "_keeper",
          "type": "address"
        }
      ],
      "name": "UnfreezeKeeper",
      "outputs": [],
      "payable": false,
      "stateMutability": "nonpayable",
      "type": "function"
    },
    {
      "constant": false,
      "inputs": [
        {
          "name": "_value",
          "type": "uint256"
        }
      ],
      "name": "Payin",
      "outputs": [],
      "payable": false,
      "stateMutability": "nonpayable",
      "type": "function"
    },
    {
      "constant": false,
      "inputs": [
        {
          "name": "_value",
          "type": "uint256"
        },
        {
          "name": "_target",
          "type": "address"
        }
      ],
      "name": "PayinTargeted",
      "outputs": [],
      "payable": false,
      "stateMutability": "nonpayable",
      "type": "function"
    },
    {
      "constant": false,
      "inputs": [
        {
          "name": "_to",
          "type": "address"
        },
        {
          "name": "_value",
          "type": "uint256"
        },
        {
          "name": "_txNumber",
          "type": "uint256"
        }
      ],
      "name": "Payout",
      "outputs": [],
      "payable": false,
      "stateMutability": "nonpayable",
      "type": "function"
    },
    {
      "constant": false,
      "inputs": [
        {
          "name": "_freezingTime",
          "type": "uint256"
        }
      ],
      "name": "SetFreezingTime",
      "outputs": [],
      "payable": false,
      "stateMutability": "nonpayable",
      "type": "function"
    },
    {
      "constant": true,
      "inputs": [],
      "name": "GetFreezingTime",
      "outputs": [
        {
          "name": "",
          "type": "uint256"
        }
      ],
      "payable": false,
      "stateMutability": "view",
      "type": "function"
    },
    {
      "constant": false,
      "inputs": [
        {
          "name": "_commission",
          "type": "uint256"
        }
      ],
      "name": "SetCommission",
      "outputs": [],
      "payable": false,
      "stateMutability": "nonpayable",
      "type": "function"
    },
    {
      "constant": true,
      "inputs": [],
      "name": "GetCommission",
      "outputs": [
        {
          "name": "",
          "type": "uint256"
        }
      ],
      "payable": false,
      "stateMutability": "view",
      "type": "function"
    },
    {
      "constant": false,
      "inputs": [],
      "name": "TransferCommission",
      "outputs": [],
      "payable": false,
      "stateMutability": "nonpayable",
      "type": "function"
    },
    {
      "constant": false,
      "inputs": [],
      "name": "kill",
      "outputs": [],
      "payable": false,
      "stateMutability": "nonpayable",
      "type": "function"
    }
  ],
  "bytecode": "0x608060405260006003556000600455600060055534801561001f57600080fd5b50604051604080610eea8339810160405280516020909101516000805460018054600160a060020a03909516600160a060020a0319958616179055831633908117909316909217909155600755610e6f8061007b6000396000f3006080604052600436106101115763ffffffff7c010000000000000000000000000000000000000000000000000000000060003504166306d8e8b1811461011657806328f727f01461012d57806336ab802e146101455780633bbd64bc1461016c57806341c0e1b5146101b557806358712633146101ca578063634235fc146101df5780636ea5803114610206578063715018a61461021e5780638da5cb5b14610233578063ad835c0b14610264578063add89bb214610288578063b38ad8e7146102c7578063cc38d7ca146102e8578063d942bffa14610300578063dcf1a9ef14610315578063e14891911461032a578063e3fcd18e1461033f578063e5837a7b14610363578063f2fde38b14610384575b600080fd5b34801561012257600080fd5b5061012b6103a5565b005b34801561013957600080fd5b5061012b600435610473565b34801561015157600080fd5b5061015a610480565b60408051918252519081900360200190f35b34801561017857600080fd5b5061018d600160a060020a0360043516610486565b6040805194855260208501939093528383019190915215156060830152519081900360800190f35b3480156101c157600080fd5b5061012b6104b2565b3480156101d657600080fd5b5061015a610647565b3480156101eb57600080fd5b5061012b600160a060020a036004351660243560443561064d565b34801561021257600080fd5b5061012b6004356108d5565b34801561022a57600080fd5b5061012b61091f565b34801561023f57600080fd5b5061024861098b565b60408051600160a060020a039092168252519081900360200190f35b34801561027057600080fd5b5061012b600160a060020a036004351660243561099a565b34801561029457600080fd5b506102a06004356109f8565b604080519384529115156020840152600160a060020a031682820152519081900360600190f35b3480156102d357600080fd5b5061012b600160a060020a0360043516610a24565b3480156102f457600080fd5b5061012b600435610ab0565b34801561030c57600080fd5b5061015a610acc565b34801561032157600080fd5b5061015a610ad2565b34801561033657600080fd5b5061015a610ad8565b34801561034b57600080fd5b5061012b600435600160a060020a0360243516610ade565b34801561036f57600080fd5b5061012b600160a060020a0360043516610c06565b34801561039057600080fd5b5061012b600160a060020a0360043516610c8c565b600054600160a060020a031633146103bc57600080fd5b60015460008054600554604080517fa9059cbb000000000000000000000000000000000000000000000000000000008152600160a060020a039384166004820152602481019290925251919093169263a9059cbb9260448083019360209390929083900390910190829087803b15801561043557600080fd5b505af1158015610449573d6000803e3d6000fd5b505050506040513d602081101561045f57600080fd5b5051151561046c57600080fd5b6000600555565b61047d8133610ade565b50565b60075490565b600260208190526000918252604090912080546001820154928201546003909201549092919060ff1684565b600054600160a060020a031633146104c957600080fd5b60015460008054604080517f70a082310000000000000000000000000000000000000000000000000000000081523060048201529051600160a060020a039485169463a9059cbb9493169285926370a082319260248083019360209383900390910190829087803b15801561053d57600080fd5b505af1158015610551573d6000803e3d6000fd5b505050506040513d602081101561056757600080fd5b5051604080517c010000000000000000000000000000000000000000000000000000000063ffffffff8616028152600160a060020a03909316600484015260248301919091525160448083019260209291908290030181600087803b1580156105cf57600080fd5b505af11580156105e3573d6000803e3d6000fd5b505050506040513d60208110156105f957600080fd5b5051151561060657600080fd5b6040805142815290517fa1ea9b09ea114021983e9ecf71cf2ffddfd80f5cb4f925e5bf24f9bdb5e55fde9181900360200190a1600054600160a060020a0316ff5b60045490565b3360009081526002602052604081206003015460ff161561066d57600080fd5b336000908152600260205260408120541161068757600080fd5b50604080516c01000000000000000000000000600160a060020a0386160281526014810183905260348101849052815190819003605401902060008181526006602052919091206001015460ff16156106df57600080fd5b600081815260066020526040902054151561078b576106fe3384610cac565b151561070957600080fd5b600081815260066020908152604091829020428082556001909101805474ffffffffffffffffffffffffffffffffffffffff00191633610100021790558251908152915185928592600160a060020a038916927f65546c3bc3a77ffc91667da85018004299542e28a511328cfb4b3f86974902ee9281900390910190a46108cf565b6000818152600660205260409020600101546101009004600160a060020a031633146107b657600080fd5b60075460008281526006602052604090205442910111156107d657600080fd5b600154604080517fa9059cbb000000000000000000000000000000000000000000000000000000008152600160a060020a038781166004830152602482018790529151919092169163a9059cbb9160448083019260209291908290030181600087803b15801561084557600080fd5b505af1158015610859573d6000803e3d6000fd5b505050506040513d602081101561086f57600080fd5b5051151561087c57600080fd5b6000818152600660205260408082206001908101805460ff191690911790555184918491600160a060020a038816917f731af16374848c2c73a6154fd410cb421138e7db45c5a904e5a475c756faa8d991a45b50505050565b600054600160a060020a031633146108ec57600080fd5b600481905560405181907f839e4456845dbc05c7d8638cf0b0976161331b5f9163980d71d9a6444a326c6190600090a250565b600054600160a060020a0316331461093657600080fd5b60008054604051600160a060020a03909116917ff8df31144d9c2f0f6b59d69b8b98abd5459d07f2742c4df920b25aae33c6482091a26000805473ffffffffffffffffffffffffffffffffffffffff19169055565b600054600160a060020a031681565b600054600160a060020a031633146109b157600080fd5b600160a060020a038216600081815260026020526040808220849055518392917fef9c668177207fb68ca5e3894a1efacebb659762b27a737fde58ceebc4f30ad391a35050565b6006602052600090815260409020805460019091015460ff8116906101009004600160a060020a031683565b3360009081526002602052604081205411610a3e57600080fd5b600160a060020a03811660009081526002602052604081205411610a6157600080fd5b600160a060020a038116600081815260026020526040808220600301805460ff19166001179055517fdf4868d2f39f6ab9f41b92c6917da5aec882c461ce7316bb62076865108502bd9190a250565b600054600160a060020a03163314610ac757600080fd5b600755565b60035481565b60055481565b60045481565b6004548211610aec57600080fd5b600154604080517f23b872dd000000000000000000000000000000000000000000000000000000008152336004820152306024820152604481018590529051600160a060020a03909216916323b872dd916064808201926020929091908290030181600087803b158015610b5f57600080fd5b505af1158015610b73573d6000803e3d6000fd5b505050506040513d6020811015610b8957600080fd5b50511515610b9657600080fd5b600380546001019055600454600554610bb49163ffffffff610d9e16565b600555600454610bcb90839063ffffffff610dab16565b600354604051600160a060020a038416907f14312725abbc46ad798bc078b2663e1fcbace97be0247cd177176f3b4df2538e90600090a45050565b600054600160a060020a03163314610c1d57600080fd5b600160a060020a03811660009081526002602052604081205411610c4057600080fd5b600160a060020a038116600081815260026020526040808220600301805460ff19169055517fbbe17a7427b5192903e1b3f0f2b6ef8b2a1af9b33e1079faf8f8383f2fb63b539190a250565b600054600160a060020a03163314610ca357600080fd5b61047d81610dbd565b600160a060020a038216600090815260026020526040812060010154610cd0610e3a565b1115610d1757600160a060020a038316600090815260026020819052604082200155610cfa610e3a565b600160a060020a0384166000908152600260205260409020600101555b600160a060020a0383166000908152600260208190526040909120015482810110801590610d655750600160a060020a03831660009081526002602081905260409091208054910154830111155b15610d945750600160a060020a0382166000908152600260208190526040909120018054820190556001610d98565b5060005b92915050565b81810182811015610d9857fe5b600082821115610db757fe5b50900390565b600160a060020a0381161515610dd257600080fd5b60008054604051600160a060020a03808516939216917f8be0079c531659141344cd1fd0a4f28419497f9722a3daafe3b4186f6b6457e091a36000805473ffffffffffffffffffffffffffffffffffffffff1916600160a060020a0392909216919091179055565b620151804204905600a165627a7a723058203cff4e898fe0b069055c08319c3c3d2db6e51a57270c6d550f468526830d13e20029",
  "source": "pragma solidity ^0.4.23;\n\n\nimport \"zeppelin-solidity/contracts/token/ERC20/StandardToken.sol\";\nimport \"zeppelin-solidity/contracts/ownership/Ownable.sol\";\n\n\ncontract SimpleGatekeeperWithLimit is Ownable {\n\n    using SafeMath for uint256;\n\n    StandardToken token;\n\n    struct Keeper {\n        uint256 dayLimit;\n        uint256 lastDay;\n        uint256 spentToday;\n        bool frozen;\n    }\n\n    struct TransactionState {\n        uint256 commitTS;\n        bool paid;\n        address keeper;\n    }\n\n    mapping(address => Keeper) public keepers;\n\n    uint256 public transactionAmount = 0;\n\n    uint256 public commission = 0;\n\n    uint256 public commissionBalance = 0;\n\n    mapping(bytes32 => TransactionState) public paid;\n\n    uint256 freezingTime;\n\n    constructor(address _token, uint256 _freezingTime) public {\n        token = StandardToken(_token);\n        owner = msg.sender;\n        freezingTime = _freezingTime;\n    }\n\n    event PayinTx(address indexed from, uint256 indexed txNumber, uint256 indexed value);\n    event CommitTx(address indexed from, uint256 indexed txNumber, uint256 indexed value, uint commitTimestamp);\n    event PayoutTx(address indexed from, uint256 indexed txNumber, uint256 indexed value);\n    event Suicide(uint block);\n\n    event LimitChanged(address indexed keeper, uint256 indexed dayLimit);\n    event KeeperFreezed(address indexed keeper);\n    event KeeperUnfreezed(address indexed keeper);\n\n    event CommissionChanged(uint256 indexed commission);\n\n    function ChangeKeeperLimit(address _keeper, uint256 _limit) public onlyOwner {\n        keepers[_keeper].dayLimit = _limit;\n        emit LimitChanged(_keeper, _limit);\n    }\n\n    function FreezeKeeper(address _keeper) public {\n        // check access of sender\n        require(keepers[msg.sender].dayLimit > 0);\n        // check that freezing keeper has limit\n        require(keepers[_keeper].dayLimit > 0);\n        keepers[_keeper].frozen = true;\n        emit KeeperFreezed(_keeper);\n    }\n\n    function UnfreezeKeeper(address _keeper) public onlyOwner {\n        require(keepers[_keeper].dayLimit > 0);\n        keepers[_keeper].frozen = false;\n        emit KeeperUnfreezed(_keeper);\n    }\n\n    function Payin(uint256 _value) public {\n        PayinTargeted(_value, msg.sender);\n    }\n\n    function PayinTargeted(uint256 _value, address _target) public {\n        require(_value > commission);\n        require(token.transferFrom(msg.sender, this, _value));\n        transactionAmount = transactionAmount + 1;\n        commissionBalance = commissionBalance.add(commission);\n        emit PayinTx(_target, transactionAmount,  _value.sub(commission));\n    }\n\n    function Payout(address _to, uint256 _value, uint256 _txNumber) public {\n        // check that keeper is not frozen\n        require(!keepers[msg.sender].frozen);\n        require(keepers[msg.sender].dayLimit > 0);\n\n        bytes32 txHash = keccak256(_to, _txNumber, _value);\n\n        // check that transaction is not paid\n        require(!paid[txHash].paid);\n\n        if (paid[txHash].commitTS == 0) {\n            // check daylimit\n            require(underLimit(msg.sender, _value));\n            paid[txHash].commitTS = block.timestamp;\n            paid[txHash].keeper = msg.sender;\n            emit CommitTx(_to, _txNumber, _value, block.timestamp);\n        } else {\n            require(paid[txHash].keeper == msg.sender);\n            require(paid[txHash].commitTS + freezingTime <= block.timestamp);\n            require(token.transfer(_to, _value));\n            paid[txHash].paid = true;\n            emit PayoutTx(_to, _txNumber, _value);\n        }\n    }\n\n    function SetFreezingTime(uint256 _freezingTime) public onlyOwner {\n        freezingTime = _freezingTime;\n    }\n\n    function GetFreezingTime() public view returns (uint256) {\n        return freezingTime;\n    }\n\n    function SetCommission(uint256 _commission) public onlyOwner {\n        commission = _commission;\n        CommissionChanged(commission);\n    }\n\n    function GetCommission() public view returns (uint256){\n        return commission;\n    }\n\n    function TransferCommission() public onlyOwner {\n        require(token.transfer(owner, commissionBalance));\n        commissionBalance = 0;\n    }\n\n    function underLimit(address _keeper, uint256 _value) internal returns (bool) {\n        // reset the spend limit if we're on a different day to last time.\n        if (today() > keepers[_keeper].lastDay) {\n            keepers[_keeper].spentToday = 0;\n            keepers[_keeper].lastDay = today();\n        }\n        // check to see if there's enough left - if so, subtract and return true.\n        // overflow protection                    // dailyLimit check\n        if (keepers[_keeper].spentToday + _value >= keepers[_keeper].spentToday &&\n        keepers[_keeper].spentToday + _value <= keepers[_keeper].dayLimit) {\n            keepers[_keeper].spentToday += _value;\n            return true;\n        }\n        return false;\n    }\n\n    function today() private view returns (uint256) {\n        // solium-disable-next-line security/no-block-members\n        return block.timestamp / 1 days;\n    }\n\n    function kill() public onlyOwner {\n        require(token.transfer(owner, token.balanceOf(address(this))));\n        emit Suicide(block.timestamp);\n        // solium-disable-line security/no-block-members\n        selfdestruct(owner);\n    }\n\n}\n",
  "sourcePath": "contracts/SimpleGatekeeperWithLimit.sol",
  "compiler": {
    "name": "solc",
    "version": "0.4.24+commit.e67f0147.Emscripten.clang"
  },
  "schemaVersion": "2.0.1",
  "updatedAt": "2018-12-04T13:55:17.225Z"
}